{
  "contractName": "FlightSuretyData",
  "abi": [
    {
      "constant": false,
      "inputs": [],
      "name": "unpause",
      "outputs": [],
      "payable": false,
      "stateMutability": "nonpayable",
      "type": "function"
    },
    {
      "constant": true,
      "inputs": [
        {
          "name": "account",
          "type": "address"
        }
      ],
      "name": "isPauser",
      "outputs": [
        {
          "name": "",
          "type": "bool"
        }
      ],
      "payable": false,
      "stateMutability": "view",
      "type": "function"
    },
    {
      "constant": true,
      "inputs": [],
      "name": "paused",
      "outputs": [
        {
          "name": "",
          "type": "bool"
        }
      ],
      "payable": false,
      "stateMutability": "view",
      "type": "function"
    },
    {
      "constant": false,
      "inputs": [],
      "name": "renouncePauser",
      "outputs": [],
      "payable": false,
      "stateMutability": "nonpayable",
      "type": "function"
    },
    {
      "constant": false,
      "inputs": [],
      "name": "renounceOwnership",
      "outputs": [],
      "payable": false,
      "stateMutability": "nonpayable",
      "type": "function"
    },
    {
      "constant": false,
      "inputs": [
        {
          "name": "account",
          "type": "address"
        }
      ],
      "name": "addPauser",
      "outputs": [],
      "payable": false,
      "stateMutability": "nonpayable",
      "type": "function"
    },
    {
      "constant": false,
      "inputs": [],
      "name": "pause",
      "outputs": [],
      "payable": false,
      "stateMutability": "nonpayable",
      "type": "function"
    },
    {
      "constant": true,
      "inputs": [],
      "name": "owner",
      "outputs": [
        {
          "name": "",
          "type": "address"
        }
      ],
      "payable": false,
      "stateMutability": "view",
      "type": "function"
    },
    {
      "constant": true,
      "inputs": [],
      "name": "isOwner",
      "outputs": [
        {
          "name": "",
          "type": "bool"
        }
      ],
      "payable": false,
      "stateMutability": "view",
      "type": "function"
    },
    {
      "constant": false,
      "inputs": [
        {
          "name": "newOwner",
          "type": "address"
        }
      ],
      "name": "transferOwnership",
      "outputs": [],
      "payable": false,
      "stateMutability": "nonpayable",
      "type": "function"
    },
    {
      "inputs": [],
      "payable": false,
      "stateMutability": "nonpayable",
      "type": "constructor"
    },
    {
      "payable": true,
      "stateMutability": "payable",
      "type": "fallback"
    },
    {
      "anonymous": false,
      "inputs": [
        {
          "indexed": true,
          "name": "contractAddress",
          "type": "address"
        }
      ],
      "name": "Authorized",
      "type": "event"
    },
    {
      "anonymous": false,
      "inputs": [
        {
          "indexed": true,
          "name": "contractAddress",
          "type": "address"
        }
      ],
      "name": "DeAuthorized",
      "type": "event"
    },
    {
      "anonymous": false,
      "inputs": [
        {
          "indexed": true,
          "name": "previousOwner",
          "type": "address"
        },
        {
          "indexed": true,
          "name": "newOwner",
          "type": "address"
        }
      ],
      "name": "OwnershipTransferred",
      "type": "event"
    },
    {
      "anonymous": false,
      "inputs": [
        {
          "indexed": false,
          "name": "account",
          "type": "address"
        }
      ],
      "name": "Paused",
      "type": "event"
    },
    {
      "anonymous": false,
      "inputs": [
        {
          "indexed": false,
          "name": "account",
          "type": "address"
        }
      ],
      "name": "Unpaused",
      "type": "event"
    },
    {
      "anonymous": false,
      "inputs": [
        {
          "indexed": true,
          "name": "account",
          "type": "address"
        }
      ],
      "name": "PauserAdded",
      "type": "event"
    },
    {
      "anonymous": false,
      "inputs": [
        {
          "indexed": true,
          "name": "account",
          "type": "address"
        }
      ],
      "name": "PauserRemoved",
      "type": "event"
    },
    {
      "anonymous": false,
      "inputs": [
        {
          "indexed": true,
          "name": "airline",
          "type": "address"
        },
        {
          "indexed": false,
          "name": "name",
          "type": "string"
        },
        {
          "indexed": true,
          "name": "by",
          "type": "address"
        }
      ],
      "name": "AirlineRegistered",
      "type": "event"
    },
    {
      "anonymous": false,
      "inputs": [
        {
          "indexed": true,
          "name": "airline",
          "type": "address"
        },
        {
          "indexed": false,
          "name": "value",
          "type": "uint256"
        }
      ],
      "name": "AirlineFunded",
      "type": "event"
    },
    {
      "anonymous": false,
      "inputs": [
        {
          "indexed": true,
          "name": "customer",
          "type": "address"
        },
        {
          "indexed": false,
          "name": "airline",
          "type": "address"
        },
        {
          "indexed": false,
          "name": "flight",
          "type": "string"
        },
        {
          "indexed": false,
          "name": "timestamp",
          "type": "uint256"
        },
        {
          "indexed": false,
          "name": "status",
          "type": "uint8"
        }
      ],
      "name": "PolicyPurchased",
      "type": "event"
    },
    {
      "anonymous": false,
      "inputs": [
        {
          "indexed": true,
          "name": "airline",
          "type": "address"
        },
        {
          "indexed": false,
          "name": "flight",
          "type": "string"
        },
        {
          "indexed": false,
          "name": "timestamp",
          "type": "uint256"
        },
        {
          "indexed": false,
          "name": "status",
          "type": "uint8"
        }
      ],
      "name": "FlightStatusUpdate",
      "type": "event"
    },
    {
      "anonymous": false,
      "inputs": [
        {
          "indexed": true,
          "name": "airline",
          "type": "address"
        },
        {
          "indexed": false,
          "name": "name",
          "type": "string"
        },
        {
          "indexed": false,
          "name": "timestamp",
          "type": "uint256"
        }
      ],
      "name": "FlightRegistered",
      "type": "event"
    },
    {
      "anonymous": false,
      "inputs": [
        {
          "indexed": true,
          "name": "customer",
          "type": "address"
        },
        {
          "indexed": false,
          "name": "payout",
          "type": "uint256"
        }
      ],
      "name": "InsuranceCredit",
      "type": "event"
    },
    {
      "anonymous": false,
      "inputs": [
        {
          "indexed": true,
          "name": "customer",
          "type": "address"
        },
        {
          "indexed": false,
          "name": "amount",
          "type": "uint256"
        }
      ],
      "name": "Payout",
      "type": "event"
    },
    {
      "constant": false,
      "inputs": [
        {
          "name": "contractAddress",
          "type": "address"
        }
      ],
      "name": "authorizeContract",
      "outputs": [],
      "payable": false,
      "stateMutability": "nonpayable",
      "type": "function"
    },
    {
      "constant": false,
      "inputs": [
        {
          "name": "contractAddress",
          "type": "address"
        }
      ],
      "name": "deAuthorizeContract",
      "outputs": [],
      "payable": false,
      "stateMutability": "nonpayable",
      "type": "function"
    },
    {
      "constant": false,
      "inputs": [
        {
          "name": "caller",
          "type": "address"
        }
      ],
      "name": "isAirlineRegistered",
      "outputs": [
        {
          "name": "",
          "type": "bool"
        }
      ],
      "payable": false,
      "stateMutability": "nonpayable",
      "type": "function"
    },
    {
      "constant": true,
      "inputs": [],
      "name": "isOperational",
      "outputs": [
        {
          "name": "",
          "type": "bool"
        }
      ],
      "payable": false,
      "stateMutability": "view",
      "type": "function"
    },
    {
      "constant": false,
      "inputs": [
        {
          "name": "airline",
          "type": "address"
        },
        {
          "name": "name",
          "type": "string"
        }
      ],
      "name": "registerAirline",
      "outputs": [],
      "payable": true,
      "stateMutability": "payable",
      "type": "function"
    },
    {
      "constant": false,
      "inputs": [
        {
          "name": "airline",
          "type": "address"
        },
        {
          "name": "status",
          "type": "bool"
        }
      ],
      "name": "setAirlineFundingStatus",
      "outputs": [],
      "payable": false,
      "stateMutability": "nonpayable",
      "type": "function"
    },
    {
      "constant": false,
      "inputs": [
        {
          "name": "airline",
          "type": "address"
        }
      ],
      "name": "getAirlineBalance",
      "outputs": [
        {
          "name": "",
          "type": "uint256"
        }
      ],
      "payable": false,
      "stateMutability": "nonpayable",
      "type": "function"
    },
    {
      "constant": false,
      "inputs": [
        {
          "name": "airline",
          "type": "address"
        },
        {
          "name": "flightName",
          "type": "string"
        },
        {
          "name": "timestamp",
          "type": "uint256"
        },
        {
          "name": "policyKey",
          "type": "uint256"
        },
        {
          "name": "flightKey",
          "type": "uint256"
        }
      ],
      "name": "registerFlight",
      "outputs": [],
      "payable": false,
      "stateMutability": "nonpayable",
      "type": "function"
    },
    {
      "constant": false,
      "inputs": [
        {
          "name": "flight",
          "type": "uint256"
        }
      ],
      "name": "getAirline",
      "outputs": [
        {
          "name": "",
          "type": "address"
        }
      ],
      "payable": false,
      "stateMutability": "nonpayable",
      "type": "function"
    },
    {
      "constant": false,
      "inputs": [
        {
          "name": "customer",
          "type": "address"
        },
        {
          "name": "policyKey",
          "type": "uint256"
        },
        {
          "name": "flightKey",
          "type": "uint256"
        }
      ],
      "name": "buy",
      "outputs": [],
      "payable": true,
      "stateMutability": "payable",
      "type": "function"
    },
    {
      "constant": false,
      "inputs": [
        {
          "name": "policyKey",
          "type": "uint256"
        },
        {
          "name": "statusCode",
          "type": "uint8"
        }
      ],
      "name": "setFlightStatus",
      "outputs": [],
      "payable": false,
      "stateMutability": "nonpayable",
      "type": "function"
    },
    {
      "constant": true,
      "inputs": [
        {
          "name": "policyKey",
          "type": "uint256"
        }
      ],
      "name": "getFlightStatus",
      "outputs": [
        {
          "name": "",
          "type": "uint8"
        }
      ],
      "payable": false,
      "stateMutability": "view",
      "type": "function"
    },
    {
      "constant": false,
      "inputs": [
        {
          "name": "policyKey",
          "type": "uint256"
        },
        {
          "name": "status",
          "type": "uint8"
        },
        {
          "name": "multiple",
          "type": "uint256"
        }
      ],
      "name": "creditInsurees",
      "outputs": [],
      "payable": false,
      "stateMutability": "nonpayable",
      "type": "function"
    },
    {
      "constant": false,
      "inputs": [
        {
          "name": "customer",
          "type": "address"
        }
      ],
      "name": "pay",
      "outputs": [],
      "payable": true,
      "stateMutability": "payable",
      "type": "function"
    },
    {
      "constant": false,
      "inputs": [
        {
          "name": "airline",
          "type": "address"
        }
      ],
      "name": "fund",
      "outputs": [
        {
          "name": "",
          "type": "uint256"
        }
      ],
      "payable": true,
      "stateMutability": "payable",
      "type": "function"
    },
    {
      "constant": true,
      "inputs": [
        {
          "name": "customer",
          "type": "address"
        }
      ],
      "name": "getCreditBalance",
      "outputs": [
        {
          "name": "",
          "type": "uint256"
        }
      ],
      "payable": false,
      "stateMutability": "view",
      "type": "function"
    }
  ],
  "bytecode": "0x60806040523480156200001157600080fd5b5062000023336200010060201b60201c565b6000600160006101000a81548160ff021916908315150217905550336001806101000a81548173ffffffffffffffffffffffffffffffffffffffff021916908373ffffffffffffffffffffffffffffffffffffffff1602179055506001809054906101000a900473ffffffffffffffffffffffffffffffffffffffff1673ffffffffffffffffffffffffffffffffffffffff16600073ffffffffffffffffffffffffffffffffffffffff167f8be0079c531659141344cd1fd0a4f28419497f9722a3daafe3b4186f6b6457e060405160405180910390a362000325565b6200011b8160006200016160201b62003ef01790919060201c565b8073ffffffffffffffffffffffffffffffffffffffff167f6719d08c1888103bea251a4ed56406bd0c3e69723c8a1686e017e7bbe159b6f860405160405180910390a250565b6200017382826200024560201b60201c565b15620001e7576040517f08c379a000000000000000000000000000000000000000000000000000000000815260040180806020018281038252601f8152602001807f526f6c65733a206163636f756e7420616c72656164792068617320726f6c650081525060200191505060405180910390fd5b60018260000160008373ffffffffffffffffffffffffffffffffffffffff1673ffffffffffffffffffffffffffffffffffffffff16815260200190815260200160002060006101000a81548160ff0219169083151502179055505050565b60008073ffffffffffffffffffffffffffffffffffffffff168273ffffffffffffffffffffffffffffffffffffffff161415620002ce576040517f08c379a00000000000000000000000000000000000000000000000000000000081526004018080602001828103825260228152602001806200456c6022913960400191505060405180910390fd5b8260000160008373ffffffffffffffffffffffffffffffffffffffff1673ffffffffffffffffffffffffffffffffffffffff16815260200190815260200160002060009054906101000a900460ff16905092915050565b61423780620003356000396000f3fe6080604052600436106101815760003560e01c80638456cb59116100d1578063c7e7da891161008a578063d6e1c18911610064578063d6e1c189146108fd578063e81f169414610978578063ee38a749146109d5578063f2fde38b14610a6e57610181565b8063c7e7da8914610834578063caab72c214610886578063cd905dff146108ce57610181565b80638456cb591461068957806389208e72146106a05780638da5cb5b146107055780638f32d59b1461075c578063a1a5faf11461078b578063a59ac6dd146107dc57610181565b806346fbf68e1161013e5780636add1b3f116101185780636add1b3f146105a55780636ef8d66d1461060a578063715018a61461062157806382dc1ec41461063857610181565b806346fbf68e146104bc5780635c975abb1461052557806367561d931461055457610181565b8063010c5c971461027f5780630c11dedd146102e8578063230244081461032c5780632a7e13f714610384578063398ed067146103e15780633f4ba83a146104a5575b600160009054906101000a900460ff1615610204576040517f08c379a00000000000000000000000000000000000000000000000000000000081526004018080602001828103825260108152602001807f5061757361626c653a207061757365640000000000000000000000000000000081525060200191505060405180910390fd5b6000803690501461027d576040517f08c379a00000000000000000000000000000000000000000000000000000000081526004018080602001828103825260138152602001807f7061796c6f6164206e6f7420616c6c6f7765640000000000000000000000000081525060200191505060405180910390fd5b005b34801561028b57600080fd5b506102ce600480360360208110156102a257600080fd5b81019080803573ffffffffffffffffffffffffffffffffffffffff169060200190929190505050610abf565b604051808215151515815260200191505060405180910390f35b61032a600480360360208110156102fe57600080fd5b81019080803573ffffffffffffffffffffffffffffffffffffffff169060200190929190505050610c33565b005b61036e6004803603602081101561034257600080fd5b81019080803573ffffffffffffffffffffffffffffffffffffffff169060200190929190505050610f72565b6040518082815260200191505060405180910390f35b34801561039057600080fd5b506103df600480360360408110156103a757600080fd5b81019080803573ffffffffffffffffffffffffffffffffffffffff16906020019092919080351515906020019092919050505061127a565b005b3480156103ed57600080fd5b506104a3600480360360a081101561040457600080fd5b81019080803573ffffffffffffffffffffffffffffffffffffffff1690602001909291908035906020019064010000000081111561044157600080fd5b82018360208201111561045357600080fd5b8035906020019184600183028401116401000000008311171561047557600080fd5b90919293919293908035906020019092919080359060200190929190803590602001909291905050506113f3565b005b3480156104b157600080fd5b506104ba611678565b005b3480156104c857600080fd5b5061050b600480360360208110156104df57600080fd5b81019080803573ffffffffffffffffffffffffffffffffffffffff1690602001909291905050506117d8565b604051808215151515815260200191505060405180910390f35b34801561053157600080fd5b5061053a6117f5565b604051808215151515815260200191505060405180910390f35b34801561056057600080fd5b506105a36004803603602081101561057757600080fd5b81019080803573ffffffffffffffffffffffffffffffffffffffff16906020019092919050505061180c565b005b3480156105b157600080fd5b506105f4600480360360208110156105c857600080fd5b81019080803573ffffffffffffffffffffffffffffffffffffffff1690602001909291905050506119b4565b6040518082815260200191505060405180910390f35b34801561061657600080fd5b5061061f611b23565b005b34801561062d57600080fd5b50610636611b2e565b005b34801561064457600080fd5b506106876004803603602081101561065b57600080fd5b81019080803573ffffffffffffffffffffffffffffffffffffffff169060200190929190505050611c67565b005b34801561069557600080fd5b5061069e611cd1565b005b3480156106ac57600080fd5b506106ef600480360360208110156106c357600080fd5b81019080803573ffffffffffffffffffffffffffffffffffffffff169060200190929190505050611e31565b6040518082815260200191505060405180910390f35b34801561071157600080fd5b5061071a611f98565b604051808273ffffffffffffffffffffffffffffffffffffffff1673ffffffffffffffffffffffffffffffffffffffff16815260200191505060405180910390f35b34801561076857600080fd5b50610771611fc1565b604051808215151515815260200191505060405180910390f35b34801561079757600080fd5b506107da600480360360208110156107ae57600080fd5b81019080803573ffffffffffffffffffffffffffffffffffffffff169060200190929190505050612018565b005b610832600480360360608110156107f257600080fd5b81019080803573ffffffffffffffffffffffffffffffffffffffff169060200190929190803590602001909291908035906020019092919050505061211b565b005b34801561084057600080fd5b506108846004803603606081101561085757600080fd5b8101908080359060200190929190803560ff169060200190929190803590602001909291905050506127e3565b005b34801561089257600080fd5b506108cc600480360360408110156108a957600080fd5b8101908080359060200190929190803560ff169060200190929190505050612cc9565b005b3480156108da57600080fd5b506108e36132c6565b604051808215151515815260200191505060405180910390f35b34801561090957600080fd5b506109366004803603602081101561092057600080fd5b810190808035906020019092919050505061336e565b604051808273ffffffffffffffffffffffffffffffffffffffff1673ffffffffffffffffffffffffffffffffffffffff16815260200191505060405180910390f35b34801561098457600080fd5b506109b16004803603602081101561099b57600080fd5b81019080803590602001909291905050506134c9565b604051808260058111156109c157fe5b60ff16815260200191505060405180910390f35b610a6c600480360360408110156109eb57600080fd5b81019080803573ffffffffffffffffffffffffffffffffffffffff16906020019092919080359060200190640100000000811115610a2857600080fd5b820183602082011115610a3a57600080fd5b80359060200191846001830284011164010000000083111715610a5c57600080fd5b9091929391929390505050613611565b005b348015610a7a57600080fd5b50610abd60048036036020811015610a9157600080fd5b81019080803573ffffffffffffffffffffffffffffffffffffffff16906020019092919050505061393a565b005b6000600160009054906101000a900460ff1615610b44576040517f08c379a00000000000000000000000000000000000000000000000000000000081526004018080602001828103825260108152602001807f5061757361626c653a207061757365640000000000000000000000000000000081525060200191505060405180910390fd5b6001600660003373ffffffffffffffffffffffffffffffffffffffff1673ffffffffffffffffffffffffffffffffffffffff1681526020019081526020016000205414610bdc576040517f08c379a00000000000000000000000000000000000000000000000000000000081526004018080602001828103825260228152602001806141ea6022913960400191505060405180910390fd5b600260008373ffffffffffffffffffffffffffffffffffffffff1673ffffffffffffffffffffffffffffffffffffffff16815260200190815260200160002060020160009054906101000a900460ff169050919050565b600160009054906101000a900460ff1615610cb6576040517f08c379a00000000000000000000000000000000000000000000000000000000081526004018080602001828103825260108152602001807f5061757361626c653a207061757365640000000000000000000000000000000081525060200191505060405180910390fd5b6001600660003373ffffffffffffffffffffffffffffffffffffffff1673ffffffffffffffffffffffffffffffffffffffff1681526020019081526020016000205414610d4e576040517f08c379a00000000000000000000000000000000000000000000000000000000081526004018080602001828103825260228152602001806141ea6022913960400191505060405180910390fd5b6000600560008373ffffffffffffffffffffffffffffffffffffffff1673ffffffffffffffffffffffffffffffffffffffff16815260200190815260200160002054905060008111610e08576040517f08c379a00000000000000000000000000000000000000000000000000000000081526004018080602001828103825260128152602001807f4e6f207061796f75742062616c616e63652e000000000000000000000000000081525060200191505060405180910390fd5b803073ffffffffffffffffffffffffffffffffffffffff163111610e94576040517f08c379a00000000000000000000000000000000000000000000000000000000081526004018080602001828103825260128152602001807f496e73756666696369656e742066756e6473000000000000000000000000000081525060200191505060405180910390fd5b6000600560008473ffffffffffffffffffffffffffffffffffffffff1673ffffffffffffffffffffffffffffffffffffffff168152602001908152602001600020819055508173ffffffffffffffffffffffffffffffffffffffff166108fc829081150290604051600060405180830381858888f19350505050158015610f1f573d6000803e3d6000fd5b508173ffffffffffffffffffffffffffffffffffffffff167f5afeca38b2064c23a692c4cf353015d80ab3ecc417b4f893f372690c11fbd9a6826040518082815260200191505060405180910390a25050565b6000600160009054906101000a900460ff1615610ff7576040517f08c379a00000000000000000000000000000000000000000000000000000000081526004018080602001828103825260108152602001807f5061757361626c653a207061757365640000000000000000000000000000000081525060200191505060405180910390fd5b6001600660003373ffffffffffffffffffffffffffffffffffffffff1673ffffffffffffffffffffffffffffffffffffffff168152602001908152602001600020541461108f576040517f08c379a00000000000000000000000000000000000000000000000000000000081526004018080602001828103825260228152602001806141ea6022913960400191505060405180910390fd5b60003411611105576040517f08c379a00000000000000000000000000000000000000000000000000000000081526004018080602001828103825260168152602001807f4d7573742075736520657468657220746f2066756e640000000000000000000081525060200191505060405180910390fd5b61115a34600260008573ffffffffffffffffffffffffffffffffffffffff1673ffffffffffffffffffffffffffffffffffffffff168152602001908152602001600020600001546139c090919063ffffffff16565b600260008473ffffffffffffffffffffffffffffffffffffffff1673ffffffffffffffffffffffffffffffffffffffff168152602001908152602001600020600001819055508173ffffffffffffffffffffffffffffffffffffffff167fe3e3c2f23f7445131259937f93b9ed0c075fe06c9d702be2d7ac549d0ec5fc32600260008573ffffffffffffffffffffffffffffffffffffffff1673ffffffffffffffffffffffffffffffffffffffff168152602001908152602001600020600001546040518082815260200191505060405180910390a2600260008373ffffffffffffffffffffffffffffffffffffffff1673ffffffffffffffffffffffffffffffffffffffff168152602001908152602001600020600001549050919050565b600160009054906101000a900460ff16156112fd576040517f08c379a00000000000000000000000000000000000000000000000000000000081526004018080602001828103825260108152602001807f5061757361626c653a207061757365640000000000000000000000000000000081525060200191505060405180910390fd5b6001600660003373ffffffffffffffffffffffffffffffffffffffff1673ffffffffffffffffffffffffffffffffffffffff1681526020019081526020016000205414611395576040517f08c379a00000000000000000000000000000000000000000000000000000000081526004018080602001828103825260228152602001806141ea6022913960400191505060405180910390fd5b80600260008473ffffffffffffffffffffffffffffffffffffffff1673ffffffffffffffffffffffffffffffffffffffff16815260200190815260200160002060020160016101000a81548160ff0219169083151502179055505050565b600160009054906101000a900460ff1615611476576040517f08c379a00000000000000000000000000000000000000000000000000000000081526004018080602001828103825260108152602001807f5061757361626c653a207061757365640000000000000000000000000000000081525060200191505060405180910390fd5b6001600660003373ffffffffffffffffffffffffffffffffffffffff1673ffffffffffffffffffffffffffffffffffffffff168152602001908152602001600020541461150e576040517f08c379a00000000000000000000000000000000000000000000000000000000081526004018080602001828103825260228152602001806141ea6022913960400191505060405180910390fd5b856003600083815260200190815260200160002060000160016101000a81548173ffffffffffffffffffffffffffffffffffffffff021916908373ffffffffffffffffffffffffffffffffffffffff16021790555060016003600083815260200190815260200160002060000160006101000a81548160ff02191690831515021790555084846003600084815260200190815260200160002060010191906115b7929190613fcb565b508260036000838152602001908152602001600020600201819055508060046000848152602001908152602001600020600101819055508573ffffffffffffffffffffffffffffffffffffffff167f34151dfe5f5d2e1a6ed2a8b951d1f9935b00b4711e31a6c7972eaee3b81c1f0286868660405180806020018381526020018281038252858582818152602001925080828437600081840152601f19601f82011690508083019250505094505050505060405180910390a2505050505050565b611681336117d8565b6116d6576040517f08c379a000000000000000000000000000000000000000000000000000000000815260040180806020018281038252603081526020018061410d6030913960400191505060405180910390fd5b600160009054906101000a900460ff16611758576040517f08c379a00000000000000000000000000000000000000000000000000000000081526004018080602001828103825260148152602001807f5061757361626c653a206e6f742070617573656400000000000000000000000081525060200191505060405180910390fd5b6000600160006101000a81548160ff0219169083151502179055507f5db9ee0a495bf2e6ff9c91a7834c1ba4fdd244a5e8aa4e537bd38aeae4b073aa33604051808273ffffffffffffffffffffffffffffffffffffffff1673ffffffffffffffffffffffffffffffffffffffff16815260200191505060405180910390a1565b60006117ee826000613a4890919063ffffffff16565b9050919050565b6000600160009054906101000a900460ff16905090565b611814611fc1565b611886576040517f08c379a00000000000000000000000000000000000000000000000000000000081526004018080602001828103825260208152602001807f4f776e61626c653a2063616c6c6572206973206e6f7420746865206f776e657281525060200191505060405180910390fd5b600073ffffffffffffffffffffffffffffffffffffffff168173ffffffffffffffffffffffffffffffffffffffff161415611929576040517f08c379a00000000000000000000000000000000000000000000000000000000081526004018080602001828103825260108152602001807f496e76616c696420636f6e74726163740000000000000000000000000000000081525060200191505060405180910390fd5b6001600660008373ffffffffffffffffffffffffffffffffffffffff1673ffffffffffffffffffffffffffffffffffffffff168152602001908152602001600020819055508073ffffffffffffffffffffffffffffffffffffffff167fdc84e3a4c83602050e3865df792a4e6800211a79ac60db94e703a820ce89292460405160405180910390a250565b6000600160009054906101000a900460ff1615611a39576040517f08c379a00000000000000000000000000000000000000000000000000000000081526004018080602001828103825260108152602001807f5061757361626c653a207061757365640000000000000000000000000000000081525060200191505060405180910390fd5b600073ffffffffffffffffffffffffffffffffffffffff168273ffffffffffffffffffffffffffffffffffffffff161415611adc576040517f08c379a00000000000000000000000000000000000000000000000000000000081526004018080602001828103825260188152602001807f496e76616c696420637573746f6d65722061646472657373000000000000000081525060200191505060405180910390fd5b600560008373ffffffffffffffffffffffffffffffffffffffff1673ffffffffffffffffffffffffffffffffffffffff168152602001908152602001600020549050919050565b611b2c33613b26565b565b611b36611fc1565b611ba8576040517f08c379a00000000000000000000000000000000000000000000000000000000081526004018080602001828103825260208152602001807f4f776e61626c653a2063616c6c6572206973206e6f7420746865206f776e657281525060200191505060405180910390fd5b600073ffffffffffffffffffffffffffffffffffffffff166001809054906101000a900473ffffffffffffffffffffffffffffffffffffffff1673ffffffffffffffffffffffffffffffffffffffff167f8be0079c531659141344cd1fd0a4f28419497f9722a3daafe3b4186f6b6457e060405160405180910390a360006001806101000a81548173ffffffffffffffffffffffffffffffffffffffff021916908373ffffffffffffffffffffffffffffffffffffffff160217905550565b611c70336117d8565b611cc5576040517f08c379a000000000000000000000000000000000000000000000000000000000815260040180806020018281038252603081526020018061410d6030913960400191505060405180910390fd5b611cce81613b80565b50565b611cda336117d8565b611d2f576040517f08c379a000000000000000000000000000000000000000000000000000000000815260040180806020018281038252603081526020018061410d6030913960400191505060405180910390fd5b600160009054906101000a900460ff1615611db2576040517f08c379a00000000000000000000000000000000000000000000000000000000081526004018080602001828103825260108152602001807f5061757361626c653a207061757365640000000000000000000000000000000081525060200191505060405180910390fd5b60018060006101000a81548160ff0219169083151502179055507f62e78cea01bee320cd4e420270b5ea74000d11b0c9f74754ebdbfc544b05a25833604051808273ffffffffffffffffffffffffffffffffffffffff1673ffffffffffffffffffffffffffffffffffffffff16815260200191505060405180910390a1565b6000600160009054906101000a900460ff1615611eb6576040517f08c379a00000000000000000000000000000000000000000000000000000000081526004018080602001828103825260108152602001807f5061757361626c653a207061757365640000000000000000000000000000000081525060200191505060405180910390fd5b6001600660003373ffffffffffffffffffffffffffffffffffffffff1673ffffffffffffffffffffffffffffffffffffffff1681526020019081526020016000205414611f4e576040517f08c379a00000000000000000000000000000000000000000000000000000000081526004018080602001828103825260228152602001806141ea6022913960400191505060405180910390fd5b600260008373ffffffffffffffffffffffffffffffffffffffff1673ffffffffffffffffffffffffffffffffffffffff168152602001908152602001600020600001549050919050565b60006001809054906101000a900473ffffffffffffffffffffffffffffffffffffffff16905090565b60006001809054906101000a900473ffffffffffffffffffffffffffffffffffffffff1673ffffffffffffffffffffffffffffffffffffffff163373ffffffffffffffffffffffffffffffffffffffff1614905090565b612020611fc1565b612092576040517f08c379a00000000000000000000000000000000000000000000000000000000081526004018080602001828103825260208152602001807f4f776e61626c653a2063616c6c6572206973206e6f7420746865206f776e657281525060200191505060405180910390fd5b600660008273ffffffffffffffffffffffffffffffffffffffff1673ffffffffffffffffffffffffffffffffffffffff168152602001908152602001600020600090558073ffffffffffffffffffffffffffffffffffffffff167fc6e68059f6c59235d88b015cebfbecb5ec0a89bca225e2b54303d9f4bcd397de60405160405180910390a250565b600160009054906101000a900460ff161561219e576040517f08c379a00000000000000000000000000000000000000000000000000000000081526004018080602001828103825260108152602001807f5061757361626c653a207061757365640000000000000000000000000000000081525060200191505060405180910390fd5b6001600660003373ffffffffffffffffffffffffffffffffffffffff1673ffffffffffffffffffffffffffffffffffffffff1681526020019081526020016000205414612236576040517f08c379a00000000000000000000000000000000000000000000000000000000081526004018080602001828103825260228152602001806141ea6022913960400191505060405180910390fd5b806003600082815260200190815260200160002060000160009054906101000a900460ff166122cd576040517f08c379a00000000000000000000000000000000000000000000000000000000081526004018080602001828103825260148152602001807f556e7265676973746572656420666c696768742e00000000000000000000000081525060200191505060405180910390fd5b82600060058111156122db57fe5b6004600083815260200190815260200160002060020160009054906101000a900460ff16600581111561230a57fe5b1461237d576040517f08c379a000000000000000000000000000000000000000000000000000000000815260040180806020018281038252601a8152602001807f496e76616c6964206f72206578706972656420706f6c6963792e00000000000081525060200191505060405180910390fd5b600034116123f3576040517f08c379a00000000000000000000000000000000000000000000000000000000081526004018080602001828103825260128152602001807f4e6f2065746865722070726f76696465642e000000000000000000000000000081525060200191505060405180910390fd5b60006004600086815260200190815260200160002090506000816001015414806124205750838160010154145b612492576040517f08c379a000000000000000000000000000000000000000000000000000000000815260040180806020018281038252600e8152602001807f496e76616c696420666c6967687400000000000000000000000000000000000081525060200191505060405180910390fd5b61249a61404b565b600360008681526020019081526020016000206040518060800160405290816000820160009054906101000a900460ff161515151581526020016000820160019054906101000a900473ffffffffffffffffffffffffffffffffffffffff1673ffffffffffffffffffffffffffffffffffffffff1673ffffffffffffffffffffffffffffffffffffffff168152602001600182018054600181600116156101000203166002900480601f0160208091040260200160405190810160405280929190818152602001828054600181600116156101000203166002900480156125c25780601f10612597576101008083540402835291602001916125c2565b820191906000526020600020905b8154815290600101906020018083116125a557829003601f168201915b5050505050815260200160028201548152505090506125df61408b565b87816000019073ffffffffffffffffffffffffffffffffffffffff16908173ffffffffffffffffffffffffffffffffffffffff16815250503481602001818152505060046000888152602001908152602001600020600001819080600181540180825580915050906001820390600052602060002090600202016000909192909190915060008201518160000160006101000a81548173ffffffffffffffffffffffffffffffffffffffff021916908373ffffffffffffffffffffffffffffffffffffffff160217905550602082015181600101555050508773ffffffffffffffffffffffffffffffffffffffff167ff6e4bad979912ee9aa23e3aa926fbdca95c12cc714658bf0272441e9aec4dd148360200151846040015185606001518760020160009054906101000a900460ff16604051808573ffffffffffffffffffffffffffffffffffffffff1673ffffffffffffffffffffffffffffffffffffffff1681526020018060200184815260200183600581111561275c57fe5b60ff168152602001828103825285818151815260200191508051906020019080838360005b8381101561279c578082015181840152602081019050612781565b50505050905090810190601f1680156127c95780820380516001836020036101000a031916815260200191505b509550505050505060405180910390a25050505050505050565b600160009054906101000a900460ff1615612866576040517f08c379a00000000000000000000000000000000000000000000000000000000081526004018080602001828103825260108152602001807f5061757361626c653a207061757365640000000000000000000000000000000081525060200191505060405180910390fd5b6001600660003373ffffffffffffffffffffffffffffffffffffffff1673ffffffffffffffffffffffffffffffffffffffff16815260200190815260200160002054146128fe576040517f08c379a00000000000000000000000000000000000000000000000000000000081526004018080602001828103825260228152602001806141ea6022913960400191505060405180910390fd5b6129066140bb565b6004600085815260200190815260200160002060405180606001604052908160008201805480602002602001604051908101604052809291908181526020016000905b828210156129db57838290600052602060002090600202016040518060400160405290816000820160009054906101000a900473ffffffffffffffffffffffffffffffffffffffff1673ffffffffffffffffffffffffffffffffffffffff1673ffffffffffffffffffffffffffffffffffffffff16815260200160018201548152505081526020019060010190612949565b505050508152602001600182015481526020016002820160009054906101000a900460ff166005811115612a0b57fe5b6005811115612a1657fe5b81525050905060006005811115612a2957fe5b81604001516005811115612a3957fe5b1415612a90576040517f08c379a00000000000000000000000000000000000000000000000000000000081526004018080602001828103825260238152602001806141a56023913960400191505060405180910390fd5b826005811115612a9c57fe5b81604001516005811115612aac57fe5b14612b1f576040517f08c379a00000000000000000000000000000000000000000000000000000000081526004018080602001828103825260178152602001807f556e657870656374656420706f6c69637920737461746500000000000000000081525060200191505060405180910390fd5b60608160000151905060005b8151811015612cc1576000828281518110612b4257fe5b60200260200101516020015190506000600460008981526020019081526020016000206000018381548110612b7357fe5b9060005260206000209060020201600101819055506000612bb06064612ba28885613bda90919063ffffffff16565b613c6090919063ffffffff16565b90506000848481518110612bc057fe5b6020026020010151600001519050612c2082600560008473ffffffffffffffffffffffffffffffffffffffff1673ffffffffffffffffffffffffffffffffffffffff168152602001908152602001600020546139c090919063ffffffff16565b600560008373ffffffffffffffffffffffffffffffffffffffff1673ffffffffffffffffffffffffffffffffffffffff168152602001908152602001600020819055508073ffffffffffffffffffffffffffffffffffffffff167f1c3f3a216eabb2072f01e574b9790f142caa8fb9118b73e0cba80a2e8bdc367c836040518082815260200191505060405180910390a25050508080600101915050612b2b565b505050505050565b600160009054906101000a900460ff1615612d4c576040517f08c379a00000000000000000000000000000000000000000000000000000000081526004018080602001828103825260108152602001807f5061757361626c653a207061757365640000000000000000000000000000000081525060200191505060405180910390fd5b6001600660003373ffffffffffffffffffffffffffffffffffffffff1673ffffffffffffffffffffffffffffffffffffffff1681526020019081526020016000205414612de4576040517f08c379a00000000000000000000000000000000000000000000000000000000081526004018080602001828103825260228152602001806141ea6022913960400191505060405180910390fd5b8160006005811115612df257fe5b6004600083815260200190815260200160002060020160009054906101000a900460ff166005811115612e2157fe5b14612e94576040517f08c379a000000000000000000000000000000000000000000000000000000000815260040180806020018281038252600f8152602001807f4578706972656420706f6c6963792e000000000000000000000000000000000081525060200191505060405180910390fd5b600060046000838152602001908152602001600020600101541415612f21576040517f08c379a00000000000000000000000000000000000000000000000000000000081526004018080602001828103825260148152602001807f4e6f6e2d6578697374656e7420706f6c6963792e00000000000000000000000081525060200191505060405180910390fd5b816004600085815260200190815260200160002060020160006101000a81548160ff02191690836005811115612f5357fe5b0217905550612f606140bb565b6004600085815260200190815260200160002060405180606001604052908160008201805480602002602001604051908101604052809291908181526020016000905b8282101561303557838290600052602060002090600202016040518060400160405290816000820160009054906101000a900473ffffffffffffffffffffffffffffffffffffffff1673ffffffffffffffffffffffffffffffffffffffff1673ffffffffffffffffffffffffffffffffffffffff16815260200160018201548152505081526020019060010190612fa3565b505050508152602001600182015481526020016002820160009054906101000a900460ff16600581111561306557fe5b600581111561307057fe5b81525050905061307e61404b565b60036000836020015181526020019081526020016000206040518060800160405290816000820160009054906101000a900460ff161515151581526020016000820160019054906101000a900473ffffffffffffffffffffffffffffffffffffffff1673ffffffffffffffffffffffffffffffffffffffff1673ffffffffffffffffffffffffffffffffffffffff168152602001600182018054600181600116156101000203166002900480601f0160208091040260200160405190810160405280929190818152602001828054600181600116156101000203166002900480156131aa5780601f1061317f576101008083540402835291602001916131aa565b820191906000526020600020905b81548152906001019060200180831161318d57829003601f168201915b505050505081526020016002820154815250509050806020015173ffffffffffffffffffffffffffffffffffffffff167f1adbd0c9bf67cd4d3bee7e5ec6583c89530d9c50dcb0d6756d80542021f516f082604001518360600151600460008a815260200190815260200160002060020160009054906101000a900460ff16604051808060200184815260200183600581111561324357fe5b60ff168152602001828103825285818151815260200191508051906020019080838360005b83811015613283578082015181840152602081019050613268565b50505050905090810190601f1680156132b05780820380516001836020036101000a031916815260200191505b5094505050505060405180910390a25050505050565b60006001600660003373ffffffffffffffffffffffffffffffffffffffff1673ffffffffffffffffffffffffffffffffffffffff1681526020019081526020016000205414613360576040517f08c379a00000000000000000000000000000000000000000000000000000000081526004018080602001828103825260228152602001806141ea6022913960400191505060405180910390fd5b6133686117f5565b15905090565b6000600160009054906101000a900460ff16156133f3576040517f08c379a00000000000000000000000000000000000000000000000000000000081526004018080602001828103825260108152602001807f5061757361626c653a207061757365640000000000000000000000000000000081525060200191505060405180910390fd5b6001600660003373ffffffffffffffffffffffffffffffffffffffff1673ffffffffffffffffffffffffffffffffffffffff168152602001908152602001600020541461348b576040517f08c379a00000000000000000000000000000000000000000000000000000000081526004018080602001828103825260228152602001806141ea6022913960400191505060405180910390fd5b6003600083815260200190815260200160002060000160019054906101000a900473ffffffffffffffffffffffffffffffffffffffff169050919050565b6000600160009054906101000a900460ff161561354e576040517f08c379a00000000000000000000000000000000000000000000000000000000081526004018080602001828103825260108152602001807f5061757361626c653a207061757365640000000000000000000000000000000081525060200191505060405180910390fd5b6001600660003373ffffffffffffffffffffffffffffffffffffffff1673ffffffffffffffffffffffffffffffffffffffff16815260200190815260200160002054146135e6576040517f08c379a00000000000000000000000000000000000000000000000000000000081526004018080602001828103825260228152602001806141ea6022913960400191505060405180910390fd5b6004600083815260200190815260200160002060020160009054906101000a900460ff169050919050565b600160009054906101000a900460ff1615613694576040517f08c379a00000000000000000000000000000000000000000000000000000000081526004018080602001828103825260108152602001807f5061757361626c653a207061757365640000000000000000000000000000000081525060200191505060405180910390fd5b6001600660003373ffffffffffffffffffffffffffffffffffffffff1673ffffffffffffffffffffffffffffffffffffffff168152602001908152602001600020541461372c576040517f08c379a00000000000000000000000000000000000000000000000000000000081526004018080602001828103825260228152602001806141ea6022913960400191505060405180910390fd5b8260001515600260008373ffffffffffffffffffffffffffffffffffffffff1673ffffffffffffffffffffffffffffffffffffffff16815260200190815260200160002060020160009054906101000a900460ff161515146137f6576040517f08c379a000000000000000000000000000000000000000000000000000000000815260040180806020018281038252601e8152602001807f4169726c696e6520697320616c726561647920726567697374657265642e000081525060200191505060405180910390fd5b8282600260008773ffffffffffffffffffffffffffffffffffffffff1673ffffffffffffffffffffffffffffffffffffffff1681526020019081526020016000206001019190613847929190613fcb565b506001600260008673ffffffffffffffffffffffffffffffffffffffff1673ffffffffffffffffffffffffffffffffffffffff16815260200190815260200160002060020160006101000a81548160ff0219169083151502179055503373ffffffffffffffffffffffffffffffffffffffff168473ffffffffffffffffffffffffffffffffffffffff167fdaadac9f3079423f7d181e3d49e449f1047be14f86f3422009d15b8ad98cdc8e858560405180806020018281038252848482818152602001925080828437600081840152601f19601f820116905080830192505050935050505060405180910390a350505050565b613942611fc1565b6139b4576040517f08c379a00000000000000000000000000000000000000000000000000000000081526004018080602001828103825260208152602001807f4f776e61626c653a2063616c6c6572206973206e6f7420746865206f776e657281525060200191505060405180910390fd5b6139bd81613cef565b50565b600080828401905083811015613a3e576040517f08c379a000000000000000000000000000000000000000000000000000000000815260040180806020018281038252601b8152602001807f536166654d6174683a206164646974696f6e206f766572666c6f77000000000081525060200191505060405180910390fd5b8091505092915050565b60008073ffffffffffffffffffffffffffffffffffffffff168273ffffffffffffffffffffffffffffffffffffffff161415613acf576040517f08c379a00000000000000000000000000000000000000000000000000000000081526004018080602001828103825260228152602001806141c86022913960400191505060405180910390fd5b8260000160008373ffffffffffffffffffffffffffffffffffffffff1673ffffffffffffffffffffffffffffffffffffffff16815260200190815260200160002060009054906101000a900460ff16905092915050565b613b3a816000613e3390919063ffffffff16565b8073ffffffffffffffffffffffffffffffffffffffff167fcd265ebaf09df2871cc7bd4133404a235ba12eff2041bb89d9c714a2621c7c7e60405160405180910390a250565b613b94816000613ef090919063ffffffff16565b8073ffffffffffffffffffffffffffffffffffffffff167f6719d08c1888103bea251a4ed56406bd0c3e69723c8a1686e017e7bbe159b6f860405160405180910390a250565b600080831415613bed5760009050613c5a565b6000828402905082848281613bfe57fe5b0414613c55576040517f08c379a00000000000000000000000000000000000000000000000000000000081526004018080602001828103825260218152602001806141846021913960400191505060405180910390fd5b809150505b92915050565b6000808211613cd7576040517f08c379a000000000000000000000000000000000000000000000000000000000815260040180806020018281038252601a8152602001807f536166654d6174683a206469766973696f6e206279207a65726f00000000000081525060200191505060405180910390fd5b6000828481613ce257fe5b0490508091505092915050565b600073ffffffffffffffffffffffffffffffffffffffff168173ffffffffffffffffffffffffffffffffffffffff161415613d75576040517f08c379a000000000000000000000000000000000000000000000000000000000815260040180806020018281038252602681526020018061413d6026913960400191505060405180910390fd5b8073ffffffffffffffffffffffffffffffffffffffff166001809054906101000a900473ffffffffffffffffffffffffffffffffffffffff1673ffffffffffffffffffffffffffffffffffffffff167f8be0079c531659141344cd1fd0a4f28419497f9722a3daafe3b4186f6b6457e060405160405180910390a3806001806101000a81548173ffffffffffffffffffffffffffffffffffffffff021916908373ffffffffffffffffffffffffffffffffffffffff16021790555050565b613e3d8282613a48565b613e92576040517f08c379a00000000000000000000000000000000000000000000000000000000081526004018080602001828103825260218152602001806141636021913960400191505060405180910390fd5b60008260000160008373ffffffffffffffffffffffffffffffffffffffff1673ffffffffffffffffffffffffffffffffffffffff16815260200190815260200160002060006101000a81548160ff0219169083151502179055505050565b613efa8282613a48565b15613f6d576040517f08c379a000000000000000000000000000000000000000000000000000000000815260040180806020018281038252601f8152602001807f526f6c65733a206163636f756e7420616c72656164792068617320726f6c650081525060200191505060405180910390fd5b60018260000160008373ffffffffffffffffffffffffffffffffffffffff1673ffffffffffffffffffffffffffffffffffffffff16815260200190815260200160002060006101000a81548160ff0219169083151502179055505050565b828054600181600116156101000203166002900490600052602060002090601f016020900481019282601f1061400c57803560ff191683800117855561403a565b8280016001018555821561403a579182015b8281111561403957823582559160200191906001019061401e565b5b50905061404791906140e7565b5090565b6040518060800160405280600015158152602001600073ffffffffffffffffffffffffffffffffffffffff16815260200160608152602001600081525090565b6040518060400160405280600073ffffffffffffffffffffffffffffffffffffffff168152602001600081525090565b60405180606001604052806060815260200160008152602001600060058111156140e157fe5b81525090565b61410991905b808211156141055760008160009055506001016140ed565b5090565b9056fe506175736572526f6c653a2063616c6c657220646f6573206e6f742068617665207468652050617573657220726f6c654f776e61626c653a206e6577206f776e657220697320746865207a65726f2061646472657373526f6c65733a206163636f756e7420646f6573206e6f74206861766520726f6c65536166654d6174683a206d756c7469706c69636174696f6e206f766572666c6f7743616e6e6f7420637265646974206f6e206578697374696e6720696e737572616e6365526f6c65733a206163636f756e7420697320746865207a65726f206164647265737343616c6c696e6720636f6e7472616374206973206e6f7420617574686f72697a6564a165627a7a7230582001ccde697f0a2427ae3a15f07b877301419bbeba27b8c29b9172b00efd0b86880029526f6c65733a206163636f756e7420697320746865207a65726f2061646472657373",
  "source": "pragma solidity ^0.5.0;\n\nimport \"../node_modules/openzeppelin-solidity/contracts/math/SafeMath.sol\";\nimport \"../node_modules/openzeppelin-solidity/contracts/lifecycle/Pausable.sol\";\nimport \"../node_modules/openzeppelin-solidity/contracts/ownership/Ownable.sol\";\nimport \"./IFlightSuretyData.sol\";\n\ncontract FlightSuretyData is IFlightSuretyData, Pausable, Ownable {\n    using SafeMath for uint256;\n\n    /********************************************************************************************/\n    /*                                       DATA VARIABLES                                     */\n    /********************************************************************************************/\n\n    struct Airline {\n        uint256 balance;\n        string name;\n        bool isRegistered;\n        bool isFunded;\n    }\n    mapping(address => Airline) private airlines;\n\n\n    struct Flight {\n        bool isRegistered;\n        address airline;\n        string name;\n        uint256 timestamp;\n    }\n\n    mapping(uint256 => Flight) private flights;\n\n    struct Insurance {\n        address customer;\n        uint256 price;\n    }\n\n    struct Policy {\n        Insurance[] insuree;\n        uint256 flight;\n        FlightStatus statusCode;\n    }\n    \n    mapping(uint256 => Policy) private policies;\n    mapping(address => uint256) private creditBalances;\n    mapping(address => uint256) private authorizedContracts; \n\n\n    /********************************************************************************************/\n    /*                                       EVENT DEFINITIONS                                  */\n    /********************************************************************************************/\n\n    event Authorized(address indexed contractAddress);\n    event DeAuthorized(address indexed contractAddress);\n    \n\n    /**\n    * @dev Constructor\n    *      The deploying account becomes contractOwner\n    */\n    constructor () public {\n    }\n\n    /********************************************************************************************/\n    /*                                       FUNCTION MODIFIERS                                 */\n    /********************************************************************************************/\n\n    modifier fromAuthorized() {\n        require(authorizedContracts[msg.sender] == 1,\"Calling contract is not authorized\");\n        _;\n    }\n\n    modifier notRegistered(address airline) {\n        require(airlines[airline].isRegistered == false,\"Airline is already registered.\");\n        _;\n    }\n\n    modifier validPolicy(uint256 key) {\n        require(policies[key].statusCode == FlightStatus.STATUS_CODE_UNKNOWN,\"Expired policy.\");\n        require(policies[key].flight != 0, \"Non-existent policy.\");\n        _;\n    }\n\n    modifier validPolicyState(uint256 key) {\n        require(policies[key].statusCode == FlightStatus.STATUS_CODE_UNKNOWN,\"Invalid or expired policy.\");\n        _;\n    }\n\n\n    modifier validFlight(uint256 key) {\n        require(flights[key].isRegistered,\"Unregistered flight.\");\n        _;\n    }\n\n    /*\n    modifier validCustomer(uint256 key,address customer) {\n        require(hasCustomer(key,customer) == false,\"Customer has already purchased this policy\");\n        _;\n    }\n    */\n\n\n    /********************************************************************************************/\n    /*                                     SMART CONTRACT FUNCTIONS                             */\n    /********************************************************************************************/\n\n    function authorizeContract(address contractAddress) external onlyOwner {\n        require(contractAddress != address(0x0),\"Invalid contract\");\n        authorizedContracts[contractAddress] = 1 ;\n        emit Authorized(contractAddress);\n    }\n\n    function deAuthorizeContract(address contractAddress) external onlyOwner {\n        delete authorizedContracts[contractAddress];\n        emit DeAuthorized(contractAddress);\n    }\n\n    function isAirlineRegistered(address caller) external whenNotPaused fromAuthorized returns(bool) {\n        return airlines[caller].isRegistered;\n    }\n\n    function isOperational() external view fromAuthorized returns(bool) {\n        return !paused();\n    }\n\n    /*\n    function hasCustomer(uint256 policyKey,address customer) private view returns(bool) {\n        Insurance[] memory insurees = policies[policyKey].insuree;\n        for (uint i=0; i < insurees.length; i++) {\n            if (insurees[i].customer == customer) {\n                return true;\n            }\n        }\n        return false;\n    }\n    */\n\n   /**\n    * @dev Add an airline to the registration queue\n    *      Can only be called from FlightSuretyApp contract\n    *\n    */   \n    function registerAirline(address airline,string calldata name)\n                            external\n                            payable\n                            whenNotPaused\n                            fromAuthorized\n                            notRegistered(airline)\n    {\n        airlines[airline].name = name;\n        airlines[airline].isRegistered = true;\n        emit AirlineRegistered(airline,name,msg.sender);\n    }\n\n    /**\n      * @dev set the funding status\n      * only app contract knows the logic\n      */\n    function setAirlineFundingStatus(address airline, bool status) external whenNotPaused fromAuthorized {\n        airlines[airline].isFunded = status;\n    }\n\n    function getAirlineBalance(address airline) external whenNotPaused fromAuthorized returns(uint256){\n       return airlines[airline].balance;\n    }\n\n\n    function registerFlight(\n        address airline,\n        string calldata flightName,\n        uint256 timestamp,\n        uint256 policyKey,\n        uint256 flightKey\n    ) \n        external\n        whenNotPaused\n        fromAuthorized\n    { \n        flights[flightKey].airline = airline;\n        flights[flightKey].isRegistered = true;\n        flights[flightKey].name = flightName;\n        flights[flightKey].timestamp = timestamp;\n        policies[policyKey].flight = flightKey;\n        emit FlightRegistered(airline,flightName,timestamp);\n    }\n\n   /**\n    * returns the airline for a flight\n    * @param flight keccak256 hash of the flight\n    * @return address of the airline to which this flight belongs to\n    *\n    */   \n    function getAirline(uint256 flight) external whenNotPaused fromAuthorized returns(address) {\n        return flights[flight].airline; \n    }\n\n    \n   /**\n    * @dev Buy insurance for a flight\n    *\n    */   \n\n    function buy(address customer,uint256 policyKey,uint256 flightKey)\n                            external\n                            payable\n                            whenNotPaused\n                            fromAuthorized\n                            validFlight(flightKey)\n                            validPolicyState(policyKey)\n    {\n        require(msg.value > 0,\"No ether provided.\");\n        Policy storage policy = policies[policyKey];\n\n        require(policy.flight == 0 || \n                policy.flight == flightKey,\"Invalid flight\");\n\n        Flight memory flightInfo = flights[flightKey];\n\n        Insurance memory insurance;\n\n        insurance.customer = customer;\n        insurance.price = msg.value;\n\n        policies[policyKey].insuree.push(insurance);\n        emit PolicyPurchased(\n            customer,\n            flightInfo.airline, \n            flightInfo.name,\n            flightInfo.\n            timestamp,\n            policy.statusCode);\n    }\n\n    /** \n      * @dev setFlightStatus \n      */\n    function setFlightStatus(\n        uint256 policyKey,\n        FlightStatus statusCode\n    ) \n        external\n        whenNotPaused \n        fromAuthorized \n        validPolicy(policyKey)\n    {\n        policies[policyKey].statusCode = statusCode;\n       \n        Policy memory policy = policies[policyKey];\n        Flight memory flightInfo = flights[policy.flight];\n        emit FlightStatusUpdate(\n            flightInfo.airline,\n            flightInfo.name,\n            flightInfo.timestamp,\n            policies[policyKey].statusCode\n        );\n    }\n\n    /** \n      * @dev getFlightStatus \n      */\n    function getFlightStatus(uint256 policyKey)\n        external\n        whenNotPaused \n        fromAuthorized \n        view\n        returns(FlightStatus) {\n        return policies[policyKey].statusCode;\n    }\n\n    /**\n     *  @dev Credits payouts to insurees\n     *  @param status flight status for which a payout should occur\n     *  @param multiple payout multiple (in hundereds) for the original ammount.\n     *                         for example, for 1.5, the multiple should be 150     \n     *                Calling (App) contract is responsible for providing the sanitized value.\n     *                By keeping this logic in the app contract, we wont have to update/migrate\n     *                to a new data contract if payout logic changes.\n     */\n    function creditInsurees(\n        uint256 policyKey,\n        FlightStatus status,\n        uint256 multiple\n    )\n        external\n        whenNotPaused \n        fromAuthorized \n    {\n        Policy memory policy = policies[policyKey];\n        require(policy.statusCode != FlightStatus.STATUS_CODE_UNKNOWN,\"Cannot credit on existing insurance\");\n        require(policy.statusCode == status,\"Unexpected policy state\");\n        Insurance[] memory insuree = policy.insuree;\n        for (uint256 i; i< insuree.length; i++) {\n            uint256 price = insuree[i].price;\n            policies[policyKey].insuree[i].price = 0; // to avoid crediting multiple times, \n            uint256 payout = price.mul(multiple).div(100);\n            address thisCustomer = insuree[i].customer;\n            creditBalances[thisCustomer] = creditBalances[thisCustomer].add(payout);\n            emit InsuranceCredit(thisCustomer,payout);\n        }\n    }\n    \n\n    /**\n     *  @dev Transfers eligible payout funds to insuree\n     *\n    */\n    function pay(address payable customer) external payable whenNotPaused fromAuthorized {\n        uint256 balance = creditBalances[customer];\n        require(balance > 0,\"No payout balance.\");\n        require(address(this).balance > balance,\"Insufficient funds\");\n        creditBalances[customer] = 0;\n        customer.transfer(balance);\n        emit Payout(customer,balance);\n    }\n\n   /**\n    * @dev Initial funding for the insurance. Unless there are too many delayed flights\n    *      resulting in insurance payouts, the contract should be self-sustaining\n    *\n    */   \n    function fund(address airline)\n                            external\n                            payable\n                            whenNotPaused\n                            fromAuthorized\n                            returns(uint256)\n    {\n        require(msg.value > 0,\"Must use ether to fund\");\n        airlines[airline].balance = airlines[airline].balance.add(msg.value);\n        emit AirlineFunded(airline,airlines[airline].balance);\n        return airlines[airline].balance;\n    }\n\n\n    /**\n      @dev get credit balance for a customer\n      */\n     function getCreditBalance(address customer) external view whenNotPaused returns(uint256) {\n        require(customer != address(0x0),\"Invalid customer address\");\n         return creditBalances[customer]; \n     }\n\n\n    /**\n    * @dev Fallback function for funding smart contract.\n    *\n    */\n    function() external payable whenNotPaused {\n        require(msg.data.length == 0,\"payload not allowed\");\n    }\n\n\n\n}\n\n",
  "sourcePath": "/Users/dkhroad/Work/blockchain_dev/flight-delay-insurance/contracts/FlightSuretyData.sol",
  "compiler": {
    "name": "solc",
    "version": "0.5.8+commit.23d335f2.Emscripten.clang"
  },
  "schemaVersion": "3.0.16",
  "updatedAt": "2019-10-05T00:10:47.097Z",
  "devdoc": {
    "methods": {
      "buy(address,uint256,uint256)": {
        "details": "Buy insurance for a flight    "
      },
      "constructor": {
        "details": "Constructor     The deploying account becomes contractOwner"
      },
      "creditInsurees(uint256,uint8,uint256)": {
        "details": "Credits payouts to insurees",
        "params": {
          "multiple": "payout multiple (in hundereds) for the original ammount.                        for example, for 1.5, the multiple should be 150                    Calling (App) contract is responsible for providing the sanitized value.               By keeping this logic in the app contract, we wont have to update/migrate               to a new data contract if payout logic changes.",
          "status": "flight status for which a payout should occur"
        }
      },
      "fund(address)": {
        "details": "Initial funding for the insurance. Unless there are too many delayed flights     resulting in insurance payouts, the contract should be self-sustaining    "
      },
      "getAirline(uint256)": {
        "params": {
          "flight": "keccak256 hash of the flight"
        },
        "return": "address of the airline to which this flight belongs to    "
      },
      "getCreditBalance(address)": {
        "details": "get credit balance for a customer"
      },
      "getFlightStatus(uint256)": {
        "details": "getFlightStatus "
      },
      "isOwner()": {
        "details": "Returns true if the caller is the current owner."
      },
      "owner()": {
        "details": "Returns the address of the current owner."
      },
      "pause()": {
        "details": "Called by a pauser to pause, triggers stopped state."
      },
      "paused()": {
        "details": "Returns true if the contract is paused, and false otherwise."
      },
      "pay(address)": {
        "details": "Transfers eligible payout funds to insuree    "
      },
      "registerAirline(address,string)": {
        "details": "Add an airline to the registration queue     Can only be called from FlightSuretyApp contract    "
      },
      "renounceOwnership()": {
        "details": "Leaves the contract without owner. It will not be possible to call `onlyOwner` functions anymore. Can only be called by the current owner.     * > Note: Renouncing ownership will leave the contract without an owner, thereby removing any functionality that is only available to the owner."
      },
      "setAirlineFundingStatus(address,bool)": {
        "details": "set the funding status only app contract knows the logic"
      },
      "setFlightStatus(uint256,uint8)": {
        "details": "setFlightStatus "
      },
      "transferOwnership(address)": {
        "details": "Transfers ownership of the contract to a new account (`newOwner`). Can only be called by the current owner."
      },
      "unpause()": {
        "details": "Called by a pauser to unpause, returns to normal state."
      }
    }
  },
  "userdoc": {
    "methods": {
      "authorizeContract(address)": {
        "notice": "*****************************************************************************************"
      },
      "getAirline(uint256)": {
        "notice": "returns the airline for a flight"
      }
    }
  }
}