{
  "contractName": "FlightSuretyData",
  "abi": [
    {
      "constant": false,
      "inputs": [],
      "name": "unpause",
      "outputs": [],
      "payable": false,
      "stateMutability": "nonpayable",
      "type": "function"
    },
    {
      "constant": true,
      "inputs": [
        {
          "name": "account",
          "type": "address"
        }
      ],
      "name": "isPauser",
      "outputs": [
        {
          "name": "",
          "type": "bool"
        }
      ],
      "payable": false,
      "stateMutability": "view",
      "type": "function"
    },
    {
      "constant": true,
      "inputs": [],
      "name": "paused",
      "outputs": [
        {
          "name": "",
          "type": "bool"
        }
      ],
      "payable": false,
      "stateMutability": "view",
      "type": "function"
    },
    {
      "constant": false,
      "inputs": [],
      "name": "renouncePauser",
      "outputs": [],
      "payable": false,
      "stateMutability": "nonpayable",
      "type": "function"
    },
    {
      "constant": false,
      "inputs": [],
      "name": "renounceOwnership",
      "outputs": [],
      "payable": false,
      "stateMutability": "nonpayable",
      "type": "function"
    },
    {
      "constant": false,
      "inputs": [
        {
          "name": "account",
          "type": "address"
        }
      ],
      "name": "addPauser",
      "outputs": [],
      "payable": false,
      "stateMutability": "nonpayable",
      "type": "function"
    },
    {
      "constant": false,
      "inputs": [],
      "name": "pause",
      "outputs": [],
      "payable": false,
      "stateMutability": "nonpayable",
      "type": "function"
    },
    {
      "constant": true,
      "inputs": [],
      "name": "owner",
      "outputs": [
        {
          "name": "",
          "type": "address"
        }
      ],
      "payable": false,
      "stateMutability": "view",
      "type": "function"
    },
    {
      "constant": true,
      "inputs": [],
      "name": "isOwner",
      "outputs": [
        {
          "name": "",
          "type": "bool"
        }
      ],
      "payable": false,
      "stateMutability": "view",
      "type": "function"
    },
    {
      "constant": false,
      "inputs": [
        {
          "name": "newOwner",
          "type": "address"
        }
      ],
      "name": "transferOwnership",
      "outputs": [],
      "payable": false,
      "stateMutability": "nonpayable",
      "type": "function"
    },
    {
      "inputs": [],
      "payable": false,
      "stateMutability": "nonpayable",
      "type": "constructor"
    },
    {
      "payable": true,
      "stateMutability": "payable",
      "type": "fallback"
    },
    {
      "anonymous": false,
      "inputs": [
        {
          "indexed": true,
          "name": "contractAddress",
          "type": "address"
        }
      ],
      "name": "Authorized",
      "type": "event"
    },
    {
      "anonymous": false,
      "inputs": [
        {
          "indexed": true,
          "name": "contractAddress",
          "type": "address"
        }
      ],
      "name": "DeAuthorized",
      "type": "event"
    },
    {
      "anonymous": false,
      "inputs": [
        {
          "indexed": true,
          "name": "previousOwner",
          "type": "address"
        },
        {
          "indexed": true,
          "name": "newOwner",
          "type": "address"
        }
      ],
      "name": "OwnershipTransferred",
      "type": "event"
    },
    {
      "anonymous": false,
      "inputs": [
        {
          "indexed": false,
          "name": "account",
          "type": "address"
        }
      ],
      "name": "Paused",
      "type": "event"
    },
    {
      "anonymous": false,
      "inputs": [
        {
          "indexed": false,
          "name": "account",
          "type": "address"
        }
      ],
      "name": "Unpaused",
      "type": "event"
    },
    {
      "anonymous": false,
      "inputs": [
        {
          "indexed": true,
          "name": "account",
          "type": "address"
        }
      ],
      "name": "PauserAdded",
      "type": "event"
    },
    {
      "anonymous": false,
      "inputs": [
        {
          "indexed": true,
          "name": "account",
          "type": "address"
        }
      ],
      "name": "PauserRemoved",
      "type": "event"
    },
    {
      "anonymous": false,
      "inputs": [
        {
          "indexed": true,
          "name": "airline",
          "type": "address"
        },
        {
          "indexed": false,
          "name": "name",
          "type": "string"
        },
        {
          "indexed": true,
          "name": "by",
          "type": "address"
        }
      ],
      "name": "AirlineRegistered",
      "type": "event"
    },
    {
      "anonymous": false,
      "inputs": [
        {
          "indexed": true,
          "name": "airline",
          "type": "address"
        },
        {
          "indexed": false,
          "name": "value",
          "type": "uint256"
        }
      ],
      "name": "AirlineFunded",
      "type": "event"
    },
    {
      "anonymous": false,
      "inputs": [
        {
          "indexed": true,
          "name": "customer",
          "type": "address"
        },
        {
          "indexed": true,
          "name": "policy",
          "type": "uint256"
        },
        {
          "indexed": false,
          "name": "flight",
          "type": "uint256"
        },
        {
          "indexed": false,
          "name": "timestamp",
          "type": "uint256"
        }
      ],
      "name": "PolicyPurchased",
      "type": "event"
    },
    {
      "anonymous": false,
      "inputs": [
        {
          "indexed": true,
          "name": "airline",
          "type": "address"
        },
        {
          "indexed": false,
          "name": "flight",
          "type": "string"
        },
        {
          "indexed": false,
          "name": "status",
          "type": "uint8"
        },
        {
          "indexed": false,
          "name": "policy",
          "type": "uint256"
        }
      ],
      "name": "FlightStatusUpdated",
      "type": "event"
    },
    {
      "anonymous": false,
      "inputs": [
        {
          "indexed": true,
          "name": "airline",
          "type": "address"
        },
        {
          "indexed": true,
          "name": "flight",
          "type": "uint256"
        },
        {
          "indexed": false,
          "name": "name",
          "type": "string"
        }
      ],
      "name": "FlightRegistered",
      "type": "event"
    },
    {
      "anonymous": false,
      "inputs": [
        {
          "indexed": true,
          "name": "customer",
          "type": "address"
        },
        {
          "indexed": false,
          "name": "payout",
          "type": "uint256"
        },
        {
          "indexed": false,
          "name": "policy",
          "type": "uint256"
        }
      ],
      "name": "InsuranceCredit",
      "type": "event"
    },
    {
      "anonymous": false,
      "inputs": [
        {
          "indexed": true,
          "name": "customer",
          "type": "address"
        },
        {
          "indexed": false,
          "name": "amount",
          "type": "uint256"
        }
      ],
      "name": "Payout",
      "type": "event"
    },
    {
      "constant": false,
      "inputs": [
        {
          "name": "contractAddress",
          "type": "address"
        }
      ],
      "name": "authorizeContract",
      "outputs": [],
      "payable": false,
      "stateMutability": "nonpayable",
      "type": "function"
    },
    {
      "constant": false,
      "inputs": [
        {
          "name": "contractAddress",
          "type": "address"
        }
      ],
      "name": "deAuthorizeContract",
      "outputs": [],
      "payable": false,
      "stateMutability": "nonpayable",
      "type": "function"
    },
    {
      "constant": false,
      "inputs": [
        {
          "name": "caller",
          "type": "address"
        }
      ],
      "name": "isAirlineRegistered",
      "outputs": [
        {
          "name": "",
          "type": "bool"
        }
      ],
      "payable": false,
      "stateMutability": "nonpayable",
      "type": "function"
    },
    {
      "constant": true,
      "inputs": [],
      "name": "isOperational",
      "outputs": [
        {
          "name": "",
          "type": "bool"
        }
      ],
      "payable": false,
      "stateMutability": "view",
      "type": "function"
    },
    {
      "constant": false,
      "inputs": [
        {
          "name": "airline",
          "type": "address"
        },
        {
          "name": "name",
          "type": "string"
        }
      ],
      "name": "registerAirline",
      "outputs": [],
      "payable": true,
      "stateMutability": "payable",
      "type": "function"
    },
    {
      "constant": false,
      "inputs": [
        {
          "name": "airline",
          "type": "address"
        },
        {
          "name": "status",
          "type": "bool"
        }
      ],
      "name": "setAirlineFundingStatus",
      "outputs": [],
      "payable": false,
      "stateMutability": "nonpayable",
      "type": "function"
    },
    {
      "constant": false,
      "inputs": [
        {
          "name": "airline",
          "type": "address"
        }
      ],
      "name": "getAirlineBalance",
      "outputs": [
        {
          "name": "",
          "type": "uint256"
        }
      ],
      "payable": false,
      "stateMutability": "nonpayable",
      "type": "function"
    },
    {
      "constant": false,
      "inputs": [
        {
          "name": "airline",
          "type": "address"
        },
        {
          "name": "name",
          "type": "string"
        },
        {
          "name": "flight",
          "type": "uint256"
        }
      ],
      "name": "registerFlight",
      "outputs": [],
      "payable": false,
      "stateMutability": "nonpayable",
      "type": "function"
    },
    {
      "constant": false,
      "inputs": [
        {
          "name": "flight",
          "type": "uint256"
        }
      ],
      "name": "getAirline",
      "outputs": [
        {
          "name": "",
          "type": "address"
        }
      ],
      "payable": false,
      "stateMutability": "nonpayable",
      "type": "function"
    },
    {
      "constant": false,
      "inputs": [
        {
          "name": "customer",
          "type": "address"
        },
        {
          "name": "policyKey",
          "type": "uint256"
        },
        {
          "name": "flightKey",
          "type": "uint256"
        },
        {
          "name": "timestamp",
          "type": "uint256"
        }
      ],
      "name": "buy",
      "outputs": [],
      "payable": true,
      "stateMutability": "payable",
      "type": "function"
    },
    {
      "constant": false,
      "inputs": [
        {
          "name": "policyKey",
          "type": "uint256"
        },
        {
          "name": "statusCode",
          "type": "uint8"
        }
      ],
      "name": "setFlightStatus",
      "outputs": [],
      "payable": false,
      "stateMutability": "nonpayable",
      "type": "function"
    },
    {
      "constant": true,
      "inputs": [
        {
          "name": "policyKey",
          "type": "uint256"
        }
      ],
      "name": "getFlightStatus",
      "outputs": [
        {
          "name": "",
          "type": "uint8"
        }
      ],
      "payable": false,
      "stateMutability": "view",
      "type": "function"
    },
    {
      "constant": false,
      "inputs": [
        {
          "name": "policyKey",
          "type": "uint256"
        },
        {
          "name": "status",
          "type": "uint8"
        },
        {
          "name": "multiple",
          "type": "uint256"
        }
      ],
      "name": "creditInsurees",
      "outputs": [],
      "payable": false,
      "stateMutability": "nonpayable",
      "type": "function"
    },
    {
      "constant": false,
      "inputs": [
        {
          "name": "customer",
          "type": "address"
        }
      ],
      "name": "pay",
      "outputs": [],
      "payable": true,
      "stateMutability": "payable",
      "type": "function"
    },
    {
      "constant": false,
      "inputs": [
        {
          "name": "airline",
          "type": "address"
        }
      ],
      "name": "fund",
      "outputs": [
        {
          "name": "",
          "type": "uint256"
        }
      ],
      "payable": true,
      "stateMutability": "payable",
      "type": "function"
    }
  ],
  "bytecode": "0x60806040523480156200001157600080fd5b5062000023336200010060201b60201c565b6000600160006101000a81548160ff021916908315150217905550336001806101000a81548173ffffffffffffffffffffffffffffffffffffffff021916908373ffffffffffffffffffffffffffffffffffffffff1602179055506001809054906101000a900473ffffffffffffffffffffffffffffffffffffffff1673ffffffffffffffffffffffffffffffffffffffff16600073ffffffffffffffffffffffffffffffffffffffff167f8be0079c531659141344cd1fd0a4f28419497f9722a3daafe3b4186f6b6457e060405160405180910390a362000325565b6200011b8160006200016160201b62003b651790919060201c565b8073ffffffffffffffffffffffffffffffffffffffff167f6719d08c1888103bea251a4ed56406bd0c3e69723c8a1686e017e7bbe159b6f860405160405180910390a250565b6200017382826200024560201b60201c565b15620001e7576040517f08c379a000000000000000000000000000000000000000000000000000000000815260040180806020018281038252601f8152602001807f526f6c65733a206163636f756e7420616c72656164792068617320726f6c650081525060200191505060405180910390fd5b60018260000160008373ffffffffffffffffffffffffffffffffffffffff1673ffffffffffffffffffffffffffffffffffffffff16815260200190815260200160002060006101000a81548160ff0219169083151502179055505050565b60008073ffffffffffffffffffffffffffffffffffffffff168273ffffffffffffffffffffffffffffffffffffffff161415620002ce576040517f08c379a0000000000000000000000000000000000000000000000000000000008152600401808060200182810382526022815260200180620041e86022913960400191505060405180910390fd5b8260000160008373ffffffffffffffffffffffffffffffffffffffff1673ffffffffffffffffffffffffffffffffffffffff16815260200190815260200160002060009054906101000a900460ff16905092915050565b613eb380620003356000396000f3fe6080604052600436106101665760003560e01c806382dc1ec4116100d1578063c7e7da891161008a578063d6e1c18911610064578063d6e1c18914610873578063e81f1694146108ee578063ee38a7491461094b578063f2fde38b146109e457610166565b8063c7e7da89146107aa578063caab72c2146107fc578063cd905dff1461084457610166565b806382dc1ec4146106065780638456cb591461065757806389208e721461066e5780638da5cb5b146106d35780638f32d59b1461072a578063a1a5faf11461075957610166565b80633f4ba83a116101235780633f4ba83a146104d857806346fbf68e146104ef5780635c975abb1461055857806367561d93146105875780636ef8d66d146105d8578063715018a6146105ef57610166565b8063010c5c97146102645780630c11dedd146102cd5780631622dbe41461031157806323024408146103735780632a7e13f7146103cb5780633cc0be9c14610428575b600160009054906101000a900460ff16156101e9576040517f08c379a00000000000000000000000000000000000000000000000000000000081526004018080602001828103825260108152602001807f5061757361626c653a207061757365640000000000000000000000000000000081525060200191505060405180910390fd5b60008036905014610262576040517f08c379a00000000000000000000000000000000000000000000000000000000081526004018080602001828103825260138152602001807f7061796c6f6164206e6f7420616c6c6f7765640000000000000000000000000081525060200191505060405180910390fd5b005b34801561027057600080fd5b506102b36004803603602081101561028757600080fd5b81019080803573ffffffffffffffffffffffffffffffffffffffff169060200190929190505050610a35565b604051808215151515815260200191505060405180910390f35b61030f600480360360208110156102e357600080fd5b81019080803573ffffffffffffffffffffffffffffffffffffffff169060200190929190505050610ba9565b005b6103716004803603608081101561032757600080fd5b81019080803573ffffffffffffffffffffffffffffffffffffffff169060200190929190803590602001909291908035906020019092919080359060200190929190505050610ee8565b005b6103b56004803603602081101561038957600080fd5b81019080803573ffffffffffffffffffffffffffffffffffffffff16906020019092919050505061145a565b6040518082815260200191505060405180910390f35b3480156103d757600080fd5b50610426600480360360408110156103ee57600080fd5b81019080803573ffffffffffffffffffffffffffffffffffffffff169060200190929190803515159060200190929190505050611762565b005b34801561043457600080fd5b506104d66004803603606081101561044b57600080fd5b81019080803573ffffffffffffffffffffffffffffffffffffffff1690602001909291908035906020019064010000000081111561048857600080fd5b82018360208201111561049a57600080fd5b803590602001918460018302840111640100000000831117156104bc57600080fd5b9091929391929390803590602001909291905050506118db565b005b3480156104e457600080fd5b506104ed611b21565b005b3480156104fb57600080fd5b5061053e6004803603602081101561051257600080fd5b81019080803573ffffffffffffffffffffffffffffffffffffffff169060200190929190505050611c81565b604051808215151515815260200191505060405180910390f35b34801561056457600080fd5b5061056d611c9e565b604051808215151515815260200191505060405180910390f35b34801561059357600080fd5b506105d6600480360360208110156105aa57600080fd5b81019080803573ffffffffffffffffffffffffffffffffffffffff169060200190929190505050611cb5565b005b3480156105e457600080fd5b506105ed611e5d565b005b3480156105fb57600080fd5b50610604611e68565b005b34801561061257600080fd5b506106556004803603602081101561062957600080fd5b81019080803573ffffffffffffffffffffffffffffffffffffffff169060200190929190505050611fa1565b005b34801561066357600080fd5b5061066c61200b565b005b34801561067a57600080fd5b506106bd6004803603602081101561069157600080fd5b81019080803573ffffffffffffffffffffffffffffffffffffffff16906020019092919050505061216b565b6040518082815260200191505060405180910390f35b3480156106df57600080fd5b506106e86122d2565b604051808273ffffffffffffffffffffffffffffffffffffffff1673ffffffffffffffffffffffffffffffffffffffff16815260200191505060405180910390f35b34801561073657600080fd5b5061073f6122fb565b604051808215151515815260200191505060405180910390f35b34801561076557600080fd5b506107a86004803603602081101561077c57600080fd5b81019080803573ffffffffffffffffffffffffffffffffffffffff169060200190929190505050612352565b005b3480156107b657600080fd5b506107fa600480360360608110156107cd57600080fd5b8101908080359060200190929190803560ff16906020019092919080359060200190929190505050612455565b005b34801561080857600080fd5b506108426004803603604081101561081f57600080fd5b8101908080359060200190929190803560ff169060200190929190505050612957565b005b34801561085057600080fd5b50610859612f3b565b604051808215151515815260200191505060405180910390f35b34801561087f57600080fd5b506108ac6004803603602081101561089657600080fd5b8101908080359060200190929190505050612fe3565b604051808273ffffffffffffffffffffffffffffffffffffffff1673ffffffffffffffffffffffffffffffffffffffff16815260200191505060405180910390f35b3480156108fa57600080fd5b506109276004803603602081101561091157600080fd5b810190808035906020019092919050505061313e565b6040518082600581111561093757fe5b60ff16815260200191505060405180910390f35b6109e26004803603604081101561096157600080fd5b81019080803573ffffffffffffffffffffffffffffffffffffffff1690602001909291908035906020019064010000000081111561099e57600080fd5b8201836020820111156109b057600080fd5b803590602001918460018302840111640100000000831117156109d257600080fd5b9091929391929390505050613286565b005b3480156109f057600080fd5b50610a3360048036036020811015610a0757600080fd5b81019080803573ffffffffffffffffffffffffffffffffffffffff1690602001909291905050506135af565b005b6000600160009054906101000a900460ff1615610aba576040517f08c379a00000000000000000000000000000000000000000000000000000000081526004018080602001828103825260108152602001807f5061757361626c653a207061757365640000000000000000000000000000000081525060200191505060405180910390fd5b6001600660003373ffffffffffffffffffffffffffffffffffffffff1673ffffffffffffffffffffffffffffffffffffffff1681526020019081526020016000205414610b52576040517f08c379a0000000000000000000000000000000000000000000000000000000008152600401808060200182810382526022815260200180613e666022913960400191505060405180910390fd5b600260008373ffffffffffffffffffffffffffffffffffffffff1673ffffffffffffffffffffffffffffffffffffffff16815260200190815260200160002060020160009054906101000a900460ff169050919050565b600160009054906101000a900460ff1615610c2c576040517f08c379a00000000000000000000000000000000000000000000000000000000081526004018080602001828103825260108152602001807f5061757361626c653a207061757365640000000000000000000000000000000081525060200191505060405180910390fd5b6001600660003373ffffffffffffffffffffffffffffffffffffffff1673ffffffffffffffffffffffffffffffffffffffff1681526020019081526020016000205414610cc4576040517f08c379a0000000000000000000000000000000000000000000000000000000008152600401808060200182810382526022815260200180613e666022913960400191505060405180910390fd5b6000600560008373ffffffffffffffffffffffffffffffffffffffff1673ffffffffffffffffffffffffffffffffffffffff16815260200190815260200160002054905060008111610d7e576040517f08c379a00000000000000000000000000000000000000000000000000000000081526004018080602001828103825260128152602001807f4e6f207061796f75742062616c616e63652e000000000000000000000000000081525060200191505060405180910390fd5b803073ffffffffffffffffffffffffffffffffffffffff163111610e0a576040517f08c379a00000000000000000000000000000000000000000000000000000000081526004018080602001828103825260128152602001807f496e73756666696369656e742066756e6473000000000000000000000000000081525060200191505060405180910390fd5b6000600560008473ffffffffffffffffffffffffffffffffffffffff1673ffffffffffffffffffffffffffffffffffffffff168152602001908152602001600020819055508173ffffffffffffffffffffffffffffffffffffffff166108fc829081150290604051600060405180830381858888f19350505050158015610e95573d6000803e3d6000fd5b508173ffffffffffffffffffffffffffffffffffffffff167f5afeca38b2064c23a692c4cf353015d80ab3ecc417b4f893f372690c11fbd9a6826040518082815260200191505060405180910390a25050565b600160009054906101000a900460ff1615610f6b576040517f08c379a00000000000000000000000000000000000000000000000000000000081526004018080602001828103825260108152602001807f5061757361626c653a207061757365640000000000000000000000000000000081525060200191505060405180910390fd5b6001600660003373ffffffffffffffffffffffffffffffffffffffff1673ffffffffffffffffffffffffffffffffffffffff1681526020019081526020016000205414611003576040517f08c379a0000000000000000000000000000000000000000000000000000000008152600401808060200182810382526022815260200180613e666022913960400191505060405180910390fd5b816003600082815260200190815260200160002060000160009054906101000a900460ff1661109a576040517f08c379a00000000000000000000000000000000000000000000000000000000081526004018080602001828103825260148152602001807f556e7265676973746572656420666c696768742e00000000000000000000000081525060200191505060405180910390fd5b83600060058111156110a857fe5b6004600083815260200190815260200160002060040160009054906101000a900460ff1660058111156110d757fe5b1461114a576040517f08c379a000000000000000000000000000000000000000000000000000000000815260040180806020018281038252601a8152602001807f496e76616c6964206f72206578706972656420706f6c6963792e00000000000081525060200191505060405180910390fd5b600034116111c0576040517f08c379a00000000000000000000000000000000000000000000000000000000081526004018080602001828103825260128152602001807f4e6f2065746865722070726f76696465642e000000000000000000000000000081525060200191505060405180910390fd5b60006004600087815260200190815260200160002090506000816002015414806111ed5750838160020154145b61125f576040517f08c379a000000000000000000000000000000000000000000000000000000000815260040180806020018281038252600e8152602001807f496e76616c696420706f6c69637900000000000000000000000000000000000081525060200191505060405180910390fd5b6000816001015414806112755750848160010154145b6112e7576040517f08c379a000000000000000000000000000000000000000000000000000000000815260040180806020018281038252600e8152602001807f496e76616c696420666c6967687400000000000000000000000000000000000081525060200191505060405180910390fd5b6000816002015414156112fe578381600201819055505b600081600101541415611315578481600101819055505b61131d613c40565b87816000019073ffffffffffffffffffffffffffffffffffffffff16908173ffffffffffffffffffffffffffffffffffffffff16815250503481602001818152505060046000888152602001908152602001600020600001819080600181540180825580915050906001820390600052602060002090600202016000909192909190915060008201518160000160006101000a81548173ffffffffffffffffffffffffffffffffffffffff021916908373ffffffffffffffffffffffffffffffffffffffff16021790555060208201518160010155505050868873ffffffffffffffffffffffffffffffffffffffff167f8b8961810a39fd56d36e421278c7737795a230b372ac246eb46d37eae370db5f846001015488604051808381526020018281526020019250505060405180910390a35050505050505050565b6000600160009054906101000a900460ff16156114df576040517f08c379a00000000000000000000000000000000000000000000000000000000081526004018080602001828103825260108152602001807f5061757361626c653a207061757365640000000000000000000000000000000081525060200191505060405180910390fd5b6001600660003373ffffffffffffffffffffffffffffffffffffffff1673ffffffffffffffffffffffffffffffffffffffff1681526020019081526020016000205414611577576040517f08c379a0000000000000000000000000000000000000000000000000000000008152600401808060200182810382526022815260200180613e666022913960400191505060405180910390fd5b600034116115ed576040517f08c379a00000000000000000000000000000000000000000000000000000000081526004018080602001828103825260168152602001807f4d7573742075736520657468657220746f2066756e640000000000000000000081525060200191505060405180910390fd5b61164234600260008573ffffffffffffffffffffffffffffffffffffffff1673ffffffffffffffffffffffffffffffffffffffff1681526020019081526020016000206000015461363590919063ffffffff16565b600260008473ffffffffffffffffffffffffffffffffffffffff1673ffffffffffffffffffffffffffffffffffffffff168152602001908152602001600020600001819055508173ffffffffffffffffffffffffffffffffffffffff167fe3e3c2f23f7445131259937f93b9ed0c075fe06c9d702be2d7ac549d0ec5fc32600260008573ffffffffffffffffffffffffffffffffffffffff1673ffffffffffffffffffffffffffffffffffffffff168152602001908152602001600020600001546040518082815260200191505060405180910390a2600260008373ffffffffffffffffffffffffffffffffffffffff1673ffffffffffffffffffffffffffffffffffffffff168152602001908152602001600020600001549050919050565b600160009054906101000a900460ff16156117e5576040517f08c379a00000000000000000000000000000000000000000000000000000000081526004018080602001828103825260108152602001807f5061757361626c653a207061757365640000000000000000000000000000000081525060200191505060405180910390fd5b6001600660003373ffffffffffffffffffffffffffffffffffffffff1673ffffffffffffffffffffffffffffffffffffffff168152602001908152602001600020541461187d576040517f08c379a0000000000000000000000000000000000000000000000000000000008152600401808060200182810382526022815260200180613e666022913960400191505060405180910390fd5b80600260008473ffffffffffffffffffffffffffffffffffffffff1673ffffffffffffffffffffffffffffffffffffffff16815260200190815260200160002060020160016101000a81548160ff0219169083151502179055505050565b600160009054906101000a900460ff161561195e576040517f08c379a00000000000000000000000000000000000000000000000000000000081526004018080602001828103825260108152602001807f5061757361626c653a207061757365640000000000000000000000000000000081525060200191505060405180910390fd5b6001600660003373ffffffffffffffffffffffffffffffffffffffff1673ffffffffffffffffffffffffffffffffffffffff16815260200190815260200160002054146119f6576040517f08c379a0000000000000000000000000000000000000000000000000000000008152600401808060200182810382526022815260200180613e666022913960400191505060405180910390fd5b836003600083815260200190815260200160002060000160016101000a81548173ffffffffffffffffffffffffffffffffffffffff021916908373ffffffffffffffffffffffffffffffffffffffff16021790555060016003600083815260200190815260200160002060000160006101000a81548160ff0219169083151502179055508282600360008481526020019081526020016000206001019190611a9f929190613c70565b50808473ffffffffffffffffffffffffffffffffffffffff167f9b8d8ae824bbf1324365dd292d6415911834d1371fdfe968815e2814f645e348858560405180806020018281038252848482818152602001925080828437600081840152601f19601f820116905080830192505050935050505060405180910390a350505050565b611b2a33611c81565b611b7f576040517f08c379a0000000000000000000000000000000000000000000000000000000008152600401808060200182810382526030815260200180613d896030913960400191505060405180910390fd5b600160009054906101000a900460ff16611c01576040517f08c379a00000000000000000000000000000000000000000000000000000000081526004018080602001828103825260148152602001807f5061757361626c653a206e6f742070617573656400000000000000000000000081525060200191505060405180910390fd5b6000600160006101000a81548160ff0219169083151502179055507f5db9ee0a495bf2e6ff9c91a7834c1ba4fdd244a5e8aa4e537bd38aeae4b073aa33604051808273ffffffffffffffffffffffffffffffffffffffff1673ffffffffffffffffffffffffffffffffffffffff16815260200191505060405180910390a1565b6000611c978260006136bd90919063ffffffff16565b9050919050565b6000600160009054906101000a900460ff16905090565b611cbd6122fb565b611d2f576040517f08c379a00000000000000000000000000000000000000000000000000000000081526004018080602001828103825260208152602001807f4f776e61626c653a2063616c6c6572206973206e6f7420746865206f776e657281525060200191505060405180910390fd5b600073ffffffffffffffffffffffffffffffffffffffff168173ffffffffffffffffffffffffffffffffffffffff161415611dd2576040517f08c379a00000000000000000000000000000000000000000000000000000000081526004018080602001828103825260108152602001807f496e76616c696420636f6e74726163740000000000000000000000000000000081525060200191505060405180910390fd5b6001600660008373ffffffffffffffffffffffffffffffffffffffff1673ffffffffffffffffffffffffffffffffffffffff168152602001908152602001600020819055508073ffffffffffffffffffffffffffffffffffffffff167fdc84e3a4c83602050e3865df792a4e6800211a79ac60db94e703a820ce89292460405160405180910390a250565b611e663361379b565b565b611e706122fb565b611ee2576040517f08c379a00000000000000000000000000000000000000000000000000000000081526004018080602001828103825260208152602001807f4f776e61626c653a2063616c6c6572206973206e6f7420746865206f776e657281525060200191505060405180910390fd5b600073ffffffffffffffffffffffffffffffffffffffff166001809054906101000a900473ffffffffffffffffffffffffffffffffffffffff1673ffffffffffffffffffffffffffffffffffffffff167f8be0079c531659141344cd1fd0a4f28419497f9722a3daafe3b4186f6b6457e060405160405180910390a360006001806101000a81548173ffffffffffffffffffffffffffffffffffffffff021916908373ffffffffffffffffffffffffffffffffffffffff160217905550565b611faa33611c81565b611fff576040517f08c379a0000000000000000000000000000000000000000000000000000000008152600401808060200182810382526030815260200180613d896030913960400191505060405180910390fd5b612008816137f5565b50565b61201433611c81565b612069576040517f08c379a0000000000000000000000000000000000000000000000000000000008152600401808060200182810382526030815260200180613d896030913960400191505060405180910390fd5b600160009054906101000a900460ff16156120ec576040517f08c379a00000000000000000000000000000000000000000000000000000000081526004018080602001828103825260108152602001807f5061757361626c653a207061757365640000000000000000000000000000000081525060200191505060405180910390fd5b60018060006101000a81548160ff0219169083151502179055507f62e78cea01bee320cd4e420270b5ea74000d11b0c9f74754ebdbfc544b05a25833604051808273ffffffffffffffffffffffffffffffffffffffff1673ffffffffffffffffffffffffffffffffffffffff16815260200191505060405180910390a1565b6000600160009054906101000a900460ff16156121f0576040517f08c379a00000000000000000000000000000000000000000000000000000000081526004018080602001828103825260108152602001807f5061757361626c653a207061757365640000000000000000000000000000000081525060200191505060405180910390fd5b6001600660003373ffffffffffffffffffffffffffffffffffffffff1673ffffffffffffffffffffffffffffffffffffffff1681526020019081526020016000205414612288576040517f08c379a0000000000000000000000000000000000000000000000000000000008152600401808060200182810382526022815260200180613e666022913960400191505060405180910390fd5b600260008373ffffffffffffffffffffffffffffffffffffffff1673ffffffffffffffffffffffffffffffffffffffff168152602001908152602001600020600001549050919050565b60006001809054906101000a900473ffffffffffffffffffffffffffffffffffffffff16905090565b60006001809054906101000a900473ffffffffffffffffffffffffffffffffffffffff1673ffffffffffffffffffffffffffffffffffffffff163373ffffffffffffffffffffffffffffffffffffffff1614905090565b61235a6122fb565b6123cc576040517f08c379a00000000000000000000000000000000000000000000000000000000081526004018080602001828103825260208152602001807f4f776e61626c653a2063616c6c6572206973206e6f7420746865206f776e657281525060200191505060405180910390fd5b600660008273ffffffffffffffffffffffffffffffffffffffff1673ffffffffffffffffffffffffffffffffffffffff168152602001908152602001600020600090558073ffffffffffffffffffffffffffffffffffffffff167fc6e68059f6c59235d88b015cebfbecb5ec0a89bca225e2b54303d9f4bcd397de60405160405180910390a250565b600160009054906101000a900460ff16156124d8576040517f08c379a00000000000000000000000000000000000000000000000000000000081526004018080602001828103825260108152602001807f5061757361626c653a207061757365640000000000000000000000000000000081525060200191505060405180910390fd5b6001600660003373ffffffffffffffffffffffffffffffffffffffff1673ffffffffffffffffffffffffffffffffffffffff1681526020019081526020016000205414612570576040517f08c379a0000000000000000000000000000000000000000000000000000000008152600401808060200182810382526022815260200180613e666022913960400191505060405180910390fd5b612578613cf0565b600460008581526020019081526020016000206040518060a001604052908160008201805480602002602001604051908101604052809291908181526020016000905b8282101561264d57838290600052602060002090600202016040518060400160405290816000820160009054906101000a900473ffffffffffffffffffffffffffffffffffffffff1673ffffffffffffffffffffffffffffffffffffffff1673ffffffffffffffffffffffffffffffffffffffff168152602001600182015481525050815260200190600101906125bb565b5050505081526020016001820154815260200160028201548152602001600382015481526020016004820160009054906101000a900460ff16600581111561269157fe5b600581111561269c57fe5b815250509050600060058111156126af57fe5b816080015160058111156126bf57fe5b1415612716576040517f08c379a0000000000000000000000000000000000000000000000000000000008152600401808060200182810382526023815260200180613e216023913960400191505060405180910390fd5b82600581111561272257fe5b8160800151600581111561273257fe5b146127a5576040517f08c379a00000000000000000000000000000000000000000000000000000000081526004018080602001828103825260178152602001807f556e657870656374656420706f6c69637920737461746500000000000000000081525060200191505060405180910390fd5b60608160000151905060005b815181101561294f5760008282815181106127c857fe5b602002602001015160200151905060006004600089815260200190815260200160002060000183815481106127f957fe5b90600052602060002090600202016001018190555060006128366064612828888561384f90919063ffffffff16565b6138d590919063ffffffff16565b9050600084848151811061284657fe5b60200260200101516000015190506128a682600560008473ffffffffffffffffffffffffffffffffffffffff1673ffffffffffffffffffffffffffffffffffffffff1681526020019081526020016000205461363590919063ffffffff16565b600560008373ffffffffffffffffffffffffffffffffffffffff1673ffffffffffffffffffffffffffffffffffffffff168152602001908152602001600020819055508073ffffffffffffffffffffffffffffffffffffffff167f697f42de413c96141e86c7822138ea204f205fe3028b668c02338e6b9141ad58838b604051808381526020018281526020019250505060405180910390a250505080806001019150506127b1565b505050505050565b600160009054906101000a900460ff16156129da576040517f08c379a00000000000000000000000000000000000000000000000000000000081526004018080602001828103825260108152602001807f5061757361626c653a207061757365640000000000000000000000000000000081525060200191505060405180910390fd5b6001600660003373ffffffffffffffffffffffffffffffffffffffff1673ffffffffffffffffffffffffffffffffffffffff1681526020019081526020016000205414612a72576040517f08c379a0000000000000000000000000000000000000000000000000000000008152600401808060200182810382526022815260200180613e666022913960400191505060405180910390fd5b8160006005811115612a8057fe5b6004600083815260200190815260200160002060040160009054906101000a900460ff166005811115612aaf57fe5b14612b22576040517f08c379a000000000000000000000000000000000000000000000000000000000815260040180806020018281038252600f8152602001807f4578706972656420706f6c6963792e000000000000000000000000000000000081525060200191505060405180910390fd5b600060046000838152602001908152602001600020600101541415612baf576040517f08c379a00000000000000000000000000000000000000000000000000000000081526004018080602001828103825260148152602001807f4e6f6e2d6578697374656e7420706f6c6963792e00000000000000000000000081525060200191505060405180910390fd5b816004600085815260200190815260200160002060040160006101000a81548160ff02191690836005811115612be157fe5b0217905550612bee613cf0565b600460008581526020019081526020016000206040518060a001604052908160008201805480602002602001604051908101604052809291908181526020016000905b82821015612cc357838290600052602060002090600202016040518060400160405290816000820160009054906101000a900473ffffffffffffffffffffffffffffffffffffffff1673ffffffffffffffffffffffffffffffffffffffff1673ffffffffffffffffffffffffffffffffffffffff16815260200160018201548152505081526020019060010190612c31565b5050505081526020016001820154815260200160028201548152602001600382015481526020016004820160009054906101000a900460ff166005811115612d0757fe5b6005811115612d1257fe5b815250509050612d20613d2a565b60036000836020015181526020019081526020016000206040518060600160405290816000820160009054906101000a900460ff161515151581526020016000820160019054906101000a900473ffffffffffffffffffffffffffffffffffffffff1673ffffffffffffffffffffffffffffffffffffffff1673ffffffffffffffffffffffffffffffffffffffff168152602001600182018054600181600116156101000203166002900480601f016020809104026020016040519081016040528092919081815260200182805460018160011615610100020316600290048015612e4c5780601f10612e2157610100808354040283529160200191612e4c565b820191906000526020600020905b815481529060010190602001808311612e2f57829003601f168201915b5050505050815250509050806020015173ffffffffffffffffffffffffffffffffffffffff167f8ced3ffd3f4fca149e135d4dbe2bbeb4af078bdfebc009ef755388d2543a9f8582604001518460800151886040518080602001846005811115612eb257fe5b60ff168152602001838152602001828103825285818151815260200191508051906020019080838360005b83811015612ef8578082015181840152602081019050612edd565b50505050905090810190601f168015612f255780820380516001836020036101000a031916815260200191505b5094505050505060405180910390a25050505050565b60006001600660003373ffffffffffffffffffffffffffffffffffffffff1673ffffffffffffffffffffffffffffffffffffffff1681526020019081526020016000205414612fd5576040517f08c379a0000000000000000000000000000000000000000000000000000000008152600401808060200182810382526022815260200180613e666022913960400191505060405180910390fd5b612fdd611c9e565b15905090565b6000600160009054906101000a900460ff1615613068576040517f08c379a00000000000000000000000000000000000000000000000000000000081526004018080602001828103825260108152602001807f5061757361626c653a207061757365640000000000000000000000000000000081525060200191505060405180910390fd5b6001600660003373ffffffffffffffffffffffffffffffffffffffff1673ffffffffffffffffffffffffffffffffffffffff1681526020019081526020016000205414613100576040517f08c379a0000000000000000000000000000000000000000000000000000000008152600401808060200182810382526022815260200180613e666022913960400191505060405180910390fd5b6003600083815260200190815260200160002060000160019054906101000a900473ffffffffffffffffffffffffffffffffffffffff169050919050565b6000600160009054906101000a900460ff16156131c3576040517f08c379a00000000000000000000000000000000000000000000000000000000081526004018080602001828103825260108152602001807f5061757361626c653a207061757365640000000000000000000000000000000081525060200191505060405180910390fd5b6001600660003373ffffffffffffffffffffffffffffffffffffffff1673ffffffffffffffffffffffffffffffffffffffff168152602001908152602001600020541461325b576040517f08c379a0000000000000000000000000000000000000000000000000000000008152600401808060200182810382526022815260200180613e666022913960400191505060405180910390fd5b6004600083815260200190815260200160002060040160009054906101000a900460ff169050919050565b600160009054906101000a900460ff1615613309576040517f08c379a00000000000000000000000000000000000000000000000000000000081526004018080602001828103825260108152602001807f5061757361626c653a207061757365640000000000000000000000000000000081525060200191505060405180910390fd5b6001600660003373ffffffffffffffffffffffffffffffffffffffff1673ffffffffffffffffffffffffffffffffffffffff16815260200190815260200160002054146133a1576040517f08c379a0000000000000000000000000000000000000000000000000000000008152600401808060200182810382526022815260200180613e666022913960400191505060405180910390fd5b8260001515600260008373ffffffffffffffffffffffffffffffffffffffff1673ffffffffffffffffffffffffffffffffffffffff16815260200190815260200160002060020160009054906101000a900460ff1615151461346b576040517f08c379a000000000000000000000000000000000000000000000000000000000815260040180806020018281038252601e8152602001807f4169726c696e6520697320616c726561647920726567697374657265642e000081525060200191505060405180910390fd5b8282600260008773ffffffffffffffffffffffffffffffffffffffff1673ffffffffffffffffffffffffffffffffffffffff16815260200190815260200160002060010191906134bc929190613c70565b506001600260008673ffffffffffffffffffffffffffffffffffffffff1673ffffffffffffffffffffffffffffffffffffffff16815260200190815260200160002060020160006101000a81548160ff0219169083151502179055503373ffffffffffffffffffffffffffffffffffffffff168473ffffffffffffffffffffffffffffffffffffffff167fdaadac9f3079423f7d181e3d49e449f1047be14f86f3422009d15b8ad98cdc8e858560405180806020018281038252848482818152602001925080828437600081840152601f19601f820116905080830192505050935050505060405180910390a350505050565b6135b76122fb565b613629576040517f08c379a00000000000000000000000000000000000000000000000000000000081526004018080602001828103825260208152602001807f4f776e61626c653a2063616c6c6572206973206e6f7420746865206f776e657281525060200191505060405180910390fd5b61363281613964565b50565b6000808284019050838110156136b3576040517f08c379a000000000000000000000000000000000000000000000000000000000815260040180806020018281038252601b8152602001807f536166654d6174683a206164646974696f6e206f766572666c6f77000000000081525060200191505060405180910390fd5b8091505092915050565b60008073ffffffffffffffffffffffffffffffffffffffff168273ffffffffffffffffffffffffffffffffffffffff161415613744576040517f08c379a0000000000000000000000000000000000000000000000000000000008152600401808060200182810382526022815260200180613e446022913960400191505060405180910390fd5b8260000160008373ffffffffffffffffffffffffffffffffffffffff1673ffffffffffffffffffffffffffffffffffffffff16815260200190815260200160002060009054906101000a900460ff16905092915050565b6137af816000613aa890919063ffffffff16565b8073ffffffffffffffffffffffffffffffffffffffff167fcd265ebaf09df2871cc7bd4133404a235ba12eff2041bb89d9c714a2621c7c7e60405160405180910390a250565b613809816000613b6590919063ffffffff16565b8073ffffffffffffffffffffffffffffffffffffffff167f6719d08c1888103bea251a4ed56406bd0c3e69723c8a1686e017e7bbe159b6f860405160405180910390a250565b60008083141561386257600090506138cf565b600082840290508284828161387357fe5b04146138ca576040517f08c379a0000000000000000000000000000000000000000000000000000000008152600401808060200182810382526021815260200180613e006021913960400191505060405180910390fd5b809150505b92915050565b600080821161394c576040517f08c379a000000000000000000000000000000000000000000000000000000000815260040180806020018281038252601a8152602001807f536166654d6174683a206469766973696f6e206279207a65726f00000000000081525060200191505060405180910390fd5b600082848161395757fe5b0490508091505092915050565b600073ffffffffffffffffffffffffffffffffffffffff168173ffffffffffffffffffffffffffffffffffffffff1614156139ea576040517f08c379a0000000000000000000000000000000000000000000000000000000008152600401808060200182810382526026815260200180613db96026913960400191505060405180910390fd5b8073ffffffffffffffffffffffffffffffffffffffff166001809054906101000a900473ffffffffffffffffffffffffffffffffffffffff1673ffffffffffffffffffffffffffffffffffffffff167f8be0079c531659141344cd1fd0a4f28419497f9722a3daafe3b4186f6b6457e060405160405180910390a3806001806101000a81548173ffffffffffffffffffffffffffffffffffffffff021916908373ffffffffffffffffffffffffffffffffffffffff16021790555050565b613ab282826136bd565b613b07576040517f08c379a0000000000000000000000000000000000000000000000000000000008152600401808060200182810382526021815260200180613ddf6021913960400191505060405180910390fd5b60008260000160008373ffffffffffffffffffffffffffffffffffffffff1673ffffffffffffffffffffffffffffffffffffffff16815260200190815260200160002060006101000a81548160ff0219169083151502179055505050565b613b6f82826136bd565b15613be2576040517f08c379a000000000000000000000000000000000000000000000000000000000815260040180806020018281038252601f8152602001807f526f6c65733a206163636f756e7420616c72656164792068617320726f6c650081525060200191505060405180910390fd5b60018260000160008373ffffffffffffffffffffffffffffffffffffffff1673ffffffffffffffffffffffffffffffffffffffff16815260200190815260200160002060006101000a81548160ff0219169083151502179055505050565b6040518060400160405280600073ffffffffffffffffffffffffffffffffffffffff168152602001600081525090565b828054600181600116156101000203166002900490600052602060002090601f016020900481019282601f10613cb157803560ff1916838001178555613cdf565b82800160010185558215613cdf579182015b82811115613cde578235825591602001919060010190613cc3565b5b509050613cec9190613d63565b5090565b6040518060a001604052806060815260200160008152602001600081526020016000815260200160006005811115613d2457fe5b81525090565b6040518060600160405280600015158152602001600073ffffffffffffffffffffffffffffffffffffffff168152602001606081525090565b613d8591905b80821115613d81576000816000905550600101613d69565b5090565b9056fe506175736572526f6c653a2063616c6c657220646f6573206e6f742068617665207468652050617573657220726f6c654f776e61626c653a206e6577206f776e657220697320746865207a65726f2061646472657373526f6c65733a206163636f756e7420646f6573206e6f74206861766520726f6c65536166654d6174683a206d756c7469706c69636174696f6e206f766572666c6f7743616e6e6f7420637265646974206f6e206578697374696e6720696e737572616e6365526f6c65733a206163636f756e7420697320746865207a65726f206164647265737343616c6c696e6720636f6e7472616374206973206e6f7420617574686f72697a6564a165627a7a72305820ec8f69221713dea79b975fe530037bf8f339f8c571c4374249364630dae11d4e0029526f6c65733a206163636f756e7420697320746865207a65726f2061646472657373",
  "source": "pragma solidity ^0.5.0;\n\nimport \"../node_modules/openzeppelin-solidity/contracts/math/SafeMath.sol\";\nimport \"../node_modules/openzeppelin-solidity/contracts/lifecycle/Pausable.sol\";\nimport \"../node_modules/openzeppelin-solidity/contracts/ownership/Ownable.sol\";\nimport \"./IFlightSuretyData.sol\";\n\ncontract FlightSuretyData is IFlightSuretyData, Pausable, Ownable {\n    using SafeMath for uint256;\n\n    /********************************************************************************************/\n    /*                                       DATA VARIABLES                                     */\n    /********************************************************************************************/\n\n    struct Airline {\n        uint256 balance;\n        string name;\n        bool isRegistered;\n        bool isFunded;\n    }\n    mapping(address => Airline) private airlines;\n\n\n    struct Flight {\n        bool isRegistered;\n        address airline;\n        string name;\n    }\n    mapping(uint256 => Flight) private flights;\n\n    struct Insurance {\n        address customer;\n        uint256 price;\n    }\n\n    struct Policy {\n        Insurance[] insuree;\n        uint256 flight;\n        uint256 expectedTimestamp;  \n        uint256 actualTimestamp;  // provided by an Oracle\n        FlightStatus statusCode;\n    }\n    \n    mapping(uint256 => Policy) private policies;\n    mapping(address => uint256) private creditBalances;\n    mapping(address => uint256) private authorizedContracts; \n\n\n    /********************************************************************************************/\n    /*                                       EVENT DEFINITIONS                                  */\n    /********************************************************************************************/\n\n    event Authorized(address indexed contractAddress);\n    event DeAuthorized(address indexed contractAddress);\n\n    /**\n    * @dev Constructor\n    *      The deploying account becomes contractOwner\n    */\n    constructor () public {\n    }\n\n    /********************************************************************************************/\n    /*                                       FUNCTION MODIFIERS                                 */\n    /********************************************************************************************/\n\n    modifier fromAuthorized() {\n        require(authorizedContracts[msg.sender] == 1,\"Calling contract is not authorized\");\n        _;\n    }\n\n    modifier notRegistered(address airline) {\n        require(airlines[airline].isRegistered == false,\"Airline is already registered.\");\n        _;\n    }\n\n    modifier validPolicy(uint256 key) {\n        require(policies[key].statusCode == FlightStatus.STATUS_CODE_UNKNOWN,\"Expired policy.\");\n        require(policies[key].flight != 0, \"Non-existent policy.\");\n        _;\n    }\n\n    modifier validPolicyState(uint256 key) {\n        require(policies[key].statusCode == FlightStatus.STATUS_CODE_UNKNOWN,\"Invalid or expired policy.\");\n        _;\n    }\n\n\n    modifier validFlight(uint256 key) {\n        require(flights[key].isRegistered,\"Unregistered flight.\");\n        _;\n    }\n\n\n\n    /********************************************************************************************/\n    /*                                     SMART CONTRACT FUNCTIONS                             */\n    /********************************************************************************************/\n\n    function authorizeContract(address contractAddress) external onlyOwner {\n        require(contractAddress != address(0x0),\"Invalid contract\");\n        authorizedContracts[contractAddress] = 1 ;\n        emit Authorized(contractAddress);\n    }\n\n    function deAuthorizeContract(address contractAddress) external onlyOwner {\n        delete authorizedContracts[contractAddress];\n        emit DeAuthorized(contractAddress);\n    }\n\n    function isAirlineRegistered(address caller) external whenNotPaused fromAuthorized returns(bool) {\n        return airlines[caller].isRegistered;\n    }\n\n    function isOperational() external view fromAuthorized returns(bool) {\n        return !paused();\n    }\n\n   /**\n    * @dev Add an airline to the registration queue\n    *      Can only be called from FlightSuretyApp contract\n    *\n    */   \n    function registerAirline(address airline,string calldata name)\n                            external\n                            payable\n                            whenNotPaused\n                            fromAuthorized\n                            notRegistered(airline)\n    {\n        airlines[airline].name = name;\n        airlines[airline].isRegistered = true;\n        emit AirlineRegistered(airline,name,msg.sender);\n    }\n\n    /**\n      * @dev set the funding status\n      * only app contract knows the logic\n      */\n    function setAirlineFundingStatus(address airline, bool status) external whenNotPaused fromAuthorized {\n        airlines[airline].isFunded = status;\n    }\n\n    function getAirlineBalance(address airline) external whenNotPaused fromAuthorized returns(uint256){\n       return airlines[airline].balance;\n    }\n\n\n    function registerFlight(\n        address airline,\n        string calldata name,\n        uint256 flight\n    ) \n        external\n        whenNotPaused\n        fromAuthorized\n    { \n        flights[flight].airline = airline;\n        flights[flight].isRegistered = true;\n        flights[flight].name = name;\n        emit FlightRegistered(airline,flight,name);\n    }\n\n   /**\n    * returns the airline for a flight\n    * @param flight keccak256 hash of the flight\n    * @return address of the airline to which this flight belongs to\n    *\n    */   \n    function getAirline(uint256 flight) external whenNotPaused fromAuthorized returns(address) {\n        return flights[flight].airline; \n    }\n   /**\n    * @dev Buy insurance for a flight\n    *\n    */   \n\n    function buy(address customer,uint256 policyKey,uint256 flightKey,uint256 timestamp)\n                            external\n                            payable\n                            whenNotPaused\n                            fromAuthorized\n                            validFlight(flightKey)\n                            validPolicyState(policyKey)\n    {\n        require(msg.value > 0,\"No ether provided.\");\n        Policy storage policy = policies[policyKey];\n\n        require(policy.expectedTimestamp == 0 || \n                policy.expectedTimestamp == timestamp,\"Invalid policy\");\n        require(policy.flight == 0 || \n                policy.flight == flightKey,\"Invalid flight\");\n\n        if (policy.expectedTimestamp == 0) {\n            policy.expectedTimestamp = timestamp;\n        }\n\n        if (policy.flight == 0) {\n            policy.flight = flightKey;\n        }\n\n        Insurance memory insurance;\n\n        insurance.customer = customer;\n        insurance.price = msg.value;\n\n        policies[policyKey].insuree.push(insurance);\n        emit PolicyPurchased(customer,policyKey,policy.flight,timestamp);\n    }\n\n    /** \n      * @dev setFlightStatus \n      */\n    function setFlightStatus(\n        uint256 policyKey,\n        FlightStatus statusCode\n    ) \n        external\n        whenNotPaused \n        fromAuthorized \n        validPolicy(policyKey)\n    {\n        policies[policyKey].statusCode = statusCode;\n       \n        Policy memory policy = policies[policyKey];\n        Flight memory flightInfo = flights[policy.flight];\n        \n        emit FlightStatusUpdated(\n            flightInfo.airline,\n            flightInfo.name,\n            policy.statusCode,\n            policyKey\n        );\n    }\n\n    /** \n      * @dev getFlightStatus \n      */\n    function getFlightStatus(uint256 policyKey)\n        external\n        whenNotPaused \n        fromAuthorized \n        view\n        returns(FlightStatus) {\n        return policies[policyKey].statusCode;\n    }\n\n    /**\n     *  @dev Credits payouts to insurees\n     *  @param status flight status for which a payout should occur\n     *  @param multiple payout multiple (in hundereds) for the original ammount.\n     *                         for example, for 1.5, the multiple should be 150     \n     *                Calling (App) contract is responsible for providing the sanitized value.\n     *                By keeping this logic in the app contract, we wont have to update/migrate\n     *                to a new data contract if payout logic changes.\n     */\n    function creditInsurees(\n        uint256 policyKey,\n        FlightStatus status,\n        uint256 multiple\n    )\n        external\n        whenNotPaused \n        fromAuthorized \n    {\n        Policy memory policy = policies[policyKey];\n        require(policy.statusCode != FlightStatus.STATUS_CODE_UNKNOWN,\"Cannot credit on existing insurance\");\n        require(policy.statusCode == status,\"Unexpected policy state\");\n        Insurance[] memory insuree = policy.insuree;\n        for (uint256 i; i< insuree.length; i++) {\n            uint256 price = insuree[i].price;\n            policies[policyKey].insuree[i].price = 0; // to avoid crediting multiple times, \n            uint256 payout = price.mul(multiple).div(100);\n            address thisCustomer = insuree[i].customer;\n            creditBalances[thisCustomer] = creditBalances[thisCustomer].add(payout);\n            emit InsuranceCredit(thisCustomer,payout,policyKey);\n        }\n    }\n    \n\n    /**\n     *  @dev Transfers eligible payout funds to insuree\n     *\n    */\n    function pay(address payable customer) external payable whenNotPaused fromAuthorized {\n        uint256 balance = creditBalances[customer];\n        require(balance > 0,\"No payout balance.\");\n        require(address(this).balance > balance,\"Insufficient funds\");\n        creditBalances[customer] = 0;\n        customer.transfer(balance);\n        emit Payout(customer,balance);\n    }\n\n   /**\n    * @dev Initial funding for the insurance. Unless there are too many delayed flights\n    *      resulting in insurance payouts, the contract should be self-sustaining\n    *\n    */   \n    function fund(address airline)\n                            external\n                            payable\n                            whenNotPaused\n                            fromAuthorized\n                            returns(uint256)\n    {\n        require(msg.value > 0,\"Must use ether to fund\");\n        airlines[airline].balance = airlines[airline].balance.add(msg.value);\n        emit AirlineFunded(airline,airlines[airline].balance);\n        return airlines[airline].balance;\n    }\n\n\n    /**\n    * @dev Fallback function for funding smart contract.\n    *\n    */\n    function() external payable whenNotPaused {\n        require(msg.data.length == 0,\"payload not allowed\");\n    }\n\n\n}\n\n",
  "sourcePath": "/Users/dkhroad/Work/blockchain_dev/flight-delay-insurance/contracts/FlightSuretyData.sol",
  "compiler": {
    "name": "solc",
    "version": "0.5.8+commit.23d335f2.Emscripten.clang"
  },
  "schemaVersion": "3.0.16",
  "updatedAt": "2019-09-29T23:08:02.306Z",
  "devdoc": {
    "methods": {
      "buy(address,uint256,uint256,uint256)": {
        "details": "Buy insurance for a flight    "
      },
      "constructor": {
        "details": "Constructor     The deploying account becomes contractOwner"
      },
      "creditInsurees(uint256,uint8,uint256)": {
        "details": "Credits payouts to insurees",
        "params": {
          "multiple": "payout multiple (in hundereds) for the original ammount.                        for example, for 1.5, the multiple should be 150                    Calling (App) contract is responsible for providing the sanitized value.               By keeping this logic in the app contract, we wont have to update/migrate               to a new data contract if payout logic changes.",
          "status": "flight status for which a payout should occur"
        }
      },
      "fund(address)": {
        "details": "Initial funding for the insurance. Unless there are too many delayed flights     resulting in insurance payouts, the contract should be self-sustaining    "
      },
      "getAirline(uint256)": {
        "params": {
          "flight": "keccak256 hash of the flight"
        },
        "return": "address of the airline to which this flight belongs to    "
      },
      "getFlightStatus(uint256)": {
        "details": "getFlightStatus "
      },
      "isOwner()": {
        "details": "Returns true if the caller is the current owner."
      },
      "owner()": {
        "details": "Returns the address of the current owner."
      },
      "pause()": {
        "details": "Called by a pauser to pause, triggers stopped state."
      },
      "paused()": {
        "details": "Returns true if the contract is paused, and false otherwise."
      },
      "pay(address)": {
        "details": "Transfers eligible payout funds to insuree    "
      },
      "registerAirline(address,string)": {
        "details": "Add an airline to the registration queue     Can only be called from FlightSuretyApp contract    "
      },
      "renounceOwnership()": {
        "details": "Leaves the contract without owner. It will not be possible to call `onlyOwner` functions anymore. Can only be called by the current owner.     * > Note: Renouncing ownership will leave the contract without an owner, thereby removing any functionality that is only available to the owner."
      },
      "setAirlineFundingStatus(address,bool)": {
        "details": "set the funding status only app contract knows the logic"
      },
      "setFlightStatus(uint256,uint8)": {
        "details": "setFlightStatus "
      },
      "transferOwnership(address)": {
        "details": "Transfers ownership of the contract to a new account (`newOwner`). Can only be called by the current owner."
      },
      "unpause()": {
        "details": "Called by a pauser to unpause, returns to normal state."
      }
    }
  },
  "userdoc": {
    "methods": {
      "authorizeContract(address)": {
        "notice": "*****************************************************************************************"
      },
      "getAirline(uint256)": {
        "notice": "returns the airline for a flight"
      }
    }
  }
}