{
  "contractName": "FlightSuretyData",
  "abi": [
    {
      "constant": false,
      "inputs": [],
      "name": "unpause",
      "outputs": [],
      "payable": false,
      "stateMutability": "nonpayable",
      "type": "function"
    },
    {
      "constant": true,
      "inputs": [
        {
          "name": "account",
          "type": "address"
        }
      ],
      "name": "isPauser",
      "outputs": [
        {
          "name": "",
          "type": "bool"
        }
      ],
      "payable": false,
      "stateMutability": "view",
      "type": "function"
    },
    {
      "constant": true,
      "inputs": [],
      "name": "paused",
      "outputs": [
        {
          "name": "",
          "type": "bool"
        }
      ],
      "payable": false,
      "stateMutability": "view",
      "type": "function"
    },
    {
      "constant": false,
      "inputs": [],
      "name": "renouncePauser",
      "outputs": [],
      "payable": false,
      "stateMutability": "nonpayable",
      "type": "function"
    },
    {
      "constant": false,
      "inputs": [],
      "name": "renounceOwnership",
      "outputs": [],
      "payable": false,
      "stateMutability": "nonpayable",
      "type": "function"
    },
    {
      "constant": false,
      "inputs": [
        {
          "name": "account",
          "type": "address"
        }
      ],
      "name": "addPauser",
      "outputs": [],
      "payable": false,
      "stateMutability": "nonpayable",
      "type": "function"
    },
    {
      "constant": false,
      "inputs": [],
      "name": "pause",
      "outputs": [],
      "payable": false,
      "stateMutability": "nonpayable",
      "type": "function"
    },
    {
      "constant": true,
      "inputs": [],
      "name": "owner",
      "outputs": [
        {
          "name": "",
          "type": "address"
        }
      ],
      "payable": false,
      "stateMutability": "view",
      "type": "function"
    },
    {
      "constant": true,
      "inputs": [],
      "name": "isOwner",
      "outputs": [
        {
          "name": "",
          "type": "bool"
        }
      ],
      "payable": false,
      "stateMutability": "view",
      "type": "function"
    },
    {
      "constant": false,
      "inputs": [
        {
          "name": "newOwner",
          "type": "address"
        }
      ],
      "name": "transferOwnership",
      "outputs": [],
      "payable": false,
      "stateMutability": "nonpayable",
      "type": "function"
    },
    {
      "inputs": [],
      "payable": false,
      "stateMutability": "nonpayable",
      "type": "constructor"
    },
    {
      "payable": true,
      "stateMutability": "payable",
      "type": "fallback"
    },
    {
      "anonymous": false,
      "inputs": [
        {
          "indexed": true,
          "name": "contractAddress",
          "type": "address"
        }
      ],
      "name": "Authorized",
      "type": "event"
    },
    {
      "anonymous": false,
      "inputs": [
        {
          "indexed": true,
          "name": "contractAddress",
          "type": "address"
        }
      ],
      "name": "DeAuthorized",
      "type": "event"
    },
    {
      "anonymous": false,
      "inputs": [
        {
          "indexed": true,
          "name": "previousOwner",
          "type": "address"
        },
        {
          "indexed": true,
          "name": "newOwner",
          "type": "address"
        }
      ],
      "name": "OwnershipTransferred",
      "type": "event"
    },
    {
      "anonymous": false,
      "inputs": [
        {
          "indexed": false,
          "name": "account",
          "type": "address"
        }
      ],
      "name": "Paused",
      "type": "event"
    },
    {
      "anonymous": false,
      "inputs": [
        {
          "indexed": false,
          "name": "account",
          "type": "address"
        }
      ],
      "name": "Unpaused",
      "type": "event"
    },
    {
      "anonymous": false,
      "inputs": [
        {
          "indexed": true,
          "name": "account",
          "type": "address"
        }
      ],
      "name": "PauserAdded",
      "type": "event"
    },
    {
      "anonymous": false,
      "inputs": [
        {
          "indexed": true,
          "name": "account",
          "type": "address"
        }
      ],
      "name": "PauserRemoved",
      "type": "event"
    },
    {
      "anonymous": false,
      "inputs": [
        {
          "indexed": true,
          "name": "airline",
          "type": "address"
        },
        {
          "indexed": false,
          "name": "name",
          "type": "string"
        },
        {
          "indexed": true,
          "name": "by",
          "type": "address"
        }
      ],
      "name": "AirlineRegistered",
      "type": "event"
    },
    {
      "anonymous": false,
      "inputs": [
        {
          "indexed": true,
          "name": "airline",
          "type": "address"
        },
        {
          "indexed": false,
          "name": "value",
          "type": "uint256"
        }
      ],
      "name": "AirlineFunded",
      "type": "event"
    },
    {
      "anonymous": false,
      "inputs": [
        {
          "indexed": true,
          "name": "customer",
          "type": "address"
        },
        {
          "indexed": false,
          "name": "airline",
          "type": "address"
        },
        {
          "indexed": false,
          "name": "flight",
          "type": "string"
        },
        {
          "indexed": false,
          "name": "timestamp",
          "type": "uint256"
        },
        {
          "indexed": false,
          "name": "status",
          "type": "uint8"
        }
      ],
      "name": "PolicyPurchased",
      "type": "event"
    },
    {
      "anonymous": false,
      "inputs": [
        {
          "indexed": true,
          "name": "airline",
          "type": "address"
        },
        {
          "indexed": false,
          "name": "flight",
          "type": "string"
        },
        {
          "indexed": false,
          "name": "timestamp",
          "type": "uint256"
        },
        {
          "indexed": false,
          "name": "status",
          "type": "uint8"
        }
      ],
      "name": "FlightStatusUpdated",
      "type": "event"
    },
    {
      "anonymous": false,
      "inputs": [
        {
          "indexed": true,
          "name": "airline",
          "type": "address"
        },
        {
          "indexed": false,
          "name": "name",
          "type": "string"
        },
        {
          "indexed": false,
          "name": "timestamp",
          "type": "uint256"
        }
      ],
      "name": "FlightRegistered",
      "type": "event"
    },
    {
      "anonymous": false,
      "inputs": [
        {
          "indexed": true,
          "name": "customer",
          "type": "address"
        },
        {
          "indexed": false,
          "name": "payout",
          "type": "uint256"
        }
      ],
      "name": "InsuranceCredit",
      "type": "event"
    },
    {
      "anonymous": false,
      "inputs": [
        {
          "indexed": true,
          "name": "customer",
          "type": "address"
        },
        {
          "indexed": false,
          "name": "amount",
          "type": "uint256"
        }
      ],
      "name": "Payout",
      "type": "event"
    },
    {
      "constant": false,
      "inputs": [
        {
          "name": "contractAddress",
          "type": "address"
        }
      ],
      "name": "authorizeContract",
      "outputs": [],
      "payable": false,
      "stateMutability": "nonpayable",
      "type": "function"
    },
    {
      "constant": false,
      "inputs": [
        {
          "name": "contractAddress",
          "type": "address"
        }
      ],
      "name": "deAuthorizeContract",
      "outputs": [],
      "payable": false,
      "stateMutability": "nonpayable",
      "type": "function"
    },
    {
      "constant": false,
      "inputs": [
        {
          "name": "caller",
          "type": "address"
        }
      ],
      "name": "isAirlineRegistered",
      "outputs": [
        {
          "name": "",
          "type": "bool"
        }
      ],
      "payable": false,
      "stateMutability": "nonpayable",
      "type": "function"
    },
    {
      "constant": true,
      "inputs": [],
      "name": "isOperational",
      "outputs": [
        {
          "name": "",
          "type": "bool"
        }
      ],
      "payable": false,
      "stateMutability": "view",
      "type": "function"
    },
    {
      "constant": false,
      "inputs": [
        {
          "name": "airline",
          "type": "address"
        },
        {
          "name": "name",
          "type": "string"
        }
      ],
      "name": "registerAirline",
      "outputs": [],
      "payable": true,
      "stateMutability": "payable",
      "type": "function"
    },
    {
      "constant": false,
      "inputs": [
        {
          "name": "airline",
          "type": "address"
        },
        {
          "name": "status",
          "type": "bool"
        }
      ],
      "name": "setAirlineFundingStatus",
      "outputs": [],
      "payable": false,
      "stateMutability": "nonpayable",
      "type": "function"
    },
    {
      "constant": false,
      "inputs": [
        {
          "name": "airline",
          "type": "address"
        }
      ],
      "name": "getAirlineBalance",
      "outputs": [
        {
          "name": "",
          "type": "uint256"
        }
      ],
      "payable": false,
      "stateMutability": "nonpayable",
      "type": "function"
    },
    {
      "constant": false,
      "inputs": [
        {
          "name": "airline",
          "type": "address"
        },
        {
          "name": "flightName",
          "type": "string"
        },
        {
          "name": "timestamp",
          "type": "uint256"
        },
        {
          "name": "policyKey",
          "type": "uint256"
        },
        {
          "name": "flightKey",
          "type": "uint256"
        }
      ],
      "name": "registerFlight",
      "outputs": [],
      "payable": false,
      "stateMutability": "nonpayable",
      "type": "function"
    },
    {
      "constant": false,
      "inputs": [
        {
          "name": "flight",
          "type": "uint256"
        }
      ],
      "name": "getAirline",
      "outputs": [
        {
          "name": "",
          "type": "address"
        }
      ],
      "payable": false,
      "stateMutability": "nonpayable",
      "type": "function"
    },
    {
      "constant": false,
      "inputs": [
        {
          "name": "customer",
          "type": "address"
        },
        {
          "name": "policyKey",
          "type": "uint256"
        },
        {
          "name": "flightKey",
          "type": "uint256"
        }
      ],
      "name": "buy",
      "outputs": [],
      "payable": true,
      "stateMutability": "payable",
      "type": "function"
    },
    {
      "constant": false,
      "inputs": [
        {
          "name": "policyKey",
          "type": "uint256"
        },
        {
          "name": "statusCode",
          "type": "uint8"
        }
      ],
      "name": "setFlightStatus",
      "outputs": [],
      "payable": false,
      "stateMutability": "nonpayable",
      "type": "function"
    },
    {
      "constant": true,
      "inputs": [
        {
          "name": "policyKey",
          "type": "uint256"
        }
      ],
      "name": "getFlightStatus",
      "outputs": [
        {
          "name": "",
          "type": "uint8"
        }
      ],
      "payable": false,
      "stateMutability": "view",
      "type": "function"
    },
    {
      "constant": false,
      "inputs": [
        {
          "name": "policyKey",
          "type": "uint256"
        },
        {
          "name": "status",
          "type": "uint8"
        },
        {
          "name": "multiple",
          "type": "uint256"
        }
      ],
      "name": "creditInsurees",
      "outputs": [],
      "payable": false,
      "stateMutability": "nonpayable",
      "type": "function"
    },
    {
      "constant": false,
      "inputs": [
        {
          "name": "customer",
          "type": "address"
        }
      ],
      "name": "pay",
      "outputs": [],
      "payable": true,
      "stateMutability": "payable",
      "type": "function"
    },
    {
      "constant": false,
      "inputs": [
        {
          "name": "airline",
          "type": "address"
        }
      ],
      "name": "fund",
      "outputs": [
        {
          "name": "",
          "type": "uint256"
        }
      ],
      "payable": true,
      "stateMutability": "payable",
      "type": "function"
    }
  ],
  "bytecode": "0x60806040523480156200001157600080fd5b5062000023336200010060201b60201c565b6000600160006101000a81548160ff021916908315150217905550336001806101000a81548173ffffffffffffffffffffffffffffffffffffffff021916908373ffffffffffffffffffffffffffffffffffffffff1602179055506001809054906101000a900473ffffffffffffffffffffffffffffffffffffffff1673ffffffffffffffffffffffffffffffffffffffff16600073ffffffffffffffffffffffffffffffffffffffff167f8be0079c531659141344cd1fd0a4f28419497f9722a3daafe3b4186f6b6457e060405160405180910390a362000325565b6200011b8160006200016160201b62003d011790919060201c565b8073ffffffffffffffffffffffffffffffffffffffff167f6719d08c1888103bea251a4ed56406bd0c3e69723c8a1686e017e7bbe159b6f860405160405180910390a250565b6200017382826200024560201b60201c565b15620001e7576040517f08c379a000000000000000000000000000000000000000000000000000000000815260040180806020018281038252601f8152602001807f526f6c65733a206163636f756e7420616c72656164792068617320726f6c650081525060200191505060405180910390fd5b60018260000160008373ffffffffffffffffffffffffffffffffffffffff1673ffffffffffffffffffffffffffffffffffffffff16815260200190815260200160002060006101000a81548160ff0219169083151502179055505050565b60008073ffffffffffffffffffffffffffffffffffffffff168273ffffffffffffffffffffffffffffffffffffffff161415620002ce576040517f08c379a00000000000000000000000000000000000000000000000000000000081526004018080602001828103825260228152602001806200437d6022913960400191505060405180910390fd5b8260000160008373ffffffffffffffffffffffffffffffffffffffff1673ffffffffffffffffffffffffffffffffffffffff16815260200190815260200160002060009054906101000a900460ff16905092915050565b61404880620003356000396000f3fe6080604052600436106101665760003560e01c80638456cb59116100d1578063c7e7da891161008a578063d6e1c18911610064578063d6e1c1891461087d578063e81f1694146108f8578063ee38a74914610955578063f2fde38b146109ee57610166565b8063c7e7da89146107b4578063caab72c214610806578063cd905dff1461084e57610166565b80638456cb591461060957806389208e72146106205780638da5cb5b146106855780638f32d59b146106dc578063a1a5faf11461070b578063a59ac6dd1461075c57610166565b806346fbf68e1161012357806346fbf68e146104a15780635c975abb1461050a57806367561d93146105395780636ef8d66d1461058a578063715018a6146105a157806382dc1ec4146105b857610166565b8063010c5c97146102645780630c11dedd146102cd57806323024408146103115780632a7e13f714610369578063398ed067146103c65780633f4ba83a1461048a575b600160009054906101000a900460ff16156101e9576040517f08c379a00000000000000000000000000000000000000000000000000000000081526004018080602001828103825260108152602001807f5061757361626c653a207061757365640000000000000000000000000000000081525060200191505060405180910390fd5b60008036905014610262576040517f08c379a00000000000000000000000000000000000000000000000000000000081526004018080602001828103825260138152602001807f7061796c6f6164206e6f7420616c6c6f7765640000000000000000000000000081525060200191505060405180910390fd5b005b34801561027057600080fd5b506102b36004803603602081101561028757600080fd5b81019080803573ffffffffffffffffffffffffffffffffffffffff169060200190929190505050610a3f565b604051808215151515815260200191505060405180910390f35b61030f600480360360208110156102e357600080fd5b81019080803573ffffffffffffffffffffffffffffffffffffffff169060200190929190505050610bb3565b005b6103536004803603602081101561032757600080fd5b81019080803573ffffffffffffffffffffffffffffffffffffffff169060200190929190505050610ef2565b6040518082815260200191505060405180910390f35b34801561037557600080fd5b506103c46004803603604081101561038c57600080fd5b81019080803573ffffffffffffffffffffffffffffffffffffffff1690602001909291908035151590602001909291905050506111fa565b005b3480156103d257600080fd5b50610488600480360360a08110156103e957600080fd5b81019080803573ffffffffffffffffffffffffffffffffffffffff1690602001909291908035906020019064010000000081111561042657600080fd5b82018360208201111561043857600080fd5b8035906020019184600183028401116401000000008311171561045a57600080fd5b9091929391929390803590602001909291908035906020019092919080359060200190929190505050611373565b005b34801561049657600080fd5b5061049f6115f8565b005b3480156104ad57600080fd5b506104f0600480360360208110156104c457600080fd5b81019080803573ffffffffffffffffffffffffffffffffffffffff169060200190929190505050611758565b604051808215151515815260200191505060405180910390f35b34801561051657600080fd5b5061051f611775565b604051808215151515815260200191505060405180910390f35b34801561054557600080fd5b506105886004803603602081101561055c57600080fd5b81019080803573ffffffffffffffffffffffffffffffffffffffff16906020019092919050505061178c565b005b34801561059657600080fd5b5061059f611934565b005b3480156105ad57600080fd5b506105b661193f565b005b3480156105c457600080fd5b50610607600480360360208110156105db57600080fd5b81019080803573ffffffffffffffffffffffffffffffffffffffff169060200190929190505050611a78565b005b34801561061557600080fd5b5061061e611ae2565b005b34801561062c57600080fd5b5061066f6004803603602081101561064357600080fd5b81019080803573ffffffffffffffffffffffffffffffffffffffff169060200190929190505050611c42565b6040518082815260200191505060405180910390f35b34801561069157600080fd5b5061069a611da9565b604051808273ffffffffffffffffffffffffffffffffffffffff1673ffffffffffffffffffffffffffffffffffffffff16815260200191505060405180910390f35b3480156106e857600080fd5b506106f1611dd2565b604051808215151515815260200191505060405180910390f35b34801561071757600080fd5b5061075a6004803603602081101561072e57600080fd5b81019080803573ffffffffffffffffffffffffffffffffffffffff169060200190929190505050611e29565b005b6107b26004803603606081101561077257600080fd5b81019080803573ffffffffffffffffffffffffffffffffffffffff1690602001909291908035906020019092919080359060200190929190505050611f2c565b005b3480156107c057600080fd5b50610804600480360360608110156107d757600080fd5b8101908080359060200190929190803560ff169060200190929190803590602001909291905050506125f4565b005b34801561081257600080fd5b5061084c6004803603604081101561082957600080fd5b8101908080359060200190929190803560ff169060200190929190505050612ada565b005b34801561085a57600080fd5b506108636130d7565b604051808215151515815260200191505060405180910390f35b34801561088957600080fd5b506108b6600480360360208110156108a057600080fd5b810190808035906020019092919050505061317f565b604051808273ffffffffffffffffffffffffffffffffffffffff1673ffffffffffffffffffffffffffffffffffffffff16815260200191505060405180910390f35b34801561090457600080fd5b506109316004803603602081101561091b57600080fd5b81019080803590602001909291905050506132da565b6040518082600581111561094157fe5b60ff16815260200191505060405180910390f35b6109ec6004803603604081101561096b57600080fd5b81019080803573ffffffffffffffffffffffffffffffffffffffff169060200190929190803590602001906401000000008111156109a857600080fd5b8201836020820111156109ba57600080fd5b803590602001918460018302840111640100000000831117156109dc57600080fd5b9091929391929390505050613422565b005b3480156109fa57600080fd5b50610a3d60048036036020811015610a1157600080fd5b81019080803573ffffffffffffffffffffffffffffffffffffffff16906020019092919050505061374b565b005b6000600160009054906101000a900460ff1615610ac4576040517f08c379a00000000000000000000000000000000000000000000000000000000081526004018080602001828103825260108152602001807f5061757361626c653a207061757365640000000000000000000000000000000081525060200191505060405180910390fd5b6001600660003373ffffffffffffffffffffffffffffffffffffffff1673ffffffffffffffffffffffffffffffffffffffff1681526020019081526020016000205414610b5c576040517f08c379a0000000000000000000000000000000000000000000000000000000008152600401808060200182810382526022815260200180613ffb6022913960400191505060405180910390fd5b600260008373ffffffffffffffffffffffffffffffffffffffff1673ffffffffffffffffffffffffffffffffffffffff16815260200190815260200160002060020160009054906101000a900460ff169050919050565b600160009054906101000a900460ff1615610c36576040517f08c379a00000000000000000000000000000000000000000000000000000000081526004018080602001828103825260108152602001807f5061757361626c653a207061757365640000000000000000000000000000000081525060200191505060405180910390fd5b6001600660003373ffffffffffffffffffffffffffffffffffffffff1673ffffffffffffffffffffffffffffffffffffffff1681526020019081526020016000205414610cce576040517f08c379a0000000000000000000000000000000000000000000000000000000008152600401808060200182810382526022815260200180613ffb6022913960400191505060405180910390fd5b6000600560008373ffffffffffffffffffffffffffffffffffffffff1673ffffffffffffffffffffffffffffffffffffffff16815260200190815260200160002054905060008111610d88576040517f08c379a00000000000000000000000000000000000000000000000000000000081526004018080602001828103825260128152602001807f4e6f207061796f75742062616c616e63652e000000000000000000000000000081525060200191505060405180910390fd5b803073ffffffffffffffffffffffffffffffffffffffff163111610e14576040517f08c379a00000000000000000000000000000000000000000000000000000000081526004018080602001828103825260128152602001807f496e73756666696369656e742066756e6473000000000000000000000000000081525060200191505060405180910390fd5b6000600560008473ffffffffffffffffffffffffffffffffffffffff1673ffffffffffffffffffffffffffffffffffffffff168152602001908152602001600020819055508173ffffffffffffffffffffffffffffffffffffffff166108fc829081150290604051600060405180830381858888f19350505050158015610e9f573d6000803e3d6000fd5b508173ffffffffffffffffffffffffffffffffffffffff167f5afeca38b2064c23a692c4cf353015d80ab3ecc417b4f893f372690c11fbd9a6826040518082815260200191505060405180910390a25050565b6000600160009054906101000a900460ff1615610f77576040517f08c379a00000000000000000000000000000000000000000000000000000000081526004018080602001828103825260108152602001807f5061757361626c653a207061757365640000000000000000000000000000000081525060200191505060405180910390fd5b6001600660003373ffffffffffffffffffffffffffffffffffffffff1673ffffffffffffffffffffffffffffffffffffffff168152602001908152602001600020541461100f576040517f08c379a0000000000000000000000000000000000000000000000000000000008152600401808060200182810382526022815260200180613ffb6022913960400191505060405180910390fd5b60003411611085576040517f08c379a00000000000000000000000000000000000000000000000000000000081526004018080602001828103825260168152602001807f4d7573742075736520657468657220746f2066756e640000000000000000000081525060200191505060405180910390fd5b6110da34600260008573ffffffffffffffffffffffffffffffffffffffff1673ffffffffffffffffffffffffffffffffffffffff168152602001908152602001600020600001546137d190919063ffffffff16565b600260008473ffffffffffffffffffffffffffffffffffffffff1673ffffffffffffffffffffffffffffffffffffffff168152602001908152602001600020600001819055508173ffffffffffffffffffffffffffffffffffffffff167fe3e3c2f23f7445131259937f93b9ed0c075fe06c9d702be2d7ac549d0ec5fc32600260008573ffffffffffffffffffffffffffffffffffffffff1673ffffffffffffffffffffffffffffffffffffffff168152602001908152602001600020600001546040518082815260200191505060405180910390a2600260008373ffffffffffffffffffffffffffffffffffffffff1673ffffffffffffffffffffffffffffffffffffffff168152602001908152602001600020600001549050919050565b600160009054906101000a900460ff161561127d576040517f08c379a00000000000000000000000000000000000000000000000000000000081526004018080602001828103825260108152602001807f5061757361626c653a207061757365640000000000000000000000000000000081525060200191505060405180910390fd5b6001600660003373ffffffffffffffffffffffffffffffffffffffff1673ffffffffffffffffffffffffffffffffffffffff1681526020019081526020016000205414611315576040517f08c379a0000000000000000000000000000000000000000000000000000000008152600401808060200182810382526022815260200180613ffb6022913960400191505060405180910390fd5b80600260008473ffffffffffffffffffffffffffffffffffffffff1673ffffffffffffffffffffffffffffffffffffffff16815260200190815260200160002060020160016101000a81548160ff0219169083151502179055505050565b600160009054906101000a900460ff16156113f6576040517f08c379a00000000000000000000000000000000000000000000000000000000081526004018080602001828103825260108152602001807f5061757361626c653a207061757365640000000000000000000000000000000081525060200191505060405180910390fd5b6001600660003373ffffffffffffffffffffffffffffffffffffffff1673ffffffffffffffffffffffffffffffffffffffff168152602001908152602001600020541461148e576040517f08c379a0000000000000000000000000000000000000000000000000000000008152600401808060200182810382526022815260200180613ffb6022913960400191505060405180910390fd5b856003600083815260200190815260200160002060000160016101000a81548173ffffffffffffffffffffffffffffffffffffffff021916908373ffffffffffffffffffffffffffffffffffffffff16021790555060016003600083815260200190815260200160002060000160006101000a81548160ff0219169083151502179055508484600360008481526020019081526020016000206001019190611537929190613ddc565b508260036000838152602001908152602001600020600201819055508060046000848152602001908152602001600020600101819055508573ffffffffffffffffffffffffffffffffffffffff167f34151dfe5f5d2e1a6ed2a8b951d1f9935b00b4711e31a6c7972eaee3b81c1f0286868660405180806020018381526020018281038252858582818152602001925080828437600081840152601f19601f82011690508083019250505094505050505060405180910390a2505050505050565b61160133611758565b611656576040517f08c379a0000000000000000000000000000000000000000000000000000000008152600401808060200182810382526030815260200180613f1e6030913960400191505060405180910390fd5b600160009054906101000a900460ff166116d8576040517f08c379a00000000000000000000000000000000000000000000000000000000081526004018080602001828103825260148152602001807f5061757361626c653a206e6f742070617573656400000000000000000000000081525060200191505060405180910390fd5b6000600160006101000a81548160ff0219169083151502179055507f5db9ee0a495bf2e6ff9c91a7834c1ba4fdd244a5e8aa4e537bd38aeae4b073aa33604051808273ffffffffffffffffffffffffffffffffffffffff1673ffffffffffffffffffffffffffffffffffffffff16815260200191505060405180910390a1565b600061176e82600061385990919063ffffffff16565b9050919050565b6000600160009054906101000a900460ff16905090565b611794611dd2565b611806576040517f08c379a00000000000000000000000000000000000000000000000000000000081526004018080602001828103825260208152602001807f4f776e61626c653a2063616c6c6572206973206e6f7420746865206f776e657281525060200191505060405180910390fd5b600073ffffffffffffffffffffffffffffffffffffffff168173ffffffffffffffffffffffffffffffffffffffff1614156118a9576040517f08c379a00000000000000000000000000000000000000000000000000000000081526004018080602001828103825260108152602001807f496e76616c696420636f6e74726163740000000000000000000000000000000081525060200191505060405180910390fd5b6001600660008373ffffffffffffffffffffffffffffffffffffffff1673ffffffffffffffffffffffffffffffffffffffff168152602001908152602001600020819055508073ffffffffffffffffffffffffffffffffffffffff167fdc84e3a4c83602050e3865df792a4e6800211a79ac60db94e703a820ce89292460405160405180910390a250565b61193d33613937565b565b611947611dd2565b6119b9576040517f08c379a00000000000000000000000000000000000000000000000000000000081526004018080602001828103825260208152602001807f4f776e61626c653a2063616c6c6572206973206e6f7420746865206f776e657281525060200191505060405180910390fd5b600073ffffffffffffffffffffffffffffffffffffffff166001809054906101000a900473ffffffffffffffffffffffffffffffffffffffff1673ffffffffffffffffffffffffffffffffffffffff167f8be0079c531659141344cd1fd0a4f28419497f9722a3daafe3b4186f6b6457e060405160405180910390a360006001806101000a81548173ffffffffffffffffffffffffffffffffffffffff021916908373ffffffffffffffffffffffffffffffffffffffff160217905550565b611a8133611758565b611ad6576040517f08c379a0000000000000000000000000000000000000000000000000000000008152600401808060200182810382526030815260200180613f1e6030913960400191505060405180910390fd5b611adf81613991565b50565b611aeb33611758565b611b40576040517f08c379a0000000000000000000000000000000000000000000000000000000008152600401808060200182810382526030815260200180613f1e6030913960400191505060405180910390fd5b600160009054906101000a900460ff1615611bc3576040517f08c379a00000000000000000000000000000000000000000000000000000000081526004018080602001828103825260108152602001807f5061757361626c653a207061757365640000000000000000000000000000000081525060200191505060405180910390fd5b60018060006101000a81548160ff0219169083151502179055507f62e78cea01bee320cd4e420270b5ea74000d11b0c9f74754ebdbfc544b05a25833604051808273ffffffffffffffffffffffffffffffffffffffff1673ffffffffffffffffffffffffffffffffffffffff16815260200191505060405180910390a1565b6000600160009054906101000a900460ff1615611cc7576040517f08c379a00000000000000000000000000000000000000000000000000000000081526004018080602001828103825260108152602001807f5061757361626c653a207061757365640000000000000000000000000000000081525060200191505060405180910390fd5b6001600660003373ffffffffffffffffffffffffffffffffffffffff1673ffffffffffffffffffffffffffffffffffffffff1681526020019081526020016000205414611d5f576040517f08c379a0000000000000000000000000000000000000000000000000000000008152600401808060200182810382526022815260200180613ffb6022913960400191505060405180910390fd5b600260008373ffffffffffffffffffffffffffffffffffffffff1673ffffffffffffffffffffffffffffffffffffffff168152602001908152602001600020600001549050919050565b60006001809054906101000a900473ffffffffffffffffffffffffffffffffffffffff16905090565b60006001809054906101000a900473ffffffffffffffffffffffffffffffffffffffff1673ffffffffffffffffffffffffffffffffffffffff163373ffffffffffffffffffffffffffffffffffffffff1614905090565b611e31611dd2565b611ea3576040517f08c379a00000000000000000000000000000000000000000000000000000000081526004018080602001828103825260208152602001807f4f776e61626c653a2063616c6c6572206973206e6f7420746865206f776e657281525060200191505060405180910390fd5b600660008273ffffffffffffffffffffffffffffffffffffffff1673ffffffffffffffffffffffffffffffffffffffff168152602001908152602001600020600090558073ffffffffffffffffffffffffffffffffffffffff167fc6e68059f6c59235d88b015cebfbecb5ec0a89bca225e2b54303d9f4bcd397de60405160405180910390a250565b600160009054906101000a900460ff1615611faf576040517f08c379a00000000000000000000000000000000000000000000000000000000081526004018080602001828103825260108152602001807f5061757361626c653a207061757365640000000000000000000000000000000081525060200191505060405180910390fd5b6001600660003373ffffffffffffffffffffffffffffffffffffffff1673ffffffffffffffffffffffffffffffffffffffff1681526020019081526020016000205414612047576040517f08c379a0000000000000000000000000000000000000000000000000000000008152600401808060200182810382526022815260200180613ffb6022913960400191505060405180910390fd5b806003600082815260200190815260200160002060000160009054906101000a900460ff166120de576040517f08c379a00000000000000000000000000000000000000000000000000000000081526004018080602001828103825260148152602001807f556e7265676973746572656420666c696768742e00000000000000000000000081525060200191505060405180910390fd5b82600060058111156120ec57fe5b6004600083815260200190815260200160002060020160009054906101000a900460ff16600581111561211b57fe5b1461218e576040517f08c379a000000000000000000000000000000000000000000000000000000000815260040180806020018281038252601a8152602001807f496e76616c6964206f72206578706972656420706f6c6963792e00000000000081525060200191505060405180910390fd5b60003411612204576040517f08c379a00000000000000000000000000000000000000000000000000000000081526004018080602001828103825260128152602001807f4e6f2065746865722070726f76696465642e000000000000000000000000000081525060200191505060405180910390fd5b60006004600086815260200190815260200160002090506000816001015414806122315750838160010154145b6122a3576040517f08c379a000000000000000000000000000000000000000000000000000000000815260040180806020018281038252600e8152602001807f496e76616c696420666c6967687400000000000000000000000000000000000081525060200191505060405180910390fd5b6122ab613e5c565b600360008681526020019081526020016000206040518060800160405290816000820160009054906101000a900460ff161515151581526020016000820160019054906101000a900473ffffffffffffffffffffffffffffffffffffffff1673ffffffffffffffffffffffffffffffffffffffff1673ffffffffffffffffffffffffffffffffffffffff168152602001600182018054600181600116156101000203166002900480601f0160208091040260200160405190810160405280929190818152602001828054600181600116156101000203166002900480156123d35780601f106123a8576101008083540402835291602001916123d3565b820191906000526020600020905b8154815290600101906020018083116123b657829003601f168201915b5050505050815260200160028201548152505090506123f0613e9c565b87816000019073ffffffffffffffffffffffffffffffffffffffff16908173ffffffffffffffffffffffffffffffffffffffff16815250503481602001818152505060046000888152602001908152602001600020600001819080600181540180825580915050906001820390600052602060002090600202016000909192909190915060008201518160000160006101000a81548173ffffffffffffffffffffffffffffffffffffffff021916908373ffffffffffffffffffffffffffffffffffffffff160217905550602082015181600101555050508773ffffffffffffffffffffffffffffffffffffffff167ff6e4bad979912ee9aa23e3aa926fbdca95c12cc714658bf0272441e9aec4dd148360200151846040015185606001518760020160009054906101000a900460ff16604051808573ffffffffffffffffffffffffffffffffffffffff1673ffffffffffffffffffffffffffffffffffffffff1681526020018060200184815260200183600581111561256d57fe5b60ff168152602001828103825285818151815260200191508051906020019080838360005b838110156125ad578082015181840152602081019050612592565b50505050905090810190601f1680156125da5780820380516001836020036101000a031916815260200191505b509550505050505060405180910390a25050505050505050565b600160009054906101000a900460ff1615612677576040517f08c379a00000000000000000000000000000000000000000000000000000000081526004018080602001828103825260108152602001807f5061757361626c653a207061757365640000000000000000000000000000000081525060200191505060405180910390fd5b6001600660003373ffffffffffffffffffffffffffffffffffffffff1673ffffffffffffffffffffffffffffffffffffffff168152602001908152602001600020541461270f576040517f08c379a0000000000000000000000000000000000000000000000000000000008152600401808060200182810382526022815260200180613ffb6022913960400191505060405180910390fd5b612717613ecc565b6004600085815260200190815260200160002060405180606001604052908160008201805480602002602001604051908101604052809291908181526020016000905b828210156127ec57838290600052602060002090600202016040518060400160405290816000820160009054906101000a900473ffffffffffffffffffffffffffffffffffffffff1673ffffffffffffffffffffffffffffffffffffffff1673ffffffffffffffffffffffffffffffffffffffff1681526020016001820154815250508152602001906001019061275a565b505050508152602001600182015481526020016002820160009054906101000a900460ff16600581111561281c57fe5b600581111561282757fe5b8152505090506000600581111561283a57fe5b8160400151600581111561284a57fe5b14156128a1576040517f08c379a0000000000000000000000000000000000000000000000000000000008152600401808060200182810382526023815260200180613fb66023913960400191505060405180910390fd5b8260058111156128ad57fe5b816040015160058111156128bd57fe5b14612930576040517f08c379a00000000000000000000000000000000000000000000000000000000081526004018080602001828103825260178152602001807f556e657870656374656420706f6c69637920737461746500000000000000000081525060200191505060405180910390fd5b60608160000151905060005b8151811015612ad257600082828151811061295357fe5b6020026020010151602001519050600060046000898152602001908152602001600020600001838154811061298457fe5b90600052602060002090600202016001018190555060006129c160646129b388856139eb90919063ffffffff16565b613a7190919063ffffffff16565b905060008484815181106129d157fe5b6020026020010151600001519050612a3182600560008473ffffffffffffffffffffffffffffffffffffffff1673ffffffffffffffffffffffffffffffffffffffff168152602001908152602001600020546137d190919063ffffffff16565b600560008373ffffffffffffffffffffffffffffffffffffffff1673ffffffffffffffffffffffffffffffffffffffff168152602001908152602001600020819055508073ffffffffffffffffffffffffffffffffffffffff167f1c3f3a216eabb2072f01e574b9790f142caa8fb9118b73e0cba80a2e8bdc367c836040518082815260200191505060405180910390a2505050808060010191505061293c565b505050505050565b600160009054906101000a900460ff1615612b5d576040517f08c379a00000000000000000000000000000000000000000000000000000000081526004018080602001828103825260108152602001807f5061757361626c653a207061757365640000000000000000000000000000000081525060200191505060405180910390fd5b6001600660003373ffffffffffffffffffffffffffffffffffffffff1673ffffffffffffffffffffffffffffffffffffffff1681526020019081526020016000205414612bf5576040517f08c379a0000000000000000000000000000000000000000000000000000000008152600401808060200182810382526022815260200180613ffb6022913960400191505060405180910390fd5b8160006005811115612c0357fe5b6004600083815260200190815260200160002060020160009054906101000a900460ff166005811115612c3257fe5b14612ca5576040517f08c379a000000000000000000000000000000000000000000000000000000000815260040180806020018281038252600f8152602001807f4578706972656420706f6c6963792e000000000000000000000000000000000081525060200191505060405180910390fd5b600060046000838152602001908152602001600020600101541415612d32576040517f08c379a00000000000000000000000000000000000000000000000000000000081526004018080602001828103825260148152602001807f4e6f6e2d6578697374656e7420706f6c6963792e00000000000000000000000081525060200191505060405180910390fd5b816004600085815260200190815260200160002060020160006101000a81548160ff02191690836005811115612d6457fe5b0217905550612d71613ecc565b6004600085815260200190815260200160002060405180606001604052908160008201805480602002602001604051908101604052809291908181526020016000905b82821015612e4657838290600052602060002090600202016040518060400160405290816000820160009054906101000a900473ffffffffffffffffffffffffffffffffffffffff1673ffffffffffffffffffffffffffffffffffffffff1673ffffffffffffffffffffffffffffffffffffffff16815260200160018201548152505081526020019060010190612db4565b505050508152602001600182015481526020016002820160009054906101000a900460ff166005811115612e7657fe5b6005811115612e8157fe5b815250509050612e8f613e5c565b60036000836020015181526020019081526020016000206040518060800160405290816000820160009054906101000a900460ff161515151581526020016000820160019054906101000a900473ffffffffffffffffffffffffffffffffffffffff1673ffffffffffffffffffffffffffffffffffffffff1673ffffffffffffffffffffffffffffffffffffffff168152602001600182018054600181600116156101000203166002900480601f016020809104026020016040519081016040528092919081815260200182805460018160011615610100020316600290048015612fbb5780601f10612f9057610100808354040283529160200191612fbb565b820191906000526020600020905b815481529060010190602001808311612f9e57829003601f168201915b505050505081526020016002820154815250509050806020015173ffffffffffffffffffffffffffffffffffffffff167f3f8930fd52e84bc32c0c2e5d060a9cfa59066160d5197e39f17d16ebbcaa7db682604001518360600151600460008a815260200190815260200160002060020160009054906101000a900460ff16604051808060200184815260200183600581111561305457fe5b60ff168152602001828103825285818151815260200191508051906020019080838360005b83811015613094578082015181840152602081019050613079565b50505050905090810190601f1680156130c15780820380516001836020036101000a031916815260200191505b5094505050505060405180910390a25050505050565b60006001600660003373ffffffffffffffffffffffffffffffffffffffff1673ffffffffffffffffffffffffffffffffffffffff1681526020019081526020016000205414613171576040517f08c379a0000000000000000000000000000000000000000000000000000000008152600401808060200182810382526022815260200180613ffb6022913960400191505060405180910390fd5b613179611775565b15905090565b6000600160009054906101000a900460ff1615613204576040517f08c379a00000000000000000000000000000000000000000000000000000000081526004018080602001828103825260108152602001807f5061757361626c653a207061757365640000000000000000000000000000000081525060200191505060405180910390fd5b6001600660003373ffffffffffffffffffffffffffffffffffffffff1673ffffffffffffffffffffffffffffffffffffffff168152602001908152602001600020541461329c576040517f08c379a0000000000000000000000000000000000000000000000000000000008152600401808060200182810382526022815260200180613ffb6022913960400191505060405180910390fd5b6003600083815260200190815260200160002060000160019054906101000a900473ffffffffffffffffffffffffffffffffffffffff169050919050565b6000600160009054906101000a900460ff161561335f576040517f08c379a00000000000000000000000000000000000000000000000000000000081526004018080602001828103825260108152602001807f5061757361626c653a207061757365640000000000000000000000000000000081525060200191505060405180910390fd5b6001600660003373ffffffffffffffffffffffffffffffffffffffff1673ffffffffffffffffffffffffffffffffffffffff16815260200190815260200160002054146133f7576040517f08c379a0000000000000000000000000000000000000000000000000000000008152600401808060200182810382526022815260200180613ffb6022913960400191505060405180910390fd5b6004600083815260200190815260200160002060020160009054906101000a900460ff169050919050565b600160009054906101000a900460ff16156134a5576040517f08c379a00000000000000000000000000000000000000000000000000000000081526004018080602001828103825260108152602001807f5061757361626c653a207061757365640000000000000000000000000000000081525060200191505060405180910390fd5b6001600660003373ffffffffffffffffffffffffffffffffffffffff1673ffffffffffffffffffffffffffffffffffffffff168152602001908152602001600020541461353d576040517f08c379a0000000000000000000000000000000000000000000000000000000008152600401808060200182810382526022815260200180613ffb6022913960400191505060405180910390fd5b8260001515600260008373ffffffffffffffffffffffffffffffffffffffff1673ffffffffffffffffffffffffffffffffffffffff16815260200190815260200160002060020160009054906101000a900460ff16151514613607576040517f08c379a000000000000000000000000000000000000000000000000000000000815260040180806020018281038252601e8152602001807f4169726c696e6520697320616c726561647920726567697374657265642e000081525060200191505060405180910390fd5b8282600260008773ffffffffffffffffffffffffffffffffffffffff1673ffffffffffffffffffffffffffffffffffffffff1681526020019081526020016000206001019190613658929190613ddc565b506001600260008673ffffffffffffffffffffffffffffffffffffffff1673ffffffffffffffffffffffffffffffffffffffff16815260200190815260200160002060020160006101000a81548160ff0219169083151502179055503373ffffffffffffffffffffffffffffffffffffffff168473ffffffffffffffffffffffffffffffffffffffff167fdaadac9f3079423f7d181e3d49e449f1047be14f86f3422009d15b8ad98cdc8e858560405180806020018281038252848482818152602001925080828437600081840152601f19601f820116905080830192505050935050505060405180910390a350505050565b613753611dd2565b6137c5576040517f08c379a00000000000000000000000000000000000000000000000000000000081526004018080602001828103825260208152602001807f4f776e61626c653a2063616c6c6572206973206e6f7420746865206f776e657281525060200191505060405180910390fd5b6137ce81613b00565b50565b60008082840190508381101561384f576040517f08c379a000000000000000000000000000000000000000000000000000000000815260040180806020018281038252601b8152602001807f536166654d6174683a206164646974696f6e206f766572666c6f77000000000081525060200191505060405180910390fd5b8091505092915050565b60008073ffffffffffffffffffffffffffffffffffffffff168273ffffffffffffffffffffffffffffffffffffffff1614156138e0576040517f08c379a0000000000000000000000000000000000000000000000000000000008152600401808060200182810382526022815260200180613fd96022913960400191505060405180910390fd5b8260000160008373ffffffffffffffffffffffffffffffffffffffff1673ffffffffffffffffffffffffffffffffffffffff16815260200190815260200160002060009054906101000a900460ff16905092915050565b61394b816000613c4490919063ffffffff16565b8073ffffffffffffffffffffffffffffffffffffffff167fcd265ebaf09df2871cc7bd4133404a235ba12eff2041bb89d9c714a2621c7c7e60405160405180910390a250565b6139a5816000613d0190919063ffffffff16565b8073ffffffffffffffffffffffffffffffffffffffff167f6719d08c1888103bea251a4ed56406bd0c3e69723c8a1686e017e7bbe159b6f860405160405180910390a250565b6000808314156139fe5760009050613a6b565b6000828402905082848281613a0f57fe5b0414613a66576040517f08c379a0000000000000000000000000000000000000000000000000000000008152600401808060200182810382526021815260200180613f956021913960400191505060405180910390fd5b809150505b92915050565b6000808211613ae8576040517f08c379a000000000000000000000000000000000000000000000000000000000815260040180806020018281038252601a8152602001807f536166654d6174683a206469766973696f6e206279207a65726f00000000000081525060200191505060405180910390fd5b6000828481613af357fe5b0490508091505092915050565b600073ffffffffffffffffffffffffffffffffffffffff168173ffffffffffffffffffffffffffffffffffffffff161415613b86576040517f08c379a0000000000000000000000000000000000000000000000000000000008152600401808060200182810382526026815260200180613f4e6026913960400191505060405180910390fd5b8073ffffffffffffffffffffffffffffffffffffffff166001809054906101000a900473ffffffffffffffffffffffffffffffffffffffff1673ffffffffffffffffffffffffffffffffffffffff167f8be0079c531659141344cd1fd0a4f28419497f9722a3daafe3b4186f6b6457e060405160405180910390a3806001806101000a81548173ffffffffffffffffffffffffffffffffffffffff021916908373ffffffffffffffffffffffffffffffffffffffff16021790555050565b613c4e8282613859565b613ca3576040517f08c379a0000000000000000000000000000000000000000000000000000000008152600401808060200182810382526021815260200180613f746021913960400191505060405180910390fd5b60008260000160008373ffffffffffffffffffffffffffffffffffffffff1673ffffffffffffffffffffffffffffffffffffffff16815260200190815260200160002060006101000a81548160ff0219169083151502179055505050565b613d0b8282613859565b15613d7e576040517f08c379a000000000000000000000000000000000000000000000000000000000815260040180806020018281038252601f8152602001807f526f6c65733a206163636f756e7420616c72656164792068617320726f6c650081525060200191505060405180910390fd5b60018260000160008373ffffffffffffffffffffffffffffffffffffffff1673ffffffffffffffffffffffffffffffffffffffff16815260200190815260200160002060006101000a81548160ff0219169083151502179055505050565b828054600181600116156101000203166002900490600052602060002090601f016020900481019282601f10613e1d57803560ff1916838001178555613e4b565b82800160010185558215613e4b579182015b82811115613e4a578235825591602001919060010190613e2f565b5b509050613e589190613ef8565b5090565b6040518060800160405280600015158152602001600073ffffffffffffffffffffffffffffffffffffffff16815260200160608152602001600081525090565b6040518060400160405280600073ffffffffffffffffffffffffffffffffffffffff168152602001600081525090565b6040518060600160405280606081526020016000815260200160006005811115613ef257fe5b81525090565b613f1a91905b80821115613f16576000816000905550600101613efe565b5090565b9056fe506175736572526f6c653a2063616c6c657220646f6573206e6f742068617665207468652050617573657220726f6c654f776e61626c653a206e6577206f776e657220697320746865207a65726f2061646472657373526f6c65733a206163636f756e7420646f6573206e6f74206861766520726f6c65536166654d6174683a206d756c7469706c69636174696f6e206f766572666c6f7743616e6e6f7420637265646974206f6e206578697374696e6720696e737572616e6365526f6c65733a206163636f756e7420697320746865207a65726f206164647265737343616c6c696e6720636f6e7472616374206973206e6f7420617574686f72697a6564a165627a7a72305820131a8d4fd27afcc5153ba7adb055ff0706282cecd07b2597ff8f020a361e99320029526f6c65733a206163636f756e7420697320746865207a65726f2061646472657373",
  "source": "pragma solidity ^0.5.0;\n\nimport \"../node_modules/openzeppelin-solidity/contracts/math/SafeMath.sol\";\nimport \"../node_modules/openzeppelin-solidity/contracts/lifecycle/Pausable.sol\";\nimport \"../node_modules/openzeppelin-solidity/contracts/ownership/Ownable.sol\";\nimport \"./IFlightSuretyData.sol\";\n\ncontract FlightSuretyData is IFlightSuretyData, Pausable, Ownable {\n    using SafeMath for uint256;\n\n    /********************************************************************************************/\n    /*                                       DATA VARIABLES                                     */\n    /********************************************************************************************/\n\n    struct Airline {\n        uint256 balance;\n        string name;\n        bool isRegistered;\n        bool isFunded;\n    }\n    mapping(address => Airline) private airlines;\n\n\n    struct Flight {\n        bool isRegistered;\n        address airline;\n        string name;\n        uint256 timestamp;\n    }\n\n    mapping(uint256 => Flight) private flights;\n\n    struct Insurance {\n        address customer;\n        uint256 price;\n    }\n\n    struct Policy {\n        Insurance[] insuree;\n        uint256 flight;\n        FlightStatus statusCode;\n    }\n    \n    mapping(uint256 => Policy) private policies;\n    mapping(address => uint256) private creditBalances;\n    mapping(address => uint256) private authorizedContracts; \n\n\n    /********************************************************************************************/\n    /*                                       EVENT DEFINITIONS                                  */\n    /********************************************************************************************/\n\n    event Authorized(address indexed contractAddress);\n    event DeAuthorized(address indexed contractAddress);\n    \n\n    /**\n    * @dev Constructor\n    *      The deploying account becomes contractOwner\n    */\n    constructor () public {\n    }\n\n    /********************************************************************************************/\n    /*                                       FUNCTION MODIFIERS                                 */\n    /********************************************************************************************/\n\n    modifier fromAuthorized() {\n        require(authorizedContracts[msg.sender] == 1,\"Calling contract is not authorized\");\n        _;\n    }\n\n    modifier notRegistered(address airline) {\n        require(airlines[airline].isRegistered == false,\"Airline is already registered.\");\n        _;\n    }\n\n    modifier validPolicy(uint256 key) {\n        require(policies[key].statusCode == FlightStatus.STATUS_CODE_UNKNOWN,\"Expired policy.\");\n        require(policies[key].flight != 0, \"Non-existent policy.\");\n        _;\n    }\n\n    modifier validPolicyState(uint256 key) {\n        require(policies[key].statusCode == FlightStatus.STATUS_CODE_UNKNOWN,\"Invalid or expired policy.\");\n        _;\n    }\n\n\n    modifier validFlight(uint256 key) {\n        require(flights[key].isRegistered,\"Unregistered flight.\");\n        _;\n    }\n\n    /*\n    modifier validCustomer(uint256 key,address customer) {\n        require(hasCustomer(key,customer) == false,\"Customer has already purchased this policy\");\n        _;\n    }\n    */\n\n\n    /********************************************************************************************/\n    /*                                     SMART CONTRACT FUNCTIONS                             */\n    /********************************************************************************************/\n\n    function authorizeContract(address contractAddress) external onlyOwner {\n        require(contractAddress != address(0x0),\"Invalid contract\");\n        authorizedContracts[contractAddress] = 1 ;\n        emit Authorized(contractAddress);\n    }\n\n    function deAuthorizeContract(address contractAddress) external onlyOwner {\n        delete authorizedContracts[contractAddress];\n        emit DeAuthorized(contractAddress);\n    }\n\n    function isAirlineRegistered(address caller) external whenNotPaused fromAuthorized returns(bool) {\n        return airlines[caller].isRegistered;\n    }\n\n    function isOperational() external view fromAuthorized returns(bool) {\n        return !paused();\n    }\n\n    /*\n    function hasCustomer(uint256 policyKey,address customer) private view returns(bool) {\n        Insurance[] memory insurees = policies[policyKey].insuree;\n        for (uint i=0; i < insurees.length; i++) {\n            if (insurees[i].customer == customer) {\n                return true;\n            }\n        }\n        return false;\n    }\n    */\n\n   /**\n    * @dev Add an airline to the registration queue\n    *      Can only be called from FlightSuretyApp contract\n    *\n    */   \n    function registerAirline(address airline,string calldata name)\n                            external\n                            payable\n                            whenNotPaused\n                            fromAuthorized\n                            notRegistered(airline)\n    {\n        airlines[airline].name = name;\n        airlines[airline].isRegistered = true;\n        emit AirlineRegistered(airline,name,msg.sender);\n    }\n\n    /**\n      * @dev set the funding status\n      * only app contract knows the logic\n      */\n    function setAirlineFundingStatus(address airline, bool status) external whenNotPaused fromAuthorized {\n        airlines[airline].isFunded = status;\n    }\n\n    function getAirlineBalance(address airline) external whenNotPaused fromAuthorized returns(uint256){\n       return airlines[airline].balance;\n    }\n\n\n    function registerFlight(\n        address airline,\n        string calldata flightName,\n        uint256 timestamp,\n        uint256 policyKey,\n        uint256 flightKey\n    ) \n        external\n        whenNotPaused\n        fromAuthorized\n    { \n        flights[flightKey].airline = airline;\n        flights[flightKey].isRegistered = true;\n        flights[flightKey].name = flightName;\n        flights[flightKey].timestamp = timestamp;\n        policies[policyKey].flight = flightKey;\n        emit FlightRegistered(airline,flightName,timestamp);\n    }\n\n   /**\n    * returns the airline for a flight\n    * @param flight keccak256 hash of the flight\n    * @return address of the airline to which this flight belongs to\n    *\n    */   \n    function getAirline(uint256 flight) external whenNotPaused fromAuthorized returns(address) {\n        return flights[flight].airline; \n    }\n\n    \n   /**\n    * @dev Buy insurance for a flight\n    *\n    */   \n\n    function buy(address customer,uint256 policyKey,uint256 flightKey)\n                            external\n                            payable\n                            whenNotPaused\n                            fromAuthorized\n                            validFlight(flightKey)\n                            validPolicyState(policyKey)\n    {\n        require(msg.value > 0,\"No ether provided.\");\n        Policy storage policy = policies[policyKey];\n\n        require(policy.flight == 0 || \n                policy.flight == flightKey,\"Invalid flight\");\n\n        Flight memory flightInfo = flights[flightKey];\n\n        Insurance memory insurance;\n\n        insurance.customer = customer;\n        insurance.price = msg.value;\n\n        policies[policyKey].insuree.push(insurance);\n        emit PolicyPurchased(\n            customer,\n            flightInfo.airline, \n            flightInfo.name,\n            flightInfo.\n            timestamp,\n            policy.statusCode);\n    }\n\n    /** \n      * @dev setFlightStatus \n      */\n    function setFlightStatus(\n        uint256 policyKey,\n        FlightStatus statusCode\n    ) \n        external\n        whenNotPaused \n        fromAuthorized \n        validPolicy(policyKey)\n    {\n        policies[policyKey].statusCode = statusCode;\n       \n        Policy memory policy = policies[policyKey];\n        Flight memory flightInfo = flights[policy.flight];\n        emit FlightStatusUpdated(\n            flightInfo.airline,\n            flightInfo.name,\n            flightInfo.timestamp,\n            policies[policyKey].statusCode\n        );\n    }\n\n    /** \n      * @dev getFlightStatus \n      */\n    function getFlightStatus(uint256 policyKey)\n        external\n        whenNotPaused \n        fromAuthorized \n        view\n        returns(FlightStatus) {\n        return policies[policyKey].statusCode;\n    }\n\n    /**\n     *  @dev Credits payouts to insurees\n     *  @param status flight status for which a payout should occur\n     *  @param multiple payout multiple (in hundereds) for the original ammount.\n     *                         for example, for 1.5, the multiple should be 150     \n     *                Calling (App) contract is responsible for providing the sanitized value.\n     *                By keeping this logic in the app contract, we wont have to update/migrate\n     *                to a new data contract if payout logic changes.\n     */\n    function creditInsurees(\n        uint256 policyKey,\n        FlightStatus status,\n        uint256 multiple\n    )\n        external\n        whenNotPaused \n        fromAuthorized \n    {\n        Policy memory policy = policies[policyKey];\n        require(policy.statusCode != FlightStatus.STATUS_CODE_UNKNOWN,\"Cannot credit on existing insurance\");\n        require(policy.statusCode == status,\"Unexpected policy state\");\n        Insurance[] memory insuree = policy.insuree;\n        for (uint256 i; i< insuree.length; i++) {\n            uint256 price = insuree[i].price;\n            policies[policyKey].insuree[i].price = 0; // to avoid crediting multiple times, \n            uint256 payout = price.mul(multiple).div(100);\n            address thisCustomer = insuree[i].customer;\n            creditBalances[thisCustomer] = creditBalances[thisCustomer].add(payout);\n            emit InsuranceCredit(thisCustomer,payout);\n        }\n    }\n    \n\n    /**\n     *  @dev Transfers eligible payout funds to insuree\n     *\n    */\n    function pay(address payable customer) external payable whenNotPaused fromAuthorized {\n        uint256 balance = creditBalances[customer];\n        require(balance > 0,\"No payout balance.\");\n        require(address(this).balance > balance,\"Insufficient funds\");\n        creditBalances[customer] = 0;\n        customer.transfer(balance);\n        emit Payout(customer,balance);\n    }\n\n   /**\n    * @dev Initial funding for the insurance. Unless there are too many delayed flights\n    *      resulting in insurance payouts, the contract should be self-sustaining\n    *\n    */   \n    function fund(address airline)\n                            external\n                            payable\n                            whenNotPaused\n                            fromAuthorized\n                            returns(uint256)\n    {\n        require(msg.value > 0,\"Must use ether to fund\");\n        airlines[airline].balance = airlines[airline].balance.add(msg.value);\n        emit AirlineFunded(airline,airlines[airline].balance);\n        return airlines[airline].balance;\n    }\n\n\n    /**\n    * @dev Fallback function for funding smart contract.\n    *\n    */\n    function() external payable whenNotPaused {\n        require(msg.data.length == 0,\"payload not allowed\");\n    }\n\n\n}\n\n",
  "sourcePath": "/Users/dkhroad/Work/blockchain_dev/flight-delay-insurance/contracts/FlightSuretyData.sol",
  "compiler": {
    "name": "solc",
    "version": "0.5.8+commit.23d335f2.Emscripten.clang"
  },
  "schemaVersion": "3.0.16",
  "updatedAt": "2019-10-03T05:55:09.929Z",
  "devdoc": {
    "methods": {
      "buy(address,uint256,uint256)": {
        "details": "Buy insurance for a flight    "
      },
      "constructor": {
        "details": "Constructor     The deploying account becomes contractOwner"
      },
      "creditInsurees(uint256,uint8,uint256)": {
        "details": "Credits payouts to insurees",
        "params": {
          "multiple": "payout multiple (in hundereds) for the original ammount.                        for example, for 1.5, the multiple should be 150                    Calling (App) contract is responsible for providing the sanitized value.               By keeping this logic in the app contract, we wont have to update/migrate               to a new data contract if payout logic changes.",
          "status": "flight status for which a payout should occur"
        }
      },
      "fund(address)": {
        "details": "Initial funding for the insurance. Unless there are too many delayed flights     resulting in insurance payouts, the contract should be self-sustaining    "
      },
      "getAirline(uint256)": {
        "params": {
          "flight": "keccak256 hash of the flight"
        },
        "return": "address of the airline to which this flight belongs to    "
      },
      "getFlightStatus(uint256)": {
        "details": "getFlightStatus "
      },
      "isOwner()": {
        "details": "Returns true if the caller is the current owner."
      },
      "owner()": {
        "details": "Returns the address of the current owner."
      },
      "pause()": {
        "details": "Called by a pauser to pause, triggers stopped state."
      },
      "paused()": {
        "details": "Returns true if the contract is paused, and false otherwise."
      },
      "pay(address)": {
        "details": "Transfers eligible payout funds to insuree    "
      },
      "registerAirline(address,string)": {
        "details": "Add an airline to the registration queue     Can only be called from FlightSuretyApp contract    "
      },
      "renounceOwnership()": {
        "details": "Leaves the contract without owner. It will not be possible to call `onlyOwner` functions anymore. Can only be called by the current owner.     * > Note: Renouncing ownership will leave the contract without an owner, thereby removing any functionality that is only available to the owner."
      },
      "setAirlineFundingStatus(address,bool)": {
        "details": "set the funding status only app contract knows the logic"
      },
      "setFlightStatus(uint256,uint8)": {
        "details": "setFlightStatus "
      },
      "transferOwnership(address)": {
        "details": "Transfers ownership of the contract to a new account (`newOwner`). Can only be called by the current owner."
      },
      "unpause()": {
        "details": "Called by a pauser to unpause, returns to normal state."
      }
    }
  },
  "userdoc": {
    "methods": {
      "authorizeContract(address)": {
        "notice": "*****************************************************************************************"
      },
      "getAirline(uint256)": {
        "notice": "returns the airline for a flight"
      }
    }
  }
}