{
  "contractName": "FlightSuretyApp",
  "abi": [
    {
      "constant": true,
      "inputs": [
        {
          "name": "",
          "type": "uint256"
        }
      ],
      "name": "required",
      "outputs": [
        {
          "name": "",
          "type": "uint256"
        }
      ],
      "payable": false,
      "stateMutability": "view",
      "type": "function"
    },
    {
      "constant": false,
      "inputs": [
        {
          "name": "minResponses",
          "type": "uint256"
        }
      ],
      "name": "setMinResponses",
      "outputs": [],
      "payable": false,
      "stateMutability": "nonpayable",
      "type": "function"
    },
    {
      "constant": false,
      "inputs": [],
      "name": "registerOracle",
      "outputs": [],
      "payable": true,
      "stateMutability": "payable",
      "type": "function"
    },
    {
      "constant": false,
      "inputs": [],
      "name": "unpause",
      "outputs": [],
      "payable": false,
      "stateMutability": "nonpayable",
      "type": "function"
    },
    {
      "constant": true,
      "inputs": [
        {
          "name": "account",
          "type": "address"
        }
      ],
      "name": "isPauser",
      "outputs": [
        {
          "name": "",
          "type": "bool"
        }
      ],
      "payable": false,
      "stateMutability": "view",
      "type": "function"
    },
    {
      "constant": false,
      "inputs": [],
      "name": "renounceWhitelistAdmin",
      "outputs": [],
      "payable": false,
      "stateMutability": "nonpayable",
      "type": "function"
    },
    {
      "constant": true,
      "inputs": [],
      "name": "paused",
      "outputs": [
        {
          "name": "",
          "type": "bool"
        }
      ],
      "payable": false,
      "stateMutability": "view",
      "type": "function"
    },
    {
      "constant": true,
      "inputs": [],
      "name": "getMyIndexes",
      "outputs": [
        {
          "name": "",
          "type": "uint8[3]"
        }
      ],
      "payable": false,
      "stateMutability": "view",
      "type": "function"
    },
    {
      "constant": true,
      "inputs": [],
      "name": "MAX_SIGNER_COUNT",
      "outputs": [
        {
          "name": "",
          "type": "uint256"
        }
      ],
      "payable": false,
      "stateMutability": "view",
      "type": "function"
    },
    {
      "constant": true,
      "inputs": [],
      "name": "REGISTRATION_FEE",
      "outputs": [
        {
          "name": "",
          "type": "uint256"
        }
      ],
      "payable": false,
      "stateMutability": "view",
      "type": "function"
    },
    {
      "constant": false,
      "inputs": [],
      "name": "renouncePauser",
      "outputs": [],
      "payable": false,
      "stateMutability": "nonpayable",
      "type": "function"
    },
    {
      "constant": true,
      "inputs": [],
      "name": "REGISTER_AIRLINE",
      "outputs": [
        {
          "name": "",
          "type": "uint256"
        }
      ],
      "payable": false,
      "stateMutability": "view",
      "type": "function"
    },
    {
      "constant": false,
      "inputs": [],
      "name": "renounceOwnership",
      "outputs": [],
      "payable": false,
      "stateMutability": "nonpayable",
      "type": "function"
    },
    {
      "constant": false,
      "inputs": [
        {
          "name": "account",
          "type": "address"
        }
      ],
      "name": "addWhitelistAdmin",
      "outputs": [],
      "payable": false,
      "stateMutability": "nonpayable",
      "type": "function"
    },
    {
      "constant": true,
      "inputs": [
        {
          "name": "account",
          "type": "address"
        }
      ],
      "name": "isSigner",
      "outputs": [
        {
          "name": "",
          "type": "bool"
        }
      ],
      "payable": false,
      "stateMutability": "view",
      "type": "function"
    },
    {
      "constant": false,
      "inputs": [
        {
          "name": "account",
          "type": "address"
        }
      ],
      "name": "addPauser",
      "outputs": [],
      "payable": false,
      "stateMutability": "nonpayable",
      "type": "function"
    },
    {
      "constant": true,
      "inputs": [],
      "name": "MIN_RESPONSES",
      "outputs": [
        {
          "name": "",
          "type": "uint256"
        }
      ],
      "payable": false,
      "stateMutability": "view",
      "type": "function"
    },
    {
      "constant": false,
      "inputs": [],
      "name": "pause",
      "outputs": [],
      "payable": false,
      "stateMutability": "nonpayable",
      "type": "function"
    },
    {
      "constant": true,
      "inputs": [],
      "name": "owner",
      "outputs": [
        {
          "name": "",
          "type": "address"
        }
      ],
      "payable": false,
      "stateMutability": "view",
      "type": "function"
    },
    {
      "constant": true,
      "inputs": [],
      "name": "isOwner",
      "outputs": [
        {
          "name": "",
          "type": "bool"
        }
      ],
      "payable": false,
      "stateMutability": "view",
      "type": "function"
    },
    {
      "constant": true,
      "inputs": [],
      "name": "SET_FLIGHT_STATUS",
      "outputs": [
        {
          "name": "",
          "type": "uint256"
        }
      ],
      "payable": false,
      "stateMutability": "view",
      "type": "function"
    },
    {
      "constant": true,
      "inputs": [
        {
          "name": "account",
          "type": "address"
        }
      ],
      "name": "isWhitelistAdmin",
      "outputs": [
        {
          "name": "",
          "type": "bool"
        }
      ],
      "payable": false,
      "stateMutability": "view",
      "type": "function"
    },
    {
      "constant": true,
      "inputs": [
        {
          "name": "transactionId",
          "type": "uint256"
        }
      ],
      "name": "getConfirmationsCount",
      "outputs": [
        {
          "name": "r",
          "type": "uint256"
        },
        {
          "name": "c",
          "type": "uint256"
        }
      ],
      "payable": false,
      "stateMutability": "view",
      "type": "function"
    },
    {
      "constant": false,
      "inputs": [
        {
          "name": "index",
          "type": "uint8"
        },
        {
          "name": "airline",
          "type": "address"
        },
        {
          "name": "flight",
          "type": "string"
        },
        {
          "name": "timestamp",
          "type": "uint256"
        },
        {
          "name": "statusCode",
          "type": "uint8"
        }
      ],
      "name": "submitOracleResponse",
      "outputs": [],
      "payable": false,
      "stateMutability": "nonpayable",
      "type": "function"
    },
    {
      "constant": false,
      "inputs": [
        {
          "name": "fee",
          "type": "uint256"
        }
      ],
      "name": "setRegistrationFee",
      "outputs": [],
      "payable": false,
      "stateMutability": "nonpayable",
      "type": "function"
    },
    {
      "constant": true,
      "inputs": [],
      "name": "totalSigners",
      "outputs": [
        {
          "name": "",
          "type": "uint256"
        }
      ],
      "payable": false,
      "stateMutability": "view",
      "type": "function"
    },
    {
      "constant": true,
      "inputs": [
        {
          "name": "",
          "type": "uint256"
        },
        {
          "name": "",
          "type": "uint256"
        }
      ],
      "name": "confirmations",
      "outputs": [
        {
          "name": "",
          "type": "address"
        }
      ],
      "payable": false,
      "stateMutability": "view",
      "type": "function"
    },
    {
      "constant": true,
      "inputs": [],
      "name": "AIRLINE_REGISTRATION_FEE",
      "outputs": [
        {
          "name": "",
          "type": "uint256"
        }
      ],
      "payable": false,
      "stateMutability": "view",
      "type": "function"
    },
    {
      "constant": false,
      "inputs": [],
      "name": "renounceSigner",
      "outputs": [],
      "payable": false,
      "stateMutability": "nonpayable",
      "type": "function"
    },
    {
      "constant": false,
      "inputs": [
        {
          "name": "signer",
          "type": "address"
        }
      ],
      "name": "addSigner",
      "outputs": [],
      "payable": false,
      "stateMutability": "nonpayable",
      "type": "function"
    },
    {
      "constant": false,
      "inputs": [
        {
          "name": "newOwner",
          "type": "address"
        }
      ],
      "name": "transferOwnership",
      "outputs": [],
      "payable": false,
      "stateMutability": "nonpayable",
      "type": "function"
    },
    {
      "constant": false,
      "inputs": [
        {
          "name": "airline",
          "type": "address"
        },
        {
          "name": "flight",
          "type": "string"
        },
        {
          "name": "timestamp",
          "type": "uint256"
        }
      ],
      "name": "fetchFlightStatus",
      "outputs": [],
      "payable": false,
      "stateMutability": "nonpayable",
      "type": "function"
    },
    {
      "inputs": [
        {
          "name": "dataContract",
          "type": "address"
        }
      ],
      "payable": false,
      "stateMutability": "nonpayable",
      "type": "constructor"
    },
    {
      "payable": true,
      "stateMutability": "payable",
      "type": "fallback"
    },
    {
      "anonymous": false,
      "inputs": [
        {
          "indexed": true,
          "name": "airline",
          "type": "address"
        },
        {
          "indexed": false,
          "name": "name",
          "type": "string"
        },
        {
          "indexed": true,
          "name": "by",
          "type": "address"
        }
      ],
      "name": "AirlineRegistered",
      "type": "event"
    },
    {
      "anonymous": false,
      "inputs": [
        {
          "indexed": true,
          "name": "airline",
          "type": "address"
        },
        {
          "indexed": false,
          "name": "value",
          "type": "uint256"
        }
      ],
      "name": "AirlineFunded",
      "type": "event"
    },
    {
      "anonymous": false,
      "inputs": [
        {
          "indexed": true,
          "name": "airline",
          "type": "address"
        },
        {
          "indexed": false,
          "name": "name",
          "type": "string"
        },
        {
          "indexed": false,
          "name": "timestamp",
          "type": "uint256"
        }
      ],
      "name": "FlightRegistered",
      "type": "event"
    },
    {
      "anonymous": false,
      "inputs": [
        {
          "indexed": true,
          "name": "customer",
          "type": "address"
        },
        {
          "indexed": false,
          "name": "airline",
          "type": "address"
        },
        {
          "indexed": false,
          "name": "flight",
          "type": "string"
        },
        {
          "indexed": false,
          "name": "timestamp",
          "type": "uint256"
        },
        {
          "indexed": false,
          "name": "",
          "type": "uint8"
        }
      ],
      "name": "PolicyPurchased",
      "type": "event"
    },
    {
      "anonymous": false,
      "inputs": [
        {
          "indexed": true,
          "name": "airline",
          "type": "address"
        },
        {
          "indexed": false,
          "name": "flight",
          "type": "string"
        },
        {
          "indexed": false,
          "name": "timestamp",
          "type": "uint256"
        },
        {
          "indexed": false,
          "name": "status",
          "type": "uint8"
        }
      ],
      "name": "FlightStatusUpdate",
      "type": "event"
    },
    {
      "anonymous": false,
      "inputs": [
        {
          "indexed": true,
          "name": "customer",
          "type": "address"
        },
        {
          "indexed": false,
          "name": "amount",
          "type": "uint256"
        }
      ],
      "name": "Payout",
      "type": "event"
    },
    {
      "anonymous": false,
      "inputs": [
        {
          "indexed": true,
          "name": "customer",
          "type": "address"
        },
        {
          "indexed": false,
          "name": "payout",
          "type": "uint256"
        }
      ],
      "name": "InsuranceCredit",
      "type": "event"
    },
    {
      "anonymous": false,
      "inputs": [
        {
          "indexed": true,
          "name": "airline",
          "type": "address"
        },
        {
          "indexed": false,
          "name": "value",
          "type": "uint256"
        }
      ],
      "name": "AirlineNotFunded",
      "type": "event"
    },
    {
      "anonymous": false,
      "inputs": [
        {
          "indexed": true,
          "name": "airline",
          "type": "address"
        }
      ],
      "name": "NotRegistered",
      "type": "event"
    },
    {
      "anonymous": false,
      "inputs": [
        {
          "indexed": true,
          "name": "status",
          "type": "uint256"
        },
        {
          "indexed": false,
          "name": "numerator",
          "type": "uint256"
        },
        {
          "indexed": false,
          "name": "denominator",
          "type": "uint256"
        }
      ],
      "name": "PayOutTermsSet",
      "type": "event"
    },
    {
      "anonymous": false,
      "inputs": [
        {
          "indexed": false,
          "name": "airline",
          "type": "address"
        },
        {
          "indexed": false,
          "name": "flight",
          "type": "string"
        },
        {
          "indexed": false,
          "name": "timestamp",
          "type": "uint256"
        },
        {
          "indexed": false,
          "name": "status",
          "type": "uint8"
        }
      ],
      "name": "FlightStatusInfo",
      "type": "event"
    },
    {
      "anonymous": false,
      "inputs": [
        {
          "indexed": false,
          "name": "airline",
          "type": "address"
        },
        {
          "indexed": false,
          "name": "flight",
          "type": "string"
        },
        {
          "indexed": false,
          "name": "timestamp",
          "type": "uint256"
        },
        {
          "indexed": false,
          "name": "status",
          "type": "uint8"
        }
      ],
      "name": "OracleReport",
      "type": "event"
    },
    {
      "anonymous": false,
      "inputs": [
        {
          "indexed": false,
          "name": "index",
          "type": "uint8"
        },
        {
          "indexed": false,
          "name": "airline",
          "type": "address"
        },
        {
          "indexed": false,
          "name": "flight",
          "type": "string"
        },
        {
          "indexed": false,
          "name": "timestamp",
          "type": "uint256"
        },
        {
          "indexed": false,
          "name": "status",
          "type": "uint8"
        }
      ],
      "name": "SubmitOracleResponse",
      "type": "event"
    },
    {
      "anonymous": false,
      "inputs": [
        {
          "indexed": false,
          "name": "prev",
          "type": "uint256"
        },
        {
          "indexed": false,
          "name": "current",
          "type": "uint256"
        }
      ],
      "name": "OracleMinimumResponsesChanged",
      "type": "event"
    },
    {
      "anonymous": false,
      "inputs": [
        {
          "indexed": false,
          "name": "prev",
          "type": "uint256"
        },
        {
          "indexed": false,
          "name": "current",
          "type": "uint256"
        }
      ],
      "name": "OracleRegistrationFeeChanged",
      "type": "event"
    },
    {
      "anonymous": false,
      "inputs": [
        {
          "indexed": false,
          "name": "index",
          "type": "uint8"
        },
        {
          "indexed": false,
          "name": "airline",
          "type": "address"
        },
        {
          "indexed": false,
          "name": "flight",
          "type": "string"
        },
        {
          "indexed": false,
          "name": "timestamp",
          "type": "uint256"
        }
      ],
      "name": "OracleRequest",
      "type": "event"
    },
    {
      "anonymous": false,
      "inputs": [
        {
          "indexed": true,
          "name": "transactionId",
          "type": "uint256"
        },
        {
          "indexed": true,
          "name": "signer",
          "type": "address"
        }
      ],
      "name": "Submitted",
      "type": "event"
    },
    {
      "anonymous": false,
      "inputs": [
        {
          "indexed": true,
          "name": "transactionId",
          "type": "uint256"
        },
        {
          "indexed": true,
          "name": "signer",
          "type": "address"
        }
      ],
      "name": "Confirmed",
      "type": "event"
    },
    {
      "anonymous": false,
      "inputs": [
        {
          "indexed": true,
          "name": "transactionId",
          "type": "uint256"
        },
        {
          "indexed": true,
          "name": "signer",
          "type": "address"
        }
      ],
      "name": "Executed",
      "type": "event"
    },
    {
      "anonymous": false,
      "inputs": [
        {
          "indexed": true,
          "name": "transactionId",
          "type": "uint256"
        },
        {
          "indexed": true,
          "name": "old",
          "type": "uint256"
        },
        {
          "indexed": true,
          "name": "current",
          "type": "uint256"
        }
      ],
      "name": "RequirementChanged",
      "type": "event"
    },
    {
      "anonymous": false,
      "inputs": [
        {
          "indexed": true,
          "name": "account",
          "type": "address"
        }
      ],
      "name": "WhitelistAdminAdded",
      "type": "event"
    },
    {
      "anonymous": false,
      "inputs": [
        {
          "indexed": true,
          "name": "account",
          "type": "address"
        }
      ],
      "name": "WhitelistAdminRemoved",
      "type": "event"
    },
    {
      "anonymous": false,
      "inputs": [
        {
          "indexed": false,
          "name": "account",
          "type": "address"
        }
      ],
      "name": "Paused",
      "type": "event"
    },
    {
      "anonymous": false,
      "inputs": [
        {
          "indexed": false,
          "name": "account",
          "type": "address"
        }
      ],
      "name": "Unpaused",
      "type": "event"
    },
    {
      "anonymous": false,
      "inputs": [
        {
          "indexed": true,
          "name": "account",
          "type": "address"
        }
      ],
      "name": "PauserAdded",
      "type": "event"
    },
    {
      "anonymous": false,
      "inputs": [
        {
          "indexed": true,
          "name": "account",
          "type": "address"
        }
      ],
      "name": "PauserRemoved",
      "type": "event"
    },
    {
      "anonymous": false,
      "inputs": [
        {
          "indexed": true,
          "name": "account",
          "type": "address"
        }
      ],
      "name": "SignerAdded",
      "type": "event"
    },
    {
      "anonymous": false,
      "inputs": [
        {
          "indexed": true,
          "name": "account",
          "type": "address"
        }
      ],
      "name": "SignerRemoved",
      "type": "event"
    },
    {
      "anonymous": false,
      "inputs": [
        {
          "indexed": true,
          "name": "previousOwner",
          "type": "address"
        },
        {
          "indexed": true,
          "name": "newOwner",
          "type": "address"
        }
      ],
      "name": "OwnershipTransferred",
      "type": "event"
    },
    {
      "constant": true,
      "inputs": [],
      "name": "isDataContractOperational",
      "outputs": [
        {
          "name": "",
          "type": "bool"
        }
      ],
      "payable": false,
      "stateMutability": "view",
      "type": "function"
    },
    {
      "constant": false,
      "inputs": [
        {
          "name": "name",
          "type": "string"
        }
      ],
      "name": "bootstrap",
      "outputs": [],
      "payable": true,
      "stateMutability": "payable",
      "type": "function"
    },
    {
      "constant": false,
      "inputs": [
        {
          "name": "airline",
          "type": "address"
        },
        {
          "name": "name",
          "type": "string"
        }
      ],
      "name": "registerAirline",
      "outputs": [],
      "payable": true,
      "stateMutability": "payable",
      "type": "function"
    },
    {
      "constant": false,
      "inputs": [
        {
          "name": "airline",
          "type": "address"
        }
      ],
      "name": "fund",
      "outputs": [],
      "payable": true,
      "stateMutability": "payable",
      "type": "function"
    },
    {
      "constant": false,
      "inputs": [
        {
          "name": "airline",
          "type": "address"
        },
        {
          "name": "flightName",
          "type": "string"
        },
        {
          "name": "timestamp",
          "type": "uint256"
        }
      ],
      "name": "registerFlight",
      "outputs": [],
      "payable": false,
      "stateMutability": "nonpayable",
      "type": "function"
    },
    {
      "constant": false,
      "inputs": [
        {
          "name": "airline",
          "type": "address"
        },
        {
          "name": "flightName",
          "type": "string"
        },
        {
          "name": "timestamp",
          "type": "uint256"
        }
      ],
      "name": "buy",
      "outputs": [],
      "payable": true,
      "stateMutability": "payable",
      "type": "function"
    },
    {
      "constant": true,
      "inputs": [
        {
          "name": "customer",
          "type": "address"
        }
      ],
      "name": "getCreditBalance",
      "outputs": [
        {
          "name": "",
          "type": "uint256"
        }
      ],
      "payable": false,
      "stateMutability": "view",
      "type": "function"
    },
    {
      "constant": false,
      "inputs": [],
      "name": "pay",
      "outputs": [],
      "payable": true,
      "stateMutability": "payable",
      "type": "function"
    },
    {
      "constant": false,
      "inputs": [
        {
          "name": "airline",
          "type": "address"
        },
        {
          "name": "flight",
          "type": "string"
        },
        {
          "name": "timestamp",
          "type": "uint256"
        },
        {
          "name": "statusCode",
          "type": "uint256"
        }
      ],
      "name": "setFlightStatus",
      "outputs": [],
      "payable": false,
      "stateMutability": "nonpayable",
      "type": "function"
    },
    {
      "constant": false,
      "inputs": [
        {
          "name": "minFund",
          "type": "uint256"
        }
      ],
      "name": "setAirlineMinimumFunds",
      "outputs": [],
      "payable": false,
      "stateMutability": "nonpayable",
      "type": "function"
    },
    {
      "constant": false,
      "inputs": [
        {
          "name": "status",
          "type": "uint256"
        },
        {
          "name": "payOutMultiple",
          "type": "uint256"
        }
      ],
      "name": "setPayOutParams",
      "outputs": [],
      "payable": false,
      "stateMutability": "nonpayable",
      "type": "function"
    }
  ],
  "bytecode": "0x60806040526000600860006101000a81548160ff021916908360ff160217905550670de0b6b3a76400006009556003600a55678ac7230489e800006010553480156200004a57600080fd5b50604051602080620065f1833981018060405260208110156200006c57600080fd5b8101908080519060200190929190505050336000806101000a81548173ffffffffffffffffffffffffffffffffffffffff021916908373ffffffffffffffffffffffffffffffffffffffff1602179055506000809054906101000a900473ffffffffffffffffffffffffffffffffffffffff1673ffffffffffffffffffffffffffffffffffffffff16600073ffffffffffffffffffffffffffffffffffffffff167f8be0079c531659141344cd1fd0a4f28419497f9722a3daafe3b4186f6b6457e060405160405180910390a36200014a33620001ff60201b60201c565b6200015b336200026060201b60201c565b6000600360006101000a81548160ff0219169083151502179055506200018733620002c160201b60201c565b80600d60006101000a81548173ffffffffffffffffffffffffffffffffffffffff021916908373ffffffffffffffffffffffffffffffffffffffff160217905550620001d86200032260201b60201c565b620001f860026005811115620001ea57fe5b60966200033560201b60201c565b5062000691565b6200021a816001620003a560201b620056eb1790919060201c565b8073ffffffffffffffffffffffffffffffffffffffff167f47d1c22a25bb3a5d4e481b9b1e6944c2eade3181a0a20b495ed61d35b5323f2460405160405180910390a250565b6200027b816002620003a560201b620056eb1790919060201c565b8073ffffffffffffffffffffffffffffffffffffffff167f6719d08c1888103bea251a4ed56406bd0c3e69723c8a1686e017e7bbe159b6f860405160405180910390a250565b620002dc816004620003a560201b620056eb1790919060201c565b8073ffffffffffffffffffffffffffffffffffffffff167f22380c05984257a1cb900161c713dd71d39e74820f1aea43bd3f1bdd2096129960405160405180910390a250565b62000333336200048960201b60201c565b565b806011600084815260200190815260200160002081905550817ff0f729cff3741c2d483d22cff97eae75bdb666713f6a8b35daf6bd417334a72d60116000858152602001908152602001600020546064604051808381526020018281526020019250505060405180910390a25050565b620003b78282620004ea60201b60201c565b156200042b576040517f08c379a000000000000000000000000000000000000000000000000000000000815260040180806020018281038252601f8152602001807f526f6c65733a206163636f756e7420616c72656164792068617320726f6c650081525060200191505060405180910390fd5b60018260000160008373ffffffffffffffffffffffffffffffffffffffff1673ffffffffffffffffffffffffffffffffffffffff16815260200190815260200160002060006101000a81548160ff0219169083151502179055505050565b620004a4816001620005ca60201b6200562e1790919060201c565b8073ffffffffffffffffffffffffffffffffffffffff167f3525e22824a8a7df2c9a6029941c824cf95b6447f1e13d5128fd3826d35afe8b60405160405180910390a250565b60008073ffffffffffffffffffffffffffffffffffffffff168273ffffffffffffffffffffffffffffffffffffffff16141562000573576040517f08c379a0000000000000000000000000000000000000000000000000000000008152600401808060200182810382526022815260200180620065cf6022913960400191505060405180910390fd5b8260000160008373ffffffffffffffffffffffffffffffffffffffff1673ffffffffffffffffffffffffffffffffffffffff16815260200190815260200160002060009054906101000a900460ff16905092915050565b620005dc8282620004ea60201b60201c565b62000633576040517f08c379a0000000000000000000000000000000000000000000000000000000008152600401808060200182810382526021815260200180620065ae6021913960400191505060405180910390fd5b60008260000160008373ffffffffffffffffffffffffffffffffffffffff1673ffffffffffffffffffffffffffffffffffffffff16815260200190815260200160002060006101000a81548160ff0219169083151502179055505050565b615f0d80620006a16000396000f3fe60806040526004361061025c5760003560e01c80638456cb5911610144578063d1a62648116100b6578063eaaf6c611161007a578063eaaf6c6114610ce6578063eb12d61e14610da0578063ee38a74914610df1578063ee9c1a5414610e8a578063f2fde38b14610eb9578063f83f11c014610f0a5761025c565b8063d1a6264814610b7b578063d3377a8b14610ba6578063d4c3fd8214610c1f578063d8f73ca514610ca4578063e5c8b03d14610ccf5761025c565b8063a906845f11610108578063a906845f146108d9578063b1c46d2214610914578063bb5f747b146109b7578063bce800e514610a20578063c10f270014610a76578063c320c72714610b405761025c565b80638456cb59146107cc5780638da5cb5b146107e35780638f32d59b1461083a5780639110f62714610869578063a4272f1a146108ae5761025c565b80635f1cc0e6116101dd5780636fe45978116101a15780636fe4597814610654578063715018a61461067f5780637362d9c8146106965780637df73e27146106e757806382dc1ec41461075057806383b03cb3146107a15761025c565b80635f1cc0e61461052f57806362dfa1be1461058257806364b4f751146105ad5780636add1b3f146105d85780636ef8d66d1461063d5761025c565b80633cc0be9c116102245780633cc0be9c146103b95780633f4ba83a1461046957806346fbf68e146104805780634c5a628c146104e95780635c975abb146105005761025c565b80631b73f830146102d75780631b9265b8146103265780632302440814610330578063231f145714610374578063339d2590146103af575b600080369050146102d5576040517f08c379a00000000000000000000000000000000000000000000000000000000081526004018080602001828103825260138152602001807f7061796c6f6164206e6f7420616c6c6f7765640000000000000000000000000081525060200191505060405180910390fd5b005b3480156102e357600080fd5b50610310600480360360208110156102fa57600080fd5b8101908080359060200190929190505050610fba565b6040518082815260200191505060405180910390f35b61032e610fd2565b005b6103726004803603602081101561034657600080fd5b81019080803573ffffffffffffffffffffffffffffffffffffffff1690602001909291905050506111b1565b005b34801561038057600080fd5b506103ad6004803603602081101561039757600080fd5b8101908080359060200190929190505050611394565b005b6103b7611591565b005b3480156103c557600080fd5b50610467600480360360608110156103dc57600080fd5b81019080803573ffffffffffffffffffffffffffffffffffffffff1690602001909291908035906020019064010000000081111561041957600080fd5b82018360208201111561042b57600080fd5b8035906020019184600183028401116401000000008311171561044d57600080fd5b909192939192939080359060200190929190505050611734565b005b34801561047557600080fd5b5061047e611bd0565b005b34801561048c57600080fd5b506104cf600480360360208110156104a357600080fd5b81019080803573ffffffffffffffffffffffffffffffffffffffff169060200190929190505050611d30565b604051808215151515815260200191505060405180910390f35b3480156104f557600080fd5b506104fe611d4d565b005b34801561050c57600080fd5b50610515611d58565b604051808215151515815260200191505060405180910390f35b34801561053b57600080fd5b50610544611d6f565b6040518082600360200280838360005b8381101561056f578082015181840152602081019050610554565b5050505090500191505060405180910390f35b34801561058e57600080fd5b50610597611f65565b6040518082815260200191505060405180910390f35b3480156105b957600080fd5b506105c2611f6a565b6040518082815260200191505060405180910390f35b3480156105e457600080fd5b50610627600480360360208110156105fb57600080fd5b81019080803573ffffffffffffffffffffffffffffffffffffffff169060200190929190505050611f70565b6040518082815260200191505060405180910390f35b34801561064957600080fd5b50610652612179565b005b34801561066057600080fd5b50610669612184565b6040518082815260200191505060405180910390f35b34801561068b57600080fd5b50610694612189565b005b3480156106a257600080fd5b506106e5600480360360208110156106b957600080fd5b81019080803573ffffffffffffffffffffffffffffffffffffffff1690602001909291905050506122c2565b005b3480156106f357600080fd5b506107366004803603602081101561070a57600080fd5b81019080803573ffffffffffffffffffffffffffffffffffffffff16906020019092919050505061232c565b604051808215151515815260200191505060405180910390f35b34801561075c57600080fd5b5061079f6004803603602081101561077357600080fd5b81019080803573ffffffffffffffffffffffffffffffffffffffff169060200190929190505050612349565b005b3480156107ad57600080fd5b506107b66123b3565b6040518082815260200191505060405180910390f35b3480156107d857600080fd5b506107e16123b9565b005b3480156107ef57600080fd5b506107f861251a565b604051808273ffffffffffffffffffffffffffffffffffffffff1673ffffffffffffffffffffffffffffffffffffffff16815260200191505060405180910390f35b34801561084657600080fd5b5061084f612543565b604051808215151515815260200191505060405180910390f35b34801561087557600080fd5b506108ac6004803603604081101561088c57600080fd5b81019080803590602001909291908035906020019092919050505061259a565b005b3480156108ba57600080fd5b506108c36127ab565b6040518082815260200191505060405180910390f35b3480156108e557600080fd5b50610912600480360360208110156108fc57600080fd5b81019080803590602001909291905050506127b0565b005b6109b56004803603606081101561092a57600080fd5b81019080803573ffffffffffffffffffffffffffffffffffffffff1690602001909291908035906020019064010000000081111561096757600080fd5b82018360208201111561097957600080fd5b8035906020019184600183028401116401000000008311171561099b57600080fd5b90919293919293908035906020019092919050505061289b565b005b3480156109c357600080fd5b50610a06600480360360208110156109da57600080fd5b81019080803573ffffffffffffffffffffffffffffffffffffffff169060200190929190505050612cd9565b604051808215151515815260200191505060405180910390f35b348015610a2c57600080fd5b50610a5960048036036020811015610a4357600080fd5b8101908080359060200190929190505050612cf6565b604051808381526020018281526020019250505060405180910390f35b348015610a8257600080fd5b50610b3e600480360360a0811015610a9957600080fd5b81019080803560ff169060200190929190803573ffffffffffffffffffffffffffffffffffffffff16906020019092919080359060200190640100000000811115610ae357600080fd5b820183602082011115610af557600080fd5b80359060200191846001830284011164010000000083111715610b1757600080fd5b909192939192939080359060200190929190803560ff169060200190929190505050612d2d565b005b348015610b4c57600080fd5b50610b7960048036036020811015610b6357600080fd5b81019080803590602001909291905050506133c6565b005b348015610b8757600080fd5b50610b906135c3565b6040518082815260200191505060405180910390f35b610c1d60048036036020811015610bbc57600080fd5b8101908080359060200190640100000000811115610bd957600080fd5b820183602082011115610beb57600080fd5b80359060200191846001830284011164010000000083111715610c0d57600080fd5b90919293919293905050506135c9565b005b348015610c2b57600080fd5b50610c6260048036036040811015610c4257600080fd5b81019080803590602001909291908035906020019092919050505061369e565b604051808273ffffffffffffffffffffffffffffffffffffffff1673ffffffffffffffffffffffffffffffffffffffff16815260200191505060405180910390f35b348015610cb057600080fd5b50610cb96136e9565b6040518082815260200191505060405180910390f35b348015610cdb57600080fd5b50610ce46136ef565b005b348015610cf257600080fd5b50610d9e60048036036080811015610d0957600080fd5b81019080803573ffffffffffffffffffffffffffffffffffffffff16906020019092919080359060200190640100000000811115610d4657600080fd5b820183602082011115610d5857600080fd5b80359060200191846001830284011164010000000083111715610d7a57600080fd5b909192939192939080359060200190929190803590602001909291905050506136fa565b005b348015610dac57600080fd5b50610def60048036036020811015610dc357600080fd5b81019080803573ffffffffffffffffffffffffffffffffffffffff169060200190929190505050613b75565b005b610e8860048036036040811015610e0757600080fd5b81019080803573ffffffffffffffffffffffffffffffffffffffff16906020019092919080359060200190640100000000811115610e4457600080fd5b820183602082011115610e5657600080fd5b80359060200191846001830284011164010000000083111715610e7857600080fd5b9091929391929390505050613c17565b005b348015610e9657600080fd5b50610e9f61412c565b604051808215151515815260200191505060405180910390f35b348015610ec557600080fd5b50610f0860048036036020811015610edc57600080fd5b81019080803573ffffffffffffffffffffffffffffffffffffffff1690602001909291905050506141d6565b005b348015610f1657600080fd5b50610fb860048036036060811015610f2d57600080fd5b81019080803573ffffffffffffffffffffffffffffffffffffffff16906020019092919080359060200190640100000000811115610f6a57600080fd5b820183602082011115610f7c57600080fd5b80359060200191846001830284011164010000000083111715610f9e57600080fd5b90919293919293908035906020019092919050505061425c565b005b60056020528060005260406000206000915090505481565b600360009054906101000a900460ff1615611055576040517f08c379a00000000000000000000000000000000000000000000000000000000081526004018080602001828103825260108152602001807f5061757361626c653a207061757365640000000000000000000000000000000081525060200191505060405180910390fd5b3273ffffffffffffffffffffffffffffffffffffffff163373ffffffffffffffffffffffffffffffffffffffff16146110f6576040517f08c379a000000000000000000000000000000000000000000000000000000000815260040180806020018281038252601d8152602001807f4f6e6c7920454f41732063616e2072656365697665207061796f75742e00000081525060200191505060405180910390fd5b600d60009054906101000a900473ffffffffffffffffffffffffffffffffffffffff1673ffffffffffffffffffffffffffffffffffffffff16630c11dedd336040518263ffffffff1660e01b8152600401808273ffffffffffffffffffffffffffffffffffffffff1673ffffffffffffffffffffffffffffffffffffffff168152602001915050600060405180830381600087803b15801561119757600080fd5b505af11580156111ab573d6000803e3d6000fd5b50505050565b600360009054906101000a900460ff1615611234576040517f08c379a00000000000000000000000000000000000000000000000000000000081526004018080602001828103825260108152602001807f5061757361626c653a207061757365640000000000000000000000000000000081525060200191505060405180910390fd5b6000600d60009054906101000a900473ffffffffffffffffffffffffffffffffffffffff1673ffffffffffffffffffffffffffffffffffffffff1663010c5c97336040518263ffffffff1660e01b8152600401808273ffffffffffffffffffffffffffffffffffffffff1673ffffffffffffffffffffffffffffffffffffffff168152602001915050602060405180830381600087803b1580156112d757600080fd5b505af11580156112eb573d6000803e3d6000fd5b505050506040513d602081101561130157600080fd5b8101908080519060200190929190505050905080611387576040517f08c379a00000000000000000000000000000000000000000000000000000000081526004018080602001828103825260188152602001807f43616c6c6572206973206e6f742072656769737465726564000000000000000081525060200191505060405180910390fd5b6113908261452e565b5050565b600360009054906101000a900460ff1615611417576040517f08c379a00000000000000000000000000000000000000000000000000000000081526004018080602001828103825260108152602001807f5061757361626c653a207061757365640000000000000000000000000000000081525060200191505060405180910390fd5b61142033612cd9565b611475576040517f08c379a0000000000000000000000000000000000000000000000000000000008152600401808060200182810382526040815260200180615e306040913960400191505060405180910390fd5b600081116114ce576040517f08c379a0000000000000000000000000000000000000000000000000000000008152600401808060200182810382526026815260200180615d316026913960400191505060405180910390fd5b80600a541415611546576040517f08c379a000000000000000000000000000000000000000000000000000000000815260040180806020018281038252601e8152602001807f496e76616c6964206d696e696d756d20726573706f6e73652076616c7565000081525060200191505060405180910390fd5b7f6228df919bb5e56a81f2c4162426ed056bf6588eb1812dfb879a81c27f067dd9600a5482604051808381526020018281526020019250505060405180910390a180600a8190555050565b600360009054906101000a900460ff1615611614576040517f08c379a00000000000000000000000000000000000000000000000000000000081526004018080602001828103825260108152602001807f5061757361626c653a207061757365640000000000000000000000000000000081525060200191505060405180910390fd5b60095434101561168c576040517f08c379a000000000000000000000000000000000000000000000000000000000815260040180806020018281038252601c8152602001807f526567697374726174696f6e206665652069732072657175697265640000000081525060200191505060405180910390fd5b611694615af2565b61169d3361475a565b9050604051806040016040528060011515815260200182815250600b60003373ffffffffffffffffffffffffffffffffffffffff1673ffffffffffffffffffffffffffffffffffffffff16815260200190815260200160002060008201518160000160006101000a81548160ff02191690831515021790555060208201518160010190600361172d929190615b14565b5090505050565b600360009054906101000a900460ff16156117b7576040517f08c379a00000000000000000000000000000000000000000000000000000000081526004018080602001828103825260108152602001807f5061757361626c653a207061757365640000000000000000000000000000000081525060200191505060405180910390fd5b838073ffffffffffffffffffffffffffffffffffffffff163373ffffffffffffffffffffffffffffffffffffffff161461183c576040517f08c379a000000000000000000000000000000000000000000000000000000000815260040180806020018281038252602a815260200180615da2602a913960400191505060405180910390fd5b6118453361232c565b8061185457506118536148e6565b5b6118c6576040517f08c379a000000000000000000000000000000000000000000000000000000000815260040180806020018281038252601d8152602001807f43616c6c6572206973206e6f7420612066756e646564207369676e657200000081525060200191505060405180910390fd5b60006119168686868080601f016020809104026020016040519081016040528093929190818152602001838380828437600081840152601f19601f820116905080830192505050505050506149d3565b90506000600d60009054906101000a900473ffffffffffffffffffffffffffffffffffffffff1673ffffffffffffffffffffffffffffffffffffffff1663d6e1c189836040518263ffffffff1660e01b815260040180828152602001915050602060405180830381600087803b15801561198f57600080fd5b505af11580156119a3573d6000803e3d6000fd5b505050506040513d60208110156119b957600080fd5b81019080805190602001909291905050509050600073ffffffffffffffffffffffffffffffffffffffff168173ffffffffffffffffffffffffffffffffffffffff1614611a6e576040517f08c379a000000000000000000000000000000000000000000000000000000000815260040180806020018281038252601d8152602001807f4169726c696e6520697320616c7265616479207265676973746572656400000081525060200191505060405180910390fd5b6000611abf8888888080601f016020809104026020016040519081016040528093929190818152602001838380828437600081840152601f19601f8201169050808301925050505050505087614a89565b9050600d60009054906101000a900473ffffffffffffffffffffffffffffffffffffffff1673ffffffffffffffffffffffffffffffffffffffff1663398ed0678989898986896040518763ffffffff1660e01b8152600401808773ffffffffffffffffffffffffffffffffffffffff1673ffffffffffffffffffffffffffffffffffffffff168152602001806020018581526020018481526020018381526020018281038252878782818152602001925080828437600081840152601f19601f820116905080830192505050975050505050505050600060405180830381600087803b158015611bae57600080fd5b505af1158015611bc2573d6000803e3d6000fd5b505050505050505050505050565b611bd933611d30565b611c2e576040517f08c379a0000000000000000000000000000000000000000000000000000000008152600401808060200182810382526030815260200180615cdb6030913960400191505060405180910390fd5b600360009054906101000a900460ff16611cb0576040517f08c379a00000000000000000000000000000000000000000000000000000000081526004018080602001828103825260148152602001807f5061757361626c653a206e6f742070617573656400000000000000000000000081525060200191505060405180910390fd5b6000600360006101000a81548160ff0219169083151502179055507f5db9ee0a495bf2e6ff9c91a7834c1ba4fdd244a5e8aa4e537bd38aeae4b073aa33604051808273ffffffffffffffffffffffffffffffffffffffff1673ffffffffffffffffffffffffffffffffffffffff16815260200191505060405180910390a1565b6000611d46826002614b4890919063ffffffff16565b9050919050565b611d5633614c26565b565b6000600360009054906101000a900460ff16905090565b611d77615af2565b600360009054906101000a900460ff1615611dfa576040517f08c379a00000000000000000000000000000000000000000000000000000000081526004018080602001828103825260108152602001807f5061757361626c653a207061757365640000000000000000000000000000000081525060200191505060405180910390fd5b600b60003373ffffffffffffffffffffffffffffffffffffffff1673ffffffffffffffffffffffffffffffffffffffff16815260200190815260200160002060000160009054906101000a900460ff16611ebc576040517f08c379a000000000000000000000000000000000000000000000000000000000815260040180806020018281038252601b8152602001807f4e6f74207265676973746572656420617320616e206f7261636c65000000000081525060200191505060405180910390fd5b600b60003373ffffffffffffffffffffffffffffffffffffffff1673ffffffffffffffffffffffffffffffffffffffff168152602001908152602001600020600101600380602002604051908101604052809291908260038015611f5b576020028201916000905b82829054906101000a900460ff1660ff1681526020019060010190602082600001049283019260010382029150808411611f245790505b5050505050905090565b603281565b60095481565b6000600360009054906101000a900460ff1615611ff5576040517f08c379a00000000000000000000000000000000000000000000000000000000081526004018080602001828103825260108152602001807f5061757361626c653a207061757365640000000000000000000000000000000081525060200191505060405180910390fd5b600073ffffffffffffffffffffffffffffffffffffffff168273ffffffffffffffffffffffffffffffffffffffff161415612098576040517f08c379a00000000000000000000000000000000000000000000000000000000081526004018080602001828103825260188152602001807f496e76616c696420637573746f6d65722061646472657373000000000000000081525060200191505060405180910390fd5b600d60009054906101000a900473ffffffffffffffffffffffffffffffffffffffff1673ffffffffffffffffffffffffffffffffffffffff16636add1b3f836040518263ffffffff1660e01b8152600401808273ffffffffffffffffffffffffffffffffffffffff1673ffffffffffffffffffffffffffffffffffffffff16815260200191505060206040518083038186803b15801561213757600080fd5b505afa15801561214b573d6000803e3d6000fd5b505050506040513d602081101561216157600080fd5b81019080805190602001909291905050509050919050565b61218233614c80565b565b600181565b612191612543565b612203576040517f08c379a00000000000000000000000000000000000000000000000000000000081526004018080602001828103825260208152602001807f4f776e61626c653a2063616c6c6572206973206e6f7420746865206f776e657281525060200191505060405180910390fd5b600073ffffffffffffffffffffffffffffffffffffffff166000809054906101000a900473ffffffffffffffffffffffffffffffffffffffff1673ffffffffffffffffffffffffffffffffffffffff167f8be0079c531659141344cd1fd0a4f28419497f9722a3daafe3b4186f6b6457e060405160405180910390a360008060006101000a81548173ffffffffffffffffffffffffffffffffffffffff021916908373ffffffffffffffffffffffffffffffffffffffff160217905550565b6122cb33612cd9565b612320576040517f08c379a0000000000000000000000000000000000000000000000000000000008152600401808060200182810382526040815260200180615e306040913960400191505060405180910390fd5b61232981614cda565b50565b6000612342826001614b4890919063ffffffff16565b9050919050565b61235233611d30565b6123a7576040517f08c379a0000000000000000000000000000000000000000000000000000000008152600401808060200182810382526030815260200180615cdb6030913960400191505060405180910390fd5b6123b081614d34565b50565b600a5481565b6123c233611d30565b612417576040517f08c379a0000000000000000000000000000000000000000000000000000000008152600401808060200182810382526030815260200180615cdb6030913960400191505060405180910390fd5b600360009054906101000a900460ff161561249a576040517f08c379a00000000000000000000000000000000000000000000000000000000081526004018080602001828103825260108152602001807f5061757361626c653a207061757365640000000000000000000000000000000081525060200191505060405180910390fd5b6001600360006101000a81548160ff0219169083151502179055507f62e78cea01bee320cd4e420270b5ea74000d11b0c9f74754ebdbfc544b05a25833604051808273ffffffffffffffffffffffffffffffffffffffff1673ffffffffffffffffffffffffffffffffffffffff16815260200191505060405180910390a1565b60008060009054906101000a900473ffffffffffffffffffffffffffffffffffffffff16905090565b60008060009054906101000a900473ffffffffffffffffffffffffffffffffffffffff1673ffffffffffffffffffffffffffffffffffffffff163373ffffffffffffffffffffffffffffffffffffffff1614905090565b600360009054906101000a900460ff161561261d576040517f08c379a00000000000000000000000000000000000000000000000000000000081526004018080602001828103825260108152602001807f5061757361626c653a207061757365640000000000000000000000000000000081525060200191505060405180910390fd5b61262633612cd9565b61267b576040517f08c379a0000000000000000000000000000000000000000000000000000000008152600401808060200182810382526040815260200180615e306040913960400191505060405180910390fd5b81600081600581111561268a57fe5b90506001600581111561269957fe5b8160058111156126a557fe5b14806126c75750600260058111156126b957fe5b8160058111156126c557fe5b145b806126e85750600360058111156126da57fe5b8160058111156126e657fe5b145b806127095750600460058111156126fb57fe5b81600581111561270757fe5b145b80612729575060058081111561271b57fe5b81600581111561272757fe5b145b61279b576040517f08c379a00000000000000000000000000000000000000000000000000000000081526004018080602001828103825260158152602001807f496e76616c696420666c6967687420737461747573000000000000000000000081525060200191505060405180910390fd5b6127a58484614d8e565b50505050565b600281565b600360009054906101000a900460ff1615612833576040517f08c379a00000000000000000000000000000000000000000000000000000000081526004018080602001828103825260108152602001807f5061757361626c653a207061757365640000000000000000000000000000000081525060200191505060405180910390fd5b61283c33612cd9565b612891576040517f08c379a0000000000000000000000000000000000000000000000000000000008152600401808060200182810382526040815260200180615e306040913960400191505060405180910390fd5b8060108190555050565b600360009054906101000a900460ff161561291e576040517f08c379a00000000000000000000000000000000000000000000000000000000081526004018080602001828103825260108152602001807f5061757361626c653a207061757365640000000000000000000000000000000081525060200191505060405180910390fd5b670de0b6b3a764000034111561297f576040517f08c379a0000000000000000000000000000000000000000000000000000000008152600401808060200182810382526026815260200180615d7c6026913960400191505060405180910390fd5b60006129cf8585858080601f016020809104026020016040519081016040528093929190818152602001838380828437600081840152601f19601f820116905080830192505050505050506149d3565b90506000600d60009054906101000a900473ffffffffffffffffffffffffffffffffffffffff1673ffffffffffffffffffffffffffffffffffffffff1663d6e1c189836040518263ffffffff1660e01b815260040180828152602001915050602060405180830381600087803b158015612a4857600080fd5b505af1158015612a5c573d6000803e3d6000fd5b505050506040513d6020811015612a7257600080fd5b81019080805190602001909291905050509050600073ffffffffffffffffffffffffffffffffffffffff168173ffffffffffffffffffffffffffffffffffffffff161415612b28576040517f08c379a000000000000000000000000000000000000000000000000000000000815260040180806020018281038252601e8152602001807f556e7265676973746572656420666c69676874206f72206169726c696e65000081525060200191505060405180910390fd5b3373ffffffffffffffffffffffffffffffffffffffff168673ffffffffffffffffffffffffffffffffffffffff161415612bad576040517f08c379a0000000000000000000000000000000000000000000000000000000008152600401808060200182810382526027815260200180615e986027913960400191505060405180910390fd5b60003390506000612c038888888080601f016020809104026020016040519081016040528093929190818152602001838380828437600081840152601f19601f8201169050808301925050505050505087614a89565b9050600d60009054906101000a900473ffffffffffffffffffffffffffffffffffffffff1673ffffffffffffffffffffffffffffffffffffffff1663a59ac6dd348484886040518563ffffffff1660e01b8152600401808473ffffffffffffffffffffffffffffffffffffffff1673ffffffffffffffffffffffffffffffffffffffff16815260200183815260200182815260200193505050506000604051808303818588803b158015612cb657600080fd5b505af1158015612cca573d6000803e3d6000fd5b50505050505050505050505050565b6000612cef826004614b4890919063ffffffff16565b9050919050565b6000806005600084815260200190815260200160002054915060076000848152602001908152602001600020805490509050915091565b600360009054906101000a900460ff1615612db0576040517f08c379a00000000000000000000000000000000000000000000000000000000081526004018080602001828103825260108152602001807f5061757361626c653a207061757365640000000000000000000000000000000081525060200191505060405180910390fd5b600b60003373ffffffffffffffffffffffffffffffffffffffff1673ffffffffffffffffffffffffffffffffffffffff16815260200190815260200160002060000160009054906101000a900460ff16612e72576040517f08c379a00000000000000000000000000000000000000000000000000000000081526004018080602001828103825260198152602001807f4f7261636c65206d75737420626520726567697374657265640000000000000081525060200191505060405180910390fd5b8560ff16600b60003373ffffffffffffffffffffffffffffffffffffffff1673ffffffffffffffffffffffffffffffffffffffff168152602001908152602001600020600101600060038110612ec457fe5b602091828204019190069054906101000a900460ff1660ff161480612f5157508560ff16600b60003373ffffffffffffffffffffffffffffffffffffffff1673ffffffffffffffffffffffffffffffffffffffff168152602001908152602001600020600101600160038110612f3657fe5b602091828204019190069054906101000a900460ff1660ff16145b80612fc457508560ff16600b60003373ffffffffffffffffffffffffffffffffffffffff1673ffffffffffffffffffffffffffffffffffffffff168152602001908152602001600020600101600260038110612fa957fe5b602091828204019190069054906101000a900460ff1660ff16145b613019576040517f08c379a0000000000000000000000000000000000000000000000000000000008152600401808060200182810382526023815260200180615ebf6023913960400191505060405180910390fd5b60008686868686604051602001808660ff1660ff1660f81b81526001018573ffffffffffffffffffffffffffffffffffffffff1673ffffffffffffffffffffffffffffffffffffffff1660601b81526014018484808284378083019250505082815260200195505050505050604051602081830303815290604052805190602001209050600c600082815260200190815260200160002060000160149054906101000a900460ff16613116576040517f08c379a000000000000000000000000000000000000000000000000000000000815260040180806020018281038252602f815260200180615cac602f913960400191505060405180910390fd5b600c600082815260200190815260200160002060010160008360ff1660ff1681526020019081526020016000203390806001815401808255809150509060018203906000526020600020016000909192909190916101000a81548173ffffffffffffffffffffffffffffffffffffffff021916908373ffffffffffffffffffffffffffffffffffffffff160217905550507f43c853095c2752648493c88b4baac4d580d2594ffb00c6f1d4242d844514f7838686868686604051808673ffffffffffffffffffffffffffffffffffffffff1673ffffffffffffffffffffffffffffffffffffffff168152602001806020018481526020018360ff1660ff1681526020018281038252868682818152602001925080828437600081840152601f19601f820116905080830192505050965050505050505060405180910390a1600a54600c600083815260200190815260200160002060010160008460ff1660ff16815260200190815260200160002080549050106133bd577fe23f5229de535c091e3b7bec2665f5d698192d3b31393066e8987b7a05076b6c8686868686604051808673ffffffffffffffffffffffffffffffffffffffff1673ffffffffffffffffffffffffffffffffffffffff168152602001806020018481526020018360ff1660ff1681526020018281038252868682818152602001925080828437600081840152601f19601f820116905080830192505050965050505050505060405180910390a161338d8686868080601f016020809104026020016040519081016040528093929190818152602001838380828437600081840152601f19601f82011690508083019250505050505050858560ff16614dfe565b6000600c600083815260200190815260200160002060000160146101000a81548160ff0219169083151502179055505b50505050505050565b600360009054906101000a900460ff1615613449576040517f08c379a00000000000000000000000000000000000000000000000000000000081526004018080602001828103825260108152602001807f5061757361626c653a207061757365640000000000000000000000000000000081525060200191505060405180910390fd5b61345233612cd9565b6134a7576040517f08c379a0000000000000000000000000000000000000000000000000000000008152600401808060200182810382526040815260200180615e306040913960400191505060405180910390fd5b6000811161351d576040517f08c379a000000000000000000000000000000000000000000000000000000000815260040180806020018281038252600f8152602001807f466565206d75737420626520736574000000000000000000000000000000000081525060200191505060405180910390fd5b600954811415613578576040517f08c379a0000000000000000000000000000000000000000000000000000000008152600401808060200182810382526028815260200180615e706028913960400191505060405180910390fd5b7ff909b3245b40701d9a4e6152f0a907309f96126b75034c1fcb516c8b24c9d5e960095482604051808381526020018281526020019250505060405180910390a18060098190555050565b60065481565b6135d1612543565b613643576040517f08c379a00000000000000000000000000000000000000000000000000000000081526004018080602001828103825260208152602001807f4f776e61626c653a2063616c6c6572206973206e6f7420746865206f776e657281525060200191505060405180910390fd5b6136913383838080601f016020809104026020016040519081016040528093929190818152602001838380828437600081840152601f19601f82011690508083019250505050505050614f40565b61369a3361452e565b5050565b600760205281600052604060002081815481106136b757fe5b906000526020600020016000915091509054906101000a900473ffffffffffffffffffffffffffffffffffffffff1681565b60105481565b6136f83361507b565b565b600360009054906101000a900460ff161561377d576040517f08c379a00000000000000000000000000000000000000000000000000000000081526004018080602001828103825260108152602001807f5061757361626c653a207061757365640000000000000000000000000000000081525060200191505060405180910390fd5b80600081600581111561378c57fe5b90506001600581111561379b57fe5b8160058111156137a757fe5b14806137c95750600260058111156137bb57fe5b8160058111156137c757fe5b145b806137ea5750600360058111156137dc57fe5b8160058111156137e857fe5b145b8061380b5750600460058111156137fd57fe5b81600581111561380957fe5b145b8061382b575060058081111561381d57fe5b81600581111561382957fe5b145b61389d576040517f08c379a00000000000000000000000000000000000000000000000000000000081526004018080602001828103825260158152602001807f496e76616c696420666c6967687420737461747573000000000000000000000081525060200191505060405180910390fd5b60026138a981336150d5565b1561391c576040517f08c379a00000000000000000000000000000000000000000000000000000000081526004018080602001828103825260188152602001807f43616c6c657220616c726561647920636f6e6669726d6564000000000000000081525060200191505060405180910390fd5b600760008281526020019081526020016000203390806001815401808255809150509060018203906000526020600020016000909192909190916101000a81548173ffffffffffffffffffffffffffffffffffffffff021916908373ffffffffffffffffffffffffffffffffffffffff160217905550506001600760008381526020019081526020016000208054905014156139fb573373ffffffffffffffffffffffffffffffffffffffff16817fa1a7fb1df88af97284790f533c84a4284660c23f7631de9a03a258de840e4c1560405160405180910390a3613a40565b3373ffffffffffffffffffffffffffffffffffffffff16817f6f220d98c15dbd07fdc24781b682ea34f92411fc61b83c761dd927afbe02d3fd60405160405180910390a35b6005600082815260200190815260200160002054600760008381526020019081526020016000208054905010613b6b573373ffffffffffffffffffffffffffffffffffffffff16817f7271f8b3d48d26ccc839c0f424fe9e12fe4e058108b58c096c078659c7fbadf660405160405180910390a36000613b058989898080601f016020809104026020016040519081016040528093929190818152602001838380828437600081840152601f19601f8201169050808301925050505050505088614a89565b9050613b11818661519a565b506000604051908082528060200260200182016040528015613b425781602001602082028038833980820191505090505b50600760008381526020019081526020016000209080519060200190613b69929190615bae565b505b5050505050505050565b613b7e3361232c565b80613b8d5750613b8c6148e6565b5b613bff576040517f08c379a000000000000000000000000000000000000000000000000000000000815260040180806020018281038252601d8152602001807f43616c6c6572206973206e6f7420612066756e646564207369676e657200000081525060200191505060405180910390fd5b613c088161532c565b60016006540160068190555050565b600360009054906101000a900460ff1615613c9a576040517f08c379a00000000000000000000000000000000000000000000000000000000081526004018080602001828103825260108152602001807f5061757361626c653a207061757365640000000000000000000000000000000081525060200191505060405180910390fd5b6000600d60009054906101000a900473ffffffffffffffffffffffffffffffffffffffff1673ffffffffffffffffffffffffffffffffffffffff1663010c5c97336040518263ffffffff1660e01b8152600401808273ffffffffffffffffffffffffffffffffffffffff1673ffffffffffffffffffffffffffffffffffffffff168152602001915050602060405180830381600087803b158015613d3d57600080fd5b505af1158015613d51573d6000803e3d6000fd5b505050506040513d6020811015613d6757600080fd5b8101908080519060200190929190505050905080613ded576040517f08c379a00000000000000000000000000000000000000000000000000000000081526004018080602001828103825260188152602001807f43616c6c6572206973206e6f742072656769737465726564000000000000000081525060200191505060405180910390fd5b613df56148e6565b613e67576040517f08c379a00000000000000000000000000000000000000000000000000000000081526004018080602001828103825260148152602001807f43616c6c6572206973206e6f742066756e64656400000000000000000000000081525060200191505060405180910390fd5b6001613e7381336150d5565b15613ee6576040517f08c379a00000000000000000000000000000000000000000000000000000000081526004018080602001828103825260188152602001807f43616c6c657220616c726561647920636f6e6669726d6564000000000000000081525060200191505060405180910390fd5b600760008281526020019081526020016000203390806001815401808255809150509060018203906000526020600020016000909192909190916101000a81548173ffffffffffffffffffffffffffffffffffffffff021916908373ffffffffffffffffffffffffffffffffffffffff16021790555050600160076000838152602001908152602001600020805490501415613fc5573373ffffffffffffffffffffffffffffffffffffffff16817fa1a7fb1df88af97284790f533c84a4284660c23f7631de9a03a258de840e4c1560405160405180910390a361400a565b3373ffffffffffffffffffffffffffffffffffffffff16817f6f220d98c15dbd07fdc24781b682ea34f92411fc61b83c761dd927afbe02d3fd60405160405180910390a35b6005600082815260200190815260200160002054600760008381526020019081526020016000208054905010614125573373ffffffffffffffffffffffffffffffffffffffff16817f7271f8b3d48d26ccc839c0f424fe9e12fe4e058108b58c096c078659c7fbadf660405160405180910390a36140cc8585858080601f016020809104026020016040519081016040528093929190818152602001838380828437600081840152601f19601f82011690508083019250505050505050614f40565b60006040519080825280602002602001820160405280156140fc5781602001602082028038833980820191505090505b50600760008381526020019081526020016000209080519060200190614123929190615bae565b505b5050505050565b6000600d60009054906101000a900473ffffffffffffffffffffffffffffffffffffffff1673ffffffffffffffffffffffffffffffffffffffff1663cd905dff6040518163ffffffff1660e01b815260040160206040518083038186803b15801561419657600080fd5b505afa1580156141aa573d6000803e3d6000fd5b505050506040513d60208110156141c057600080fd5b8101908080519060200190929190505050905090565b6141de612543565b614250576040517f08c379a00000000000000000000000000000000000000000000000000000000081526004018080602001828103825260208152602001807f4f776e61626c653a2063616c6c6572206973206e6f7420746865206f776e657281525060200191505060405180910390fd5b614259816153c2565b50565b600360009054906101000a900460ff16156142df576040517f08c379a00000000000000000000000000000000000000000000000000000000081526004018080602001828103825260108152602001807f5061757361626c653a207061757365640000000000000000000000000000000081525060200191505060405180910390fd5b6142e833612cd9565b61433d576040517f08c379a0000000000000000000000000000000000000000000000000000000008152600401808060200182810382526040815260200180615e306040913960400191505060405180910390fd5b600061434833615506565b905060008186868686604051602001808660ff1660ff1660f81b81526001018573ffffffffffffffffffffffffffffffffffffffff1673ffffffffffffffffffffffffffffffffffffffff1660601b8152601401848480828437808301925050508281526020019550505050505060405160208183030381529060405280519060200120905060405180604001604052803373ffffffffffffffffffffffffffffffffffffffff16815260200160011515815250600c600083815260200190815260200160002060008201518160000160006101000a81548173ffffffffffffffffffffffffffffffffffffffff021916908373ffffffffffffffffffffffffffffffffffffffff16021790555060208201518160000160146101000a81548160ff0219169083151502179055509050507f3ed01f2c3fc24c6b329d931e35b03e390d23497d22b3f90e15b600343e93df118287878787604051808660ff1660ff1681526020018573ffffffffffffffffffffffffffffffffffffffff1673ffffffffffffffffffffffffffffffffffffffff168152602001806020018381526020018281038252858582818152602001925080828437600081840152601f19601f820116905080830192505050965050505050505060405180910390a1505050505050565b6000600d60009054906101000a900473ffffffffffffffffffffffffffffffffffffffff1673ffffffffffffffffffffffffffffffffffffffff16632302440834846040518363ffffffff1660e01b8152600401808273ffffffffffffffffffffffffffffffffffffffff1673ffffffffffffffffffffffffffffffffffffffff1681526020019150506020604051808303818588803b1580156145d157600080fd5b505af11580156145e5573d6000803e3d6000fd5b50505050506040513d60208110156145fc57600080fd5b8101908080519060200190929190505050905060105481106147075761462182613b75565b6001600f60008282540192505081905550600d60009054906101000a900473ffffffffffffffffffffffffffffffffffffffff1673ffffffffffffffffffffffffffffffffffffffff16632a7e13f78360016040518363ffffffff1660e01b8152600401808373ffffffffffffffffffffffffffffffffffffffff1673ffffffffffffffffffffffffffffffffffffffff1681526020018215151515815260200192505050600060405180830381600087803b1580156146e057600080fd5b505af11580156146f4573d6000803e3d6000fd5b5050505061470260016155f6565b614756565b8173ffffffffffffffffffffffffffffffffffffffff167f6beaf5135c062c245ff7cff37b296c2e805ecf9f29ce60507d178f5e3dc655a0346040518082815260200191505060405180910390a25b5050565b614762615af2565b61476a615af2565b61477383615506565b8160006003811061478057fe5b602002019060ff16908160ff16815250508060006003811061479e57fe5b6020020151816001600381106147b057fe5b602002019060ff16908160ff16815250505b806000600381106147cf57fe5b602002015160ff16816001600381106147e457fe5b602002015160ff16141561481e576147fb83615506565b8160016003811061480857fe5b602002019060ff16908160ff16815250506147c2565b8060016003811061482b57fe5b60200201518160026003811061483d57fe5b602002019060ff16908160ff16815250505b8060006003811061485c57fe5b602002015160ff168160026003811061487157fe5b602002015160ff1614806148ac57508060016003811061488d57fe5b602002015160ff16816002600381106148a257fe5b602002015160ff16145b156148dd576148ba83615506565b816002600381106148c757fe5b602002019060ff16908160ff168152505061484f565b80915050919050565b600080600d60009054906101000a900473ffffffffffffffffffffffffffffffffffffffff1673ffffffffffffffffffffffffffffffffffffffff166389208e72336040518263ffffffff1660e01b8152600401808273ffffffffffffffffffffffffffffffffffffffff1673ffffffffffffffffffffffffffffffffffffffff168152602001915050602060405180830381600087803b15801561498a57600080fd5b505af115801561499e573d6000803e3d6000fd5b505050506040513d60208110156149b457600080fd5b8101908080519060200190929190505050905060105481101591505090565b60008282604051602001808373ffffffffffffffffffffffffffffffffffffffff1673ffffffffffffffffffffffffffffffffffffffff1660601b815260140182805190602001908083835b60208310614a425780518252602082019150602081019050602083039250614a1f565b6001836020036101000a038019825116818451168082178552505050505050905001925050506040516020818303038152906040528051906020012060001c905092915050565b6000838383604051602001808473ffffffffffffffffffffffffffffffffffffffff1673ffffffffffffffffffffffffffffffffffffffff1660601b815260140183805190602001908083835b60208310614af95780518252602082019150602081019050602083039250614ad6565b6001836020036101000a03801982511681845116808217855250505050505090500182815260200193505050506040516020818303038152906040528051906020012060001c90509392505050565b60008073ffffffffffffffffffffffffffffffffffffffff168273ffffffffffffffffffffffffffffffffffffffff161415614bcf576040517f08c379a0000000000000000000000000000000000000000000000000000000008152600401808060200182810382526022815260200180615e0e6022913960400191505060405180910390fd5b8260000160008373ffffffffffffffffffffffffffffffffffffffff1673ffffffffffffffffffffffffffffffffffffffff16815260200190815260200160002060009054906101000a900460ff16905092915050565b614c3a81600461562e90919063ffffffff16565b8073ffffffffffffffffffffffffffffffffffffffff167f0a8eb35e5ca14b3d6f28e4abf2f128dbab231a58b56e89beb5d636115001e16560405160405180910390a250565b614c9481600261562e90919063ffffffff16565b8073ffffffffffffffffffffffffffffffffffffffff167fcd265ebaf09df2871cc7bd4133404a235ba12eff2041bb89d9c714a2621c7c7e60405160405180910390a250565b614cee8160046156eb90919063ffffffff16565b8073ffffffffffffffffffffffffffffffffffffffff167f22380c05984257a1cb900161c713dd71d39e74820f1aea43bd3f1bdd2096129960405160405180910390a250565b614d488160026156eb90919063ffffffff16565b8073ffffffffffffffffffffffffffffffffffffffff167f6719d08c1888103bea251a4ed56406bd0c3e69723c8a1686e017e7bbe159b6f860405160405180910390a250565b806011600084815260200190815260200160002081905550817ff0f729cff3741c2d483d22cff97eae75bdb666713f6a8b35daf6bd417334a72d60116000858152602001908152602001600020546064604051808381526020018281526020019250505060405180910390a25050565b806000816005811115614e0d57fe5b905060016005811115614e1c57fe5b816005811115614e2857fe5b1480614e4a575060026005811115614e3c57fe5b816005811115614e4857fe5b145b80614e6b575060036005811115614e5d57fe5b816005811115614e6957fe5b145b80614e8c575060046005811115614e7e57fe5b816005811115614e8a57fe5b145b80614eac5750600580811115614e9e57fe5b816005811115614eaa57fe5b145b614f1e576040517f08c379a00000000000000000000000000000000000000000000000000000000081526004018080602001828103825260158152602001807f496e76616c696420666c6967687420737461747573000000000000000000000081525060200191505060405180910390fd5b6000614f2b878787614a89565b9050614f37818561519a565b50505050505050565b600d60009054906101000a900473ffffffffffffffffffffffffffffffffffffffff1673ffffffffffffffffffffffffffffffffffffffff1663ee38a74983836040518363ffffffff1660e01b8152600401808373ffffffffffffffffffffffffffffffffffffffff1673ffffffffffffffffffffffffffffffffffffffff16815260200180602001828103825283818151815260200191508051906020019080838360005b83811015615001578082015181840152602081019050614fe6565b50505050905090810190601f16801561502e5780820380516001836020036101000a031916815260200191505b509350505050600060405180830381600087803b15801561504e57600080fd5b505af1158015615062573d6000803e3d6000fd5b505050506001600e600082825401925050819055505050565b61508f81600161562e90919063ffffffff16565b8073ffffffffffffffffffffffffffffffffffffffff167f3525e22824a8a7df2c9a6029941c824cf95b6447f1e13d5128fd3826d35afe8b60405160405180910390a250565b600080600090505b600760008581526020019081526020016000208054905081101561518e578273ffffffffffffffffffffffffffffffffffffffff1660076000868152602001908152602001600020828154811061513057fe5b9060005260206000200160009054906101000a900473ffffffffffffffffffffffffffffffffffffffff1673ffffffffffffffffffffffffffffffffffffffff161415615181576001915050615194565b80806001019150506150dd565b50600090505b92915050565b60008160058111156151a857fe5b9050600d60009054906101000a900473ffffffffffffffffffffffffffffffffffffffff1673ffffffffffffffffffffffffffffffffffffffff1663caab72c284836040518363ffffffff1660e01b81526004018083815260200182600581111561520f57fe5b60ff16815260200192505050600060405180830381600087803b15801561523557600080fd5b505af1158015615249573d6000803e3d6000fd5b50505050600060116000848152602001908152602001600020541461532757600d60009054906101000a900473ffffffffffffffffffffffffffffffffffffffff1673ffffffffffffffffffffffffffffffffffffffff1663c7e7da89848360116000878152602001908152602001600020546040518463ffffffff1660e01b8152600401808481526020018360058111156152e157fe5b60ff1681526020018281526020019350505050600060405180830381600087803b15801561530e57600080fd5b505af1158015615322573d6000803e3d6000fd5b505050505b505050565b6153353361232c565b8061534457506153436148e6565b5b6153b6576040517f08c379a000000000000000000000000000000000000000000000000000000000815260040180806020018281038252601d8152602001807f43616c6c6572206973206e6f7420612066756e646564207369676e657200000081525060200191505060405180910390fd5b6153bf816157c6565b50565b600073ffffffffffffffffffffffffffffffffffffffff168173ffffffffffffffffffffffffffffffffffffffff161415615448576040517f08c379a0000000000000000000000000000000000000000000000000000000008152600401808060200182810382526026815260200180615d0b6026913960400191505060405180910390fd5b8073ffffffffffffffffffffffffffffffffffffffff166000809054906101000a900473ffffffffffffffffffffffffffffffffffffffff1673ffffffffffffffffffffffffffffffffffffffff167f8be0079c531659141344cd1fd0a4f28419497f9722a3daafe3b4186f6b6457e060405160405180910390a3806000806101000a81548173ffffffffffffffffffffffffffffffffffffffff021916908373ffffffffffffffffffffffffffffffffffffffff16021790555050565b600080600a905060008160ff166008600081819054906101000a900460ff168092919060010191906101000a81548160ff021916908360ff16021790555060ff1643034085604051602001808381526020018273ffffffffffffffffffffffffffffffffffffffff1673ffffffffffffffffffffffffffffffffffffffff1660601b8152601401925050506040516020818303038152906040528051906020012060001c816155b157fe5b06905060fa600860009054906101000a900460ff1660ff1611156155ec576000600860006101000a81548160ff021916908360ff1602179055505b8092505050919050565b6000615603600f54615820565b90506005600083815260200190815260200160002054811461562a57615629828261586e565b5b5050565b6156388282614b48565b61568d576040517f08c379a0000000000000000000000000000000000000000000000000000000008152600401808060200182810382526021815260200180615dcc6021913960400191505060405180910390fd5b60008260000160008373ffffffffffffffffffffffffffffffffffffffff1673ffffffffffffffffffffffffffffffffffffffff16815260200190815260200160002060006101000a81548160ff0219169083151502179055505050565b6156f58282614b48565b15615768576040517f08c379a000000000000000000000000000000000000000000000000000000000815260040180806020018281038252601f8152602001807f526f6c65733a206163636f756e7420616c72656164792068617320726f6c650081525060200191505060405180910390fd5b60018260000160008373ffffffffffffffffffffffffffffffffffffffff1673ffffffffffffffffffffffffffffffffffffffff16815260200190815260200160002060006101000a81548160ff0219169083151502179055505050565b6157da8160016156eb90919063ffffffff16565b8073ffffffffffffffffffffffffffffffffffffffff167f47d1c22a25bb3a5d4e481b9b1e6944c2eade3181a0a20b495ed61d35b5323f2460405160405180910390a250565b600080821180156158315750600582105b1561583f5760019050615869565b61586660646158586032856159dd90919063ffffffff16565b615a6390919063ffffffff16565b90505b919050565b61587733612cd9565b8061588757506158863361232c565b5b6158dc576040517f08c379a0000000000000000000000000000000000000000000000000000000008152600401808060200182810382526025815260200180615d576025913960400191505060405180910390fd5b8181603260016006540110806158f3575060065481105b806158fe5750600081145b8061590b57506000600654145b61597d576040517f08c379a000000000000000000000000000000000000000000000000000000000815260040180806020018281038252601e8152602001807f496e76616c696420726571756972656d656e7420636f6e646974696f6e73000081525060200191505060405180910390fd5b826005600086815260200190815260200160002054857ff5b03ab58a1952aac29bce6c360edbb659ac190a28a6aabbc0d3203e3e41d94360405160405180910390a482600560008681526020019081526020016000208190555050505050565b6000808314156159f05760009050615a5d565b6000828402905082848281615a0157fe5b0414615a58576040517f08c379a0000000000000000000000000000000000000000000000000000000008152600401808060200182810382526021815260200180615ded6021913960400191505060405180910390fd5b809150505b92915050565b6000808211615ada576040517f08c379a000000000000000000000000000000000000000000000000000000000815260040180806020018281038252601a8152602001807f536166654d6174683a206469766973696f6e206279207a65726f00000000000081525060200191505060405180910390fd5b6000828481615ae557fe5b0490508091505092915050565b6040518060600160405280600390602082028038833980820191505090505090565b826003601f01602090048101928215615b9d5791602002820160005b83821115615b6e57835183826101000a81548160ff021916908360ff1602179055509260200192600101602081600001049283019260010302615b30565b8015615b9b5782816101000a81549060ff0219169055600101602081600001049283019260010302615b6e565b505b509050615baa9190615c38565b5090565b828054828255906000526020600020908101928215615c27579160200282015b82811115615c265782518260006101000a81548173ffffffffffffffffffffffffffffffffffffffff021916908373ffffffffffffffffffffffffffffffffffffffff16021790555091602001919060010190615bce565b5b509050615c349190615c68565b5090565b615c6591905b80821115615c6157600081816101000a81549060ff021916905550600101615c3e565b5090565b90565b615ca891905b80821115615ca457600081816101000a81549073ffffffffffffffffffffffffffffffffffffffff021916905550600101615c6e565b5090565b9056fe466c69676874206f722074696d657374616d7020646f206e6f74206d61746368206f7261636c652072657175657374506175736572526f6c653a2063616c6c657220646f6573206e6f742068617665207468652050617573657220726f6c654f776e61626c653a206e6577206f776e657220697320746865207a65726f206164647265737341746c65617365206f6e65206d696e696d756d20726573706f6e7365206973206e65656465644d7573742062652061207369676e6572206f722077686974656c69737465642061646d696e4d617820616c6c6f7761626c6520696e737572616e63652070726963652065786365656465644f6e6c79206f776e6572206169726c696e652063616e2072656769737465722069747320666c69676874526f6c65733a206163636f756e7420646f6573206e6f74206861766520726f6c65536166654d6174683a206d756c7469706c69636174696f6e206f766572666c6f77526f6c65733a206163636f756e7420697320746865207a65726f206164647265737357686974656c69737441646d696e526f6c653a2063616c6c657220646f6573206e6f742068617665207468652057686974656c69737441646d696e20726f6c6546656520697320616c72656164792073657420746f207468652065787065637465642076616c756543616e6e6f742062757920696e737572616e6365206f6e20796f7572206f776e20666c69676874496e64657820646f6573206e6f74206d61746368206f7261636c652072657175657374a165627a7a723058206aa62c912a3887addb1bf824edbbbc59b9b9664a0e27824bd23af27aa65513be0029526f6c65733a206163636f756e7420646f6573206e6f74206861766520726f6c65526f6c65733a206163636f756e7420697320746865207a65726f2061646472657373",
  "source": "pragma solidity ^0.5.8;\n\n// It's important to avoid vulnerabilities due to numeric overflow bugs\n// OpenZeppelin's SafeMath library, when used correctly, protects agains such bugs\n// More info: https://www.nccgroup.trust/us/about-us/newsroom-and-events/blog/2018/november/smart-contract-insecurity-bad-arithmetic/\n\nimport \"../node_modules/openzeppelin-solidity/contracts/math/SafeMath.sol\";\nimport \"../node_modules/openzeppelin-solidity/contracts/lifecycle/Pausable.sol\";\nimport \"../node_modules/openzeppelin-solidity/contracts/ownership/Ownable.sol\";\nimport \"./IFlightSuretyData.sol\";\nimport \"./MultiSig.sol\";\nimport \"./FlightSuretyOracle.sol\";\n\n/************************************************** */\n/* FlightSurety Smart Contract                      */\n/************************************************** */\ncontract FlightSuretyApp is Ownable, Pausable, MultiSig, FlightSuretyOracle {\n    using SafeMath for uint256; // Allow SafeMath functions to be called for all uint256 types \n                                //(similar to \"prototype\" in Javascript)\n\n\n    IFlightSuretyData flightSuretyDataContract;\n    uint256 totalRegisteredAirlines;\n    uint256 totalEligibleAirlines;\n\n    uint256 public AIRLINE_REGISTRATION_FEE =  10 ether; \n\n    mapping(uint256 => uint256) private payOutParams;\n\n\n    uint256 public constant REGISTER_AIRLINE = 1;// transaction id for multi sig consesus \n    uint256 public constant SET_FLIGHT_STATUS = 2;// transaction id for multi sig consesus \n\n    /********************************************************************************************/\n    /*                                       EVENTS                                             */\n    /********************************************************************************************/\n    /* events forwarded from the data contract */\n    event AirlineRegistered(address indexed airline, string name, address indexed by);\n    event AirlineFunded(address indexed airline,uint256 value);\n    event FlightRegistered(address indexed airline,string name,uint256 timestamp);\n    event PolicyPurchased(address indexed customer, address airline, string flight,uint256 timestamp,IFlightSuretyData.FlightStatus);\n    event FlightStatusUpdate(address indexed airline,string flight,uint256 timestamp,IFlightSuretyData.FlightStatus status);\n    event Payout(address indexed customer,uint256 amount);\n    event InsuranceCredit(address indexed customer,uint256 payout);\n\n   /* events generated in the app contract */\n    event AirlineNotFunded(address indexed airline,uint256 value);\n    event NotRegistered(address indexed airline);\n    event PayOutTermsSet(uint256 indexed status,uint256 numerator,uint256 denominator);\n \n    /********************************************************************************************/\n    /*                                       FUNCTION MODIFIERS                                 */\n    /********************************************************************************************/\n\n\n    modifier whenFunded() {\n        require(_isFunded(),\"Caller is not funded\");\n        _;\n    }\n\n    modifier whenRegistered() {\n        // we will make exception for the first airlines getting registered\n        // otherwise we have a chicken and egg problem. \n        bool registered = flightSuretyDataContract.isAirlineRegistered(msg.sender);\n        require (registered,\"Caller is not registered\");\n        _;\n    }\n\n    // overriding base class SignerRole's modifier\n    modifier onlySigner() {\n        require(isSigner(msg.sender) || _isFunded(),\"Caller is not a funded signer\");\n        _;\n    }\n\n    modifier validFlightStatus(uint256 status) {\n        IFlightSuretyData.FlightStatus flightStatus = IFlightSuretyData.FlightStatus(status);\n        require(\n            flightStatus == IFlightSuretyData.FlightStatus.STATUS_CODE_ON_TIME ||\n            flightStatus == IFlightSuretyData.FlightStatus.STATUS_CODE_LATE_AIRLINE ||\n            flightStatus == IFlightSuretyData.FlightStatus.STATUS_CODE_LATE_WEATHER ||\n            flightStatus == IFlightSuretyData.FlightStatus.STATUS_CODE_LATE_TECHNICAL ||\n            flightStatus == IFlightSuretyData.FlightStatus.STATUS_CODE_LATE_OTHER,\n            \"Invalid flight status\"\n        );\n        _;\n    }\n\n    function _isFunded() internal returns(bool) {\n        uint256 balance = flightSuretyDataContract.getAirlineBalance(msg.sender);\n        return balance >= AIRLINE_REGISTRATION_FEE;\n    }\n\n    /********************************************************************************************/\n    /*                                       CONSTRUCTOR                                        */\n    /********************************************************************************************/\n\n    /**\n    * @dev Contract constructor.\n    */\n    constructor(address dataContract) public {\n        flightSuretyDataContract = IFlightSuretyData(dataContract);\n\n        // the base constructor of SignerRole makes the deployer \n        // signer by default. Since only a funded party can be\n        // be a signer (to be able to take part in the multi-party consesus,\n        // we must remove the deployer from a SignerRole.\n        renounceSigner();\n        // default payout 1.5 times if a flight is late due to airline's fault\n        _setPayOutParams(\n            uint256(IFlightSuretyData.FlightStatus.STATUS_CODE_LATE_AIRLINE), 150\n        );\n\n    }\n\n    /********************************************************************************************/\n    /*                                       UTILITY FUNCTIONS                                  */\n    /********************************************************************************************/\n\n    function isDataContractOperational() \n                            public \n                            view \n                            returns(bool) \n    {\n        return flightSuretyDataContract.isOperational();  \n    }\n\n    /********************************************************************************************/\n    /*                                     SMART CONTRACT FUNCTIONS                             */\n    /********************************************************************************************/\n\n    /**\n      * @dev register and fund the first airline\n      */\n    function bootstrap(string calldata name) external payable onlyOwner {\n        _registerAirline(msg.sender,name);\n        _fund(msg.sender);\n    }\n  \n   /**\n    * @dev Add an airline to the registration queue\n    *\n    */   \n    function registerAirline(address airline,string calldata name)\n                            external\n                            payable\n                            whenNotPaused\n                            whenRegistered\n                            whenFunded\n                            onlyConfirmed(REGISTER_AIRLINE)\n    {\n        _registerAirline(airline,name);\n    }\n\n    function _registerAirline(address airline,string memory name) internal {\n        flightSuretyDataContract.registerAirline(airline,name); \n        totalRegisteredAirlines += 1;\n        // emit AirlineRegistered(airline,msg.sender);\n    }\n\n    function fund(address airline) external payable whenNotPaused whenRegistered {\n        _fund(airline);\n    }\n\n    function _fund(address airline) internal {\n        uint256 balance = flightSuretyDataContract.fund.value(msg.value)(airline);\n        if (balance >= AIRLINE_REGISTRATION_FEE) {\n            // emit AirlineFunded(airline,msg.value);\n            addSigner(airline);\n            totalEligibleAirlines += 1;\n            flightSuretyDataContract.setAirlineFundingStatus(airline,true);\n            _updateRegistrationRequirements(REGISTER_AIRLINE);\n        } else {\n            emit AirlineNotFunded(airline,msg.value);\n        }\n    }\n\n\n    function _updateRegistrationRequirements(uint256 tid) internal {\n        uint256 newRequirements = _calculateRequirements(totalEligibleAirlines);\n        if (newRequirements != required[tid]) {\n            changeRequirements(tid,newRequirements);\n        }\n    }\n\n    function _calculateRequirements(uint256 eligible) internal pure returns(uint256) {\n       if (eligible > 0 && eligible < 5) {\n           return 1;\n       } else {\n            return(eligible.mul(50).div(100));\n       }\n    }\n\n\n    modifier onlyOwnerAirline(address airline) {\n        require(msg.sender == airline,\"Only owner airline can register its flight\");\n        _;\n    }\n\n   /**\n    * @dev Register a future flight for insuring.\n    * flight must belong to one of the registered airlines.\n    */  \n    function registerFlight(\n        address airline,\n        string calldata flightName,\n        uint256 timestamp\n    ) \n        external\n        whenNotPaused\n        onlyOwnerAirline(airline)\n        onlySigner // signer means caller is a registered and funded airline\n    {\n        uint256 flightKey = getFlightKey(airline,flightName); \n        address airlineForFlight = flightSuretyDataContract.getAirline(flightKey);\n        require(airlineForFlight == address(0x0),\"Airline is already registered\");\n\n        // check for flight names collusion. \n        // should not happen if all flight names are prefixed with the flight name (e.g. UA256)\n        uint256 key = getPolicyKey(airline,flightName,timestamp);\n        flightSuretyDataContract.registerFlight(airline,flightName,timestamp,key,flightKey);\n    }\n\n    function buy(\n        address airline,\n        string calldata flightName,\n        uint256 timestamp\n    )\n        external\n        payable \n        whenNotPaused\n    {\n        //TODO: make max price configurable.\n        require(msg.value <= 1 ether,\"Max allowable insurance price exceeded\"); \n        uint256 flightKey = getFlightKey(airline,flightName);\n        address registeredAirline = flightSuretyDataContract.getAirline(flightKey);\n        require(registeredAirline != address(0x0),\"Unregistered flight or airline\");\n        require(airline != msg.sender,\"Cannot buy insurance on your own flight\");\n        address customer = msg.sender;\n\n        uint256 policyKey = getPolicyKey(airline,flightName,timestamp);\n\n        flightSuretyDataContract.buy.value(msg.value)(\n            customer,\n            policyKey,\n            flightKey\n        );\n    }\n\n    /**\n      @dev get credit balance for a customer\n      */\n     function getCreditBalance(address customer) external view whenNotPaused returns(uint256) {\n        require(customer != address(0x0),\"Invalid customer address\");\n        return flightSuretyDataContract.getCreditBalance(customer);\n     }\n\n\n    /**\n     *  @dev Transfers eligible payout funds to insuree\n     *\n    */\n    function pay() external payable whenNotPaused {\n        require(msg.sender == tx.origin,\"Only EOAs can receive payout.\");\n        flightSuretyDataContract.pay(msg.sender);\n    }\n\n    function getFlightKey(address airline,string memory flight) pure internal returns(uint256) {\n        return uint256(keccak256(abi.encodePacked(airline,flight)));\n    }\n    \n    function getPolicyKey(\n        address airline,\n        string memory flight,\n        uint256 timestamp\n    )\n        pure\n        internal\n        returns(uint256) \n    {\n        return uint256(keccak256(abi.encodePacked(airline, flight, timestamp)));\n    }\n\n   /**\n    * @dev Called after oracle has updated flight status\n    *\n    */  \n\n\n    function processFlightStatus(\n        address airline,\n        string memory flight,\n        uint256 timestamp,\n        uint256 statusCode\n    ) \n        internal\n        validFlightStatus(statusCode)\n    {\n        uint256 policyKey = getPolicyKey(airline,flight,timestamp);\n        _setFlightStatus(policyKey,statusCode);\n    }\n\n    /**\n      * @dev the only difference between this function and the \n      *      processFlightStatus is that this method can be called by \n      *      the airline to override flight status or in lieu of oracle responses if needed.\n      *      Requires same multi-party consensus as registering airlines\n      */\n\n    function setFlightStatus(\n        address airline,\n        string calldata flight,\n        uint256 timestamp,\n        uint256 statusCode\n    ) \n        external \n        whenNotPaused \n        validFlightStatus(statusCode)\n        onlyConfirmed(SET_FLIGHT_STATUS)\n    {\n        uint256 policyKey = getPolicyKey(airline,flight,timestamp);\n        _setFlightStatus(policyKey,statusCode);\n    }\n\n\n    function _setFlightStatus(uint256 policy,uint256 status) internal {\n        IFlightSuretyData.FlightStatus flightStatus = IFlightSuretyData.FlightStatus(status);\n        flightSuretyDataContract.setFlightStatus(policy,flightStatus);\n        if (payOutParams[status] != 0)  {\n            flightSuretyDataContract.creditInsurees(\n                policy,\n                flightStatus,\n                payOutParams[status]\n            );\n        }\n    }\n\n\n\n\n\n    /**\n      * @dev sets the minimum amount funds required to take part in the \n      * contract.\n      * TODO: make it require multi-party consensus\n      */\n    function setAirlineMinimumFunds(uint256 minFund) external whenNotPaused onlyWhitelistAdmin  {\n        AIRLINE_REGISTRATION_FEE = minFund;\n    }\n\n\n    function setPayOutParams(\n        uint256 status, \n        uint256 payOutMultiple\n    ) \n        external\n        whenNotPaused\n        onlyWhitelistAdmin\n        validFlightStatus(status)\n    {\n        _setPayOutParams(status,payOutMultiple);\n    }\n\n    function _setPayOutParams(uint256 status, uint256 payOutMultiple) internal {\n        payOutParams[status] = payOutMultiple;\n        emit PayOutTermsSet(status,payOutParams[status],100);\n\n    }\n\n\n    /**\n    * @dev Fallback function for funding smart contract.\n    *\n    */\n    function() external payable {\n        require(msg.data.length == 0,\"payload not allowed\");\n    }\n\n}   \n",
  "sourcePath": "/Users/dkhroad/Work/blockchain_dev/flight-delay-insurance/contracts/FlightSuretyApp.sol",
  "compiler": {
    "name": "solc",
    "version": "0.5.8+commit.23d335f2.Emscripten.clang"
  },
  "schemaVersion": "3.0.16",
  "updatedAt": "2019-10-05T00:10:47.126Z",
  "devdoc": {
    "methods": {
      "bootstrap(string)": {
        "details": "register and fund the first airline"
      },
      "constructor": {
        "details": "Contract constructor."
      },
      "getCreditBalance(address)": {
        "details": "get credit balance for a customer"
      },
      "isOwner()": {
        "details": "Returns true if the caller is the current owner."
      },
      "owner()": {
        "details": "Returns the address of the current owner."
      },
      "pause()": {
        "details": "Called by a pauser to pause, triggers stopped state."
      },
      "paused()": {
        "details": "Returns true if the contract is paused, and false otherwise."
      },
      "pay()": {
        "details": "Transfers eligible payout funds to insuree    "
      },
      "registerAirline(address,string)": {
        "details": "Add an airline to the registration queue    "
      },
      "registerFlight(address,string,uint256)": {
        "details": "Register a future flight for insuring. flight must belong to one of the registered airlines."
      },
      "renounceOwnership()": {
        "details": "Leaves the contract without owner. It will not be possible to call `onlyOwner` functions anymore. Can only be called by the current owner.     * > Note: Renouncing ownership will leave the contract without an owner, thereby removing any functionality that is only available to the owner."
      },
      "setAirlineMinimumFunds(uint256)": {
        "details": "sets the minimum amount funds required to take part in the  contract. TODO: make it require multi-party consensus"
      },
      "setFlightStatus(address,string,uint256,uint256)": {
        "details": "the only difference between this function and the      processFlightStatus is that this method can be called by      the airline to override flight status or in lieu of oracle responses if needed.     Requires same multi-party consensus as registering airlines"
      },
      "transferOwnership(address)": {
        "details": "Transfers ownership of the contract to a new account (`newOwner`). Can only be called by the current owner."
      },
      "unpause()": {
        "details": "Called by a pauser to unpause, returns to normal state."
      }
    }
  },
  "userdoc": {
    "methods": {
      "isDataContractOperational()": {
        "notice": "*****************************************************************************************"
      }
    },
    "notice": "************************************************ "
  }
}