{
  "contractName": "FlightSuretyApp",
  "abi": [
    {
      "constant": true,
      "inputs": [
        {
          "name": "",
          "type": "uint256"
        }
      ],
      "name": "required",
      "outputs": [
        {
          "name": "",
          "type": "uint256"
        }
      ],
      "payable": false,
      "stateMutability": "view",
      "type": "function"
    },
    {
      "constant": false,
      "inputs": [
        {
          "name": "minResponses",
          "type": "uint256"
        }
      ],
      "name": "setMinResponses",
      "outputs": [],
      "payable": false,
      "stateMutability": "nonpayable",
      "type": "function"
    },
    {
      "constant": false,
      "inputs": [],
      "name": "registerOracle",
      "outputs": [],
      "payable": true,
      "stateMutability": "payable",
      "type": "function"
    },
    {
      "constant": false,
      "inputs": [],
      "name": "unpause",
      "outputs": [],
      "payable": false,
      "stateMutability": "nonpayable",
      "type": "function"
    },
    {
      "constant": true,
      "inputs": [
        {
          "name": "account",
          "type": "address"
        }
      ],
      "name": "isPauser",
      "outputs": [
        {
          "name": "",
          "type": "bool"
        }
      ],
      "payable": false,
      "stateMutability": "view",
      "type": "function"
    },
    {
      "constant": false,
      "inputs": [],
      "name": "renounceWhitelistAdmin",
      "outputs": [],
      "payable": false,
      "stateMutability": "nonpayable",
      "type": "function"
    },
    {
      "constant": true,
      "inputs": [],
      "name": "paused",
      "outputs": [
        {
          "name": "",
          "type": "bool"
        }
      ],
      "payable": false,
      "stateMutability": "view",
      "type": "function"
    },
    {
      "constant": true,
      "inputs": [],
      "name": "getMyIndexes",
      "outputs": [
        {
          "name": "",
          "type": "uint8[3]"
        }
      ],
      "payable": false,
      "stateMutability": "view",
      "type": "function"
    },
    {
      "constant": true,
      "inputs": [],
      "name": "MAX_SIGNER_COUNT",
      "outputs": [
        {
          "name": "",
          "type": "uint256"
        }
      ],
      "payable": false,
      "stateMutability": "view",
      "type": "function"
    },
    {
      "constant": true,
      "inputs": [],
      "name": "REGISTRATION_FEE",
      "outputs": [
        {
          "name": "",
          "type": "uint256"
        }
      ],
      "payable": false,
      "stateMutability": "view",
      "type": "function"
    },
    {
      "constant": false,
      "inputs": [],
      "name": "renouncePauser",
      "outputs": [],
      "payable": false,
      "stateMutability": "nonpayable",
      "type": "function"
    },
    {
      "constant": true,
      "inputs": [],
      "name": "REGISTER_AIRLINE",
      "outputs": [
        {
          "name": "",
          "type": "uint256"
        }
      ],
      "payable": false,
      "stateMutability": "view",
      "type": "function"
    },
    {
      "constant": false,
      "inputs": [],
      "name": "renounceOwnership",
      "outputs": [],
      "payable": false,
      "stateMutability": "nonpayable",
      "type": "function"
    },
    {
      "constant": false,
      "inputs": [
        {
          "name": "account",
          "type": "address"
        }
      ],
      "name": "addWhitelistAdmin",
      "outputs": [],
      "payable": false,
      "stateMutability": "nonpayable",
      "type": "function"
    },
    {
      "constant": true,
      "inputs": [
        {
          "name": "account",
          "type": "address"
        }
      ],
      "name": "isSigner",
      "outputs": [
        {
          "name": "",
          "type": "bool"
        }
      ],
      "payable": false,
      "stateMutability": "view",
      "type": "function"
    },
    {
      "constant": false,
      "inputs": [
        {
          "name": "account",
          "type": "address"
        }
      ],
      "name": "addPauser",
      "outputs": [],
      "payable": false,
      "stateMutability": "nonpayable",
      "type": "function"
    },
    {
      "constant": true,
      "inputs": [],
      "name": "MIN_RESPONSES",
      "outputs": [
        {
          "name": "",
          "type": "uint256"
        }
      ],
      "payable": false,
      "stateMutability": "view",
      "type": "function"
    },
    {
      "constant": false,
      "inputs": [],
      "name": "pause",
      "outputs": [],
      "payable": false,
      "stateMutability": "nonpayable",
      "type": "function"
    },
    {
      "constant": true,
      "inputs": [],
      "name": "owner",
      "outputs": [
        {
          "name": "",
          "type": "address"
        }
      ],
      "payable": false,
      "stateMutability": "view",
      "type": "function"
    },
    {
      "constant": true,
      "inputs": [],
      "name": "isOwner",
      "outputs": [
        {
          "name": "",
          "type": "bool"
        }
      ],
      "payable": false,
      "stateMutability": "view",
      "type": "function"
    },
    {
      "constant": true,
      "inputs": [],
      "name": "SET_FLIGHT_STATUS",
      "outputs": [
        {
          "name": "",
          "type": "uint256"
        }
      ],
      "payable": false,
      "stateMutability": "view",
      "type": "function"
    },
    {
      "constant": true,
      "inputs": [
        {
          "name": "account",
          "type": "address"
        }
      ],
      "name": "isWhitelistAdmin",
      "outputs": [
        {
          "name": "",
          "type": "bool"
        }
      ],
      "payable": false,
      "stateMutability": "view",
      "type": "function"
    },
    {
      "constant": true,
      "inputs": [
        {
          "name": "transactionId",
          "type": "uint256"
        }
      ],
      "name": "getConfirmationsCount",
      "outputs": [
        {
          "name": "r",
          "type": "uint256"
        },
        {
          "name": "c",
          "type": "uint256"
        }
      ],
      "payable": false,
      "stateMutability": "view",
      "type": "function"
    },
    {
      "constant": false,
      "inputs": [
        {
          "name": "index",
          "type": "uint8"
        },
        {
          "name": "airline",
          "type": "address"
        },
        {
          "name": "flight",
          "type": "string"
        },
        {
          "name": "timestamp",
          "type": "uint256"
        },
        {
          "name": "statusCode",
          "type": "uint8"
        }
      ],
      "name": "submitOracleResponse",
      "outputs": [],
      "payable": false,
      "stateMutability": "nonpayable",
      "type": "function"
    },
    {
      "constant": false,
      "inputs": [
        {
          "name": "fee",
          "type": "uint256"
        }
      ],
      "name": "setRegistrationFee",
      "outputs": [],
      "payable": false,
      "stateMutability": "nonpayable",
      "type": "function"
    },
    {
      "constant": true,
      "inputs": [],
      "name": "totalSigners",
      "outputs": [
        {
          "name": "",
          "type": "uint256"
        }
      ],
      "payable": false,
      "stateMutability": "view",
      "type": "function"
    },
    {
      "constant": true,
      "inputs": [
        {
          "name": "",
          "type": "uint256"
        },
        {
          "name": "",
          "type": "uint256"
        }
      ],
      "name": "confirmations",
      "outputs": [
        {
          "name": "",
          "type": "address"
        }
      ],
      "payable": false,
      "stateMutability": "view",
      "type": "function"
    },
    {
      "constant": true,
      "inputs": [],
      "name": "AIRLINE_REGISTRATION_FEE",
      "outputs": [
        {
          "name": "",
          "type": "uint256"
        }
      ],
      "payable": false,
      "stateMutability": "view",
      "type": "function"
    },
    {
      "constant": false,
      "inputs": [],
      "name": "renounceSigner",
      "outputs": [],
      "payable": false,
      "stateMutability": "nonpayable",
      "type": "function"
    },
    {
      "constant": false,
      "inputs": [
        {
          "name": "signer",
          "type": "address"
        }
      ],
      "name": "addSigner",
      "outputs": [],
      "payable": false,
      "stateMutability": "nonpayable",
      "type": "function"
    },
    {
      "constant": false,
      "inputs": [
        {
          "name": "newOwner",
          "type": "address"
        }
      ],
      "name": "transferOwnership",
      "outputs": [],
      "payable": false,
      "stateMutability": "nonpayable",
      "type": "function"
    },
    {
      "constant": false,
      "inputs": [
        {
          "name": "airline",
          "type": "address"
        },
        {
          "name": "flight",
          "type": "string"
        },
        {
          "name": "timestamp",
          "type": "uint256"
        }
      ],
      "name": "fetchFlightStatus",
      "outputs": [],
      "payable": false,
      "stateMutability": "nonpayable",
      "type": "function"
    },
    {
      "inputs": [
        {
          "name": "dataContract",
          "type": "address"
        }
      ],
      "payable": false,
      "stateMutability": "nonpayable",
      "type": "constructor"
    },
    {
      "payable": true,
      "stateMutability": "payable",
      "type": "fallback"
    },
    {
      "anonymous": false,
      "inputs": [
        {
          "indexed": true,
          "name": "airline",
          "type": "address"
        },
        {
          "indexed": false,
          "name": "name",
          "type": "string"
        },
        {
          "indexed": true,
          "name": "by",
          "type": "address"
        }
      ],
      "name": "AirlineRegistered",
      "type": "event"
    },
    {
      "anonymous": false,
      "inputs": [
        {
          "indexed": true,
          "name": "airline",
          "type": "address"
        },
        {
          "indexed": false,
          "name": "value",
          "type": "uint256"
        }
      ],
      "name": "AirlineFunded",
      "type": "event"
    },
    {
      "anonymous": false,
      "inputs": [
        {
          "indexed": true,
          "name": "airline",
          "type": "address"
        },
        {
          "indexed": false,
          "name": "name",
          "type": "string"
        },
        {
          "indexed": false,
          "name": "timestamp",
          "type": "uint256"
        }
      ],
      "name": "FlightRegistered",
      "type": "event"
    },
    {
      "anonymous": false,
      "inputs": [
        {
          "indexed": true,
          "name": "customer",
          "type": "address"
        },
        {
          "indexed": false,
          "name": "airline",
          "type": "address"
        },
        {
          "indexed": false,
          "name": "flight",
          "type": "string"
        },
        {
          "indexed": false,
          "name": "timestamp",
          "type": "uint256"
        },
        {
          "indexed": false,
          "name": "",
          "type": "uint8"
        }
      ],
      "name": "PolicyPurchased",
      "type": "event"
    },
    {
      "anonymous": false,
      "inputs": [
        {
          "indexed": true,
          "name": "airline",
          "type": "address"
        },
        {
          "indexed": false,
          "name": "flight",
          "type": "string"
        },
        {
          "indexed": false,
          "name": "timestamp",
          "type": "uint256"
        },
        {
          "indexed": false,
          "name": "status",
          "type": "uint8"
        }
      ],
      "name": "FlightStatusUpdated",
      "type": "event"
    },
    {
      "anonymous": false,
      "inputs": [
        {
          "indexed": true,
          "name": "customer",
          "type": "address"
        },
        {
          "indexed": false,
          "name": "amount",
          "type": "uint256"
        }
      ],
      "name": "Payout",
      "type": "event"
    },
    {
      "anonymous": false,
      "inputs": [
        {
          "indexed": true,
          "name": "customer",
          "type": "address"
        },
        {
          "indexed": false,
          "name": "payout",
          "type": "uint256"
        },
        {
          "indexed": false,
          "name": "policy",
          "type": "uint256"
        }
      ],
      "name": "InsuranceCredit",
      "type": "event"
    },
    {
      "anonymous": false,
      "inputs": [
        {
          "indexed": true,
          "name": "airline",
          "type": "address"
        },
        {
          "indexed": false,
          "name": "value",
          "type": "uint256"
        }
      ],
      "name": "AirlineNotFunded",
      "type": "event"
    },
    {
      "anonymous": false,
      "inputs": [
        {
          "indexed": true,
          "name": "airline",
          "type": "address"
        }
      ],
      "name": "NotRegistered",
      "type": "event"
    },
    {
      "anonymous": false,
      "inputs": [
        {
          "indexed": true,
          "name": "status",
          "type": "uint256"
        },
        {
          "indexed": false,
          "name": "numerator",
          "type": "uint256"
        },
        {
          "indexed": false,
          "name": "denominator",
          "type": "uint256"
        }
      ],
      "name": "PayOutTermsSet",
      "type": "event"
    },
    {
      "anonymous": false,
      "inputs": [
        {
          "indexed": false,
          "name": "airline",
          "type": "address"
        },
        {
          "indexed": false,
          "name": "flight",
          "type": "string"
        },
        {
          "indexed": false,
          "name": "timestamp",
          "type": "uint256"
        },
        {
          "indexed": false,
          "name": "status",
          "type": "uint8"
        }
      ],
      "name": "FlightStatusInfo",
      "type": "event"
    },
    {
      "anonymous": false,
      "inputs": [
        {
          "indexed": false,
          "name": "airline",
          "type": "address"
        },
        {
          "indexed": false,
          "name": "flight",
          "type": "string"
        },
        {
          "indexed": false,
          "name": "timestamp",
          "type": "uint256"
        },
        {
          "indexed": false,
          "name": "status",
          "type": "uint8"
        }
      ],
      "name": "OracleReport",
      "type": "event"
    },
    {
      "anonymous": false,
      "inputs": [
        {
          "indexed": false,
          "name": "index",
          "type": "uint8"
        },
        {
          "indexed": false,
          "name": "airline",
          "type": "address"
        },
        {
          "indexed": false,
          "name": "flight",
          "type": "string"
        },
        {
          "indexed": false,
          "name": "timestamp",
          "type": "uint256"
        },
        {
          "indexed": false,
          "name": "status",
          "type": "uint8"
        }
      ],
      "name": "SubmitOracleResponse",
      "type": "event"
    },
    {
      "anonymous": false,
      "inputs": [
        {
          "indexed": false,
          "name": "prev",
          "type": "uint256"
        },
        {
          "indexed": false,
          "name": "current",
          "type": "uint256"
        }
      ],
      "name": "OracleMinimumResponsesChanged",
      "type": "event"
    },
    {
      "anonymous": false,
      "inputs": [
        {
          "indexed": false,
          "name": "prev",
          "type": "uint256"
        },
        {
          "indexed": false,
          "name": "current",
          "type": "uint256"
        }
      ],
      "name": "OracleRegistrationFeeChanged",
      "type": "event"
    },
    {
      "anonymous": false,
      "inputs": [
        {
          "indexed": false,
          "name": "index",
          "type": "uint8"
        },
        {
          "indexed": false,
          "name": "airline",
          "type": "address"
        },
        {
          "indexed": false,
          "name": "flight",
          "type": "string"
        },
        {
          "indexed": false,
          "name": "timestamp",
          "type": "uint256"
        }
      ],
      "name": "OracleRequest",
      "type": "event"
    },
    {
      "anonymous": false,
      "inputs": [
        {
          "indexed": true,
          "name": "transactionId",
          "type": "uint256"
        },
        {
          "indexed": true,
          "name": "signer",
          "type": "address"
        }
      ],
      "name": "Submitted",
      "type": "event"
    },
    {
      "anonymous": false,
      "inputs": [
        {
          "indexed": true,
          "name": "transactionId",
          "type": "uint256"
        },
        {
          "indexed": true,
          "name": "signer",
          "type": "address"
        }
      ],
      "name": "Confirmed",
      "type": "event"
    },
    {
      "anonymous": false,
      "inputs": [
        {
          "indexed": true,
          "name": "transactionId",
          "type": "uint256"
        },
        {
          "indexed": true,
          "name": "signer",
          "type": "address"
        }
      ],
      "name": "Executed",
      "type": "event"
    },
    {
      "anonymous": false,
      "inputs": [
        {
          "indexed": true,
          "name": "transactionId",
          "type": "uint256"
        },
        {
          "indexed": true,
          "name": "old",
          "type": "uint256"
        },
        {
          "indexed": true,
          "name": "current",
          "type": "uint256"
        }
      ],
      "name": "RequirementChanged",
      "type": "event"
    },
    {
      "anonymous": false,
      "inputs": [
        {
          "indexed": true,
          "name": "account",
          "type": "address"
        }
      ],
      "name": "WhitelistAdminAdded",
      "type": "event"
    },
    {
      "anonymous": false,
      "inputs": [
        {
          "indexed": true,
          "name": "account",
          "type": "address"
        }
      ],
      "name": "WhitelistAdminRemoved",
      "type": "event"
    },
    {
      "anonymous": false,
      "inputs": [
        {
          "indexed": false,
          "name": "account",
          "type": "address"
        }
      ],
      "name": "Paused",
      "type": "event"
    },
    {
      "anonymous": false,
      "inputs": [
        {
          "indexed": false,
          "name": "account",
          "type": "address"
        }
      ],
      "name": "Unpaused",
      "type": "event"
    },
    {
      "anonymous": false,
      "inputs": [
        {
          "indexed": true,
          "name": "account",
          "type": "address"
        }
      ],
      "name": "PauserAdded",
      "type": "event"
    },
    {
      "anonymous": false,
      "inputs": [
        {
          "indexed": true,
          "name": "account",
          "type": "address"
        }
      ],
      "name": "PauserRemoved",
      "type": "event"
    },
    {
      "anonymous": false,
      "inputs": [
        {
          "indexed": true,
          "name": "account",
          "type": "address"
        }
      ],
      "name": "SignerAdded",
      "type": "event"
    },
    {
      "anonymous": false,
      "inputs": [
        {
          "indexed": true,
          "name": "account",
          "type": "address"
        }
      ],
      "name": "SignerRemoved",
      "type": "event"
    },
    {
      "anonymous": false,
      "inputs": [
        {
          "indexed": true,
          "name": "previousOwner",
          "type": "address"
        },
        {
          "indexed": true,
          "name": "newOwner",
          "type": "address"
        }
      ],
      "name": "OwnershipTransferred",
      "type": "event"
    },
    {
      "constant": true,
      "inputs": [],
      "name": "isDataContractOperational",
      "outputs": [
        {
          "name": "",
          "type": "bool"
        }
      ],
      "payable": false,
      "stateMutability": "view",
      "type": "function"
    },
    {
      "constant": false,
      "inputs": [
        {
          "name": "name",
          "type": "string"
        }
      ],
      "name": "bootstrap",
      "outputs": [],
      "payable": true,
      "stateMutability": "payable",
      "type": "function"
    },
    {
      "constant": false,
      "inputs": [
        {
          "name": "airline",
          "type": "address"
        },
        {
          "name": "name",
          "type": "string"
        }
      ],
      "name": "registerAirline",
      "outputs": [],
      "payable": true,
      "stateMutability": "payable",
      "type": "function"
    },
    {
      "constant": false,
      "inputs": [
        {
          "name": "airline",
          "type": "address"
        }
      ],
      "name": "fund",
      "outputs": [],
      "payable": true,
      "stateMutability": "payable",
      "type": "function"
    },
    {
      "constant": false,
      "inputs": [
        {
          "name": "airline",
          "type": "address"
        },
        {
          "name": "flightName",
          "type": "string"
        },
        {
          "name": "timestamp",
          "type": "uint256"
        }
      ],
      "name": "registerFlight",
      "outputs": [],
      "payable": false,
      "stateMutability": "nonpayable",
      "type": "function"
    },
    {
      "constant": false,
      "inputs": [
        {
          "name": "airline",
          "type": "address"
        },
        {
          "name": "flightName",
          "type": "string"
        },
        {
          "name": "timestamp",
          "type": "uint256"
        }
      ],
      "name": "buy",
      "outputs": [],
      "payable": true,
      "stateMutability": "payable",
      "type": "function"
    },
    {
      "constant": false,
      "inputs": [],
      "name": "pay",
      "outputs": [],
      "payable": true,
      "stateMutability": "payable",
      "type": "function"
    },
    {
      "constant": false,
      "inputs": [
        {
          "name": "airline",
          "type": "address"
        },
        {
          "name": "flight",
          "type": "string"
        },
        {
          "name": "timestamp",
          "type": "uint256"
        },
        {
          "name": "statusCode",
          "type": "uint256"
        }
      ],
      "name": "setFlightStatus",
      "outputs": [],
      "payable": false,
      "stateMutability": "nonpayable",
      "type": "function"
    },
    {
      "constant": false,
      "inputs": [
        {
          "name": "minFund",
          "type": "uint256"
        }
      ],
      "name": "setAirlineMinimumFunds",
      "outputs": [],
      "payable": false,
      "stateMutability": "nonpayable",
      "type": "function"
    },
    {
      "constant": false,
      "inputs": [
        {
          "name": "status",
          "type": "uint256"
        },
        {
          "name": "payOutMultiple",
          "type": "uint256"
        }
      ],
      "name": "setPayOutParams",
      "outputs": [],
      "payable": false,
      "stateMutability": "nonpayable",
      "type": "function"
    }
  ],
  "bytecode": "0x60806040526000600860006101000a81548160ff021916908360ff160217905550670de0b6b3a76400006009556003600a55678ac7230489e800006010553480156200004a57600080fd5b5060405160208062006378833981018060405260208110156200006c57600080fd5b8101908080519060200190929190505050336000806101000a81548173ffffffffffffffffffffffffffffffffffffffff021916908373ffffffffffffffffffffffffffffffffffffffff1602179055506000809054906101000a900473ffffffffffffffffffffffffffffffffffffffff1673ffffffffffffffffffffffffffffffffffffffff16600073ffffffffffffffffffffffffffffffffffffffff167f8be0079c531659141344cd1fd0a4f28419497f9722a3daafe3b4186f6b6457e060405160405180910390a36200014a33620001ff60201b60201c565b6200015b336200026060201b60201c565b6000600360006101000a81548160ff0219169083151502179055506200018733620002c160201b60201c565b80600d60006101000a81548173ffffffffffffffffffffffffffffffffffffffff021916908373ffffffffffffffffffffffffffffffffffffffff160217905550620001d86200032260201b60201c565b620001f860026005811115620001ea57fe5b60966200033560201b60201c565b5062000691565b6200021a816001620003a560201b620054721790919060201c565b8073ffffffffffffffffffffffffffffffffffffffff167f47d1c22a25bb3a5d4e481b9b1e6944c2eade3181a0a20b495ed61d35b5323f2460405160405180910390a250565b6200027b816002620003a560201b620054721790919060201c565b8073ffffffffffffffffffffffffffffffffffffffff167f6719d08c1888103bea251a4ed56406bd0c3e69723c8a1686e017e7bbe159b6f860405160405180910390a250565b620002dc816004620003a560201b620054721790919060201c565b8073ffffffffffffffffffffffffffffffffffffffff167f22380c05984257a1cb900161c713dd71d39e74820f1aea43bd3f1bdd2096129960405160405180910390a250565b62000333336200048960201b60201c565b565b806011600084815260200190815260200160002081905550817ff0f729cff3741c2d483d22cff97eae75bdb666713f6a8b35daf6bd417334a72d60116000858152602001908152602001600020546064604051808381526020018281526020019250505060405180910390a25050565b620003b78282620004ea60201b60201c565b156200042b576040517f08c379a000000000000000000000000000000000000000000000000000000000815260040180806020018281038252601f8152602001807f526f6c65733a206163636f756e7420616c72656164792068617320726f6c650081525060200191505060405180910390fd5b60018260000160008373ffffffffffffffffffffffffffffffffffffffff1673ffffffffffffffffffffffffffffffffffffffff16815260200190815260200160002060006101000a81548160ff0219169083151502179055505050565b620004a4816001620005ca60201b620053b51790919060201c565b8073ffffffffffffffffffffffffffffffffffffffff167f3525e22824a8a7df2c9a6029941c824cf95b6447f1e13d5128fd3826d35afe8b60405160405180910390a250565b60008073ffffffffffffffffffffffffffffffffffffffff168273ffffffffffffffffffffffffffffffffffffffff16141562000573576040517f08c379a0000000000000000000000000000000000000000000000000000000008152600401808060200182810382526022815260200180620063566022913960400191505060405180910390fd5b8260000160008373ffffffffffffffffffffffffffffffffffffffff1673ffffffffffffffffffffffffffffffffffffffff16815260200190815260200160002060009054906101000a900460ff16905092915050565b620005dc8282620004ea60201b60201c565b62000633576040517f08c379a0000000000000000000000000000000000000000000000000000000008152600401808060200182810382526021815260200180620063356021913960400191505060405180910390fd5b60008260000160008373ffffffffffffffffffffffffffffffffffffffff1673ffffffffffffffffffffffffffffffffffffffff16815260200190815260200160002060006101000a81548160ff0219169083151502179055505050565b615c9480620006a16000396000f3fe6080604052600436106102515760003560e01c80638da5cb5b11610139578063d1a62648116100b6578063eaaf6c611161007a578063eaaf6c6114610c76578063eb12d61e14610d30578063ee38a74914610d81578063ee9c1a5414610e1a578063f2fde38b14610e49578063f83f11c014610e9a57610251565b8063d1a6264814610b0b578063d3377a8b14610b36578063d4c3fd8214610baf578063d8f73ca514610c34578063e5c8b03d14610c5f57610251565b8063b1c46d22116100fd578063b1c46d22146108a4578063bb5f747b14610947578063bce800e5146109b0578063c10f270014610a06578063c320c72714610ad057610251565b80638da5cb5b146107735780638f32d59b146107ca5780639110f627146107f9578063a4272f1a1461083e578063a906845f1461086957610251565b80635f1cc0e6116101d2578063715018a611610196578063715018a61461060f5780637362d9c8146106265780637df73e271461067757806382dc1ec4146106e057806383b03cb3146107315780638456cb591461075c57610251565b80635f1cc0e61461052457806362dfa1be1461057757806364b4f751146105a25780636ef8d66d146105cd5780636fe45978146105e457610251565b80633cc0be9c116102195780633cc0be9c146103ae5780633f4ba83a1461045e57806346fbf68e146104755780634c5a628c146104de5780635c975abb146104f557610251565b80631b73f830146102cc5780631b9265b81461031b5780632302440814610325578063231f145714610369578063339d2590146103a4575b600080369050146102ca576040517f08c379a00000000000000000000000000000000000000000000000000000000081526004018080602001828103825260138152602001807f7061796c6f6164206e6f7420616c6c6f7765640000000000000000000000000081525060200191505060405180910390fd5b005b3480156102d857600080fd5b50610305600480360360208110156102ef57600080fd5b8101908080359060200190929190505050610f4a565b6040518082815260200191505060405180910390f35b610323610f62565b005b6103676004803603602081101561033b57600080fd5b81019080803573ffffffffffffffffffffffffffffffffffffffff169060200190929190505050611141565b005b34801561037557600080fd5b506103a26004803603602081101561038c57600080fd5b8101908080359060200190929190505050611324565b005b6103ac611521565b005b3480156103ba57600080fd5b5061045c600480360360608110156103d157600080fd5b81019080803573ffffffffffffffffffffffffffffffffffffffff1690602001909291908035906020019064010000000081111561040e57600080fd5b82018360208201111561042057600080fd5b8035906020019184600183028401116401000000008311171561044257600080fd5b9091929391929390803590602001909291905050506116c4565b005b34801561046a57600080fd5b50610473611b60565b005b34801561048157600080fd5b506104c46004803603602081101561049857600080fd5b81019080803573ffffffffffffffffffffffffffffffffffffffff169060200190929190505050611cc0565b604051808215151515815260200191505060405180910390f35b3480156104ea57600080fd5b506104f3611cdd565b005b34801561050157600080fd5b5061050a611ce8565b604051808215151515815260200191505060405180910390f35b34801561053057600080fd5b50610539611cff565b6040518082600360200280838360005b83811015610564578082015181840152602081019050610549565b5050505090500191505060405180910390f35b34801561058357600080fd5b5061058c611ef5565b6040518082815260200191505060405180910390f35b3480156105ae57600080fd5b506105b7611efa565b6040518082815260200191505060405180910390f35b3480156105d957600080fd5b506105e2611f00565b005b3480156105f057600080fd5b506105f9611f0b565b6040518082815260200191505060405180910390f35b34801561061b57600080fd5b50610624611f10565b005b34801561063257600080fd5b506106756004803603602081101561064957600080fd5b81019080803573ffffffffffffffffffffffffffffffffffffffff169060200190929190505050612049565b005b34801561068357600080fd5b506106c66004803603602081101561069a57600080fd5b81019080803573ffffffffffffffffffffffffffffffffffffffff1690602001909291905050506120b3565b604051808215151515815260200191505060405180910390f35b3480156106ec57600080fd5b5061072f6004803603602081101561070357600080fd5b81019080803573ffffffffffffffffffffffffffffffffffffffff1690602001909291905050506120d0565b005b34801561073d57600080fd5b5061074661213a565b6040518082815260200191505060405180910390f35b34801561076857600080fd5b50610771612140565b005b34801561077f57600080fd5b506107886122a1565b604051808273ffffffffffffffffffffffffffffffffffffffff1673ffffffffffffffffffffffffffffffffffffffff16815260200191505060405180910390f35b3480156107d657600080fd5b506107df6122ca565b604051808215151515815260200191505060405180910390f35b34801561080557600080fd5b5061083c6004803603604081101561081c57600080fd5b810190808035906020019092919080359060200190929190505050612321565b005b34801561084a57600080fd5b50610853612532565b6040518082815260200191505060405180910390f35b34801561087557600080fd5b506108a26004803603602081101561088c57600080fd5b8101908080359060200190929190505050612537565b005b610945600480360360608110156108ba57600080fd5b81019080803573ffffffffffffffffffffffffffffffffffffffff169060200190929190803590602001906401000000008111156108f757600080fd5b82018360208201111561090957600080fd5b8035906020019184600183028401116401000000008311171561092b57600080fd5b909192939192939080359060200190929190505050612622565b005b34801561095357600080fd5b506109966004803603602081101561096a57600080fd5b81019080803573ffffffffffffffffffffffffffffffffffffffff169060200190929190505050612a60565b604051808215151515815260200191505060405180910390f35b3480156109bc57600080fd5b506109e9600480360360208110156109d357600080fd5b8101908080359060200190929190505050612a7d565b604051808381526020018281526020019250505060405180910390f35b348015610a1257600080fd5b50610ace600480360360a0811015610a2957600080fd5b81019080803560ff169060200190929190803573ffffffffffffffffffffffffffffffffffffffff16906020019092919080359060200190640100000000811115610a7357600080fd5b820183602082011115610a8557600080fd5b80359060200191846001830284011164010000000083111715610aa757600080fd5b909192939192939080359060200190929190803560ff169060200190929190505050612ab4565b005b348015610adc57600080fd5b50610b0960048036036020811015610af357600080fd5b810190808035906020019092919050505061314d565b005b348015610b1757600080fd5b50610b2061334a565b6040518082815260200191505060405180910390f35b610bad60048036036020811015610b4c57600080fd5b8101908080359060200190640100000000811115610b6957600080fd5b820183602082011115610b7b57600080fd5b80359060200191846001830284011164010000000083111715610b9d57600080fd5b9091929391929390505050613350565b005b348015610bbb57600080fd5b50610bf260048036036040811015610bd257600080fd5b810190808035906020019092919080359060200190929190505050613425565b604051808273ffffffffffffffffffffffffffffffffffffffff1673ffffffffffffffffffffffffffffffffffffffff16815260200191505060405180910390f35b348015610c4057600080fd5b50610c49613470565b6040518082815260200191505060405180910390f35b348015610c6b57600080fd5b50610c74613476565b005b348015610c8257600080fd5b50610d2e60048036036080811015610c9957600080fd5b81019080803573ffffffffffffffffffffffffffffffffffffffff16906020019092919080359060200190640100000000811115610cd657600080fd5b820183602082011115610ce857600080fd5b80359060200191846001830284011164010000000083111715610d0a57600080fd5b90919293919293908035906020019092919080359060200190929190505050613481565b005b348015610d3c57600080fd5b50610d7f60048036036020811015610d5357600080fd5b81019080803573ffffffffffffffffffffffffffffffffffffffff1690602001909291905050506138fc565b005b610e1860048036036040811015610d9757600080fd5b81019080803573ffffffffffffffffffffffffffffffffffffffff16906020019092919080359060200190640100000000811115610dd457600080fd5b820183602082011115610de657600080fd5b80359060200191846001830284011164010000000083111715610e0857600080fd5b909192939192939050505061399e565b005b348015610e2657600080fd5b50610e2f613eb3565b604051808215151515815260200191505060405180910390f35b348015610e5557600080fd5b50610e9860048036036020811015610e6c57600080fd5b81019080803573ffffffffffffffffffffffffffffffffffffffff169060200190929190505050613f5d565b005b348015610ea657600080fd5b50610f4860048036036060811015610ebd57600080fd5b81019080803573ffffffffffffffffffffffffffffffffffffffff16906020019092919080359060200190640100000000811115610efa57600080fd5b820183602082011115610f0c57600080fd5b80359060200191846001830284011164010000000083111715610f2e57600080fd5b909192939192939080359060200190929190505050613fe3565b005b60056020528060005260406000206000915090505481565b600360009054906101000a900460ff1615610fe5576040517f08c379a00000000000000000000000000000000000000000000000000000000081526004018080602001828103825260108152602001807f5061757361626c653a207061757365640000000000000000000000000000000081525060200191505060405180910390fd5b3273ffffffffffffffffffffffffffffffffffffffff163373ffffffffffffffffffffffffffffffffffffffff1614611086576040517f08c379a000000000000000000000000000000000000000000000000000000000815260040180806020018281038252601d8152602001807f4f6e6c7920454f41732063616e2072656365697665207061796f75742e00000081525060200191505060405180910390fd5b600d60009054906101000a900473ffffffffffffffffffffffffffffffffffffffff1673ffffffffffffffffffffffffffffffffffffffff16630c11dedd336040518263ffffffff1660e01b8152600401808273ffffffffffffffffffffffffffffffffffffffff1673ffffffffffffffffffffffffffffffffffffffff168152602001915050600060405180830381600087803b15801561112757600080fd5b505af115801561113b573d6000803e3d6000fd5b50505050565b600360009054906101000a900460ff16156111c4576040517f08c379a00000000000000000000000000000000000000000000000000000000081526004018080602001828103825260108152602001807f5061757361626c653a207061757365640000000000000000000000000000000081525060200191505060405180910390fd5b6000600d60009054906101000a900473ffffffffffffffffffffffffffffffffffffffff1673ffffffffffffffffffffffffffffffffffffffff1663010c5c97336040518263ffffffff1660e01b8152600401808273ffffffffffffffffffffffffffffffffffffffff1673ffffffffffffffffffffffffffffffffffffffff168152602001915050602060405180830381600087803b15801561126757600080fd5b505af115801561127b573d6000803e3d6000fd5b505050506040513d602081101561129157600080fd5b8101908080519060200190929190505050905080611317576040517f08c379a00000000000000000000000000000000000000000000000000000000081526004018080602001828103825260188152602001807f43616c6c6572206973206e6f742072656769737465726564000000000000000081525060200191505060405180910390fd5b611320826142b5565b5050565b600360009054906101000a900460ff16156113a7576040517f08c379a00000000000000000000000000000000000000000000000000000000081526004018080602001828103825260108152602001807f5061757361626c653a207061757365640000000000000000000000000000000081525060200191505060405180910390fd5b6113b033612a60565b611405576040517f08c379a0000000000000000000000000000000000000000000000000000000008152600401808060200182810382526040815260200180615bb76040913960400191505060405180910390fd5b6000811161145e576040517f08c379a0000000000000000000000000000000000000000000000000000000008152600401808060200182810382526026815260200180615ab86026913960400191505060405180910390fd5b80600a5414156114d6576040517f08c379a000000000000000000000000000000000000000000000000000000000815260040180806020018281038252601e8152602001807f496e76616c6964206d696e696d756d20726573706f6e73652076616c7565000081525060200191505060405180910390fd5b7f6228df919bb5e56a81f2c4162426ed056bf6588eb1812dfb879a81c27f067dd9600a5482604051808381526020018281526020019250505060405180910390a180600a8190555050565b600360009054906101000a900460ff16156115a4576040517f08c379a00000000000000000000000000000000000000000000000000000000081526004018080602001828103825260108152602001807f5061757361626c653a207061757365640000000000000000000000000000000081525060200191505060405180910390fd5b60095434101561161c576040517f08c379a000000000000000000000000000000000000000000000000000000000815260040180806020018281038252601c8152602001807f526567697374726174696f6e206665652069732072657175697265640000000081525060200191505060405180910390fd5b611624615879565b61162d336144e1565b9050604051806040016040528060011515815260200182815250600b60003373ffffffffffffffffffffffffffffffffffffffff1673ffffffffffffffffffffffffffffffffffffffff16815260200190815260200160002060008201518160000160006101000a81548160ff0219169083151502179055506020820151816001019060036116bd92919061589b565b5090505050565b600360009054906101000a900460ff1615611747576040517f08c379a00000000000000000000000000000000000000000000000000000000081526004018080602001828103825260108152602001807f5061757361626c653a207061757365640000000000000000000000000000000081525060200191505060405180910390fd5b838073ffffffffffffffffffffffffffffffffffffffff163373ffffffffffffffffffffffffffffffffffffffff16146117cc576040517f08c379a000000000000000000000000000000000000000000000000000000000815260040180806020018281038252602a815260200180615b29602a913960400191505060405180910390fd5b6117d5336120b3565b806117e457506117e361466d565b5b611856576040517f08c379a000000000000000000000000000000000000000000000000000000000815260040180806020018281038252601d8152602001807f43616c6c6572206973206e6f7420612066756e646564207369676e657200000081525060200191505060405180910390fd5b60006118a68686868080601f016020809104026020016040519081016040528093929190818152602001838380828437600081840152601f19601f8201169050808301925050505050505061475a565b90506000600d60009054906101000a900473ffffffffffffffffffffffffffffffffffffffff1673ffffffffffffffffffffffffffffffffffffffff1663d6e1c189836040518263ffffffff1660e01b815260040180828152602001915050602060405180830381600087803b15801561191f57600080fd5b505af1158015611933573d6000803e3d6000fd5b505050506040513d602081101561194957600080fd5b81019080805190602001909291905050509050600073ffffffffffffffffffffffffffffffffffffffff168173ffffffffffffffffffffffffffffffffffffffff16146119fe576040517f08c379a000000000000000000000000000000000000000000000000000000000815260040180806020018281038252601d8152602001807f4169726c696e6520697320616c7265616479207265676973746572656400000081525060200191505060405180910390fd5b6000611a4f8888888080601f016020809104026020016040519081016040528093929190818152602001838380828437600081840152601f19601f8201169050808301925050505050505087614810565b9050600d60009054906101000a900473ffffffffffffffffffffffffffffffffffffffff1673ffffffffffffffffffffffffffffffffffffffff1663398ed0678989898986896040518763ffffffff1660e01b8152600401808773ffffffffffffffffffffffffffffffffffffffff1673ffffffffffffffffffffffffffffffffffffffff168152602001806020018581526020018481526020018381526020018281038252878782818152602001925080828437600081840152601f19601f820116905080830192505050975050505050505050600060405180830381600087803b158015611b3e57600080fd5b505af1158015611b52573d6000803e3d6000fd5b505050505050505050505050565b611b6933611cc0565b611bbe576040517f08c379a0000000000000000000000000000000000000000000000000000000008152600401808060200182810382526030815260200180615a626030913960400191505060405180910390fd5b600360009054906101000a900460ff16611c40576040517f08c379a00000000000000000000000000000000000000000000000000000000081526004018080602001828103825260148152602001807f5061757361626c653a206e6f742070617573656400000000000000000000000081525060200191505060405180910390fd5b6000600360006101000a81548160ff0219169083151502179055507f5db9ee0a495bf2e6ff9c91a7834c1ba4fdd244a5e8aa4e537bd38aeae4b073aa33604051808273ffffffffffffffffffffffffffffffffffffffff1673ffffffffffffffffffffffffffffffffffffffff16815260200191505060405180910390a1565b6000611cd68260026148cf90919063ffffffff16565b9050919050565b611ce6336149ad565b565b6000600360009054906101000a900460ff16905090565b611d07615879565b600360009054906101000a900460ff1615611d8a576040517f08c379a00000000000000000000000000000000000000000000000000000000081526004018080602001828103825260108152602001807f5061757361626c653a207061757365640000000000000000000000000000000081525060200191505060405180910390fd5b600b60003373ffffffffffffffffffffffffffffffffffffffff1673ffffffffffffffffffffffffffffffffffffffff16815260200190815260200160002060000160009054906101000a900460ff16611e4c576040517f08c379a000000000000000000000000000000000000000000000000000000000815260040180806020018281038252601b8152602001807f4e6f74207265676973746572656420617320616e206f7261636c65000000000081525060200191505060405180910390fd5b600b60003373ffffffffffffffffffffffffffffffffffffffff1673ffffffffffffffffffffffffffffffffffffffff168152602001908152602001600020600101600380602002604051908101604052809291908260038015611eeb576020028201916000905b82829054906101000a900460ff1660ff1681526020019060010190602082600001049283019260010382029150808411611eb45790505b5050505050905090565b603281565b60095481565b611f0933614a07565b565b600181565b611f186122ca565b611f8a576040517f08c379a00000000000000000000000000000000000000000000000000000000081526004018080602001828103825260208152602001807f4f776e61626c653a2063616c6c6572206973206e6f7420746865206f776e657281525060200191505060405180910390fd5b600073ffffffffffffffffffffffffffffffffffffffff166000809054906101000a900473ffffffffffffffffffffffffffffffffffffffff1673ffffffffffffffffffffffffffffffffffffffff167f8be0079c531659141344cd1fd0a4f28419497f9722a3daafe3b4186f6b6457e060405160405180910390a360008060006101000a81548173ffffffffffffffffffffffffffffffffffffffff021916908373ffffffffffffffffffffffffffffffffffffffff160217905550565b61205233612a60565b6120a7576040517f08c379a0000000000000000000000000000000000000000000000000000000008152600401808060200182810382526040815260200180615bb76040913960400191505060405180910390fd5b6120b081614a61565b50565b60006120c98260016148cf90919063ffffffff16565b9050919050565b6120d933611cc0565b61212e576040517f08c379a0000000000000000000000000000000000000000000000000000000008152600401808060200182810382526030815260200180615a626030913960400191505060405180910390fd5b61213781614abb565b50565b600a5481565b61214933611cc0565b61219e576040517f08c379a0000000000000000000000000000000000000000000000000000000008152600401808060200182810382526030815260200180615a626030913960400191505060405180910390fd5b600360009054906101000a900460ff1615612221576040517f08c379a00000000000000000000000000000000000000000000000000000000081526004018080602001828103825260108152602001807f5061757361626c653a207061757365640000000000000000000000000000000081525060200191505060405180910390fd5b6001600360006101000a81548160ff0219169083151502179055507f62e78cea01bee320cd4e420270b5ea74000d11b0c9f74754ebdbfc544b05a25833604051808273ffffffffffffffffffffffffffffffffffffffff1673ffffffffffffffffffffffffffffffffffffffff16815260200191505060405180910390a1565b60008060009054906101000a900473ffffffffffffffffffffffffffffffffffffffff16905090565b60008060009054906101000a900473ffffffffffffffffffffffffffffffffffffffff1673ffffffffffffffffffffffffffffffffffffffff163373ffffffffffffffffffffffffffffffffffffffff1614905090565b600360009054906101000a900460ff16156123a4576040517f08c379a00000000000000000000000000000000000000000000000000000000081526004018080602001828103825260108152602001807f5061757361626c653a207061757365640000000000000000000000000000000081525060200191505060405180910390fd5b6123ad33612a60565b612402576040517f08c379a0000000000000000000000000000000000000000000000000000000008152600401808060200182810382526040815260200180615bb76040913960400191505060405180910390fd5b81600081600581111561241157fe5b90506001600581111561242057fe5b81600581111561242c57fe5b148061244e57506002600581111561244057fe5b81600581111561244c57fe5b145b8061246f57506003600581111561246157fe5b81600581111561246d57fe5b145b8061249057506004600581111561248257fe5b81600581111561248e57fe5b145b806124b057506005808111156124a257fe5b8160058111156124ae57fe5b145b612522576040517f08c379a00000000000000000000000000000000000000000000000000000000081526004018080602001828103825260158152602001807f496e76616c696420666c6967687420737461747573000000000000000000000081525060200191505060405180910390fd5b61252c8484614b15565b50505050565b600281565b600360009054906101000a900460ff16156125ba576040517f08c379a00000000000000000000000000000000000000000000000000000000081526004018080602001828103825260108152602001807f5061757361626c653a207061757365640000000000000000000000000000000081525060200191505060405180910390fd5b6125c333612a60565b612618576040517f08c379a0000000000000000000000000000000000000000000000000000000008152600401808060200182810382526040815260200180615bb76040913960400191505060405180910390fd5b8060108190555050565b600360009054906101000a900460ff16156126a5576040517f08c379a00000000000000000000000000000000000000000000000000000000081526004018080602001828103825260108152602001807f5061757361626c653a207061757365640000000000000000000000000000000081525060200191505060405180910390fd5b670de0b6b3a7640000341115612706576040517f08c379a0000000000000000000000000000000000000000000000000000000008152600401808060200182810382526026815260200180615b036026913960400191505060405180910390fd5b60006127568585858080601f016020809104026020016040519081016040528093929190818152602001838380828437600081840152601f19601f8201169050808301925050505050505061475a565b90506000600d60009054906101000a900473ffffffffffffffffffffffffffffffffffffffff1673ffffffffffffffffffffffffffffffffffffffff1663d6e1c189836040518263ffffffff1660e01b815260040180828152602001915050602060405180830381600087803b1580156127cf57600080fd5b505af11580156127e3573d6000803e3d6000fd5b505050506040513d60208110156127f957600080fd5b81019080805190602001909291905050509050600073ffffffffffffffffffffffffffffffffffffffff168173ffffffffffffffffffffffffffffffffffffffff1614156128af576040517f08c379a000000000000000000000000000000000000000000000000000000000815260040180806020018281038252601e8152602001807f556e7265676973746572656420666c69676874206f72206169726c696e65000081525060200191505060405180910390fd5b3373ffffffffffffffffffffffffffffffffffffffff168673ffffffffffffffffffffffffffffffffffffffff161415612934576040517f08c379a0000000000000000000000000000000000000000000000000000000008152600401808060200182810382526027815260200180615c1f6027913960400191505060405180910390fd5b6000339050600061298a8888888080601f016020809104026020016040519081016040528093929190818152602001838380828437600081840152601f19601f8201169050808301925050505050505087614810565b9050600d60009054906101000a900473ffffffffffffffffffffffffffffffffffffffff1673ffffffffffffffffffffffffffffffffffffffff1663a59ac6dd348484886040518563ffffffff1660e01b8152600401808473ffffffffffffffffffffffffffffffffffffffff1673ffffffffffffffffffffffffffffffffffffffff16815260200183815260200182815260200193505050506000604051808303818588803b158015612a3d57600080fd5b505af1158015612a51573d6000803e3d6000fd5b50505050505050505050505050565b6000612a768260046148cf90919063ffffffff16565b9050919050565b6000806005600084815260200190815260200160002054915060076000848152602001908152602001600020805490509050915091565b600360009054906101000a900460ff1615612b37576040517f08c379a00000000000000000000000000000000000000000000000000000000081526004018080602001828103825260108152602001807f5061757361626c653a207061757365640000000000000000000000000000000081525060200191505060405180910390fd5b600b60003373ffffffffffffffffffffffffffffffffffffffff1673ffffffffffffffffffffffffffffffffffffffff16815260200190815260200160002060000160009054906101000a900460ff16612bf9576040517f08c379a00000000000000000000000000000000000000000000000000000000081526004018080602001828103825260198152602001807f4f7261636c65206d75737420626520726567697374657265640000000000000081525060200191505060405180910390fd5b8560ff16600b60003373ffffffffffffffffffffffffffffffffffffffff1673ffffffffffffffffffffffffffffffffffffffff168152602001908152602001600020600101600060038110612c4b57fe5b602091828204019190069054906101000a900460ff1660ff161480612cd857508560ff16600b60003373ffffffffffffffffffffffffffffffffffffffff1673ffffffffffffffffffffffffffffffffffffffff168152602001908152602001600020600101600160038110612cbd57fe5b602091828204019190069054906101000a900460ff1660ff16145b80612d4b57508560ff16600b60003373ffffffffffffffffffffffffffffffffffffffff1673ffffffffffffffffffffffffffffffffffffffff168152602001908152602001600020600101600260038110612d3057fe5b602091828204019190069054906101000a900460ff1660ff16145b612da0576040517f08c379a0000000000000000000000000000000000000000000000000000000008152600401808060200182810382526023815260200180615c466023913960400191505060405180910390fd5b60008686868686604051602001808660ff1660ff1660f81b81526001018573ffffffffffffffffffffffffffffffffffffffff1673ffffffffffffffffffffffffffffffffffffffff1660601b81526014018484808284378083019250505082815260200195505050505050604051602081830303815290604052805190602001209050600c600082815260200190815260200160002060000160149054906101000a900460ff16612e9d576040517f08c379a000000000000000000000000000000000000000000000000000000000815260040180806020018281038252602f815260200180615a33602f913960400191505060405180910390fd5b600c600082815260200190815260200160002060010160008360ff1660ff1681526020019081526020016000203390806001815401808255809150509060018203906000526020600020016000909192909190916101000a81548173ffffffffffffffffffffffffffffffffffffffff021916908373ffffffffffffffffffffffffffffffffffffffff160217905550507f43c853095c2752648493c88b4baac4d580d2594ffb00c6f1d4242d844514f7838686868686604051808673ffffffffffffffffffffffffffffffffffffffff1673ffffffffffffffffffffffffffffffffffffffff168152602001806020018481526020018360ff1660ff1681526020018281038252868682818152602001925080828437600081840152601f19601f820116905080830192505050965050505050505060405180910390a1600a54600c600083815260200190815260200160002060010160008460ff1660ff1681526020019081526020016000208054905010613144577fe23f5229de535c091e3b7bec2665f5d698192d3b31393066e8987b7a05076b6c8686868686604051808673ffffffffffffffffffffffffffffffffffffffff1673ffffffffffffffffffffffffffffffffffffffff168152602001806020018481526020018360ff1660ff1681526020018281038252868682818152602001925080828437600081840152601f19601f820116905080830192505050965050505050505060405180910390a16131148686868080601f016020809104026020016040519081016040528093929190818152602001838380828437600081840152601f19601f82011690508083019250505050505050858560ff16614b85565b6000600c600083815260200190815260200160002060000160146101000a81548160ff0219169083151502179055505b50505050505050565b600360009054906101000a900460ff16156131d0576040517f08c379a00000000000000000000000000000000000000000000000000000000081526004018080602001828103825260108152602001807f5061757361626c653a207061757365640000000000000000000000000000000081525060200191505060405180910390fd5b6131d933612a60565b61322e576040517f08c379a0000000000000000000000000000000000000000000000000000000008152600401808060200182810382526040815260200180615bb76040913960400191505060405180910390fd5b600081116132a4576040517f08c379a000000000000000000000000000000000000000000000000000000000815260040180806020018281038252600f8152602001807f466565206d75737420626520736574000000000000000000000000000000000081525060200191505060405180910390fd5b6009548114156132ff576040517f08c379a0000000000000000000000000000000000000000000000000000000008152600401808060200182810382526028815260200180615bf76028913960400191505060405180910390fd5b7ff909b3245b40701d9a4e6152f0a907309f96126b75034c1fcb516c8b24c9d5e960095482604051808381526020018281526020019250505060405180910390a18060098190555050565b60065481565b6133586122ca565b6133ca576040517f08c379a00000000000000000000000000000000000000000000000000000000081526004018080602001828103825260208152602001807f4f776e61626c653a2063616c6c6572206973206e6f7420746865206f776e657281525060200191505060405180910390fd5b6134183383838080601f016020809104026020016040519081016040528093929190818152602001838380828437600081840152601f19601f82011690508083019250505050505050614cc7565b613421336142b5565b5050565b6007602052816000526040600020818154811061343e57fe5b906000526020600020016000915091509054906101000a900473ffffffffffffffffffffffffffffffffffffffff1681565b60105481565b61347f33614e02565b565b600360009054906101000a900460ff1615613504576040517f08c379a00000000000000000000000000000000000000000000000000000000081526004018080602001828103825260108152602001807f5061757361626c653a207061757365640000000000000000000000000000000081525060200191505060405180910390fd5b80600081600581111561351357fe5b90506001600581111561352257fe5b81600581111561352e57fe5b148061355057506002600581111561354257fe5b81600581111561354e57fe5b145b8061357157506003600581111561356357fe5b81600581111561356f57fe5b145b8061359257506004600581111561358457fe5b81600581111561359057fe5b145b806135b257506005808111156135a457fe5b8160058111156135b057fe5b145b613624576040517f08c379a00000000000000000000000000000000000000000000000000000000081526004018080602001828103825260158152602001807f496e76616c696420666c6967687420737461747573000000000000000000000081525060200191505060405180910390fd5b60026136308133614e5c565b156136a3576040517f08c379a00000000000000000000000000000000000000000000000000000000081526004018080602001828103825260188152602001807f43616c6c657220616c726561647920636f6e6669726d6564000000000000000081525060200191505060405180910390fd5b600760008281526020019081526020016000203390806001815401808255809150509060018203906000526020600020016000909192909190916101000a81548173ffffffffffffffffffffffffffffffffffffffff021916908373ffffffffffffffffffffffffffffffffffffffff16021790555050600160076000838152602001908152602001600020805490501415613782573373ffffffffffffffffffffffffffffffffffffffff16817fa1a7fb1df88af97284790f533c84a4284660c23f7631de9a03a258de840e4c1560405160405180910390a36137c7565b3373ffffffffffffffffffffffffffffffffffffffff16817f6f220d98c15dbd07fdc24781b682ea34f92411fc61b83c761dd927afbe02d3fd60405160405180910390a35b60056000828152602001908152602001600020546007600083815260200190815260200160002080549050106138f2573373ffffffffffffffffffffffffffffffffffffffff16817f7271f8b3d48d26ccc839c0f424fe9e12fe4e058108b58c096c078659c7fbadf660405160405180910390a3600061388c8989898080601f016020809104026020016040519081016040528093929190818152602001838380828437600081840152601f19601f8201169050808301925050505050505088614810565b90506138988186614f21565b5060006040519080825280602002602001820160405280156138c95781602001602082028038833980820191505090505b506007600083815260200190815260200160002090805190602001906138f0929190615935565b505b5050505050505050565b613905336120b3565b80613914575061391361466d565b5b613986576040517f08c379a000000000000000000000000000000000000000000000000000000000815260040180806020018281038252601d8152602001807f43616c6c6572206973206e6f7420612066756e646564207369676e657200000081525060200191505060405180910390fd5b61398f816150b3565b60016006540160068190555050565b600360009054906101000a900460ff1615613a21576040517f08c379a00000000000000000000000000000000000000000000000000000000081526004018080602001828103825260108152602001807f5061757361626c653a207061757365640000000000000000000000000000000081525060200191505060405180910390fd5b6000600d60009054906101000a900473ffffffffffffffffffffffffffffffffffffffff1673ffffffffffffffffffffffffffffffffffffffff1663010c5c97336040518263ffffffff1660e01b8152600401808273ffffffffffffffffffffffffffffffffffffffff1673ffffffffffffffffffffffffffffffffffffffff168152602001915050602060405180830381600087803b158015613ac457600080fd5b505af1158015613ad8573d6000803e3d6000fd5b505050506040513d6020811015613aee57600080fd5b8101908080519060200190929190505050905080613b74576040517f08c379a00000000000000000000000000000000000000000000000000000000081526004018080602001828103825260188152602001807f43616c6c6572206973206e6f742072656769737465726564000000000000000081525060200191505060405180910390fd5b613b7c61466d565b613bee576040517f08c379a00000000000000000000000000000000000000000000000000000000081526004018080602001828103825260148152602001807f43616c6c6572206973206e6f742066756e64656400000000000000000000000081525060200191505060405180910390fd5b6001613bfa8133614e5c565b15613c6d576040517f08c379a00000000000000000000000000000000000000000000000000000000081526004018080602001828103825260188152602001807f43616c6c657220616c726561647920636f6e6669726d6564000000000000000081525060200191505060405180910390fd5b600760008281526020019081526020016000203390806001815401808255809150509060018203906000526020600020016000909192909190916101000a81548173ffffffffffffffffffffffffffffffffffffffff021916908373ffffffffffffffffffffffffffffffffffffffff16021790555050600160076000838152602001908152602001600020805490501415613d4c573373ffffffffffffffffffffffffffffffffffffffff16817fa1a7fb1df88af97284790f533c84a4284660c23f7631de9a03a258de840e4c1560405160405180910390a3613d91565b3373ffffffffffffffffffffffffffffffffffffffff16817f6f220d98c15dbd07fdc24781b682ea34f92411fc61b83c761dd927afbe02d3fd60405160405180910390a35b6005600082815260200190815260200160002054600760008381526020019081526020016000208054905010613eac573373ffffffffffffffffffffffffffffffffffffffff16817f7271f8b3d48d26ccc839c0f424fe9e12fe4e058108b58c096c078659c7fbadf660405160405180910390a3613e538585858080601f016020809104026020016040519081016040528093929190818152602001838380828437600081840152601f19601f82011690508083019250505050505050614cc7565b6000604051908082528060200260200182016040528015613e835781602001602082028038833980820191505090505b50600760008381526020019081526020016000209080519060200190613eaa929190615935565b505b5050505050565b6000600d60009054906101000a900473ffffffffffffffffffffffffffffffffffffffff1673ffffffffffffffffffffffffffffffffffffffff1663cd905dff6040518163ffffffff1660e01b815260040160206040518083038186803b158015613f1d57600080fd5b505afa158015613f31573d6000803e3d6000fd5b505050506040513d6020811015613f4757600080fd5b8101908080519060200190929190505050905090565b613f656122ca565b613fd7576040517f08c379a00000000000000000000000000000000000000000000000000000000081526004018080602001828103825260208152602001807f4f776e61626c653a2063616c6c6572206973206e6f7420746865206f776e657281525060200191505060405180910390fd5b613fe081615149565b50565b600360009054906101000a900460ff1615614066576040517f08c379a00000000000000000000000000000000000000000000000000000000081526004018080602001828103825260108152602001807f5061757361626c653a207061757365640000000000000000000000000000000081525060200191505060405180910390fd5b61406f33612a60565b6140c4576040517f08c379a0000000000000000000000000000000000000000000000000000000008152600401808060200182810382526040815260200180615bb76040913960400191505060405180910390fd5b60006140cf3361528d565b905060008186868686604051602001808660ff1660ff1660f81b81526001018573ffffffffffffffffffffffffffffffffffffffff1673ffffffffffffffffffffffffffffffffffffffff1660601b8152601401848480828437808301925050508281526020019550505050505060405160208183030381529060405280519060200120905060405180604001604052803373ffffffffffffffffffffffffffffffffffffffff16815260200160011515815250600c600083815260200190815260200160002060008201518160000160006101000a81548173ffffffffffffffffffffffffffffffffffffffff021916908373ffffffffffffffffffffffffffffffffffffffff16021790555060208201518160000160146101000a81548160ff0219169083151502179055509050507f3ed01f2c3fc24c6b329d931e35b03e390d23497d22b3f90e15b600343e93df118287878787604051808660ff1660ff1681526020018573ffffffffffffffffffffffffffffffffffffffff1673ffffffffffffffffffffffffffffffffffffffff168152602001806020018381526020018281038252858582818152602001925080828437600081840152601f19601f820116905080830192505050965050505050505060405180910390a1505050505050565b6000600d60009054906101000a900473ffffffffffffffffffffffffffffffffffffffff1673ffffffffffffffffffffffffffffffffffffffff16632302440834846040518363ffffffff1660e01b8152600401808273ffffffffffffffffffffffffffffffffffffffff1673ffffffffffffffffffffffffffffffffffffffff1681526020019150506020604051808303818588803b15801561435857600080fd5b505af115801561436c573d6000803e3d6000fd5b50505050506040513d602081101561438357600080fd5b81019080805190602001909291905050509050601054811061448e576143a8826138fc565b6001600f60008282540192505081905550600d60009054906101000a900473ffffffffffffffffffffffffffffffffffffffff1673ffffffffffffffffffffffffffffffffffffffff16632a7e13f78360016040518363ffffffff1660e01b8152600401808373ffffffffffffffffffffffffffffffffffffffff1673ffffffffffffffffffffffffffffffffffffffff1681526020018215151515815260200192505050600060405180830381600087803b15801561446757600080fd5b505af115801561447b573d6000803e3d6000fd5b50505050614489600161537d565b6144dd565b8173ffffffffffffffffffffffffffffffffffffffff167f6beaf5135c062c245ff7cff37b296c2e805ecf9f29ce60507d178f5e3dc655a0346040518082815260200191505060405180910390a25b5050565b6144e9615879565b6144f1615879565b6144fa8361528d565b8160006003811061450757fe5b602002019060ff16908160ff16815250508060006003811061452557fe5b60200201518160016003811061453757fe5b602002019060ff16908160ff16815250505b8060006003811061455657fe5b602002015160ff168160016003811061456b57fe5b602002015160ff1614156145a5576145828361528d565b8160016003811061458f57fe5b602002019060ff16908160ff1681525050614549565b806001600381106145b257fe5b6020020151816002600381106145c457fe5b602002019060ff16908160ff16815250505b806000600381106145e357fe5b602002015160ff16816002600381106145f857fe5b602002015160ff16148061463357508060016003811061461457fe5b602002015160ff168160026003811061462957fe5b602002015160ff16145b15614664576146418361528d565b8160026003811061464e57fe5b602002019060ff16908160ff16815250506145d6565b80915050919050565b600080600d60009054906101000a900473ffffffffffffffffffffffffffffffffffffffff1673ffffffffffffffffffffffffffffffffffffffff166389208e72336040518263ffffffff1660e01b8152600401808273ffffffffffffffffffffffffffffffffffffffff1673ffffffffffffffffffffffffffffffffffffffff168152602001915050602060405180830381600087803b15801561471157600080fd5b505af1158015614725573d6000803e3d6000fd5b505050506040513d602081101561473b57600080fd5b8101908080519060200190929190505050905060105481101591505090565b60008282604051602001808373ffffffffffffffffffffffffffffffffffffffff1673ffffffffffffffffffffffffffffffffffffffff1660601b815260140182805190602001908083835b602083106147c957805182526020820191506020810190506020830392506147a6565b6001836020036101000a038019825116818451168082178552505050505050905001925050506040516020818303038152906040528051906020012060001c905092915050565b6000838383604051602001808473ffffffffffffffffffffffffffffffffffffffff1673ffffffffffffffffffffffffffffffffffffffff1660601b815260140183805190602001908083835b60208310614880578051825260208201915060208101905060208303925061485d565b6001836020036101000a03801982511681845116808217855250505050505090500182815260200193505050506040516020818303038152906040528051906020012060001c90509392505050565b60008073ffffffffffffffffffffffffffffffffffffffff168273ffffffffffffffffffffffffffffffffffffffff161415614956576040517f08c379a0000000000000000000000000000000000000000000000000000000008152600401808060200182810382526022815260200180615b956022913960400191505060405180910390fd5b8260000160008373ffffffffffffffffffffffffffffffffffffffff1673ffffffffffffffffffffffffffffffffffffffff16815260200190815260200160002060009054906101000a900460ff16905092915050565b6149c18160046153b590919063ffffffff16565b8073ffffffffffffffffffffffffffffffffffffffff167f0a8eb35e5ca14b3d6f28e4abf2f128dbab231a58b56e89beb5d636115001e16560405160405180910390a250565b614a1b8160026153b590919063ffffffff16565b8073ffffffffffffffffffffffffffffffffffffffff167fcd265ebaf09df2871cc7bd4133404a235ba12eff2041bb89d9c714a2621c7c7e60405160405180910390a250565b614a7581600461547290919063ffffffff16565b8073ffffffffffffffffffffffffffffffffffffffff167f22380c05984257a1cb900161c713dd71d39e74820f1aea43bd3f1bdd2096129960405160405180910390a250565b614acf81600261547290919063ffffffff16565b8073ffffffffffffffffffffffffffffffffffffffff167f6719d08c1888103bea251a4ed56406bd0c3e69723c8a1686e017e7bbe159b6f860405160405180910390a250565b806011600084815260200190815260200160002081905550817ff0f729cff3741c2d483d22cff97eae75bdb666713f6a8b35daf6bd417334a72d60116000858152602001908152602001600020546064604051808381526020018281526020019250505060405180910390a25050565b806000816005811115614b9457fe5b905060016005811115614ba357fe5b816005811115614baf57fe5b1480614bd1575060026005811115614bc357fe5b816005811115614bcf57fe5b145b80614bf2575060036005811115614be457fe5b816005811115614bf057fe5b145b80614c13575060046005811115614c0557fe5b816005811115614c1157fe5b145b80614c335750600580811115614c2557fe5b816005811115614c3157fe5b145b614ca5576040517f08c379a00000000000000000000000000000000000000000000000000000000081526004018080602001828103825260158152602001807f496e76616c696420666c6967687420737461747573000000000000000000000081525060200191505060405180910390fd5b6000614cb2878787614810565b9050614cbe8185614f21565b50505050505050565b600d60009054906101000a900473ffffffffffffffffffffffffffffffffffffffff1673ffffffffffffffffffffffffffffffffffffffff1663ee38a74983836040518363ffffffff1660e01b8152600401808373ffffffffffffffffffffffffffffffffffffffff1673ffffffffffffffffffffffffffffffffffffffff16815260200180602001828103825283818151815260200191508051906020019080838360005b83811015614d88578082015181840152602081019050614d6d565b50505050905090810190601f168015614db55780820380516001836020036101000a031916815260200191505b509350505050600060405180830381600087803b158015614dd557600080fd5b505af1158015614de9573d6000803e3d6000fd5b505050506001600e600082825401925050819055505050565b614e168160016153b590919063ffffffff16565b8073ffffffffffffffffffffffffffffffffffffffff167f3525e22824a8a7df2c9a6029941c824cf95b6447f1e13d5128fd3826d35afe8b60405160405180910390a250565b600080600090505b6007600085815260200190815260200160002080549050811015614f15578273ffffffffffffffffffffffffffffffffffffffff16600760008681526020019081526020016000208281548110614eb757fe5b9060005260206000200160009054906101000a900473ffffffffffffffffffffffffffffffffffffffff1673ffffffffffffffffffffffffffffffffffffffff161415614f08576001915050614f1b565b8080600101915050614e64565b50600090505b92915050565b6000816005811115614f2f57fe5b9050600d60009054906101000a900473ffffffffffffffffffffffffffffffffffffffff1673ffffffffffffffffffffffffffffffffffffffff1663caab72c284836040518363ffffffff1660e01b815260040180838152602001826005811115614f9657fe5b60ff16815260200192505050600060405180830381600087803b158015614fbc57600080fd5b505af1158015614fd0573d6000803e3d6000fd5b5050505060006011600084815260200190815260200160002054146150ae57600d60009054906101000a900473ffffffffffffffffffffffffffffffffffffffff1673ffffffffffffffffffffffffffffffffffffffff1663c7e7da89848360116000878152602001908152602001600020546040518463ffffffff1660e01b81526004018084815260200183600581111561506857fe5b60ff1681526020018281526020019350505050600060405180830381600087803b15801561509557600080fd5b505af11580156150a9573d6000803e3d6000fd5b505050505b505050565b6150bc336120b3565b806150cb57506150ca61466d565b5b61513d576040517f08c379a000000000000000000000000000000000000000000000000000000000815260040180806020018281038252601d8152602001807f43616c6c6572206973206e6f7420612066756e646564207369676e657200000081525060200191505060405180910390fd5b6151468161554d565b50565b600073ffffffffffffffffffffffffffffffffffffffff168173ffffffffffffffffffffffffffffffffffffffff1614156151cf576040517f08c379a0000000000000000000000000000000000000000000000000000000008152600401808060200182810382526026815260200180615a926026913960400191505060405180910390fd5b8073ffffffffffffffffffffffffffffffffffffffff166000809054906101000a900473ffffffffffffffffffffffffffffffffffffffff1673ffffffffffffffffffffffffffffffffffffffff167f8be0079c531659141344cd1fd0a4f28419497f9722a3daafe3b4186f6b6457e060405160405180910390a3806000806101000a81548173ffffffffffffffffffffffffffffffffffffffff021916908373ffffffffffffffffffffffffffffffffffffffff16021790555050565b600080600a905060008160ff166008600081819054906101000a900460ff168092919060010191906101000a81548160ff021916908360ff16021790555060ff1643034085604051602001808381526020018273ffffffffffffffffffffffffffffffffffffffff1673ffffffffffffffffffffffffffffffffffffffff1660601b8152601401925050506040516020818303038152906040528051906020012060001c8161533857fe5b06905060fa600860009054906101000a900460ff1660ff161115615373576000600860006101000a81548160ff021916908360ff1602179055505b8092505050919050565b600061538a600f546155a7565b9050600560008381526020019081526020016000205481146153b1576153b082826155f5565b5b5050565b6153bf82826148cf565b615414576040517f08c379a0000000000000000000000000000000000000000000000000000000008152600401808060200182810382526021815260200180615b536021913960400191505060405180910390fd5b60008260000160008373ffffffffffffffffffffffffffffffffffffffff1673ffffffffffffffffffffffffffffffffffffffff16815260200190815260200160002060006101000a81548160ff0219169083151502179055505050565b61547c82826148cf565b156154ef576040517f08c379a000000000000000000000000000000000000000000000000000000000815260040180806020018281038252601f8152602001807f526f6c65733a206163636f756e7420616c72656164792068617320726f6c650081525060200191505060405180910390fd5b60018260000160008373ffffffffffffffffffffffffffffffffffffffff1673ffffffffffffffffffffffffffffffffffffffff16815260200190815260200160002060006101000a81548160ff0219169083151502179055505050565b61556181600161547290919063ffffffff16565b8073ffffffffffffffffffffffffffffffffffffffff167f47d1c22a25bb3a5d4e481b9b1e6944c2eade3181a0a20b495ed61d35b5323f2460405160405180910390a250565b600080821180156155b85750600582105b156155c657600190506155f0565b6155ed60646155df60328561576490919063ffffffff16565b6157ea90919063ffffffff16565b90505b919050565b6155fe33612a60565b8061560e575061560d336120b3565b5b615663576040517f08c379a0000000000000000000000000000000000000000000000000000000008152600401808060200182810382526025815260200180615ade6025913960400191505060405180910390fd5b81816032600160065401108061567a575060065481105b806156855750600081145b8061569257506000600654145b615704576040517f08c379a000000000000000000000000000000000000000000000000000000000815260040180806020018281038252601e8152602001807f496e76616c696420726571756972656d656e7420636f6e646974696f6e73000081525060200191505060405180910390fd5b826005600086815260200190815260200160002054857ff5b03ab58a1952aac29bce6c360edbb659ac190a28a6aabbc0d3203e3e41d94360405160405180910390a482600560008681526020019081526020016000208190555050505050565b60008083141561577757600090506157e4565b600082840290508284828161578857fe5b04146157df576040517f08c379a0000000000000000000000000000000000000000000000000000000008152600401808060200182810382526021815260200180615b746021913960400191505060405180910390fd5b809150505b92915050565b6000808211615861576040517f08c379a000000000000000000000000000000000000000000000000000000000815260040180806020018281038252601a8152602001807f536166654d6174683a206469766973696f6e206279207a65726f00000000000081525060200191505060405180910390fd5b600082848161586c57fe5b0490508091505092915050565b6040518060600160405280600390602082028038833980820191505090505090565b826003601f016020900481019282156159245791602002820160005b838211156158f557835183826101000a81548160ff021916908360ff16021790555092602001926001016020816000010492830192600103026158b7565b80156159225782816101000a81549060ff02191690556001016020816000010492830192600103026158f5565b505b50905061593191906159bf565b5090565b8280548282559060005260206000209081019282156159ae579160200282015b828111156159ad5782518260006101000a81548173ffffffffffffffffffffffffffffffffffffffff021916908373ffffffffffffffffffffffffffffffffffffffff16021790555091602001919060010190615955565b5b5090506159bb91906159ef565b5090565b6159ec91905b808211156159e857600081816101000a81549060ff0219169055506001016159c5565b5090565b90565b615a2f91905b80821115615a2b57600081816101000a81549073ffffffffffffffffffffffffffffffffffffffff0219169055506001016159f5565b5090565b9056fe466c69676874206f722074696d657374616d7020646f206e6f74206d61746368206f7261636c652072657175657374506175736572526f6c653a2063616c6c657220646f6573206e6f742068617665207468652050617573657220726f6c654f776e61626c653a206e6577206f776e657220697320746865207a65726f206164647265737341746c65617365206f6e65206d696e696d756d20726573706f6e7365206973206e65656465644d7573742062652061207369676e6572206f722077686974656c69737465642061646d696e4d617820616c6c6f7761626c6520696e737572616e63652070726963652065786365656465644f6e6c79206f776e6572206169726c696e652063616e2072656769737465722069747320666c69676874526f6c65733a206163636f756e7420646f6573206e6f74206861766520726f6c65536166654d6174683a206d756c7469706c69636174696f6e206f766572666c6f77526f6c65733a206163636f756e7420697320746865207a65726f206164647265737357686974656c69737441646d696e526f6c653a2063616c6c657220646f6573206e6f742068617665207468652057686974656c69737441646d696e20726f6c6546656520697320616c72656164792073657420746f207468652065787065637465642076616c756543616e6e6f742062757920696e737572616e6365206f6e20796f7572206f776e20666c69676874496e64657820646f6573206e6f74206d61746368206f7261636c652072657175657374a165627a7a72305820c550c0e3908da775b80c2b45a605b5a5a2be17049da8205896f3c1ff16c0e0ef0029526f6c65733a206163636f756e7420646f6573206e6f74206861766520726f6c65526f6c65733a206163636f756e7420697320746865207a65726f2061646472657373",
  "source": "pragma solidity ^0.5.8;\n\n// It's important to avoid vulnerabilities due to numeric overflow bugs\n// OpenZeppelin's SafeMath library, when used correctly, protects agains such bugs\n// More info: https://www.nccgroup.trust/us/about-us/newsroom-and-events/blog/2018/november/smart-contract-insecurity-bad-arithmetic/\n\nimport \"../node_modules/openzeppelin-solidity/contracts/math/SafeMath.sol\";\nimport \"../node_modules/openzeppelin-solidity/contracts/lifecycle/Pausable.sol\";\nimport \"../node_modules/openzeppelin-solidity/contracts/ownership/Ownable.sol\";\nimport \"./IFlightSuretyData.sol\";\nimport \"./MultiSig.sol\";\nimport \"./FlightSuretyOracle.sol\";\n\n/************************************************** */\n/* FlightSurety Smart Contract                      */\n/************************************************** */\ncontract FlightSuretyApp is Ownable, Pausable, MultiSig, FlightSuretyOracle {\n    using SafeMath for uint256; // Allow SafeMath functions to be called for all uint256 types \n                                //(similar to \"prototype\" in Javascript)\n\n\n    IFlightSuretyData flightSuretyDataContract;\n    uint256 totalRegisteredAirlines;\n    uint256 totalEligibleAirlines;\n\n    uint256 public AIRLINE_REGISTRATION_FEE =  10 ether; \n\n    mapping(uint256 => uint256) private payOutParams;\n\n\n    uint256 public constant REGISTER_AIRLINE = 1;// transaction id for multi sig consesus \n    uint256 public constant SET_FLIGHT_STATUS = 2;// transaction id for multi sig consesus \n\n    /********************************************************************************************/\n    /*                                       EVENTS                                             */\n    /********************************************************************************************/\n    /* events forwarded from the data contract */\n    event AirlineRegistered(address indexed airline, string name, address indexed by);\n    event AirlineFunded(address indexed airline,uint256 value);\n    event FlightRegistered(address indexed airline,string name,uint256 timestamp);\n    event PolicyPurchased(address indexed customer, address airline, string flight,uint256 timestamp,IFlightSuretyData.FlightStatus);\n    event FlightStatusUpdated(address indexed airline,string flight,uint256 timestamp,IFlightSuretyData.FlightStatus status);\n    event Payout(address indexed customer,uint256 amount);\n    event InsuranceCredit(address indexed customer,uint256 payout,uint256 policy);\n\n   /* events generated in the app contract */\n    event AirlineNotFunded(address indexed airline,uint256 value);\n    event NotRegistered(address indexed airline);\n    event PayOutTermsSet(uint256 indexed status,uint256 numerator,uint256 denominator);\n \n    /********************************************************************************************/\n    /*                                       FUNCTION MODIFIERS                                 */\n    /********************************************************************************************/\n\n\n    modifier whenFunded() {\n        require(_isFunded(),\"Caller is not funded\");\n        _;\n    }\n\n    modifier whenRegistered() {\n        // we will make exception for the first airlines getting registered\n        // otherwise we have a chicken and egg problem. \n        bool registered = flightSuretyDataContract.isAirlineRegistered(msg.sender);\n        require (registered,\"Caller is not registered\");\n        _;\n    }\n\n    // overriding base class SignerRole's modifier\n    modifier onlySigner() {\n        require(isSigner(msg.sender) || _isFunded(),\"Caller is not a funded signer\");\n        _;\n    }\n\n    modifier validFlightStatus(uint256 status) {\n        IFlightSuretyData.FlightStatus flightStatus = IFlightSuretyData.FlightStatus(status);\n        require(\n            flightStatus == IFlightSuretyData.FlightStatus.STATUS_CODE_ON_TIME ||\n            flightStatus == IFlightSuretyData.FlightStatus.STATUS_CODE_LATE_AIRLINE ||\n            flightStatus == IFlightSuretyData.FlightStatus.STATUS_CODE_LATE_WEATHER ||\n            flightStatus == IFlightSuretyData.FlightStatus.STATUS_CODE_LATE_TECHNICAL ||\n            flightStatus == IFlightSuretyData.FlightStatus.STATUS_CODE_LATE_OTHER,\n            \"Invalid flight status\"\n        );\n        _;\n    }\n\n    function _isFunded() internal returns(bool) {\n        uint256 balance = flightSuretyDataContract.getAirlineBalance(msg.sender);\n        return balance >= AIRLINE_REGISTRATION_FEE;\n    }\n\n    /********************************************************************************************/\n    /*                                       CONSTRUCTOR                                        */\n    /********************************************************************************************/\n\n    /**\n    * @dev Contract constructor.\n    */\n    constructor(address dataContract) public {\n        flightSuretyDataContract = IFlightSuretyData(dataContract);\n\n        // the base constructor of SignerRole makes the deployer \n        // signer by default. Since only a funded party can be\n        // be a signer (to be able to take part in the multi-party consesus,\n        // we must remove the deployer from a SignerRole.\n        renounceSigner();\n        // default payout 1.5 times if a flight is late due to airline's fault\n        _setPayOutParams(\n            uint256(IFlightSuretyData.FlightStatus.STATUS_CODE_LATE_AIRLINE), 150\n        );\n\n    }\n\n    /********************************************************************************************/\n    /*                                       UTILITY FUNCTIONS                                  */\n    /********************************************************************************************/\n\n    function isDataContractOperational() \n                            public \n                            view \n                            returns(bool) \n    {\n        return flightSuretyDataContract.isOperational();  \n    }\n\n    /********************************************************************************************/\n    /*                                     SMART CONTRACT FUNCTIONS                             */\n    /********************************************************************************************/\n\n    /**\n      * @dev register and fund the first airline\n      */\n    function bootstrap(string calldata name) external payable onlyOwner {\n        _registerAirline(msg.sender,name);\n        _fund(msg.sender);\n    }\n  \n   /**\n    * @dev Add an airline to the registration queue\n    *\n    */   \n    function registerAirline(address airline,string calldata name)\n                            external\n                            payable\n                            whenNotPaused\n                            whenRegistered\n                            whenFunded\n                            onlyConfirmed(REGISTER_AIRLINE)\n    {\n        _registerAirline(airline,name);\n    }\n\n    function _registerAirline(address airline,string memory name) internal {\n        flightSuretyDataContract.registerAirline(airline,name); \n        totalRegisteredAirlines += 1;\n        // emit AirlineRegistered(airline,msg.sender);\n    }\n\n    function fund(address airline) external payable whenNotPaused whenRegistered {\n        _fund(airline);\n    }\n\n    function _fund(address airline) internal {\n        uint256 balance = flightSuretyDataContract.fund.value(msg.value)(airline);\n        if (balance >= AIRLINE_REGISTRATION_FEE) {\n            // emit AirlineFunded(airline,msg.value);\n            addSigner(airline);\n            totalEligibleAirlines += 1;\n            flightSuretyDataContract.setAirlineFundingStatus(airline,true);\n            _updateRegistrationRequirements(REGISTER_AIRLINE);\n        } else {\n            emit AirlineNotFunded(airline,msg.value);\n        }\n    }\n\n\n    function _updateRegistrationRequirements(uint256 tid) internal {\n        uint256 newRequirements = _calculateRequirements(totalEligibleAirlines);\n        if (newRequirements != required[tid]) {\n            changeRequirements(tid,newRequirements);\n        }\n    }\n\n    function _calculateRequirements(uint256 eligible) internal pure returns(uint256) {\n       if (eligible > 0 && eligible < 5) {\n           return 1;\n       } else {\n            return(eligible.mul(50).div(100));\n       }\n    }\n\n\n    modifier onlyOwnerAirline(address airline) {\n        require(msg.sender == airline,\"Only owner airline can register its flight\");\n        _;\n    }\n\n   /**\n    * @dev Register a future flight for insuring.\n    * flight must belong to one of the registered airlines.\n    */  \n    function registerFlight(\n        address airline,\n        string calldata flightName,\n        uint256 timestamp\n    ) \n        external\n        whenNotPaused\n        onlyOwnerAirline(airline)\n        onlySigner // signer means caller is a registered and funded airline\n    {\n        uint256 flightKey = getFlightKey(airline,flightName); \n        address airlineForFlight = flightSuretyDataContract.getAirline(flightKey);\n        require(airlineForFlight == address(0x0),\"Airline is already registered\");\n\n        // check for flight names collusion. \n        // should not happen if all flight names are prefixed with the flight name (e.g. UA256)\n        uint256 key = getPolicyKey(airline,flightName,timestamp);\n        flightSuretyDataContract.registerFlight(airline,flightName,timestamp,key,flightKey);\n    }\n\n    function buy(\n        address airline,\n        string calldata flightName,\n        uint256 timestamp\n    )\n        external\n        payable \n        whenNotPaused\n    {\n        //TODO: make max price configurable.\n        require(msg.value <= 1 ether,\"Max allowable insurance price exceeded\"); \n        uint256 flightKey = getFlightKey(airline,flightName);\n        address registeredAirline = flightSuretyDataContract.getAirline(flightKey);\n        require(registeredAirline != address(0x0),\"Unregistered flight or airline\");\n        require(airline != msg.sender,\"Cannot buy insurance on your own flight\");\n        address customer = msg.sender;\n\n        uint256 policyKey = getPolicyKey(airline,flightName,timestamp);\n\n        flightSuretyDataContract.buy.value(msg.value)(\n            customer,\n            policyKey,\n            flightKey\n        );\n    }\n\n\n    /**\n     *  @dev Transfers eligible payout funds to insuree\n     *\n    */\n    function pay() external payable whenNotPaused {\n        require(msg.sender == tx.origin,\"Only EOAs can receive payout.\");\n        flightSuretyDataContract.pay(msg.sender);\n    }\n\n    function getFlightKey(address airline,string memory flight) pure internal returns(uint256) {\n        return uint256(keccak256(abi.encodePacked(airline,flight)));\n    }\n    \n    function getPolicyKey(\n        address airline,\n        string memory flight,\n        uint256 timestamp\n    )\n        pure\n        internal\n        returns(uint256) \n    {\n        return uint256(keccak256(abi.encodePacked(airline, flight, timestamp)));\n    }\n   /**\n    * @dev Called after oracle has updated flight status\n    *\n    */  \n\n\n    function processFlightStatus(\n        address airline,\n        string memory flight,\n        uint256 timestamp,\n        uint256 statusCode\n    ) \n        internal\n        validFlightStatus(statusCode)\n    {\n        uint256 policyKey = getPolicyKey(airline,flight,timestamp);\n        _setFlightStatus(policyKey,statusCode);\n    }\n\n    /**\n      * @dev the only difference between this function and the \n      *      processFlightStatus is that this method can be called by \n      *      the airline to override flight status or in lieu of oracle responses if needed.\n      *      Requires same multi-party consensus as registering airlines\n      */\n\n    function setFlightStatus(\n        address airline,\n        string calldata flight,\n        uint256 timestamp,\n        uint256 statusCode\n    ) \n        external \n        whenNotPaused \n        validFlightStatus(statusCode)\n        onlyConfirmed(SET_FLIGHT_STATUS)\n    {\n        uint256 policyKey = getPolicyKey(airline,flight,timestamp);\n        _setFlightStatus(policyKey,statusCode);\n    }\n\n\n    function _setFlightStatus(uint256 policy,uint256 status) internal {\n        IFlightSuretyData.FlightStatus flightStatus = IFlightSuretyData.FlightStatus(status);\n        flightSuretyDataContract.setFlightStatus(policy,flightStatus);\n        if (payOutParams[status] != 0)  {\n            flightSuretyDataContract.creditInsurees(\n                policy,\n                flightStatus,\n                payOutParams[status]\n            );\n        }\n    }\n\n\n\n\n\n    /**\n      * @dev sets the minimum amount funds required to take part in the \n      * contract.\n      * TODO: make it require multi-party consensus\n      */\n    function setAirlineMinimumFunds(uint256 minFund) external whenNotPaused onlyWhitelistAdmin  {\n        AIRLINE_REGISTRATION_FEE = minFund;\n    }\n\n\n    function setPayOutParams(\n        uint256 status, \n        uint256 payOutMultiple\n    ) \n        external\n        whenNotPaused\n        onlyWhitelistAdmin\n        validFlightStatus(status)\n    {\n        _setPayOutParams(status,payOutMultiple);\n    }\n\n    function _setPayOutParams(uint256 status, uint256 payOutMultiple) internal {\n        payOutParams[status] = payOutMultiple;\n        emit PayOutTermsSet(status,payOutParams[status],100);\n\n    }\n\n\n    /**\n    * @dev Fallback function for funding smart contract.\n    *\n    */\n    function() external payable {\n        require(msg.data.length == 0,\"payload not allowed\");\n    }\n\n}   \n",
  "sourcePath": "/Users/dkhroad/Work/blockchain_dev/flight-delay-insurance/contracts/FlightSuretyApp.sol",
  "compiler": {
    "name": "solc",
    "version": "0.5.8+commit.23d335f2.Emscripten.clang"
  },
  "schemaVersion": "3.0.16",
  "updatedAt": "2019-10-03T05:55:09.947Z",
  "devdoc": {
    "methods": {
      "bootstrap(string)": {
        "details": "register and fund the first airline"
      },
      "constructor": {
        "details": "Contract constructor."
      },
      "isOwner()": {
        "details": "Returns true if the caller is the current owner."
      },
      "owner()": {
        "details": "Returns the address of the current owner."
      },
      "pause()": {
        "details": "Called by a pauser to pause, triggers stopped state."
      },
      "paused()": {
        "details": "Returns true if the contract is paused, and false otherwise."
      },
      "pay()": {
        "details": "Transfers eligible payout funds to insuree    "
      },
      "registerAirline(address,string)": {
        "details": "Add an airline to the registration queue    "
      },
      "registerFlight(address,string,uint256)": {
        "details": "Register a future flight for insuring. flight must belong to one of the registered airlines."
      },
      "renounceOwnership()": {
        "details": "Leaves the contract without owner. It will not be possible to call `onlyOwner` functions anymore. Can only be called by the current owner.     * > Note: Renouncing ownership will leave the contract without an owner, thereby removing any functionality that is only available to the owner."
      },
      "setAirlineMinimumFunds(uint256)": {
        "details": "sets the minimum amount funds required to take part in the  contract. TODO: make it require multi-party consensus"
      },
      "setFlightStatus(address,string,uint256,uint256)": {
        "details": "the only difference between this function and the      processFlightStatus is that this method can be called by      the airline to override flight status or in lieu of oracle responses if needed.     Requires same multi-party consensus as registering airlines"
      },
      "transferOwnership(address)": {
        "details": "Transfers ownership of the contract to a new account (`newOwner`). Can only be called by the current owner."
      },
      "unpause()": {
        "details": "Called by a pauser to unpause, returns to normal state."
      }
    }
  },
  "userdoc": {
    "methods": {
      "isDataContractOperational()": {
        "notice": "*****************************************************************************************"
      }
    },
    "notice": "************************************************ "
  }
}