{
  "contractName": "FlightSuretyApp",
  "abi": [
    {
      "constant": true,
      "inputs": [
        {
          "name": "",
          "type": "uint256"
        }
      ],
      "name": "required",
      "outputs": [
        {
          "name": "",
          "type": "uint256"
        }
      ],
      "payable": false,
      "stateMutability": "view",
      "type": "function"
    },
    {
      "constant": false,
      "inputs": [
        {
          "name": "minResponses",
          "type": "uint256"
        }
      ],
      "name": "setMinResponses",
      "outputs": [],
      "payable": false,
      "stateMutability": "nonpayable",
      "type": "function"
    },
    {
      "constant": false,
      "inputs": [],
      "name": "registerOracle",
      "outputs": [],
      "payable": true,
      "stateMutability": "payable",
      "type": "function"
    },
    {
      "constant": false,
      "inputs": [],
      "name": "unpause",
      "outputs": [],
      "payable": false,
      "stateMutability": "nonpayable",
      "type": "function"
    },
    {
      "constant": true,
      "inputs": [
        {
          "name": "account",
          "type": "address"
        }
      ],
      "name": "isPauser",
      "outputs": [
        {
          "name": "",
          "type": "bool"
        }
      ],
      "payable": false,
      "stateMutability": "view",
      "type": "function"
    },
    {
      "constant": false,
      "inputs": [],
      "name": "renounceWhitelistAdmin",
      "outputs": [],
      "payable": false,
      "stateMutability": "nonpayable",
      "type": "function"
    },
    {
      "constant": true,
      "inputs": [],
      "name": "paused",
      "outputs": [
        {
          "name": "",
          "type": "bool"
        }
      ],
      "payable": false,
      "stateMutability": "view",
      "type": "function"
    },
    {
      "constant": true,
      "inputs": [],
      "name": "getMyIndexes",
      "outputs": [
        {
          "name": "",
          "type": "uint8[3]"
        }
      ],
      "payable": false,
      "stateMutability": "view",
      "type": "function"
    },
    {
      "constant": true,
      "inputs": [],
      "name": "MAX_SIGNER_COUNT",
      "outputs": [
        {
          "name": "",
          "type": "uint256"
        }
      ],
      "payable": false,
      "stateMutability": "view",
      "type": "function"
    },
    {
      "constant": true,
      "inputs": [],
      "name": "REGISTRATION_FEE",
      "outputs": [
        {
          "name": "",
          "type": "uint256"
        }
      ],
      "payable": false,
      "stateMutability": "view",
      "type": "function"
    },
    {
      "constant": false,
      "inputs": [],
      "name": "renouncePauser",
      "outputs": [],
      "payable": false,
      "stateMutability": "nonpayable",
      "type": "function"
    },
    {
      "constant": true,
      "inputs": [],
      "name": "REGISTER_AIRLINE",
      "outputs": [
        {
          "name": "",
          "type": "uint256"
        }
      ],
      "payable": false,
      "stateMutability": "view",
      "type": "function"
    },
    {
      "constant": false,
      "inputs": [],
      "name": "renounceOwnership",
      "outputs": [],
      "payable": false,
      "stateMutability": "nonpayable",
      "type": "function"
    },
    {
      "constant": false,
      "inputs": [
        {
          "name": "account",
          "type": "address"
        }
      ],
      "name": "addWhitelistAdmin",
      "outputs": [],
      "payable": false,
      "stateMutability": "nonpayable",
      "type": "function"
    },
    {
      "constant": true,
      "inputs": [
        {
          "name": "account",
          "type": "address"
        }
      ],
      "name": "isSigner",
      "outputs": [
        {
          "name": "",
          "type": "bool"
        }
      ],
      "payable": false,
      "stateMutability": "view",
      "type": "function"
    },
    {
      "constant": false,
      "inputs": [
        {
          "name": "account",
          "type": "address"
        }
      ],
      "name": "addPauser",
      "outputs": [],
      "payable": false,
      "stateMutability": "nonpayable",
      "type": "function"
    },
    {
      "constant": true,
      "inputs": [],
      "name": "MIN_RESPONSES",
      "outputs": [
        {
          "name": "",
          "type": "uint256"
        }
      ],
      "payable": false,
      "stateMutability": "view",
      "type": "function"
    },
    {
      "constant": false,
      "inputs": [],
      "name": "pause",
      "outputs": [],
      "payable": false,
      "stateMutability": "nonpayable",
      "type": "function"
    },
    {
      "constant": true,
      "inputs": [],
      "name": "owner",
      "outputs": [
        {
          "name": "",
          "type": "address"
        }
      ],
      "payable": false,
      "stateMutability": "view",
      "type": "function"
    },
    {
      "constant": true,
      "inputs": [],
      "name": "isOwner",
      "outputs": [
        {
          "name": "",
          "type": "bool"
        }
      ],
      "payable": false,
      "stateMutability": "view",
      "type": "function"
    },
    {
      "constant": true,
      "inputs": [],
      "name": "SET_FLIGHT_STATUS",
      "outputs": [
        {
          "name": "",
          "type": "uint256"
        }
      ],
      "payable": false,
      "stateMutability": "view",
      "type": "function"
    },
    {
      "constant": true,
      "inputs": [
        {
          "name": "account",
          "type": "address"
        }
      ],
      "name": "isWhitelistAdmin",
      "outputs": [
        {
          "name": "",
          "type": "bool"
        }
      ],
      "payable": false,
      "stateMutability": "view",
      "type": "function"
    },
    {
      "constant": true,
      "inputs": [
        {
          "name": "transactionId",
          "type": "uint256"
        }
      ],
      "name": "getConfirmationsCount",
      "outputs": [
        {
          "name": "r",
          "type": "uint256"
        },
        {
          "name": "c",
          "type": "uint256"
        }
      ],
      "payable": false,
      "stateMutability": "view",
      "type": "function"
    },
    {
      "constant": false,
      "inputs": [
        {
          "name": "index",
          "type": "uint8"
        },
        {
          "name": "airline",
          "type": "address"
        },
        {
          "name": "flight",
          "type": "string"
        },
        {
          "name": "timestamp",
          "type": "uint256"
        },
        {
          "name": "statusCode",
          "type": "uint8"
        }
      ],
      "name": "submitOracleResponse",
      "outputs": [],
      "payable": false,
      "stateMutability": "nonpayable",
      "type": "function"
    },
    {
      "constant": false,
      "inputs": [
        {
          "name": "fee",
          "type": "uint256"
        }
      ],
      "name": "setRegistrationFee",
      "outputs": [],
      "payable": false,
      "stateMutability": "nonpayable",
      "type": "function"
    },
    {
      "constant": true,
      "inputs": [],
      "name": "totalSigners",
      "outputs": [
        {
          "name": "",
          "type": "uint256"
        }
      ],
      "payable": false,
      "stateMutability": "view",
      "type": "function"
    },
    {
      "constant": true,
      "inputs": [
        {
          "name": "",
          "type": "uint256"
        },
        {
          "name": "",
          "type": "uint256"
        }
      ],
      "name": "confirmations",
      "outputs": [
        {
          "name": "",
          "type": "address"
        }
      ],
      "payable": false,
      "stateMutability": "view",
      "type": "function"
    },
    {
      "constant": false,
      "inputs": [],
      "name": "renounceSigner",
      "outputs": [],
      "payable": false,
      "stateMutability": "nonpayable",
      "type": "function"
    },
    {
      "constant": false,
      "inputs": [
        {
          "name": "signer",
          "type": "address"
        }
      ],
      "name": "addSigner",
      "outputs": [],
      "payable": false,
      "stateMutability": "nonpayable",
      "type": "function"
    },
    {
      "constant": false,
      "inputs": [
        {
          "name": "newOwner",
          "type": "address"
        }
      ],
      "name": "transferOwnership",
      "outputs": [],
      "payable": false,
      "stateMutability": "nonpayable",
      "type": "function"
    },
    {
      "constant": false,
      "inputs": [
        {
          "name": "airline",
          "type": "address"
        },
        {
          "name": "flight",
          "type": "string"
        },
        {
          "name": "timestamp",
          "type": "uint256"
        }
      ],
      "name": "fetchFlightStatus",
      "outputs": [],
      "payable": false,
      "stateMutability": "nonpayable",
      "type": "function"
    },
    {
      "inputs": [
        {
          "name": "dataContract",
          "type": "address"
        }
      ],
      "payable": false,
      "stateMutability": "nonpayable",
      "type": "constructor"
    },
    {
      "payable": true,
      "stateMutability": "payable",
      "type": "fallback"
    },
    {
      "anonymous": false,
      "inputs": [
        {
          "indexed": true,
          "name": "airline",
          "type": "address"
        },
        {
          "indexed": false,
          "name": "name",
          "type": "string"
        },
        {
          "indexed": true,
          "name": "by",
          "type": "address"
        }
      ],
      "name": "AirlineRegistered",
      "type": "event"
    },
    {
      "anonymous": false,
      "inputs": [
        {
          "indexed": true,
          "name": "airline",
          "type": "address"
        },
        {
          "indexed": false,
          "name": "value",
          "type": "uint256"
        }
      ],
      "name": "AirlineFunded",
      "type": "event"
    },
    {
      "anonymous": false,
      "inputs": [
        {
          "indexed": true,
          "name": "customer",
          "type": "address"
        },
        {
          "indexed": true,
          "name": "policy",
          "type": "uint256"
        },
        {
          "indexed": false,
          "name": "flight",
          "type": "uint256"
        },
        {
          "indexed": false,
          "name": "timestamp",
          "type": "uint256"
        }
      ],
      "name": "PolicyPurchased",
      "type": "event"
    },
    {
      "anonymous": false,
      "inputs": [
        {
          "indexed": true,
          "name": "airline",
          "type": "address"
        },
        {
          "indexed": false,
          "name": "flight",
          "type": "string"
        },
        {
          "indexed": false,
          "name": "status",
          "type": "uint8"
        },
        {
          "indexed": false,
          "name": "policy",
          "type": "uint256"
        }
      ],
      "name": "FlightStatusUpdated",
      "type": "event"
    },
    {
      "anonymous": false,
      "inputs": [
        {
          "indexed": true,
          "name": "airline",
          "type": "address"
        },
        {
          "indexed": true,
          "name": "flight",
          "type": "uint256"
        },
        {
          "indexed": false,
          "name": "name",
          "type": "string"
        }
      ],
      "name": "FlightRegistered",
      "type": "event"
    },
    {
      "anonymous": false,
      "inputs": [
        {
          "indexed": true,
          "name": "customer",
          "type": "address"
        },
        {
          "indexed": false,
          "name": "amount",
          "type": "uint256"
        }
      ],
      "name": "Payout",
      "type": "event"
    },
    {
      "anonymous": false,
      "inputs": [
        {
          "indexed": true,
          "name": "customer",
          "type": "address"
        },
        {
          "indexed": false,
          "name": "payout",
          "type": "uint256"
        },
        {
          "indexed": false,
          "name": "policy",
          "type": "uint256"
        }
      ],
      "name": "InsuranceCredit",
      "type": "event"
    },
    {
      "anonymous": false,
      "inputs": [
        {
          "indexed": true,
          "name": "airline",
          "type": "address"
        },
        {
          "indexed": false,
          "name": "value",
          "type": "uint256"
        }
      ],
      "name": "AirlineNotFunded",
      "type": "event"
    },
    {
      "anonymous": false,
      "inputs": [
        {
          "indexed": true,
          "name": "airline",
          "type": "address"
        }
      ],
      "name": "NotRegistered",
      "type": "event"
    },
    {
      "anonymous": false,
      "inputs": [
        {
          "indexed": true,
          "name": "status",
          "type": "uint256"
        },
        {
          "indexed": false,
          "name": "numerator",
          "type": "uint256"
        },
        {
          "indexed": false,
          "name": "denominator",
          "type": "uint256"
        }
      ],
      "name": "PayOutTermsSet",
      "type": "event"
    },
    {
      "anonymous": false,
      "inputs": [
        {
          "indexed": false,
          "name": "airline",
          "type": "address"
        },
        {
          "indexed": false,
          "name": "flight",
          "type": "string"
        },
        {
          "indexed": false,
          "name": "timestamp",
          "type": "uint256"
        },
        {
          "indexed": false,
          "name": "status",
          "type": "uint8"
        }
      ],
      "name": "FlightStatusInfo",
      "type": "event"
    },
    {
      "anonymous": false,
      "inputs": [
        {
          "indexed": false,
          "name": "airline",
          "type": "address"
        },
        {
          "indexed": false,
          "name": "flight",
          "type": "string"
        },
        {
          "indexed": false,
          "name": "timestamp",
          "type": "uint256"
        },
        {
          "indexed": false,
          "name": "status",
          "type": "uint8"
        }
      ],
      "name": "OracleReport",
      "type": "event"
    },
    {
      "anonymous": false,
      "inputs": [
        {
          "indexed": false,
          "name": "index",
          "type": "uint8"
        },
        {
          "indexed": false,
          "name": "airline",
          "type": "address"
        },
        {
          "indexed": false,
          "name": "flight",
          "type": "string"
        },
        {
          "indexed": false,
          "name": "timestamp",
          "type": "uint256"
        },
        {
          "indexed": false,
          "name": "status",
          "type": "uint8"
        }
      ],
      "name": "SubmitOracleResponse",
      "type": "event"
    },
    {
      "anonymous": false,
      "inputs": [
        {
          "indexed": false,
          "name": "prev",
          "type": "uint256"
        },
        {
          "indexed": false,
          "name": "current",
          "type": "uint256"
        }
      ],
      "name": "OracleMinimumResponsesChanged",
      "type": "event"
    },
    {
      "anonymous": false,
      "inputs": [
        {
          "indexed": false,
          "name": "prev",
          "type": "uint256"
        },
        {
          "indexed": false,
          "name": "current",
          "type": "uint256"
        }
      ],
      "name": "OracleRegistrationFeeChanged",
      "type": "event"
    },
    {
      "anonymous": false,
      "inputs": [
        {
          "indexed": false,
          "name": "index",
          "type": "uint8"
        },
        {
          "indexed": false,
          "name": "airline",
          "type": "address"
        },
        {
          "indexed": false,
          "name": "flight",
          "type": "string"
        },
        {
          "indexed": false,
          "name": "timestamp",
          "type": "uint256"
        }
      ],
      "name": "OracleRequest",
      "type": "event"
    },
    {
      "anonymous": false,
      "inputs": [
        {
          "indexed": true,
          "name": "transactionId",
          "type": "uint256"
        },
        {
          "indexed": true,
          "name": "signer",
          "type": "address"
        }
      ],
      "name": "Submitted",
      "type": "event"
    },
    {
      "anonymous": false,
      "inputs": [
        {
          "indexed": true,
          "name": "transactionId",
          "type": "uint256"
        },
        {
          "indexed": true,
          "name": "signer",
          "type": "address"
        }
      ],
      "name": "Confirmed",
      "type": "event"
    },
    {
      "anonymous": false,
      "inputs": [
        {
          "indexed": true,
          "name": "transactionId",
          "type": "uint256"
        },
        {
          "indexed": true,
          "name": "signer",
          "type": "address"
        }
      ],
      "name": "Executed",
      "type": "event"
    },
    {
      "anonymous": false,
      "inputs": [
        {
          "indexed": true,
          "name": "transactionId",
          "type": "uint256"
        },
        {
          "indexed": true,
          "name": "old",
          "type": "uint256"
        },
        {
          "indexed": true,
          "name": "current",
          "type": "uint256"
        }
      ],
      "name": "RequirementChanged",
      "type": "event"
    },
    {
      "anonymous": false,
      "inputs": [
        {
          "indexed": true,
          "name": "account",
          "type": "address"
        }
      ],
      "name": "WhitelistAdminAdded",
      "type": "event"
    },
    {
      "anonymous": false,
      "inputs": [
        {
          "indexed": true,
          "name": "account",
          "type": "address"
        }
      ],
      "name": "WhitelistAdminRemoved",
      "type": "event"
    },
    {
      "anonymous": false,
      "inputs": [
        {
          "indexed": false,
          "name": "account",
          "type": "address"
        }
      ],
      "name": "Paused",
      "type": "event"
    },
    {
      "anonymous": false,
      "inputs": [
        {
          "indexed": false,
          "name": "account",
          "type": "address"
        }
      ],
      "name": "Unpaused",
      "type": "event"
    },
    {
      "anonymous": false,
      "inputs": [
        {
          "indexed": true,
          "name": "account",
          "type": "address"
        }
      ],
      "name": "PauserAdded",
      "type": "event"
    },
    {
      "anonymous": false,
      "inputs": [
        {
          "indexed": true,
          "name": "account",
          "type": "address"
        }
      ],
      "name": "PauserRemoved",
      "type": "event"
    },
    {
      "anonymous": false,
      "inputs": [
        {
          "indexed": true,
          "name": "account",
          "type": "address"
        }
      ],
      "name": "SignerAdded",
      "type": "event"
    },
    {
      "anonymous": false,
      "inputs": [
        {
          "indexed": true,
          "name": "account",
          "type": "address"
        }
      ],
      "name": "SignerRemoved",
      "type": "event"
    },
    {
      "anonymous": false,
      "inputs": [
        {
          "indexed": true,
          "name": "previousOwner",
          "type": "address"
        },
        {
          "indexed": true,
          "name": "newOwner",
          "type": "address"
        }
      ],
      "name": "OwnershipTransferred",
      "type": "event"
    },
    {
      "constant": true,
      "inputs": [],
      "name": "isDataContactOperational",
      "outputs": [
        {
          "name": "",
          "type": "bool"
        }
      ],
      "payable": false,
      "stateMutability": "view",
      "type": "function"
    },
    {
      "constant": false,
      "inputs": [
        {
          "name": "name",
          "type": "string"
        }
      ],
      "name": "bootstrap",
      "outputs": [],
      "payable": true,
      "stateMutability": "payable",
      "type": "function"
    },
    {
      "constant": false,
      "inputs": [
        {
          "name": "airline",
          "type": "address"
        },
        {
          "name": "name",
          "type": "string"
        }
      ],
      "name": "registerAirline",
      "outputs": [],
      "payable": true,
      "stateMutability": "payable",
      "type": "function"
    },
    {
      "constant": false,
      "inputs": [
        {
          "name": "airline",
          "type": "address"
        }
      ],
      "name": "fund",
      "outputs": [],
      "payable": true,
      "stateMutability": "payable",
      "type": "function"
    },
    {
      "constant": false,
      "inputs": [
        {
          "name": "airline",
          "type": "address"
        },
        {
          "name": "flightName",
          "type": "string"
        }
      ],
      "name": "registerFlight",
      "outputs": [],
      "payable": false,
      "stateMutability": "nonpayable",
      "type": "function"
    },
    {
      "constant": false,
      "inputs": [
        {
          "name": "flight",
          "type": "string"
        },
        {
          "name": "timestamp",
          "type": "uint256"
        }
      ],
      "name": "buy",
      "outputs": [],
      "payable": true,
      "stateMutability": "payable",
      "type": "function"
    },
    {
      "constant": false,
      "inputs": [],
      "name": "pay",
      "outputs": [],
      "payable": true,
      "stateMutability": "payable",
      "type": "function"
    },
    {
      "constant": false,
      "inputs": [
        {
          "name": "airline",
          "type": "address"
        },
        {
          "name": "flight",
          "type": "string"
        },
        {
          "name": "timestamp",
          "type": "uint256"
        },
        {
          "name": "statusCode",
          "type": "uint256"
        }
      ],
      "name": "setFlightStatus",
      "outputs": [],
      "payable": false,
      "stateMutability": "nonpayable",
      "type": "function"
    },
    {
      "constant": false,
      "inputs": [
        {
          "name": "minFund",
          "type": "uint256"
        }
      ],
      "name": "setAirlineMinimumFunds",
      "outputs": [],
      "payable": false,
      "stateMutability": "nonpayable",
      "type": "function"
    },
    {
      "constant": false,
      "inputs": [
        {
          "name": "status",
          "type": "uint256"
        },
        {
          "name": "payOutMultiple",
          "type": "uint256"
        }
      ],
      "name": "setPayOutParams",
      "outputs": [],
      "payable": false,
      "stateMutability": "nonpayable",
      "type": "function"
    }
  ],
  "bytecode": "0x60806040526000600860006101000a81548160ff021916908360ff160217905550670de0b6b3a76400006009556003600a55678ac7230489e800006010553480156200004a57600080fd5b5060405160208062006260833981018060405260208110156200006c57600080fd5b8101908080519060200190929190505050336000806101000a81548173ffffffffffffffffffffffffffffffffffffffff021916908373ffffffffffffffffffffffffffffffffffffffff1602179055506000809054906101000a900473ffffffffffffffffffffffffffffffffffffffff1673ffffffffffffffffffffffffffffffffffffffff16600073ffffffffffffffffffffffffffffffffffffffff167f8be0079c531659141344cd1fd0a4f28419497f9722a3daafe3b4186f6b6457e060405160405180910390a36200014a33620001ff60201b60201c565b6200015b336200026060201b60201c565b6000600360006101000a81548160ff0219169083151502179055506200018733620002c160201b60201c565b80600d60006101000a81548173ffffffffffffffffffffffffffffffffffffffff021916908373ffffffffffffffffffffffffffffffffffffffff160217905550620001d86200032260201b60201c565b620001f860026005811115620001ea57fe5b60966200033560201b60201c565b5062000691565b6200021a816001620003a560201b6200535a1790919060201c565b8073ffffffffffffffffffffffffffffffffffffffff167f47d1c22a25bb3a5d4e481b9b1e6944c2eade3181a0a20b495ed61d35b5323f2460405160405180910390a250565b6200027b816002620003a560201b6200535a1790919060201c565b8073ffffffffffffffffffffffffffffffffffffffff167f6719d08c1888103bea251a4ed56406bd0c3e69723c8a1686e017e7bbe159b6f860405160405180910390a250565b620002dc816004620003a560201b6200535a1790919060201c565b8073ffffffffffffffffffffffffffffffffffffffff167f22380c05984257a1cb900161c713dd71d39e74820f1aea43bd3f1bdd2096129960405160405180910390a250565b62000333336200048960201b60201c565b565b806011600084815260200190815260200160002081905550817ff0f729cff3741c2d483d22cff97eae75bdb666713f6a8b35daf6bd417334a72d60116000858152602001908152602001600020546064604051808381526020018281526020019250505060405180910390a25050565b620003b78282620004ea60201b60201c565b156200042b576040517f08c379a000000000000000000000000000000000000000000000000000000000815260040180806020018281038252601f8152602001807f526f6c65733a206163636f756e7420616c72656164792068617320726f6c650081525060200191505060405180910390fd5b60018260000160008373ffffffffffffffffffffffffffffffffffffffff1673ffffffffffffffffffffffffffffffffffffffff16815260200190815260200160002060006101000a81548160ff0219169083151502179055505050565b620004a4816001620005ca60201b6200529d1790919060201c565b8073ffffffffffffffffffffffffffffffffffffffff167f3525e22824a8a7df2c9a6029941c824cf95b6447f1e13d5128fd3826d35afe8b60405160405180910390a250565b60008073ffffffffffffffffffffffffffffffffffffffff168273ffffffffffffffffffffffffffffffffffffffff16141562000573576040517f08c379a00000000000000000000000000000000000000000000000000000000081526004018080602001828103825260228152602001806200623e6022913960400191505060405180910390fd5b8260000160008373ffffffffffffffffffffffffffffffffffffffff1673ffffffffffffffffffffffffffffffffffffffff16815260200190815260200160002060009054906101000a900460ff16905092915050565b620005dc8282620004ea60201b60201c565b62000633576040517f08c379a00000000000000000000000000000000000000000000000000000000081526004018080602001828103825260218152602001806200621d6021913960400191505060405180910390fd5b60008260000160008373ffffffffffffffffffffffffffffffffffffffff1673ffffffffffffffffffffffffffffffffffffffff16815260200190815260200160002060006101000a81548160ff0219169083151502179055505050565b615b7c80620006a16000396000f3fe6080604052600436106102465760003560e01c806383b03cb311610139578063c320c727116100b6578063eaaf6c611161007a578063eaaf6c6114610c16578063eb12d61e14610cd0578063ee38a74914610d21578063f2fde38b14610dba578063f73d2b9414610e0b578063f83f11c014610e3a57610246565b8063c320c72714610a9b578063d1a6264814610ad6578063d3377a8b14610b01578063d4c3fd8214610b7a578063e5c8b03d14610bff57610246565b8063a4272f1a116100fd578063a4272f1a146108ac578063a906845f146108d7578063bb5f747b14610912578063bce800e51461097b578063c10f2700146109d157610246565b806383b03cb31461079f5780638456cb59146107ca5780638da5cb5b146107e15780638f32d59b146108385780639110f6271461086757610246565b80635c975abb116101c75780636fe459781161018b5780636fe4597814610652578063715018a61461067d5780637362d9c8146106945780637df73e27146106e557806382dc1ec41461074e57610246565b80635c975abb146105635780635f1cc0e61461059257806362dfa1be146105e557806364b4f751146106105780636ef8d66d1461063b57610246565b8063231f14571161020e578063231f145714610487578063339d2590146104c25780633f4ba83a146104cc57806346fbf68e146104e35780634c5a628c1461054c57610246565b80630ca5c504146102c157806312b8e257146103445780631b73f830146103ea5780631b9265b8146104395780632302440814610443575b600080369050146102bf576040517f08c379a00000000000000000000000000000000000000000000000000000000081526004018080602001828103825260138152602001807f7061796c6f6164206e6f7420616c6c6f7765640000000000000000000000000081525060200191505060405180910390fd5b005b610342600480360360408110156102d757600080fd5b81019080803590602001906401000000008111156102f457600080fd5b82018360208201111561030657600080fd5b8035906020019184600183028401116401000000008311171561032857600080fd5b909192939192939080359060200190929190505050610eea565b005b34801561035057600080fd5b506103e86004803603604081101561036757600080fd5b81019080803573ffffffffffffffffffffffffffffffffffffffff169060200190929190803590602001906401000000008111156103a457600080fd5b8201836020820111156103b657600080fd5b803590602001918460018302840111640100000000831117156103d857600080fd5b909192939192939050505061132e565b005b3480156103f657600080fd5b506104236004803603602081101561040d57600080fd5b810190808035906020019092919050505061174a565b6040518082815260200191505060405180910390f35b610441611762565b005b6104856004803603602081101561045957600080fd5b81019080803573ffffffffffffffffffffffffffffffffffffffff169060200190929190505050611941565b005b34801561049357600080fd5b506104c0600480360360208110156104aa57600080fd5b8101908080359060200190929190505050611b24565b005b6104ca611d21565b005b3480156104d857600080fd5b506104e1611ec4565b005b3480156104ef57600080fd5b506105326004803603602081101561050657600080fd5b81019080803573ffffffffffffffffffffffffffffffffffffffff169060200190929190505050612024565b604051808215151515815260200191505060405180910390f35b34801561055857600080fd5b50610561612041565b005b34801561056f57600080fd5b5061057861204c565b604051808215151515815260200191505060405180910390f35b34801561059e57600080fd5b506105a7612063565b6040518082600360200280838360005b838110156105d25780820151818401526020810190506105b7565b5050505090500191505060405180910390f35b3480156105f157600080fd5b506105fa612259565b6040518082815260200191505060405180910390f35b34801561061c57600080fd5b5061062561225e565b6040518082815260200191505060405180910390f35b34801561064757600080fd5b50610650612264565b005b34801561065e57600080fd5b5061066761226f565b6040518082815260200191505060405180910390f35b34801561068957600080fd5b50610692612274565b005b3480156106a057600080fd5b506106e3600480360360208110156106b757600080fd5b81019080803573ffffffffffffffffffffffffffffffffffffffff1690602001909291905050506123ad565b005b3480156106f157600080fd5b506107346004803603602081101561070857600080fd5b81019080803573ffffffffffffffffffffffffffffffffffffffff169060200190929190505050612417565b604051808215151515815260200191505060405180910390f35b34801561075a57600080fd5b5061079d6004803603602081101561077157600080fd5b81019080803573ffffffffffffffffffffffffffffffffffffffff169060200190929190505050612434565b005b3480156107ab57600080fd5b506107b461249e565b6040518082815260200191505060405180910390f35b3480156107d657600080fd5b506107df6124a4565b005b3480156107ed57600080fd5b506107f6612605565b604051808273ffffffffffffffffffffffffffffffffffffffff1673ffffffffffffffffffffffffffffffffffffffff16815260200191505060405180910390f35b34801561084457600080fd5b5061084d61262e565b604051808215151515815260200191505060405180910390f35b34801561087357600080fd5b506108aa6004803603604081101561088a57600080fd5b810190808035906020019092919080359060200190929190505050612685565b005b3480156108b857600080fd5b506108c1612896565b6040518082815260200191505060405180910390f35b3480156108e357600080fd5b50610910600480360360208110156108fa57600080fd5b810190808035906020019092919050505061289b565b005b34801561091e57600080fd5b506109616004803603602081101561093557600080fd5b81019080803573ffffffffffffffffffffffffffffffffffffffff169060200190929190505050612986565b604051808215151515815260200191505060405180910390f35b34801561098757600080fd5b506109b46004803603602081101561099e57600080fd5b81019080803590602001909291905050506129a3565b604051808381526020018281526020019250505060405180910390f35b3480156109dd57600080fd5b50610a99600480360360a08110156109f457600080fd5b81019080803560ff169060200190929190803573ffffffffffffffffffffffffffffffffffffffff16906020019092919080359060200190640100000000811115610a3e57600080fd5b820183602082011115610a5057600080fd5b80359060200191846001830284011164010000000083111715610a7257600080fd5b909192939192939080359060200190929190803560ff1690602001909291905050506129da565b005b348015610aa757600080fd5b50610ad460048036036020811015610abe57600080fd5b8101908080359060200190929190505050613073565b005b348015610ae257600080fd5b50610aeb613270565b6040518082815260200191505060405180910390f35b610b7860048036036020811015610b1757600080fd5b8101908080359060200190640100000000811115610b3457600080fd5b820183602082011115610b4657600080fd5b80359060200191846001830284011164010000000083111715610b6857600080fd5b9091929391929390505050613276565b005b348015610b8657600080fd5b50610bbd60048036036040811015610b9d57600080fd5b81019080803590602001909291908035906020019092919050505061334b565b604051808273ffffffffffffffffffffffffffffffffffffffff1673ffffffffffffffffffffffffffffffffffffffff16815260200191505060405180910390f35b348015610c0b57600080fd5b50610c14613396565b005b348015610c2257600080fd5b50610cce60048036036080811015610c3957600080fd5b81019080803573ffffffffffffffffffffffffffffffffffffffff16906020019092919080359060200190640100000000811115610c7657600080fd5b820183602082011115610c8857600080fd5b80359060200191846001830284011164010000000083111715610caa57600080fd5b909192939192939080359060200190929190803590602001909291905050506133a1565b005b348015610cdc57600080fd5b50610d1f60048036036020811015610cf357600080fd5b81019080803573ffffffffffffffffffffffffffffffffffffffff16906020019092919050505061381c565b005b610db860048036036040811015610d3757600080fd5b81019080803573ffffffffffffffffffffffffffffffffffffffff16906020019092919080359060200190640100000000811115610d7457600080fd5b820183602082011115610d8657600080fd5b80359060200191846001830284011164010000000083111715610da857600080fd5b90919293919293905050506138be565b005b348015610dc657600080fd5b50610e0960048036036020811015610ddd57600080fd5b81019080803573ffffffffffffffffffffffffffffffffffffffff169060200190929190505050613dd3565b005b348015610e1757600080fd5b50610e20613e59565b604051808215151515815260200191505060405180910390f35b348015610e4657600080fd5b50610ee860048036036060811015610e5d57600080fd5b81019080803573ffffffffffffffffffffffffffffffffffffffff16906020019092919080359060200190640100000000811115610e9a57600080fd5b820183602082011115610eac57600080fd5b80359060200191846001830284011164010000000083111715610ece57600080fd5b909192939192939080359060200190929190505050613f03565b005b600360009054906101000a900460ff1615610f6d576040517f08c379a00000000000000000000000000000000000000000000000000000000081526004018080602001828103825260108152602001807f5061757361626c653a207061757365640000000000000000000000000000000081525060200191505060405180910390fd5b670de0b6b3a7640000341115610fce576040517f08c379a00000000000000000000000000000000000000000000000000000000081526004018080602001828103825260268152602001806159eb6026913960400191505060405180910390fd5b600061101d84848080601f016020809104026020016040519081016040528093929190818152602001838380828437600081840152601f19601f820116905080830192505050505050506141d5565b90506000600d60009054906101000a900473ffffffffffffffffffffffffffffffffffffffff1673ffffffffffffffffffffffffffffffffffffffff1663d6e1c189836040518263ffffffff1660e01b815260040180828152602001915050602060405180830381600087803b15801561109657600080fd5b505af11580156110aa573d6000803e3d6000fd5b505050506040513d60208110156110c057600080fd5b81019080805190602001909291905050509050600073ffffffffffffffffffffffffffffffffffffffff168173ffffffffffffffffffffffffffffffffffffffff161415611176576040517f08c379a00000000000000000000000000000000000000000000000000000000081526004018080602001828103825260138152602001807f556e7265676973746572656420666c696768740000000000000000000000000081525060200191505060405180910390fd5b3373ffffffffffffffffffffffffffffffffffffffff168173ffffffffffffffffffffffffffffffffffffffff1614156111fb576040517f08c379a0000000000000000000000000000000000000000000000000000000008152600401808060200182810382526027815260200180615b076027913960400191505060405180910390fd5b600033905060006112518388888080601f016020809104026020016040519081016040528093929190818152602001838380828437600081840152601f19601f8201169050808301925050505050505087614253565b9050600d60009054906101000a900473ffffffffffffffffffffffffffffffffffffffff1673ffffffffffffffffffffffffffffffffffffffff16631622dbe4348484888a6040518663ffffffff1660e01b8152600401808573ffffffffffffffffffffffffffffffffffffffff1673ffffffffffffffffffffffffffffffffffffffff1681526020018481526020018381526020018281526020019450505050506000604051808303818588803b15801561130c57600080fd5b505af1158015611320573d6000803e3d6000fd5b505050505050505050505050565b600360009054906101000a900460ff16156113b1576040517f08c379a00000000000000000000000000000000000000000000000000000000081526004018080602001828103825260108152602001807f5061757361626c653a207061757365640000000000000000000000000000000081525060200191505060405180910390fd5b828073ffffffffffffffffffffffffffffffffffffffff163373ffffffffffffffffffffffffffffffffffffffff1614611436576040517f08c379a000000000000000000000000000000000000000000000000000000000815260040180806020018281038252602a815260200180615a11602a913960400191505060405180910390fd5b61143f33612417565b8061144e575061144d614312565b5b6114c0576040517f08c379a000000000000000000000000000000000000000000000000000000000815260040180806020018281038252601d8152602001807f43616c6c6572206973206e6f7420612066756e646564207369676e657200000081525060200191505060405180910390fd5b600083836040516020018083838082843780830192505050925050506040516020818303038152906040528051906020012060001c90506000600d60009054906101000a900473ffffffffffffffffffffffffffffffffffffffff1673ffffffffffffffffffffffffffffffffffffffff1663d6e1c189836040518263ffffffff1660e01b815260040180828152602001915050602060405180830381600087803b15801561156e57600080fd5b505af1158015611582573d6000803e3d6000fd5b505050506040513d602081101561159857600080fd5b81019080805190602001909291905050509050600073ffffffffffffffffffffffffffffffffffffffff168173ffffffffffffffffffffffffffffffffffffffff161461164d576040517f08c379a000000000000000000000000000000000000000000000000000000000815260040180806020018281038252601d8152602001807f4169726c696e6520697320616c7265616479207265676973746572656400000081525060200191505060405180910390fd5b600d60009054906101000a900473ffffffffffffffffffffffffffffffffffffffff1673ffffffffffffffffffffffffffffffffffffffff16633cc0be9c878787866040518563ffffffff1660e01b8152600401808573ffffffffffffffffffffffffffffffffffffffff1673ffffffffffffffffffffffffffffffffffffffff168152602001806020018381526020018281038252858582818152602001925080828437600081840152601f19601f82011690508083019250505095505050505050600060405180830381600087803b15801561172a57600080fd5b505af115801561173e573d6000803e3d6000fd5b50505050505050505050565b60056020528060005260406000206000915090505481565b600360009054906101000a900460ff16156117e5576040517f08c379a00000000000000000000000000000000000000000000000000000000081526004018080602001828103825260108152602001807f5061757361626c653a207061757365640000000000000000000000000000000081525060200191505060405180910390fd5b3273ffffffffffffffffffffffffffffffffffffffff163373ffffffffffffffffffffffffffffffffffffffff1614611886576040517f08c379a000000000000000000000000000000000000000000000000000000000815260040180806020018281038252601d8152602001807f4f6e6c7920454f41732063616e2072656365697665207061796f75742e00000081525060200191505060405180910390fd5b600d60009054906101000a900473ffffffffffffffffffffffffffffffffffffffff1673ffffffffffffffffffffffffffffffffffffffff16630c11dedd336040518263ffffffff1660e01b8152600401808273ffffffffffffffffffffffffffffffffffffffff1673ffffffffffffffffffffffffffffffffffffffff168152602001915050600060405180830381600087803b15801561192757600080fd5b505af115801561193b573d6000803e3d6000fd5b50505050565b600360009054906101000a900460ff16156119c4576040517f08c379a00000000000000000000000000000000000000000000000000000000081526004018080602001828103825260108152602001807f5061757361626c653a207061757365640000000000000000000000000000000081525060200191505060405180910390fd5b6000600d60009054906101000a900473ffffffffffffffffffffffffffffffffffffffff1673ffffffffffffffffffffffffffffffffffffffff1663010c5c97336040518263ffffffff1660e01b8152600401808273ffffffffffffffffffffffffffffffffffffffff1673ffffffffffffffffffffffffffffffffffffffff168152602001915050602060405180830381600087803b158015611a6757600080fd5b505af1158015611a7b573d6000803e3d6000fd5b505050506040513d6020811015611a9157600080fd5b8101908080519060200190929190505050905080611b17576040517f08c379a00000000000000000000000000000000000000000000000000000000081526004018080602001828103825260188152602001807f43616c6c6572206973206e6f742072656769737465726564000000000000000081525060200191505060405180910390fd5b611b20826143ff565b5050565b600360009054906101000a900460ff1615611ba7576040517f08c379a00000000000000000000000000000000000000000000000000000000081526004018080602001828103825260108152602001807f5061757361626c653a207061757365640000000000000000000000000000000081525060200191505060405180910390fd5b611bb033612986565b611c05576040517f08c379a0000000000000000000000000000000000000000000000000000000008152600401808060200182810382526040815260200180615a9f6040913960400191505060405180910390fd5b60008111611c5e576040517f08c379a00000000000000000000000000000000000000000000000000000000081526004018080602001828103825260268152602001806159a06026913960400191505060405180910390fd5b80600a541415611cd6576040517f08c379a000000000000000000000000000000000000000000000000000000000815260040180806020018281038252601e8152602001807f496e76616c6964206d696e696d756d20726573706f6e73652076616c7565000081525060200191505060405180910390fd5b7f6228df919bb5e56a81f2c4162426ed056bf6588eb1812dfb879a81c27f067dd9600a5482604051808381526020018281526020019250505060405180910390a180600a8190555050565b600360009054906101000a900460ff1615611da4576040517f08c379a00000000000000000000000000000000000000000000000000000000081526004018080602001828103825260108152602001807f5061757361626c653a207061757365640000000000000000000000000000000081525060200191505060405180910390fd5b600954341015611e1c576040517f08c379a000000000000000000000000000000000000000000000000000000000815260040180806020018281038252601c8152602001807f526567697374726174696f6e206665652069732072657175697265640000000081525060200191505060405180910390fd5b611e24615761565b611e2d3361462b565b9050604051806040016040528060011515815260200182815250600b60003373ffffffffffffffffffffffffffffffffffffffff1673ffffffffffffffffffffffffffffffffffffffff16815260200190815260200160002060008201518160000160006101000a81548160ff021916908315150217905550602082015181600101906003611ebd929190615783565b5090505050565b611ecd33612024565b611f22576040517f08c379a000000000000000000000000000000000000000000000000000000000815260040180806020018281038252603081526020018061594a6030913960400191505060405180910390fd5b600360009054906101000a900460ff16611fa4576040517f08c379a00000000000000000000000000000000000000000000000000000000081526004018080602001828103825260148152602001807f5061757361626c653a206e6f742070617573656400000000000000000000000081525060200191505060405180910390fd5b6000600360006101000a81548160ff0219169083151502179055507f5db9ee0a495bf2e6ff9c91a7834c1ba4fdd244a5e8aa4e537bd38aeae4b073aa33604051808273ffffffffffffffffffffffffffffffffffffffff1673ffffffffffffffffffffffffffffffffffffffff16815260200191505060405180910390a1565b600061203a8260026147b790919063ffffffff16565b9050919050565b61204a33614895565b565b6000600360009054906101000a900460ff16905090565b61206b615761565b600360009054906101000a900460ff16156120ee576040517f08c379a00000000000000000000000000000000000000000000000000000000081526004018080602001828103825260108152602001807f5061757361626c653a207061757365640000000000000000000000000000000081525060200191505060405180910390fd5b600b60003373ffffffffffffffffffffffffffffffffffffffff1673ffffffffffffffffffffffffffffffffffffffff16815260200190815260200160002060000160009054906101000a900460ff166121b0576040517f08c379a000000000000000000000000000000000000000000000000000000000815260040180806020018281038252601b8152602001807f4e6f74207265676973746572656420617320616e206f7261636c65000000000081525060200191505060405180910390fd5b600b60003373ffffffffffffffffffffffffffffffffffffffff1673ffffffffffffffffffffffffffffffffffffffff16815260200190815260200160002060010160038060200260405190810160405280929190826003801561224f576020028201916000905b82829054906101000a900460ff1660ff16815260200190600101906020826000010492830192600103820291508084116122185790505b5050505050905090565b603281565b60095481565b61226d336148ef565b565b600181565b61227c61262e565b6122ee576040517f08c379a00000000000000000000000000000000000000000000000000000000081526004018080602001828103825260208152602001807f4f776e61626c653a2063616c6c6572206973206e6f7420746865206f776e657281525060200191505060405180910390fd5b600073ffffffffffffffffffffffffffffffffffffffff166000809054906101000a900473ffffffffffffffffffffffffffffffffffffffff1673ffffffffffffffffffffffffffffffffffffffff167f8be0079c531659141344cd1fd0a4f28419497f9722a3daafe3b4186f6b6457e060405160405180910390a360008060006101000a81548173ffffffffffffffffffffffffffffffffffffffff021916908373ffffffffffffffffffffffffffffffffffffffff160217905550565b6123b633612986565b61240b576040517f08c379a0000000000000000000000000000000000000000000000000000000008152600401808060200182810382526040815260200180615a9f6040913960400191505060405180910390fd5b61241481614949565b50565b600061242d8260016147b790919063ffffffff16565b9050919050565b61243d33612024565b612492576040517f08c379a000000000000000000000000000000000000000000000000000000000815260040180806020018281038252603081526020018061594a6030913960400191505060405180910390fd5b61249b816149a3565b50565b600a5481565b6124ad33612024565b612502576040517f08c379a000000000000000000000000000000000000000000000000000000000815260040180806020018281038252603081526020018061594a6030913960400191505060405180910390fd5b600360009054906101000a900460ff1615612585576040517f08c379a00000000000000000000000000000000000000000000000000000000081526004018080602001828103825260108152602001807f5061757361626c653a207061757365640000000000000000000000000000000081525060200191505060405180910390fd5b6001600360006101000a81548160ff0219169083151502179055507f62e78cea01bee320cd4e420270b5ea74000d11b0c9f74754ebdbfc544b05a25833604051808273ffffffffffffffffffffffffffffffffffffffff1673ffffffffffffffffffffffffffffffffffffffff16815260200191505060405180910390a1565b60008060009054906101000a900473ffffffffffffffffffffffffffffffffffffffff16905090565b60008060009054906101000a900473ffffffffffffffffffffffffffffffffffffffff1673ffffffffffffffffffffffffffffffffffffffff163373ffffffffffffffffffffffffffffffffffffffff1614905090565b600360009054906101000a900460ff1615612708576040517f08c379a00000000000000000000000000000000000000000000000000000000081526004018080602001828103825260108152602001807f5061757361626c653a207061757365640000000000000000000000000000000081525060200191505060405180910390fd5b61271133612986565b612766576040517f08c379a0000000000000000000000000000000000000000000000000000000008152600401808060200182810382526040815260200180615a9f6040913960400191505060405180910390fd5b81600081600581111561277557fe5b90506001600581111561278457fe5b81600581111561279057fe5b14806127b25750600260058111156127a457fe5b8160058111156127b057fe5b145b806127d35750600360058111156127c557fe5b8160058111156127d157fe5b145b806127f45750600460058111156127e657fe5b8160058111156127f257fe5b145b80612814575060058081111561280657fe5b81600581111561281257fe5b145b612886576040517f08c379a00000000000000000000000000000000000000000000000000000000081526004018080602001828103825260158152602001807f496e76616c696420666c6967687420737461747573000000000000000000000081525060200191505060405180910390fd5b61289084846149fd565b50505050565b600281565b600360009054906101000a900460ff161561291e576040517f08c379a00000000000000000000000000000000000000000000000000000000081526004018080602001828103825260108152602001807f5061757361626c653a207061757365640000000000000000000000000000000081525060200191505060405180910390fd5b61292733612986565b61297c576040517f08c379a0000000000000000000000000000000000000000000000000000000008152600401808060200182810382526040815260200180615a9f6040913960400191505060405180910390fd5b8060108190555050565b600061299c8260046147b790919063ffffffff16565b9050919050565b6000806005600084815260200190815260200160002054915060076000848152602001908152602001600020805490509050915091565b600360009054906101000a900460ff1615612a5d576040517f08c379a00000000000000000000000000000000000000000000000000000000081526004018080602001828103825260108152602001807f5061757361626c653a207061757365640000000000000000000000000000000081525060200191505060405180910390fd5b600b60003373ffffffffffffffffffffffffffffffffffffffff1673ffffffffffffffffffffffffffffffffffffffff16815260200190815260200160002060000160009054906101000a900460ff16612b1f576040517f08c379a00000000000000000000000000000000000000000000000000000000081526004018080602001828103825260198152602001807f4f7261636c65206d75737420626520726567697374657265640000000000000081525060200191505060405180910390fd5b8560ff16600b60003373ffffffffffffffffffffffffffffffffffffffff1673ffffffffffffffffffffffffffffffffffffffff168152602001908152602001600020600101600060038110612b7157fe5b602091828204019190069054906101000a900460ff1660ff161480612bfe57508560ff16600b60003373ffffffffffffffffffffffffffffffffffffffff1673ffffffffffffffffffffffffffffffffffffffff168152602001908152602001600020600101600160038110612be357fe5b602091828204019190069054906101000a900460ff1660ff16145b80612c7157508560ff16600b60003373ffffffffffffffffffffffffffffffffffffffff1673ffffffffffffffffffffffffffffffffffffffff168152602001908152602001600020600101600260038110612c5657fe5b602091828204019190069054906101000a900460ff1660ff16145b612cc6576040517f08c379a0000000000000000000000000000000000000000000000000000000008152600401808060200182810382526023815260200180615b2e6023913960400191505060405180910390fd5b60008686868686604051602001808660ff1660ff1660f81b81526001018573ffffffffffffffffffffffffffffffffffffffff1673ffffffffffffffffffffffffffffffffffffffff1660601b81526014018484808284378083019250505082815260200195505050505050604051602081830303815290604052805190602001209050600c600082815260200190815260200160002060000160149054906101000a900460ff16612dc3576040517f08c379a000000000000000000000000000000000000000000000000000000000815260040180806020018281038252602f81526020018061591b602f913960400191505060405180910390fd5b600c600082815260200190815260200160002060010160008360ff1660ff1681526020019081526020016000203390806001815401808255809150509060018203906000526020600020016000909192909190916101000a81548173ffffffffffffffffffffffffffffffffffffffff021916908373ffffffffffffffffffffffffffffffffffffffff160217905550507f43c853095c2752648493c88b4baac4d580d2594ffb00c6f1d4242d844514f7838686868686604051808673ffffffffffffffffffffffffffffffffffffffff1673ffffffffffffffffffffffffffffffffffffffff168152602001806020018481526020018360ff1660ff1681526020018281038252868682818152602001925080828437600081840152601f19601f820116905080830192505050965050505050505060405180910390a1600a54600c600083815260200190815260200160002060010160008460ff1660ff168152602001908152602001600020805490501061306a577fe23f5229de535c091e3b7bec2665f5d698192d3b31393066e8987b7a05076b6c8686868686604051808673ffffffffffffffffffffffffffffffffffffffff1673ffffffffffffffffffffffffffffffffffffffff168152602001806020018481526020018360ff1660ff1681526020018281038252868682818152602001925080828437600081840152601f19601f820116905080830192505050965050505050505060405180910390a161303a8686868080601f016020809104026020016040519081016040528093929190818152602001838380828437600081840152601f19601f82011690508083019250505050505050858560ff16614a6d565b6000600c600083815260200190815260200160002060000160146101000a81548160ff0219169083151502179055505b50505050505050565b600360009054906101000a900460ff16156130f6576040517f08c379a00000000000000000000000000000000000000000000000000000000081526004018080602001828103825260108152602001807f5061757361626c653a207061757365640000000000000000000000000000000081525060200191505060405180910390fd5b6130ff33612986565b613154576040517f08c379a0000000000000000000000000000000000000000000000000000000008152600401808060200182810382526040815260200180615a9f6040913960400191505060405180910390fd5b600081116131ca576040517f08c379a000000000000000000000000000000000000000000000000000000000815260040180806020018281038252600f8152602001807f466565206d75737420626520736574000000000000000000000000000000000081525060200191505060405180910390fd5b600954811415613225576040517f08c379a0000000000000000000000000000000000000000000000000000000008152600401808060200182810382526028815260200180615adf6028913960400191505060405180910390fd5b7ff909b3245b40701d9a4e6152f0a907309f96126b75034c1fcb516c8b24c9d5e960095482604051808381526020018281526020019250505060405180910390a18060098190555050565b60065481565b61327e61262e565b6132f0576040517f08c379a00000000000000000000000000000000000000000000000000000000081526004018080602001828103825260208152602001807f4f776e61626c653a2063616c6c6572206973206e6f7420746865206f776e657281525060200191505060405180910390fd5b61333e3383838080601f016020809104026020016040519081016040528093929190818152602001838380828437600081840152601f19601f82011690508083019250505050505050614baf565b613347336143ff565b5050565b6007602052816000526040600020818154811061336457fe5b906000526020600020016000915091509054906101000a900473ffffffffffffffffffffffffffffffffffffffff1681565b61339f33614cea565b565b600360009054906101000a900460ff1615613424576040517f08c379a00000000000000000000000000000000000000000000000000000000081526004018080602001828103825260108152602001807f5061757361626c653a207061757365640000000000000000000000000000000081525060200191505060405180910390fd5b80600081600581111561343357fe5b90506001600581111561344257fe5b81600581111561344e57fe5b148061347057506002600581111561346257fe5b81600581111561346e57fe5b145b8061349157506003600581111561348357fe5b81600581111561348f57fe5b145b806134b25750600460058111156134a457fe5b8160058111156134b057fe5b145b806134d257506005808111156134c457fe5b8160058111156134d057fe5b145b613544576040517f08c379a00000000000000000000000000000000000000000000000000000000081526004018080602001828103825260158152602001807f496e76616c696420666c6967687420737461747573000000000000000000000081525060200191505060405180910390fd5b60026135508133614d44565b156135c3576040517f08c379a00000000000000000000000000000000000000000000000000000000081526004018080602001828103825260188152602001807f43616c6c657220616c726561647920636f6e6669726d6564000000000000000081525060200191505060405180910390fd5b600760008281526020019081526020016000203390806001815401808255809150509060018203906000526020600020016000909192909190916101000a81548173ffffffffffffffffffffffffffffffffffffffff021916908373ffffffffffffffffffffffffffffffffffffffff160217905550506001600760008381526020019081526020016000208054905014156136a2573373ffffffffffffffffffffffffffffffffffffffff16817fa1a7fb1df88af97284790f533c84a4284660c23f7631de9a03a258de840e4c1560405160405180910390a36136e7565b3373ffffffffffffffffffffffffffffffffffffffff16817f6f220d98c15dbd07fdc24781b682ea34f92411fc61b83c761dd927afbe02d3fd60405160405180910390a35b6005600082815260200190815260200160002054600760008381526020019081526020016000208054905010613812573373ffffffffffffffffffffffffffffffffffffffff16817f7271f8b3d48d26ccc839c0f424fe9e12fe4e058108b58c096c078659c7fbadf660405160405180910390a360006137ac8989898080601f016020809104026020016040519081016040528093929190818152602001838380828437600081840152601f19601f8201169050808301925050505050505088614253565b90506137b88186614e09565b5060006040519080825280602002602001820160405280156137e95781602001602082028038833980820191505090505b5060076000838152602001908152602001600020908051906020019061381092919061581d565b505b5050505050505050565b61382533612417565b806138345750613833614312565b5b6138a6576040517f08c379a000000000000000000000000000000000000000000000000000000000815260040180806020018281038252601d8152602001807f43616c6c6572206973206e6f7420612066756e646564207369676e657200000081525060200191505060405180910390fd5b6138af81614f9b565b60016006540160068190555050565b600360009054906101000a900460ff1615613941576040517f08c379a00000000000000000000000000000000000000000000000000000000081526004018080602001828103825260108152602001807f5061757361626c653a207061757365640000000000000000000000000000000081525060200191505060405180910390fd5b6000600d60009054906101000a900473ffffffffffffffffffffffffffffffffffffffff1673ffffffffffffffffffffffffffffffffffffffff1663010c5c97336040518263ffffffff1660e01b8152600401808273ffffffffffffffffffffffffffffffffffffffff1673ffffffffffffffffffffffffffffffffffffffff168152602001915050602060405180830381600087803b1580156139e457600080fd5b505af11580156139f8573d6000803e3d6000fd5b505050506040513d6020811015613a0e57600080fd5b8101908080519060200190929190505050905080613a94576040517f08c379a00000000000000000000000000000000000000000000000000000000081526004018080602001828103825260188152602001807f43616c6c6572206973206e6f742072656769737465726564000000000000000081525060200191505060405180910390fd5b613a9c614312565b613b0e576040517f08c379a00000000000000000000000000000000000000000000000000000000081526004018080602001828103825260148152602001807f43616c6c6572206973206e6f742066756e64656400000000000000000000000081525060200191505060405180910390fd5b6001613b1a8133614d44565b15613b8d576040517f08c379a00000000000000000000000000000000000000000000000000000000081526004018080602001828103825260188152602001807f43616c6c657220616c726561647920636f6e6669726d6564000000000000000081525060200191505060405180910390fd5b600760008281526020019081526020016000203390806001815401808255809150509060018203906000526020600020016000909192909190916101000a81548173ffffffffffffffffffffffffffffffffffffffff021916908373ffffffffffffffffffffffffffffffffffffffff16021790555050600160076000838152602001908152602001600020805490501415613c6c573373ffffffffffffffffffffffffffffffffffffffff16817fa1a7fb1df88af97284790f533c84a4284660c23f7631de9a03a258de840e4c1560405160405180910390a3613cb1565b3373ffffffffffffffffffffffffffffffffffffffff16817f6f220d98c15dbd07fdc24781b682ea34f92411fc61b83c761dd927afbe02d3fd60405160405180910390a35b6005600082815260200190815260200160002054600760008381526020019081526020016000208054905010613dcc573373ffffffffffffffffffffffffffffffffffffffff16817f7271f8b3d48d26ccc839c0f424fe9e12fe4e058108b58c096c078659c7fbadf660405160405180910390a3613d738585858080601f016020809104026020016040519081016040528093929190818152602001838380828437600081840152601f19601f82011690508083019250505050505050614baf565b6000604051908082528060200260200182016040528015613da35781602001602082028038833980820191505090505b50600760008381526020019081526020016000209080519060200190613dca92919061581d565b505b5050505050565b613ddb61262e565b613e4d576040517f08c379a00000000000000000000000000000000000000000000000000000000081526004018080602001828103825260208152602001807f4f776e61626c653a2063616c6c6572206973206e6f7420746865206f776e657281525060200191505060405180910390fd5b613e5681615031565b50565b6000600d60009054906101000a900473ffffffffffffffffffffffffffffffffffffffff1673ffffffffffffffffffffffffffffffffffffffff1663cd905dff6040518163ffffffff1660e01b815260040160206040518083038186803b158015613ec357600080fd5b505afa158015613ed7573d6000803e3d6000fd5b505050506040513d6020811015613eed57600080fd5b8101908080519060200190929190505050905090565b600360009054906101000a900460ff1615613f86576040517f08c379a00000000000000000000000000000000000000000000000000000000081526004018080602001828103825260108152602001807f5061757361626c653a207061757365640000000000000000000000000000000081525060200191505060405180910390fd5b613f8f33612986565b613fe4576040517f08c379a0000000000000000000000000000000000000000000000000000000008152600401808060200182810382526040815260200180615a9f6040913960400191505060405180910390fd5b6000613fef33615175565b905060008186868686604051602001808660ff1660ff1660f81b81526001018573ffffffffffffffffffffffffffffffffffffffff1673ffffffffffffffffffffffffffffffffffffffff1660601b8152601401848480828437808301925050508281526020019550505050505060405160208183030381529060405280519060200120905060405180604001604052803373ffffffffffffffffffffffffffffffffffffffff16815260200160011515815250600c600083815260200190815260200160002060008201518160000160006101000a81548173ffffffffffffffffffffffffffffffffffffffff021916908373ffffffffffffffffffffffffffffffffffffffff16021790555060208201518160000160146101000a81548160ff0219169083151502179055509050507f3ed01f2c3fc24c6b329d931e35b03e390d23497d22b3f90e15b600343e93df118287878787604051808660ff1660ff1681526020018573ffffffffffffffffffffffffffffffffffffffff1673ffffffffffffffffffffffffffffffffffffffff168152602001806020018381526020018281038252858582818152602001925080828437600081840152601f19601f820116905080830192505050965050505050505060405180910390a1505050505050565b6000816040516020018082805190602001908083835b6020831061420e57805182526020820191506020810190506020830392506141eb565b6001836020036101000a0380198251168184511680821785525050505050509050019150506040516020818303038152906040528051906020012060001c9050919050565b6000838383604051602001808473ffffffffffffffffffffffffffffffffffffffff1673ffffffffffffffffffffffffffffffffffffffff1660601b815260140183805190602001908083835b602083106142c357805182526020820191506020810190506020830392506142a0565b6001836020036101000a03801982511681845116808217855250505050505090500182815260200193505050506040516020818303038152906040528051906020012060001c90509392505050565b600080600d60009054906101000a900473ffffffffffffffffffffffffffffffffffffffff1673ffffffffffffffffffffffffffffffffffffffff166389208e72336040518263ffffffff1660e01b8152600401808273ffffffffffffffffffffffffffffffffffffffff1673ffffffffffffffffffffffffffffffffffffffff168152602001915050602060405180830381600087803b1580156143b657600080fd5b505af11580156143ca573d6000803e3d6000fd5b505050506040513d60208110156143e057600080fd5b8101908080519060200190929190505050905060105481101591505090565b6000600d60009054906101000a900473ffffffffffffffffffffffffffffffffffffffff1673ffffffffffffffffffffffffffffffffffffffff16632302440834846040518363ffffffff1660e01b8152600401808273ffffffffffffffffffffffffffffffffffffffff1673ffffffffffffffffffffffffffffffffffffffff1681526020019150506020604051808303818588803b1580156144a257600080fd5b505af11580156144b6573d6000803e3d6000fd5b50505050506040513d60208110156144cd57600080fd5b8101908080519060200190929190505050905060105481106145d8576144f28261381c565b6001600f60008282540192505081905550600d60009054906101000a900473ffffffffffffffffffffffffffffffffffffffff1673ffffffffffffffffffffffffffffffffffffffff16632a7e13f78360016040518363ffffffff1660e01b8152600401808373ffffffffffffffffffffffffffffffffffffffff1673ffffffffffffffffffffffffffffffffffffffff1681526020018215151515815260200192505050600060405180830381600087803b1580156145b157600080fd5b505af11580156145c5573d6000803e3d6000fd5b505050506145d36001615265565b614627565b8173ffffffffffffffffffffffffffffffffffffffff167f6beaf5135c062c245ff7cff37b296c2e805ecf9f29ce60507d178f5e3dc655a0346040518082815260200191505060405180910390a25b5050565b614633615761565b61463b615761565b61464483615175565b8160006003811061465157fe5b602002019060ff16908160ff16815250508060006003811061466f57fe5b60200201518160016003811061468157fe5b602002019060ff16908160ff16815250505b806000600381106146a057fe5b602002015160ff16816001600381106146b557fe5b602002015160ff1614156146ef576146cc83615175565b816001600381106146d957fe5b602002019060ff16908160ff1681525050614693565b806001600381106146fc57fe5b60200201518160026003811061470e57fe5b602002019060ff16908160ff16815250505b8060006003811061472d57fe5b602002015160ff168160026003811061474257fe5b602002015160ff16148061477d57508060016003811061475e57fe5b602002015160ff168160026003811061477357fe5b602002015160ff16145b156147ae5761478b83615175565b8160026003811061479857fe5b602002019060ff16908160ff1681525050614720565b80915050919050565b60008073ffffffffffffffffffffffffffffffffffffffff168273ffffffffffffffffffffffffffffffffffffffff16141561483e576040517f08c379a0000000000000000000000000000000000000000000000000000000008152600401808060200182810382526022815260200180615a7d6022913960400191505060405180910390fd5b8260000160008373ffffffffffffffffffffffffffffffffffffffff1673ffffffffffffffffffffffffffffffffffffffff16815260200190815260200160002060009054906101000a900460ff16905092915050565b6148a981600461529d90919063ffffffff16565b8073ffffffffffffffffffffffffffffffffffffffff167f0a8eb35e5ca14b3d6f28e4abf2f128dbab231a58b56e89beb5d636115001e16560405160405180910390a250565b61490381600261529d90919063ffffffff16565b8073ffffffffffffffffffffffffffffffffffffffff167fcd265ebaf09df2871cc7bd4133404a235ba12eff2041bb89d9c714a2621c7c7e60405160405180910390a250565b61495d81600461535a90919063ffffffff16565b8073ffffffffffffffffffffffffffffffffffffffff167f22380c05984257a1cb900161c713dd71d39e74820f1aea43bd3f1bdd2096129960405160405180910390a250565b6149b781600261535a90919063ffffffff16565b8073ffffffffffffffffffffffffffffffffffffffff167f6719d08c1888103bea251a4ed56406bd0c3e69723c8a1686e017e7bbe159b6f860405160405180910390a250565b806011600084815260200190815260200160002081905550817ff0f729cff3741c2d483d22cff97eae75bdb666713f6a8b35daf6bd417334a72d60116000858152602001908152602001600020546064604051808381526020018281526020019250505060405180910390a25050565b806000816005811115614a7c57fe5b905060016005811115614a8b57fe5b816005811115614a9757fe5b1480614ab9575060026005811115614aab57fe5b816005811115614ab757fe5b145b80614ada575060036005811115614acc57fe5b816005811115614ad857fe5b145b80614afb575060046005811115614aed57fe5b816005811115614af957fe5b145b80614b1b5750600580811115614b0d57fe5b816005811115614b1957fe5b145b614b8d576040517f08c379a00000000000000000000000000000000000000000000000000000000081526004018080602001828103825260158152602001807f496e76616c696420666c6967687420737461747573000000000000000000000081525060200191505060405180910390fd5b6000614b9a878787614253565b9050614ba68185614e09565b50505050505050565b600d60009054906101000a900473ffffffffffffffffffffffffffffffffffffffff1673ffffffffffffffffffffffffffffffffffffffff1663ee38a74983836040518363ffffffff1660e01b8152600401808373ffffffffffffffffffffffffffffffffffffffff1673ffffffffffffffffffffffffffffffffffffffff16815260200180602001828103825283818151815260200191508051906020019080838360005b83811015614c70578082015181840152602081019050614c55565b50505050905090810190601f168015614c9d5780820380516001836020036101000a031916815260200191505b509350505050600060405180830381600087803b158015614cbd57600080fd5b505af1158015614cd1573d6000803e3d6000fd5b505050506001600e600082825401925050819055505050565b614cfe81600161529d90919063ffffffff16565b8073ffffffffffffffffffffffffffffffffffffffff167f3525e22824a8a7df2c9a6029941c824cf95b6447f1e13d5128fd3826d35afe8b60405160405180910390a250565b600080600090505b6007600085815260200190815260200160002080549050811015614dfd578273ffffffffffffffffffffffffffffffffffffffff16600760008681526020019081526020016000208281548110614d9f57fe5b9060005260206000200160009054906101000a900473ffffffffffffffffffffffffffffffffffffffff1673ffffffffffffffffffffffffffffffffffffffff161415614df0576001915050614e03565b8080600101915050614d4c565b50600090505b92915050565b6000816005811115614e1757fe5b9050600d60009054906101000a900473ffffffffffffffffffffffffffffffffffffffff1673ffffffffffffffffffffffffffffffffffffffff1663caab72c284836040518363ffffffff1660e01b815260040180838152602001826005811115614e7e57fe5b60ff16815260200192505050600060405180830381600087803b158015614ea457600080fd5b505af1158015614eb8573d6000803e3d6000fd5b505050506000601160008481526020019081526020016000205414614f9657600d60009054906101000a900473ffffffffffffffffffffffffffffffffffffffff1673ffffffffffffffffffffffffffffffffffffffff1663c7e7da89848360116000878152602001908152602001600020546040518463ffffffff1660e01b815260040180848152602001836005811115614f5057fe5b60ff1681526020018281526020019350505050600060405180830381600087803b158015614f7d57600080fd5b505af1158015614f91573d6000803e3d6000fd5b505050505b505050565b614fa433612417565b80614fb35750614fb2614312565b5b615025576040517f08c379a000000000000000000000000000000000000000000000000000000000815260040180806020018281038252601d8152602001807f43616c6c6572206973206e6f7420612066756e646564207369676e657200000081525060200191505060405180910390fd5b61502e81615435565b50565b600073ffffffffffffffffffffffffffffffffffffffff168173ffffffffffffffffffffffffffffffffffffffff1614156150b7576040517f08c379a000000000000000000000000000000000000000000000000000000000815260040180806020018281038252602681526020018061597a6026913960400191505060405180910390fd5b8073ffffffffffffffffffffffffffffffffffffffff166000809054906101000a900473ffffffffffffffffffffffffffffffffffffffff1673ffffffffffffffffffffffffffffffffffffffff167f8be0079c531659141344cd1fd0a4f28419497f9722a3daafe3b4186f6b6457e060405160405180910390a3806000806101000a81548173ffffffffffffffffffffffffffffffffffffffff021916908373ffffffffffffffffffffffffffffffffffffffff16021790555050565b600080600a905060008160ff166008600081819054906101000a900460ff168092919060010191906101000a81548160ff021916908360ff16021790555060ff1643034085604051602001808381526020018273ffffffffffffffffffffffffffffffffffffffff1673ffffffffffffffffffffffffffffffffffffffff1660601b8152601401925050506040516020818303038152906040528051906020012060001c8161522057fe5b06905060fa600860009054906101000a900460ff1660ff16111561525b576000600860006101000a81548160ff021916908360ff1602179055505b8092505050919050565b6000615272600f5461548f565b9050600560008381526020019081526020016000205481146152995761529882826154dd565b5b5050565b6152a782826147b7565b6152fc576040517f08c379a0000000000000000000000000000000000000000000000000000000008152600401808060200182810382526021815260200180615a3b6021913960400191505060405180910390fd5b60008260000160008373ffffffffffffffffffffffffffffffffffffffff1673ffffffffffffffffffffffffffffffffffffffff16815260200190815260200160002060006101000a81548160ff0219169083151502179055505050565b61536482826147b7565b156153d7576040517f08c379a000000000000000000000000000000000000000000000000000000000815260040180806020018281038252601f8152602001807f526f6c65733a206163636f756e7420616c72656164792068617320726f6c650081525060200191505060405180910390fd5b60018260000160008373ffffffffffffffffffffffffffffffffffffffff1673ffffffffffffffffffffffffffffffffffffffff16815260200190815260200160002060006101000a81548160ff0219169083151502179055505050565b61544981600161535a90919063ffffffff16565b8073ffffffffffffffffffffffffffffffffffffffff167f47d1c22a25bb3a5d4e481b9b1e6944c2eade3181a0a20b495ed61d35b5323f2460405160405180910390a250565b600080821180156154a05750600582105b156154ae57600190506154d8565b6154d560646154c760328561564c90919063ffffffff16565b6156d290919063ffffffff16565b90505b919050565b6154e633612986565b806154f657506154f533612417565b5b61554b576040517f08c379a00000000000000000000000000000000000000000000000000000000081526004018080602001828103825260258152602001806159c66025913960400191505060405180910390fd5b818160326001600654011080615562575060065481105b8061556d5750600081145b8061557a57506000600654145b6155ec576040517f08c379a000000000000000000000000000000000000000000000000000000000815260040180806020018281038252601e8152602001807f496e76616c696420726571756972656d656e7420636f6e646974696f6e73000081525060200191505060405180910390fd5b826005600086815260200190815260200160002054857ff5b03ab58a1952aac29bce6c360edbb659ac190a28a6aabbc0d3203e3e41d94360405160405180910390a482600560008681526020019081526020016000208190555050505050565b60008083141561565f57600090506156cc565b600082840290508284828161567057fe5b04146156c7576040517f08c379a0000000000000000000000000000000000000000000000000000000008152600401808060200182810382526021815260200180615a5c6021913960400191505060405180910390fd5b809150505b92915050565b6000808211615749576040517f08c379a000000000000000000000000000000000000000000000000000000000815260040180806020018281038252601a8152602001807f536166654d6174683a206469766973696f6e206279207a65726f00000000000081525060200191505060405180910390fd5b600082848161575457fe5b0490508091505092915050565b6040518060600160405280600390602082028038833980820191505090505090565b826003601f0160209004810192821561580c5791602002820160005b838211156157dd57835183826101000a81548160ff021916908360ff160217905550926020019260010160208160000104928301926001030261579f565b801561580a5782816101000a81549060ff02191690556001016020816000010492830192600103026157dd565b505b50905061581991906158a7565b5090565b828054828255906000526020600020908101928215615896579160200282015b828111156158955782518260006101000a81548173ffffffffffffffffffffffffffffffffffffffff021916908373ffffffffffffffffffffffffffffffffffffffff1602179055509160200191906001019061583d565b5b5090506158a391906158d7565b5090565b6158d491905b808211156158d057600081816101000a81549060ff0219169055506001016158ad565b5090565b90565b61591791905b8082111561591357600081816101000a81549073ffffffffffffffffffffffffffffffffffffffff0219169055506001016158dd565b5090565b9056fe466c69676874206f722074696d657374616d7020646f206e6f74206d61746368206f7261636c652072657175657374506175736572526f6c653a2063616c6c657220646f6573206e6f742068617665207468652050617573657220726f6c654f776e61626c653a206e6577206f776e657220697320746865207a65726f206164647265737341746c65617365206f6e65206d696e696d756d20726573706f6e7365206973206e65656465644d7573742062652061207369676e6572206f722077686974656c69737465642061646d696e4d617820616c6c6f7761626c6520696e737572616e63652070726963652065786365656465644f6e6c79206f776e6572206169726c696e652063616e2072656769737465722069747320666c69676874526f6c65733a206163636f756e7420646f6573206e6f74206861766520726f6c65536166654d6174683a206d756c7469706c69636174696f6e206f766572666c6f77526f6c65733a206163636f756e7420697320746865207a65726f206164647265737357686974656c69737441646d696e526f6c653a2063616c6c657220646f6573206e6f742068617665207468652057686974656c69737441646d696e20726f6c6546656520697320616c72656164792073657420746f207468652065787065637465642076616c756543616e6e6f742062757920696e737572616e6365206f6e20796f7572206f776e20666c69676874496e64657820646f6573206e6f74206d61746368206f7261636c652072657175657374a165627a7a7230582049e8f3e045b446c727076d624f99e6ca875a4aac5b4ab7a675f8c455e84e7b510029526f6c65733a206163636f756e7420646f6573206e6f74206861766520726f6c65526f6c65733a206163636f756e7420697320746865207a65726f2061646472657373",
  "source": "pragma solidity ^0.5.8;\n\n// It's important to avoid vulnerabilities due to numeric overflow bugs\n// OpenZeppelin's SafeMath library, when used correctly, protects agains such bugs\n// More info: https://www.nccgroup.trust/us/about-us/newsroom-and-events/blog/2018/november/smart-contract-insecurity-bad-arithmetic/\n\nimport \"../node_modules/openzeppelin-solidity/contracts/math/SafeMath.sol\";\nimport \"../node_modules/openzeppelin-solidity/contracts/lifecycle/Pausable.sol\";\nimport \"../node_modules/openzeppelin-solidity/contracts/ownership/Ownable.sol\";\nimport \"./IFlightSuretyData.sol\";\nimport \"./MultiSig.sol\";\nimport \"./FlightSuretyOracle.sol\";\n\n/************************************************** */\n/* FlightSurety Smart Contract                      */\n/************************************************** */\ncontract FlightSuretyApp is Ownable, Pausable, MultiSig, FlightSuretyOracle {\n    using SafeMath for uint256; // Allow SafeMath functions to be called for all uint256 types \n                                //(similar to \"prototype\" in Javascript)\n\n\n    IFlightSuretyData flightSuretyDataContract;\n    uint256 totalRegisteredAirlines;\n    uint256 totalEligibleAirlines;\n\n    uint256 private airlineMinimumFundsRequirement = 10 ether;\n\n    mapping(uint256 => uint256) private payOutParams;\n\n\n    uint256 public constant REGISTER_AIRLINE = 1;// transaction id for multi sig consesus \n    uint256 public constant SET_FLIGHT_STATUS = 2;// transaction id for multi sig consesus \n\n    /********************************************************************************************/\n    /*                                       EVENTS                                             */\n    /********************************************************************************************/\n    /* events forwarded from the data contract */\n    event AirlineRegistered(address indexed airline, string name, address indexed by);\n    event AirlineFunded(address indexed airline,uint256 value);\n    event PolicyPurchased(address indexed customer, uint256 indexed policy, uint256 flight, uint256 timestamp);\n    event FlightStatusUpdated(address indexed airline,string flight,IFlightSuretyData.FlightStatus status,uint256 policy);\n    event FlightRegistered(address indexed airline,uint256 indexed flight,string name);\n    event Payout(address indexed customer,uint256 amount);\n    event InsuranceCredit(address indexed customer,uint256 payout,uint256 policy);\n\n   /* events generated in the app contract */\n    event AirlineNotFunded(address indexed airline,uint256 value);\n    event NotRegistered(address indexed airline);\n    event PayOutTermsSet(uint256 indexed status,uint256 numerator,uint256 denominator);\n \n    /********************************************************************************************/\n    /*                                       FUNCTION MODIFIERS                                 */\n    /********************************************************************************************/\n\n\n    modifier whenFunded() {\n        require(_isFunded(),\"Caller is not funded\");\n        _;\n    }\n\n    modifier whenRegistered() {\n        // we will make exception for the first airlines getting registered\n        // otherwise we have a chicken and egg problem. \n        bool registered = flightSuretyDataContract.isAirlineRegistered(msg.sender);\n        require (registered,\"Caller is not registered\");\n        _;\n    }\n\n    // overriding base class SignerRole's modifier\n    modifier onlySigner() {\n        require(isSigner(msg.sender) || _isFunded(),\"Caller is not a funded signer\");\n        _;\n    }\n\n    modifier validFlightStatus(uint256 status) {\n        IFlightSuretyData.FlightStatus flightStatus = IFlightSuretyData.FlightStatus(status);\n        require(\n            flightStatus == IFlightSuretyData.FlightStatus.STATUS_CODE_ON_TIME ||\n            flightStatus == IFlightSuretyData.FlightStatus.STATUS_CODE_LATE_AIRLINE ||\n            flightStatus == IFlightSuretyData.FlightStatus.STATUS_CODE_LATE_WEATHER ||\n            flightStatus == IFlightSuretyData.FlightStatus.STATUS_CODE_LATE_TECHNICAL ||\n            flightStatus == IFlightSuretyData.FlightStatus.STATUS_CODE_LATE_OTHER,\n            \"Invalid flight status\"\n        );\n        _;\n    }\n\n    function _isFunded() internal returns(bool) {\n        uint256 balance = flightSuretyDataContract.getAirlineBalance(msg.sender);\n        return balance >= airlineMinimumFundsRequirement;\n    }\n\n    /********************************************************************************************/\n    /*                                       CONSTRUCTOR                                        */\n    /********************************************************************************************/\n\n    /**\n    * @dev Contract constructor.\n    */\n    constructor(address dataContract) public {\n        flightSuretyDataContract = IFlightSuretyData(dataContract);\n\n        // the base constructor of SignerRole makes the deployer \n        // signer by default. Since only a funded party can be\n        // be a signer (to be able to take part in the multi-party consesus,\n        // we must remove the deployer from a SignerRole.\n        renounceSigner();\n        // default payout 1.5 times if a flight is late due to airline's fault\n        _setPayOutParams(\n            uint256(IFlightSuretyData.FlightStatus.STATUS_CODE_LATE_AIRLINE), 150\n        );\n\n    }\n\n    /********************************************************************************************/\n    /*                                       UTILITY FUNCTIONS                                  */\n    /********************************************************************************************/\n\n    function isDataContactOperational() \n                            public \n                            view \n                            returns(bool) \n    {\n        return flightSuretyDataContract.isOperational();  \n    }\n\n    /********************************************************************************************/\n    /*                                     SMART CONTRACT FUNCTIONS                             */\n    /********************************************************************************************/\n\n    /**\n      * @dev register and fund the first airline\n      */\n    function bootstrap(string calldata name) external payable onlyOwner {\n        _registerAirline(msg.sender,name);\n        _fund(msg.sender);\n    }\n  \n   /**\n    * @dev Add an airline to the registration queue\n    *\n    */   \n    function registerAirline(address airline,string calldata name)\n                            external\n                            payable\n                            whenNotPaused\n                            whenRegistered\n                            whenFunded\n                            onlyConfirmed(REGISTER_AIRLINE)\n    {\n        _registerAirline(airline,name);\n    }\n\n    function _registerAirline(address airline,string memory name) internal {\n        flightSuretyDataContract.registerAirline(airline,name); \n        totalRegisteredAirlines += 1;\n        // emit AirlineRegistered(airline,msg.sender);\n    }\n\n    function fund(address airline) external payable whenNotPaused whenRegistered {\n        _fund(airline);\n    }\n\n    function _fund(address airline) internal {\n        uint256 balance = flightSuretyDataContract.fund.value(msg.value)(airline);\n        if (balance >= airlineMinimumFundsRequirement) {\n            // emit AirlineFunded(airline,msg.value);\n            addSigner(airline);\n            totalEligibleAirlines += 1;\n            flightSuretyDataContract.setAirlineFundingStatus(airline,true);\n            _updateRegistrationRequirements(REGISTER_AIRLINE);\n        } else {\n            emit AirlineNotFunded(airline,msg.value);\n        }\n    }\n\n\n    function _updateRegistrationRequirements(uint256 tid) internal {\n        uint256 newRequirements = _calculateRequirements(totalEligibleAirlines);\n        if (newRequirements != required[tid]) {\n            changeRequirements(tid,newRequirements);\n        }\n    }\n\n    function _calculateRequirements(uint256 eligible) internal pure returns(uint256) {\n       if (eligible > 0 && eligible < 5) {\n           return 1;\n       } else {\n            return(eligible.mul(50).div(100));\n       }\n    }\n\n\n    modifier onlyOwnerAirline(address airline) {\n        require(msg.sender == airline,\"Only owner airline can register its flight\");\n        _;\n    }\n\n   /**\n    * @dev Register a future flight for insuring.\n    * flight must belong to one of the registered airlines.\n    */  \n    function registerFlight(\n        address airline,\n        string calldata flightName\n    ) \n        external\n        whenNotPaused\n        onlyOwnerAirline(airline)\n        onlySigner\n    {\n        uint256 key = uint256(keccak256(abi.encodePacked(flightName)));\n        address airlineForFlight = flightSuretyDataContract.getAirline(key);\n\n        // check for flight names collusion. \n        // should not happen if all flight names are prefixed with the flight name (e.g. UA256)\n        require(airlineForFlight == address(0x0),\"Airline is already registered\");\n\n        flightSuretyDataContract.registerFlight(airline,flightName,key);\n    }\n\n    function buy(\n        string calldata flight,\n        uint256 timestamp\n    )\n        external\n        payable \n        whenNotPaused\n    {\n        //TODO: make max price configurable.\n        require(msg.value <= 1 ether,\"Max allowable insurance price exceeded\"); \n        uint256 flightKey = getFlightKey(flight);\n        address airline = flightSuretyDataContract.getAirline(flightKey);\n        require(airline != address(0x0),\"Unregistered flight\");\n        require(airline != msg.sender,\"Cannot buy insurance on your own flight\");\n        address customer = msg.sender;\n\n        uint256 policyKey = getPolicyKey(airline,flight,timestamp);\n        flightSuretyDataContract.buy.value(msg.value)(customer,policyKey,flightKey,timestamp);\n    }\n\n\n    /**\n     *  @dev Transfers eligible payout funds to insuree\n     *\n    */\n    function pay() external payable whenNotPaused {\n        require(msg.sender == tx.origin,\"Only EOAs can receive payout.\");\n        flightSuretyDataContract.pay(msg.sender);\n    }\n\n    function getFlightKey(string memory flight) pure internal returns(uint256) {\n        return uint256(keccak256(abi.encodePacked(flight)));\n    }\n    \n    function getPolicyKey(\n        address airline,\n        string memory flight,\n        uint256 timestamp\n    )\n        pure\n        internal\n        returns(uint256) \n    {\n        return uint256(keccak256(abi.encodePacked(airline, flight, timestamp)));\n    }\n   /**\n    * @dev Called after oracle has updated flight status\n    *\n    */  \n\n\n    function processFlightStatus(\n        address airline,\n        string memory flight,\n        uint256 timestamp,\n        uint256 statusCode\n    ) \n        internal\n        validFlightStatus(statusCode)\n    {\n        uint256 policyKey = getPolicyKey(airline,flight,timestamp);\n        _setFlightStatus(policyKey,statusCode);\n    }\n\n    /**\n      * @dev the only difference between this function and the \n      *      processFlightStatus is that this method can be called by \n      *      the airline to override flight status or in lieu of oracle responses if needed.\n      *      Requires same multi-party consensus as registering airlines\n      */\n\n    function setFlightStatus(\n        address airline,\n        string calldata flight,\n        uint256 timestamp,\n        uint256 statusCode\n    ) \n        external \n        whenNotPaused \n        validFlightStatus(statusCode)\n        onlyConfirmed(SET_FLIGHT_STATUS)\n    {\n        uint256 policyKey = getPolicyKey(airline,flight,timestamp);\n        _setFlightStatus(policyKey,statusCode);\n    }\n\n\n    function _setFlightStatus(uint256 policy,uint256 status) internal {\n        IFlightSuretyData.FlightStatus flightStatus = IFlightSuretyData.FlightStatus(status);\n        flightSuretyDataContract.setFlightStatus(policy,flightStatus);\n        if (payOutParams[status] != 0)  {\n            flightSuretyDataContract.creditInsurees(\n                policy,\n                flightStatus,\n                payOutParams[status]\n            );\n        }\n    }\n\n\n\n\n\n    /**\n      * @dev sets the minimum amount funds required to take part in the \n      * contract.\n      * TODO: make it require multi-party consensus\n      */\n    function setAirlineMinimumFunds(uint256 minFund) external whenNotPaused onlyWhitelistAdmin  {\n        airlineMinimumFundsRequirement = minFund;\n    }\n\n\n    function setPayOutParams(\n        uint256 status, \n        uint256 payOutMultiple\n    ) \n        external\n        whenNotPaused\n        onlyWhitelistAdmin\n        validFlightStatus(status)\n    {\n        _setPayOutParams(status,payOutMultiple);\n    }\n\n    function _setPayOutParams(uint256 status, uint256 payOutMultiple) internal {\n        payOutParams[status] = payOutMultiple;\n        emit PayOutTermsSet(status,payOutParams[status],100);\n\n    }\n\n\n    /**\n    * @dev Fallback function for funding smart contract.\n    *\n    */\n    function() external payable {\n        require(msg.data.length == 0,\"payload not allowed\");\n    }\n\n}   \n",
  "sourcePath": "/Users/dkhroad/Work/blockchain_dev/flight-delay-insurance/contracts/FlightSuretyApp.sol",
  "compiler": {
    "name": "solc",
    "version": "0.5.8+commit.23d335f2.Emscripten.clang"
  },
  "schemaVersion": "3.0.16",
  "updatedAt": "2019-09-25T20:05:38.802Z",
  "devdoc": {
    "methods": {
      "bootstrap(string)": {
        "details": "register and fund the first airline"
      },
      "constructor": {
        "details": "Contract constructor."
      },
      "isOwner()": {
        "details": "Returns true if the caller is the current owner."
      },
      "owner()": {
        "details": "Returns the address of the current owner."
      },
      "pause()": {
        "details": "Called by a pauser to pause, triggers stopped state."
      },
      "paused()": {
        "details": "Returns true if the contract is paused, and false otherwise."
      },
      "pay()": {
        "details": "Transfers eligible payout funds to insuree    "
      },
      "registerAirline(address,string)": {
        "details": "Add an airline to the registration queue    "
      },
      "registerFlight(address,string)": {
        "details": "Register a future flight for insuring. flight must belong to one of the registered airlines."
      },
      "renounceOwnership()": {
        "details": "Leaves the contract without owner. It will not be possible to call `onlyOwner` functions anymore. Can only be called by the current owner.     * > Note: Renouncing ownership will leave the contract without an owner, thereby removing any functionality that is only available to the owner."
      },
      "setAirlineMinimumFunds(uint256)": {
        "details": "sets the minimum amount funds required to take part in the  contract. TODO: make it require multi-party consensus"
      },
      "setFlightStatus(address,string,uint256,uint256)": {
        "details": "the only difference between this function and the      processFlightStatus is that this method can be called by      the airline to override flight status or in lieu of oracle responses if needed.     Requires same multi-party consensus as registering airlines"
      },
      "transferOwnership(address)": {
        "details": "Transfers ownership of the contract to a new account (`newOwner`). Can only be called by the current owner."
      },
      "unpause()": {
        "details": "Called by a pauser to unpause, returns to normal state."
      }
    }
  },
  "userdoc": {
    "methods": {
      "isDataContactOperational()": {
        "notice": "*****************************************************************************************"
      }
    },
    "notice": "************************************************ "
  }
}