{
  "contractName": "MultiPartyConsensusMock",
  "abi": [
    {
      "constant": true,
      "inputs": [
        {
          "name": "",
          "type": "uint256"
        }
      ],
      "name": "required",
      "outputs": [
        {
          "name": "",
          "type": "uint256"
        }
      ],
      "payable": false,
      "stateMutability": "view",
      "type": "function"
    },
    {
      "constant": true,
      "inputs": [],
      "name": "status",
      "outputs": [
        {
          "name": "",
          "type": "bool"
        }
      ],
      "payable": false,
      "stateMutability": "view",
      "type": "function"
    },
    {
      "constant": false,
      "inputs": [],
      "name": "renounceWhitelistAdmin",
      "outputs": [],
      "payable": false,
      "stateMutability": "nonpayable",
      "type": "function"
    },
    {
      "constant": true,
      "inputs": [],
      "name": "MAX_SIGNER_COUNT",
      "outputs": [
        {
          "name": "",
          "type": "uint256"
        }
      ],
      "payable": false,
      "stateMutability": "view",
      "type": "function"
    },
    {
      "constant": false,
      "inputs": [
        {
          "name": "account",
          "type": "address"
        }
      ],
      "name": "addWhitelistAdmin",
      "outputs": [],
      "payable": false,
      "stateMutability": "nonpayable",
      "type": "function"
    },
    {
      "constant": true,
      "inputs": [
        {
          "name": "account",
          "type": "address"
        }
      ],
      "name": "isSigner",
      "outputs": [
        {
          "name": "",
          "type": "bool"
        }
      ],
      "payable": false,
      "stateMutability": "view",
      "type": "function"
    },
    {
      "constant": true,
      "inputs": [
        {
          "name": "account",
          "type": "address"
        }
      ],
      "name": "isWhitelistAdmin",
      "outputs": [
        {
          "name": "",
          "type": "bool"
        }
      ],
      "payable": false,
      "stateMutability": "view",
      "type": "function"
    },
    {
      "constant": true,
      "inputs": [
        {
          "name": "transactionId",
          "type": "uint256"
        }
      ],
      "name": "getConfirmationsCount",
      "outputs": [
        {
          "name": "r",
          "type": "uint256"
        },
        {
          "name": "c",
          "type": "uint256"
        }
      ],
      "payable": false,
      "stateMutability": "view",
      "type": "function"
    },
    {
      "constant": true,
      "inputs": [],
      "name": "totalSigners",
      "outputs": [
        {
          "name": "",
          "type": "uint256"
        }
      ],
      "payable": false,
      "stateMutability": "view",
      "type": "function"
    },
    {
      "constant": true,
      "inputs": [
        {
          "name": "",
          "type": "uint256"
        },
        {
          "name": "",
          "type": "uint256"
        }
      ],
      "name": "confirmations",
      "outputs": [
        {
          "name": "",
          "type": "address"
        }
      ],
      "payable": false,
      "stateMutability": "view",
      "type": "function"
    },
    {
      "constant": false,
      "inputs": [],
      "name": "renounceSigner",
      "outputs": [],
      "payable": false,
      "stateMutability": "nonpayable",
      "type": "function"
    },
    {
      "constant": false,
      "inputs": [
        {
          "name": "signer",
          "type": "address"
        }
      ],
      "name": "addSigner",
      "outputs": [],
      "payable": false,
      "stateMutability": "nonpayable",
      "type": "function"
    },
    {
      "inputs": [],
      "payable": false,
      "stateMutability": "nonpayable",
      "type": "constructor"
    },
    {
      "anonymous": false,
      "inputs": [
        {
          "indexed": true,
          "name": "transactionId",
          "type": "uint256"
        },
        {
          "indexed": true,
          "name": "signer",
          "type": "address"
        }
      ],
      "name": "Submitted",
      "type": "event"
    },
    {
      "anonymous": false,
      "inputs": [
        {
          "indexed": true,
          "name": "transactionId",
          "type": "uint256"
        },
        {
          "indexed": true,
          "name": "signer",
          "type": "address"
        }
      ],
      "name": "Confirmed",
      "type": "event"
    },
    {
      "anonymous": false,
      "inputs": [
        {
          "indexed": true,
          "name": "transactionId",
          "type": "uint256"
        },
        {
          "indexed": true,
          "name": "signer",
          "type": "address"
        }
      ],
      "name": "Executed",
      "type": "event"
    },
    {
      "anonymous": false,
      "inputs": [
        {
          "indexed": true,
          "name": "transactionId",
          "type": "uint256"
        },
        {
          "indexed": true,
          "name": "old",
          "type": "uint256"
        },
        {
          "indexed": true,
          "name": "current",
          "type": "uint256"
        }
      ],
      "name": "RequirementChanged",
      "type": "event"
    },
    {
      "anonymous": false,
      "inputs": [
        {
          "indexed": true,
          "name": "account",
          "type": "address"
        }
      ],
      "name": "WhitelistAdminAdded",
      "type": "event"
    },
    {
      "anonymous": false,
      "inputs": [
        {
          "indexed": true,
          "name": "account",
          "type": "address"
        }
      ],
      "name": "WhitelistAdminRemoved",
      "type": "event"
    },
    {
      "anonymous": false,
      "inputs": [
        {
          "indexed": true,
          "name": "account",
          "type": "address"
        }
      ],
      "name": "SignerAdded",
      "type": "event"
    },
    {
      "anonymous": false,
      "inputs": [
        {
          "indexed": true,
          "name": "account",
          "type": "address"
        }
      ],
      "name": "SignerRemoved",
      "type": "event"
    },
    {
      "constant": false,
      "inputs": [
        {
          "name": "tid",
          "type": "uint256"
        },
        {
          "name": "requirement",
          "type": "uint256"
        }
      ],
      "name": "changeRequirement",
      "outputs": [],
      "payable": false,
      "stateMutability": "nonpayable",
      "type": "function"
    },
    {
      "constant": false,
      "inputs": [
        {
          "name": "mode",
          "type": "bool"
        }
      ],
      "name": "setStatus",
      "outputs": [],
      "payable": false,
      "stateMutability": "nonpayable",
      "type": "function"
    }
  ],
  "bytecode": "0x60806040526001600560006101000a81548160ff0219169083151502179055503480156200002c57600080fd5b506200003e336200005560201b60201c565b6200004f33620000b660201b60201c565b620002db565b620000708160006200011760201b62000f1c1790919060201c565b8073ffffffffffffffffffffffffffffffffffffffff167f47d1c22a25bb3a5d4e481b9b1e6944c2eade3181a0a20b495ed61d35b5323f2460405160405180910390a250565b620000d18160016200011760201b62000f1c1790919060201c565b8073ffffffffffffffffffffffffffffffffffffffff167f22380c05984257a1cb900161c713dd71d39e74820f1aea43bd3f1bdd2096129960405160405180910390a250565b620001298282620001fb60201b60201c565b156200019d576040517f08c379a000000000000000000000000000000000000000000000000000000000815260040180806020018281038252601f8152602001807f526f6c65733a206163636f756e7420616c72656164792068617320726f6c650081525060200191505060405180910390fd5b60018260000160008373ffffffffffffffffffffffffffffffffffffffff1673ffffffffffffffffffffffffffffffffffffffff16815260200190815260200160002060006101000a81548160ff0219169083151502179055505050565b60008073ffffffffffffffffffffffffffffffffffffffff168273ffffffffffffffffffffffffffffffffffffffff16141562000284576040517f08c379a00000000000000000000000000000000000000000000000000000000081526004018080602001828103825260228152602001806200150d6022913960400191505060405180910390fd5b8260000160008373ffffffffffffffffffffffffffffffffffffffff1673ffffffffffffffffffffffffffffffffffffffff16815260200190815260200160002060009054906101000a900460ff16905092915050565b61122280620002eb6000396000f3fe608060405234801561001057600080fd5b50600436106100ea5760003560e01c80637df73e271161008c578063d1a6264811610066578063d1a6264814610328578063d4c3fd8214610346578063e5c8b03d146103be578063eb12d61e146103c8576100ea565b80637df73e2714610227578063bb5f747b14610283578063bce800e5146102df576100ea565b80634c5a628c116100c85780634c5a628c1461018b5780635c40f6f41461019557806362dfa1be146101c55780637362d9c8146101e3576100ea565b806316ce5d54146100ef5780631b73f83014610127578063200d2ed214610169575b600080fd5b6101256004803603604081101561010557600080fd5b81019080803590602001909291908035906020019092919050505061040c565b005b6101536004803603602081101561013d57600080fd5b8101908080359060200190929190505050610478565b6040518082815260200191505060405180910390f35b610171610490565b604051808215151515815260200191505060405180910390f35b6101936104a3565b005b6101c3600480360360208110156101ab57600080fd5b810190808035151590602001909291905050506104ae565b005b6101cd610823565b6040518082815260200191505060405180910390f35b610225600480360360208110156101f957600080fd5b81019080803573ffffffffffffffffffffffffffffffffffffffff169060200190929190505050610828565b005b6102696004803603602081101561023d57600080fd5b81019080803573ffffffffffffffffffffffffffffffffffffffff169060200190929190505050610892565b604051808215151515815260200191505060405180910390f35b6102c56004803603602081101561029957600080fd5b81019080803573ffffffffffffffffffffffffffffffffffffffff1690602001909291905050506108af565b604051808215151515815260200191505060405180910390f35b61030b600480360360208110156102f557600080fd5b81019080803590602001909291905050506108cc565b604051808381526020018281526020019250505060405180910390f35b610330610903565b6040518082815260200191505060405180910390f35b61037c6004803603604081101561035c57600080fd5b810190808035906020019092919080359060200190929190505050610909565b604051808273ffffffffffffffffffffffffffffffffffffffff1673ffffffffffffffffffffffffffffffffffffffff16815260200191505060405180910390f35b6103c6610954565b005b61040a600480360360208110156103de57600080fd5b81019080803573ffffffffffffffffffffffffffffffffffffffff16906020019092919050505061095f565b005b61041533610892565b61046a576040517f08c379a00000000000000000000000000000000000000000000000000000000081526004018080602001828103825260308152602001806111c76030913960400191505060405180910390fd5b61047482826109d5565b5050565b60026020528060005260406000206000915090505481565b600560009054906101000a900460ff1681565b6104ac33610b44565b565b6104b733610892565b61050c576040517f08c379a00000000000000000000000000000000000000000000000000000000081526004018080602001828103825260308152602001806111c76030913960400191505060405180910390fd5b60016105188133610b9e565b1561058b576040517f08c379a00000000000000000000000000000000000000000000000000000000081526004018080602001828103825260188152602001807f43616c6c657220616c726561647920636f6e6669726d6564000000000000000081525060200191505060405180910390fd5b600460008281526020019081526020016000203390806001815401808255809150509060018203906000526020600020016000909192909190916101000a81548173ffffffffffffffffffffffffffffffffffffffff021916908373ffffffffffffffffffffffffffffffffffffffff1602179055505060016004600083815260200190815260200160002080549050141561066a573373ffffffffffffffffffffffffffffffffffffffff16817fa1a7fb1df88af97284790f533c84a4284660c23f7631de9a03a258de840e4c1560405160405180910390a36106af565b3373ffffffffffffffffffffffffffffffffffffffff16817f6f220d98c15dbd07fdc24781b682ea34f92411fc61b83c761dd927afbe02d3fd60405160405180910390a35b600260008281526020019081526020016000205460046000838152602001908152602001600020805490501061081f573373ffffffffffffffffffffffffffffffffffffffff16817f7271f8b3d48d26ccc839c0f424fe9e12fe4e058108b58c096c078659c7fbadf660405160405180910390a3600560009054906101000a900460ff16151582151514156107ac576040517f08c379a000000000000000000000000000000000000000000000000000000000815260040180806020018281038252600d8152602001807f696e76616c696465206d6f64650000000000000000000000000000000000000081525060200191505060405180910390fd5b81600560006101000a81548160ff02191690831515021790555060006040519080825280602002602001820160405280156107f65781602001602082028038833980820191505090505b5060046000838152602001908152602001600020908051906020019061081d929190611051565b505b5050565b603281565b610831336108af565b610886576040517f08c379a00000000000000000000000000000000000000000000000000000000081526004018080602001828103825260408152602001806111876040913960400191505060405180910390fd5b61088f81610c63565b50565b60006108a8826000610cbd90919063ffffffff16565b9050919050565b60006108c5826001610cbd90919063ffffffff16565b9050919050565b6000806002600084815260200190815260200160002054915060046000848152602001908152602001600020805490509050915091565b60035481565b6004602052816000526040600020818154811061092257fe5b906000526020600020016000915091509054906101000a900473ffffffffffffffffffffffffffffffffffffffff1681565b61095d33610d9b565b565b61096833610892565b6109bd576040517f08c379a00000000000000000000000000000000000000000000000000000000081526004018080602001828103825260308152602001806111c76030913960400191505060405180910390fd5b6109c681610df5565b60016003540160038190555050565b6109de336108af565b806109ee57506109ed33610892565b5b610a43576040517f08c379a000000000000000000000000000000000000000000000000000000000815260040180806020018281038252602581526020018061111f6025913960400191505060405180910390fd5b818160326001600354011080610a5a575060035481105b80610a655750600081145b80610a7257506000600354145b610ae4576040517f08c379a000000000000000000000000000000000000000000000000000000000815260040180806020018281038252601e8152602001807f496e76616c696420726571756972656d656e7420636f6e646974696f6e73000081525060200191505060405180910390fd5b826002600086815260200190815260200160002054857ff5b03ab58a1952aac29bce6c360edbb659ac190a28a6aabbc0d3203e3e41d94360405160405180910390a482600260008681526020019081526020016000208190555050505050565b610b58816001610e5f90919063ffffffff16565b8073ffffffffffffffffffffffffffffffffffffffff167f0a8eb35e5ca14b3d6f28e4abf2f128dbab231a58b56e89beb5d636115001e16560405160405180910390a250565b600080600090505b6004600085815260200190815260200160002080549050811015610c57578273ffffffffffffffffffffffffffffffffffffffff16600460008681526020019081526020016000208281548110610bf957fe5b9060005260206000200160009054906101000a900473ffffffffffffffffffffffffffffffffffffffff1673ffffffffffffffffffffffffffffffffffffffff161415610c4a576001915050610c5d565b8080600101915050610ba6565b50600090505b92915050565b610c77816001610f1c90919063ffffffff16565b8073ffffffffffffffffffffffffffffffffffffffff167f22380c05984257a1cb900161c713dd71d39e74820f1aea43bd3f1bdd2096129960405160405180910390a250565b60008073ffffffffffffffffffffffffffffffffffffffff168273ffffffffffffffffffffffffffffffffffffffff161415610d44576040517f08c379a00000000000000000000000000000000000000000000000000000000081526004018080602001828103825260228152602001806111656022913960400191505060405180910390fd5b8260000160008373ffffffffffffffffffffffffffffffffffffffff1673ffffffffffffffffffffffffffffffffffffffff16815260200190815260200160002060009054906101000a900460ff16905092915050565b610daf816000610e5f90919063ffffffff16565b8073ffffffffffffffffffffffffffffffffffffffff167f3525e22824a8a7df2c9a6029941c824cf95b6447f1e13d5128fd3826d35afe8b60405160405180910390a250565b610dfe33610892565b610e53576040517f08c379a00000000000000000000000000000000000000000000000000000000081526004018080602001828103825260308152602001806111c76030913960400191505060405180910390fd5b610e5c81610ff7565b50565b610e698282610cbd565b610ebe576040517f08c379a00000000000000000000000000000000000000000000000000000000081526004018080602001828103825260218152602001806111446021913960400191505060405180910390fd5b60008260000160008373ffffffffffffffffffffffffffffffffffffffff1673ffffffffffffffffffffffffffffffffffffffff16815260200190815260200160002060006101000a81548160ff0219169083151502179055505050565b610f268282610cbd565b15610f99576040517f08c379a000000000000000000000000000000000000000000000000000000000815260040180806020018281038252601f8152602001807f526f6c65733a206163636f756e7420616c72656164792068617320726f6c650081525060200191505060405180910390fd5b60018260000160008373ffffffffffffffffffffffffffffffffffffffff1673ffffffffffffffffffffffffffffffffffffffff16815260200190815260200160002060006101000a81548160ff0219169083151502179055505050565b61100b816000610f1c90919063ffffffff16565b8073ffffffffffffffffffffffffffffffffffffffff167f47d1c22a25bb3a5d4e481b9b1e6944c2eade3181a0a20b495ed61d35b5323f2460405160405180910390a250565b8280548282559060005260206000209081019282156110ca579160200282015b828111156110c95782518260006101000a81548173ffffffffffffffffffffffffffffffffffffffff021916908373ffffffffffffffffffffffffffffffffffffffff16021790555091602001919060010190611071565b5b5090506110d791906110db565b5090565b61111b91905b8082111561111757600081816101000a81549073ffffffffffffffffffffffffffffffffffffffff0219169055506001016110e1565b5090565b9056fe4d7573742062652061207369676e6572206f722077686974656c69737465642061646d696e526f6c65733a206163636f756e7420646f6573206e6f74206861766520726f6c65526f6c65733a206163636f756e7420697320746865207a65726f206164647265737357686974656c69737441646d696e526f6c653a2063616c6c657220646f6573206e6f742068617665207468652057686974656c69737441646d696e20726f6c655369676e6572526f6c653a2063616c6c657220646f6573206e6f74206861766520746865205369676e657220726f6c65a165627a7a72305820d94799c0595184693ca2dbc2abd4248ba3fd22753a8d7b35d8307f96ef5995f90029526f6c65733a206163636f756e7420697320746865207a65726f2061646472657373",
  "source": "pragma solidity ^0.5.8;\n\nimport \"../MultiSig.sol\";\n\ncontract MultiPartyConsensusMock is MultiSig {\n\n\n    bool public status = true;\n\n\n    constructor() public {\n    }\n\n    function changeRequirement(uint256 tid, uint256 requirement) external onlySigner {\n        changeRequirements(tid,requirement);\n    }\n    function setStatus(bool mode) external onlySigner onlyConfirmed(1) {\n        require(mode != status,\"invalide mode\");\n        status = mode;\n    }\n}\n",
  "sourcePath": "/Users/dkhroad/Work/blockchain_dev/flight-delay-insurance/contracts/mocks/MultiPartyConsensusMock.sol",
  "compiler": {
    "name": "solc",
    "version": "0.5.8+commit.23d335f2.Emscripten.clang"
  },
  "schemaVersion": "3.0.16",
  "updatedAt": "2019-10-03T05:50:39.960Z",
  "devdoc": {
    "methods": {}
  },
  "userdoc": {
    "methods": {}
  }
}